{
	"1_TrueCoinflipETH_flat.sol": {
		"TrueCoinflip": {
			"abi": [
				{
					"inputs": [],
					"stateMutability": "payable",
					"type": "constructor"
				},
				{
					"inputs": [
						{
							"internalType": "address",
							"name": "have",
							"type": "address"
						},
						{
							"internalType": "address",
							"name": "want",
							"type": "address"
						}
					],
					"name": "OnlyCoordinatorCanFulfill",
					"type": "error"
				},
				{
					"anonymous": false,
					"inputs": [
						{
							"indexed": true,
							"internalType": "uint256",
							"name": "betId",
							"type": "uint256"
						},
						{
							"indexed": true,
							"internalType": "address",
							"name": "gambler",
							"type": "address"
						},
						{
							"indexed": false,
							"internalType": "uint256",
							"name": "amount",
							"type": "uint256"
						}
					],
					"name": "BetPlaced",
					"type": "event"
				},
				{
					"anonymous": false,
					"inputs": [
						{
							"indexed": true,
							"internalType": "uint256",
							"name": "betId",
							"type": "uint256"
						},
						{
							"indexed": true,
							"internalType": "address",
							"name": "gambler",
							"type": "address"
						},
						{
							"indexed": false,
							"internalType": "uint256",
							"name": "amount",
							"type": "uint256"
						}
					],
					"name": "BetRefunded",
					"type": "event"
				},
				{
					"anonymous": false,
					"inputs": [
						{
							"indexed": true,
							"internalType": "uint256",
							"name": "betId",
							"type": "uint256"
						},
						{
							"indexed": true,
							"internalType": "address",
							"name": "gambler",
							"type": "address"
						},
						{
							"indexed": false,
							"internalType": "uint256",
							"name": "amount",
							"type": "uint256"
						},
						{
							"indexed": false,
							"internalType": "uint256",
							"name": "outcome",
							"type": "uint256"
						},
						{
							"indexed": false,
							"internalType": "uint256",
							"name": "winAmount",
							"type": "uint256"
						}
					],
					"name": "BetSettled",
					"type": "event"
				},
				{
					"anonymous": false,
					"inputs": [
						{
							"indexed": true,
							"internalType": "address",
							"name": "from",
							"type": "address"
						},
						{
							"indexed": true,
							"internalType": "address",
							"name": "to",
							"type": "address"
						}
					],
					"name": "OwnershipTransferRequested",
					"type": "event"
				},
				{
					"anonymous": false,
					"inputs": [
						{
							"indexed": true,
							"internalType": "address",
							"name": "from",
							"type": "address"
						},
						{
							"indexed": true,
							"internalType": "address",
							"name": "to",
							"type": "address"
						}
					],
					"name": "OwnershipTransferred",
					"type": "event"
				},
				{
					"anonymous": false,
					"inputs": [
						{
							"indexed": false,
							"internalType": "uint256",
							"name": "requestId",
							"type": "uint256"
						},
						{
							"indexed": false,
							"internalType": "uint256[]",
							"name": "randomWords",
							"type": "uint256[]"
						}
					],
					"name": "RequestFulfilled",
					"type": "event"
				},
				{
					"anonymous": false,
					"inputs": [
						{
							"indexed": false,
							"internalType": "uint256",
							"name": "requestId",
							"type": "uint256"
						},
						{
							"indexed": false,
							"internalType": "uint32",
							"name": "numWords",
							"type": "uint32"
						}
					],
					"name": "RequestSent",
					"type": "event"
				},
				{
					"stateMutability": "payable",
					"type": "fallback"
				},
				{
					"inputs": [],
					"name": "acceptOwnership",
					"outputs": [],
					"stateMutability": "nonpayable",
					"type": "function"
				},
				{
					"inputs": [],
					"name": "balance",
					"outputs": [
						{
							"internalType": "uint256",
							"name": "",
							"type": "uint256"
						}
					],
					"stateMutability": "view",
					"type": "function"
				},
				{
					"inputs": [],
					"name": "balanceMaxProfitRatio",
					"outputs": [
						{
							"internalType": "uint256",
							"name": "",
							"type": "uint256"
						}
					],
					"stateMutability": "view",
					"type": "function"
				},
				{
					"inputs": [
						{
							"internalType": "address",
							"name": "_token",
							"type": "address"
						}
					],
					"name": "balanceToken",
					"outputs": [
						{
							"internalType": "uint256",
							"name": "",
							"type": "uint256"
						}
					],
					"stateMutability": "view",
					"type": "function"
				},
				{
					"inputs": [
						{
							"internalType": "uint256",
							"name": "",
							"type": "uint256"
						}
					],
					"name": "betMap",
					"outputs": [
						{
							"internalType": "uint256",
							"name": "",
							"type": "uint256"
						}
					],
					"stateMutability": "view",
					"type": "function"
				},
				{
					"inputs": [
						{
							"internalType": "uint256",
							"name": "",
							"type": "uint256"
						}
					],
					"name": "bets",
					"outputs": [
						{
							"internalType": "uint256",
							"name": "amount",
							"type": "uint256"
						},
						{
							"internalType": "uint256",
							"name": "placeBlockNumber",
							"type": "uint256"
						},
						{
							"internalType": "address payable",
							"name": "gambler",
							"type": "address"
						},
						{
							"internalType": "bool",
							"name": "isSettled",
							"type": "bool"
						},
						{
							"internalType": "uint256",
							"name": "outcome",
							"type": "uint256"
						},
						{
							"internalType": "uint256",
							"name": "winAmount",
							"type": "uint256"
						}
					],
					"stateMutability": "view",
					"type": "function"
				},
				{
					"inputs": [],
					"name": "betsLength",
					"outputs": [
						{
							"internalType": "uint256",
							"name": "",
							"type": "uint256"
						}
					],
					"stateMutability": "view",
					"type": "function"
				},
				{
					"inputs": [],
					"name": "callbackGasLimit",
					"outputs": [
						{
							"internalType": "uint32",
							"name": "",
							"type": "uint32"
						}
					],
					"stateMutability": "view",
					"type": "function"
				},
				{
					"inputs": [
						{
							"internalType": "uint256",
							"name": "_requestId",
							"type": "uint256"
						}
					],
					"name": "getRequestStatus",
					"outputs": [
						{
							"internalType": "bool",
							"name": "fulfilled",
							"type": "bool"
						},
						{
							"internalType": "uint256",
							"name": "randomness",
							"type": "uint256"
						},
						{
							"internalType": "uint256[]",
							"name": "randomWords",
							"type": "uint256[]"
						}
					],
					"stateMutability": "view",
					"type": "function"
				},
				{
					"inputs": [],
					"name": "houseEdgeBP",
					"outputs": [
						{
							"internalType": "uint256",
							"name": "",
							"type": "uint256"
						}
					],
					"stateMutability": "view",
					"type": "function"
				},
				{
					"inputs": [],
					"name": "houseProfit",
					"outputs": [
						{
							"internalType": "int256",
							"name": "",
							"type": "int256"
						}
					],
					"stateMutability": "view",
					"type": "function"
				},
				{
					"inputs": [],
					"name": "lockedInBets",
					"outputs": [
						{
							"internalType": "uint256",
							"name": "",
							"type": "uint256"
						}
					],
					"stateMutability": "view",
					"type": "function"
				},
				{
					"inputs": [],
					"name": "maxBetAmount",
					"outputs": [
						{
							"internalType": "uint256",
							"name": "",
							"type": "uint256"
						}
					],
					"stateMutability": "view",
					"type": "function"
				},
				{
					"inputs": [],
					"name": "maxProfit",
					"outputs": [
						{
							"internalType": "uint256",
							"name": "",
							"type": "uint256"
						}
					],
					"stateMutability": "view",
					"type": "function"
				},
				{
					"inputs": [],
					"name": "minBetAmount",
					"outputs": [
						{
							"internalType": "uint256",
							"name": "",
							"type": "uint256"
						}
					],
					"stateMutability": "view",
					"type": "function"
				},
				{
					"inputs": [],
					"name": "owner",
					"outputs": [
						{
							"internalType": "address",
							"name": "",
							"type": "address"
						}
					],
					"stateMutability": "view",
					"type": "function"
				},
				{
					"inputs": [],
					"name": "placeBet",
					"outputs": [],
					"stateMutability": "payable",
					"type": "function"
				},
				{
					"inputs": [
						{
							"internalType": "uint256",
							"name": "requestId",
							"type": "uint256"
						},
						{
							"internalType": "uint256[]",
							"name": "randomWords",
							"type": "uint256[]"
						}
					],
					"name": "rawFulfillRandomWords",
					"outputs": [],
					"stateMutability": "nonpayable",
					"type": "function"
				},
				{
					"inputs": [
						{
							"internalType": "uint256",
							"name": "betId",
							"type": "uint256"
						}
					],
					"name": "refundBet",
					"outputs": [],
					"stateMutability": "nonpayable",
					"type": "function"
				},
				{
					"inputs": [
						{
							"internalType": "uint256",
							"name": "",
							"type": "uint256"
						}
					],
					"name": "requestIds",
					"outputs": [
						{
							"internalType": "uint256",
							"name": "",
							"type": "uint256"
						}
					],
					"stateMutability": "view",
					"type": "function"
				},
				{
					"inputs": [],
					"name": "requestRandomWords",
					"outputs": [
						{
							"internalType": "uint256",
							"name": "requestId",
							"type": "uint256"
						}
					],
					"stateMutability": "nonpayable",
					"type": "function"
				},
				{
					"inputs": [
						{
							"internalType": "uint256",
							"name": "",
							"type": "uint256"
						}
					],
					"name": "s_requests",
					"outputs": [
						{
							"internalType": "bool",
							"name": "fulfilled",
							"type": "bool"
						},
						{
							"internalType": "bool",
							"name": "exists",
							"type": "bool"
						},
						{
							"internalType": "uint256",
							"name": "randomness",
							"type": "uint256"
						}
					],
					"stateMutability": "view",
					"type": "function"
				},
				{
					"inputs": [
						{
							"internalType": "uint256",
							"name": "_balanceMaxProfitRatio",
							"type": "uint256"
						}
					],
					"name": "setBalanceMaxProfitRatio",
					"outputs": [],
					"stateMutability": "nonpayable",
					"type": "function"
				},
				{
					"inputs": [
						{
							"internalType": "uint32",
							"name": "_callbackGasLimit",
							"type": "uint32"
						}
					],
					"name": "setCallbackGasLimit",
					"outputs": [],
					"stateMutability": "nonpayable",
					"type": "function"
				},
				{
					"inputs": [
						{
							"internalType": "uint256",
							"name": "_houseEdgeBP",
							"type": "uint256"
						}
					],
					"name": "setHouseEdgeBP",
					"outputs": [],
					"stateMutability": "nonpayable",
					"type": "function"
				},
				{
					"inputs": [
						{
							"internalType": "uint256",
							"name": "_maxBetAmount",
							"type": "uint256"
						}
					],
					"name": "setMaxBetAmount",
					"outputs": [],
					"stateMutability": "nonpayable",
					"type": "function"
				},
				{
					"inputs": [
						{
							"internalType": "uint256",
							"name": "_minBetAmount",
							"type": "uint256"
						}
					],
					"name": "setMinBetAmount",
					"outputs": [],
					"stateMutability": "nonpayable",
					"type": "function"
				},
				{
					"inputs": [
						{
							"internalType": "uint256",
							"name": "_waitBlockRequest",
							"type": "uint256"
						}
					],
					"name": "setwaitBlockRequest",
					"outputs": [],
					"stateMutability": "nonpayable",
					"type": "function"
				},
				{
					"inputs": [
						{
							"internalType": "address",
							"name": "to",
							"type": "address"
						}
					],
					"name": "transferOwnership",
					"outputs": [],
					"stateMutability": "nonpayable",
					"type": "function"
				},
				{
					"inputs": [],
					"name": "waitBlockRequest",
					"outputs": [
						{
							"internalType": "uint256",
							"name": "",
							"type": "uint256"
						}
					],
					"stateMutability": "view",
					"type": "function"
				},
				{
					"inputs": [
						{
							"internalType": "address payable",
							"name": "beneficiary",
							"type": "address"
						},
						{
							"internalType": "uint256",
							"name": "withdrawAmount",
							"type": "uint256"
						}
					],
					"name": "withdrawFunds",
					"outputs": [],
					"stateMutability": "nonpayable",
					"type": "function"
				},
				{
					"inputs": [
						{
							"internalType": "address",
							"name": "_token",
							"type": "address"
						}
					],
					"name": "withdrawToken",
					"outputs": [],
					"stateMutability": "nonpayable",
					"type": "function"
				},
				{
					"inputs": [],
					"name": "zSelfDestruct",
					"outputs": [],
					"stateMutability": "nonpayable",
					"type": "function"
				},
				{
					"stateMutability": "payable",
					"type": "receive"
				}
			],
			"devdoc": {
				"kind": "dev",
				"methods": {},
				"version": 1
			},
			"evm": {
				"assembly": "    /* \"1_TrueCoinflipETH_flat.sol\":37890:48997  contract TrueCoinflip is VRFConsumerBaseV2, ConfirmedOwner, ReentrancyGuard {... */\n  mstore(0x40, 0xa0)\n    /* \"1_TrueCoinflipETH_flat.sol\":38505:38571  0x79d3d8832d904592c0bf9818b621522c988bb8b0c05cdc3b15aea1b6e8db0c15 */\n  0x79d3d8832d904592c0bf9818b621522c988bb8b0c05cdc3b15aea1b6e8db0c15\n    /* \"1_TrueCoinflipETH_flat.sol\":38487:38571  bytes32 keyHash = 0x79d3d8832d904592c0bf9818b621522c988bb8b0c05cdc3b15aea1b6e8db0c15 */\n  0x00\n  shl\n  0x06\n  sstore\n    /* \"1_TrueCoinflipETH_flat.sol\":38610:38620  100000 * 2 */\n  0x030d40\n    /* \"1_TrueCoinflipETH_flat.sol\":38577:38620  uint32 public callbackGasLimit = 100000 * 2 */\n  0x07\n  exp(0x0100, 0x00)\n  dup2\n  sload\n  dup2\n  0xffffffff\n  mul\n  not\n  and\n  swap1\n  dup4\n  0xffffffff\n  and\n  mul\n  or\n  swap1\n  sstore\n  pop\n    /* \"1_TrueCoinflipETH_flat.sol\":38656:38657  3 */\n  0x03\n    /* \"1_TrueCoinflipETH_flat.sol\":38626:38657  uint16 requestConfirmations = 3 */\n  0x07\n  exp(0x0100, 0x04)\n  dup2\n  sload\n  dup2\n  0xffff\n  mul\n  not\n  and\n  swap1\n  dup4\n  0xffff\n  and\n  mul\n  or\n  swap1\n  sstore\n  pop\n    /* \"1_TrueCoinflipETH_flat.sol\":38681:38682  1 */\n  0x01\n    /* \"1_TrueCoinflipETH_flat.sol\":38663:38682  uint32 numWords = 1 */\n  0x07\n  exp(0x0100, 0x06)\n  dup2\n  sload\n  dup2\n  0xffffffff\n  mul\n  not\n  and\n  swap1\n  dup4\n  0xffffffff\n  and\n  mul\n  or\n  swap1\n  sstore\n  pop\n    /* \"1_TrueCoinflipETH_flat.sol\":39022:39025  190 */\n  0xbe\n    /* \"1_TrueCoinflipETH_flat.sol\":38996:39025  uint public houseEdgeBP = 190 */\n  0x08\n  sstore\n    /* \"1_TrueCoinflipETH_flat.sol\":39059:39060  1 */\n  0x01\n    /* \"1_TrueCoinflipETH_flat.sol\":39032:39060  uint public minBetAmount = 1 */\n  0x09\n  sstore\n    /* \"1_TrueCoinflipETH_flat.sol\":39093:39102  100 ether */\n  0x056bc75e2d63100000\n    /* \"1_TrueCoinflipETH_flat.sol\":39066:39102  uint public maxBetAmount = 100 ether */\n  0x0a\n  sstore\n    /* \"1_TrueCoinflipETH_flat.sol\":39145:39147  24 */\n  0x18\n    /* \"1_TrueCoinflipETH_flat.sol\":39109:39147  uint public balanceMaxProfitRatio = 24 */\n  0x0b\n  sstore\n    /* \"1_TrueCoinflipETH_flat.sol\":39429:39431  20 */\n  0x14\n    /* \"1_TrueCoinflipETH_flat.sol\":39398:39431  uint public waitBlockRequest = 20 */\n  0x0d\n  sstore\n    /* \"1_TrueCoinflipETH_flat.sol\":47331:47341  msg.sender */\n  caller\n    /* \"1_TrueCoinflipETH_flat.sol\":2577:2585  newOwner */\n  dup1\n    /* \"1_TrueCoinflipETH_flat.sol\":2595:2596  0 */\n  0x00\n    /* \"1_TrueCoinflipETH_flat.sol\":47272:47314  0x2Ca8E0C643bDe4C2E08ab1fA0da3401AdAD7734D */\n  0x2ca8e0c643bde4c2e08ab1fa0da3401adad7734d\n    /* \"1_TrueCoinflipETH_flat.sol\":8252:8267  _vrfCoordinator */\n  dup1\n    /* \"1_TrueCoinflipETH_flat.sol\":8235:8267  vrfCoordinator = _vrfCoordinator */\n  0xffffffffffffffffffffffffffffffffffffffff\n  and\n  0x80\n  dup2\n  0xffffffffffffffffffffffffffffffffffffffff\n  and\n  0x60\n  shl\n  dup2\n  mstore\n  pop\n  pop\n    /* \"1_TrueCoinflipETH_flat.sol\":8192:8272  constructor(address _vrfCoordinator) {... */\n  pop\n    /* \"1_TrueCoinflipETH_flat.sol\":845:846  0 */\n  0x00\n    /* \"1_TrueCoinflipETH_flat.sol\":825:847  newOwner != address(0) */\n  0xffffffffffffffffffffffffffffffffffffffff\n  and\n    /* \"1_TrueCoinflipETH_flat.sol\":825:833  newOwner */\n  dup3\n    /* \"1_TrueCoinflipETH_flat.sol\":825:847  newOwner != address(0) */\n  0xffffffffffffffffffffffffffffffffffffffff\n  and\n  eq\n  iszero\n    /* \"1_TrueCoinflipETH_flat.sol\":817:876  require(newOwner != address(0), \"Cannot set owner to zero\") */\n  tag_8\n  jumpi\n  mload(0x40)\n  0x08c379a000000000000000000000000000000000000000000000000000000000\n  dup2\n  mstore\n  0x04\n  add\n  tag_9\n  swap1\n  tag_10\n  jump\t// in\ntag_9:\n  mload(0x40)\n  dup1\n  swap2\n  sub\n  swap1\n  revert\ntag_8:\n    /* \"1_TrueCoinflipETH_flat.sol\":893:901  newOwner */\n  dup2\n    /* \"1_TrueCoinflipETH_flat.sol\":883:890  s_owner */\n  0x00\n  dup1\n    /* \"1_TrueCoinflipETH_flat.sol\":883:901  s_owner = newOwner */\n  0x0100\n  exp\n  dup2\n  sload\n  dup2\n  0xffffffffffffffffffffffffffffffffffffffff\n  mul\n  not\n  and\n  swap1\n  dup4\n  0xffffffffffffffffffffffffffffffffffffffff\n  and\n  mul\n  or\n  swap1\n  sstore\n  pop\n    /* \"1_TrueCoinflipETH_flat.sol\":935:936  0 */\n  0x00\n    /* \"1_TrueCoinflipETH_flat.sol\":911:937  pendingOwner != address(0) */\n  0xffffffffffffffffffffffffffffffffffffffff\n  and\n    /* \"1_TrueCoinflipETH_flat.sol\":911:923  pendingOwner */\n  dup2\n    /* \"1_TrueCoinflipETH_flat.sol\":911:937  pendingOwner != address(0) */\n  0xffffffffffffffffffffffffffffffffffffffff\n  and\n  eq\n    /* \"1_TrueCoinflipETH_flat.sol\":907:986  if (pendingOwner != address(0)) {... */\n  tag_11\n  jumpi\n    /* \"1_TrueCoinflipETH_flat.sol\":947:979  _transferOwnership(pendingOwner) */\n  tag_12\n    /* \"1_TrueCoinflipETH_flat.sol\":966:978  pendingOwner */\n  dup2\n    /* \"1_TrueCoinflipETH_flat.sol\":947:965  _transferOwnership */\n  shl(0x20, tag_13)\n    /* \"1_TrueCoinflipETH_flat.sol\":947:979  _transferOwnership(pendingOwner) */\n  0x20\n  shr\n  jump\t// in\ntag_12:\n    /* \"1_TrueCoinflipETH_flat.sol\":907:986  if (pendingOwner != address(0)) {... */\ntag_11:\n    /* \"1_TrueCoinflipETH_flat.sol\":759:990  constructor(address newOwner, address pendingOwner) {... */\n  pop\n  pop\n    /* \"1_TrueCoinflipETH_flat.sol\":2520:2601  constructor(address newOwner) ConfirmedOwnerWithProposal(newOwner, address(0)) {} */\n  pop\n    /* \"1_TrueCoinflipETH_flat.sol\":35033:35034  1 */\n  0x01\n    /* \"1_TrueCoinflipETH_flat.sol\":35138:35145  _status */\n  0x02\n    /* \"1_TrueCoinflipETH_flat.sol\":35138:35160  _status = _NOT_ENTERED */\n  dup2\n  swap1\n  sstore\n  pop\n    /* \"1_TrueCoinflipETH_flat.sol\":47393:47435  0x2Ca8E0C643bDe4C2E08ab1fA0da3401AdAD7734D */\n  0x2ca8e0c643bde4c2e08ab1fa0da3401adad7734d\n    /* \"1_TrueCoinflipETH_flat.sol\":47353:47364  COORDINATOR */\n  0x04\n  0x00\n    /* \"1_TrueCoinflipETH_flat.sol\":47353:47436  COORDINATOR = VRFCoordinatorV2Interface(0x2Ca8E0C643bDe4C2E08ab1fA0da3401AdAD7734D) */\n  0x0100\n  exp\n  dup2\n  sload\n  dup2\n  0xffffffffffffffffffffffffffffffffffffffff\n  mul\n  not\n  and\n  swap1\n  dup4\n  0xffffffffffffffffffffffffffffffffffffffff\n  and\n  mul\n  or\n  swap1\n  sstore\n  pop\n    /* \"1_TrueCoinflipETH_flat.sol\":47465:47469  8872 */\n  0x22a8\n    /* \"1_TrueCoinflipETH_flat.sol\":47446:47462  s_subscriptionId */\n  0x04\n  0x14\n    /* \"1_TrueCoinflipETH_flat.sol\":47446:47469  s_subscriptionId = 8872 */\n  0x0100\n  exp\n  dup2\n  sload\n  dup2\n  0xffffffffffffffff\n  mul\n  not\n  and\n  swap1\n  dup4\n  0xffffffffffffffff\n  and\n  mul\n  or\n  swap1\n  sstore\n  pop\n    /* \"1_TrueCoinflipETH_flat.sol\":37890:48997  contract TrueCoinflip is VRFConsumerBaseV2, ConfirmedOwner, ReentrancyGuard {... */\n  jump(tag_17)\n    /* \"1_TrueCoinflipETH_flat.sol\":1770:1958  function _transferOwnership(address to) private {... */\ntag_13:\n    /* \"1_TrueCoinflipETH_flat.sol\":1838:1848  msg.sender */\n  caller\n    /* \"1_TrueCoinflipETH_flat.sol\":1832:1848  to != msg.sender */\n  0xffffffffffffffffffffffffffffffffffffffff\n  and\n    /* \"1_TrueCoinflipETH_flat.sol\":1832:1834  to */\n  dup2\n    /* \"1_TrueCoinflipETH_flat.sol\":1832:1848  to != msg.sender */\n  0xffffffffffffffffffffffffffffffffffffffff\n  and\n  eq\n  iszero\n    /* \"1_TrueCoinflipETH_flat.sol\":1824:1876  require(to != msg.sender, \"Cannot transfer to self\") */\n  tag_19\n  jumpi\n  mload(0x40)\n  0x08c379a000000000000000000000000000000000000000000000000000000000\n  dup2\n  mstore\n  0x04\n  add\n  tag_20\n  swap1\n  tag_21\n  jump\t// in\ntag_20:\n  mload(0x40)\n  dup1\n  swap2\n  sub\n  swap1\n  revert\ntag_19:\n    /* \"1_TrueCoinflipETH_flat.sol\":1900:1902  to */\n  dup1\n    /* \"1_TrueCoinflipETH_flat.sol\":1883:1897  s_pendingOwner */\n  0x01\n  0x00\n    /* \"1_TrueCoinflipETH_flat.sol\":1883:1902  s_pendingOwner = to */\n  0x0100\n  exp\n  dup2\n  sload\n  dup2\n  0xffffffffffffffffffffffffffffffffffffffff\n  mul\n  not\n  and\n  swap1\n  dup4\n  0xffffffffffffffffffffffffffffffffffffffff\n  and\n  mul\n  or\n  swap1\n  sstore\n  pop\n    /* \"1_TrueCoinflipETH_flat.sol\":1950:1952  to */\n  dup1\n    /* \"1_TrueCoinflipETH_flat.sol\":1914:1953  OwnershipTransferRequested(s_owner, to) */\n  0xffffffffffffffffffffffffffffffffffffffff\n  and\n    /* \"1_TrueCoinflipETH_flat.sol\":1941:1948  s_owner */\n  0x00\n  dup1\n  sload\n  swap1\n  0x0100\n  exp\n  swap1\n  div\n  0xffffffffffffffffffffffffffffffffffffffff\n  and\n    /* \"1_TrueCoinflipETH_flat.sol\":1914:1953  OwnershipTransferRequested(s_owner, to) */\n  0xffffffffffffffffffffffffffffffffffffffff\n  and\n  0xed8889f560326eb138920d842192f0eb3dd22b4f139c87a2c57538e05bae1278\n  mload(0x40)\n  mload(0x40)\n  dup1\n  swap2\n  sub\n  swap1\n  log3\n    /* \"1_TrueCoinflipETH_flat.sol\":1770:1958  function _transferOwnership(address to) private {... */\n  pop\n  jump\t// out\n    /* \"#utility.yul\":7:373   */\ntag_23:\n    /* \"#utility.yul\":149:152   */\n  0x00\n    /* \"#utility.yul\":170:237   */\n  tag_25\n    /* \"#utility.yul\":234:236   */\n  0x18\n    /* \"#utility.yul\":229:232   */\n  dup4\n    /* \"#utility.yul\":170:237   */\n  tag_26\n  jump\t// in\ntag_25:\n    /* \"#utility.yul\":163:237   */\n  swap2\n  pop\n    /* \"#utility.yul\":246:339   */\n  tag_27\n    /* \"#utility.yul\":335:338   */\n  dup3\n    /* \"#utility.yul\":246:339   */\n  tag_28\n  jump\t// in\ntag_27:\n    /* \"#utility.yul\":364:366   */\n  0x20\n    /* \"#utility.yul\":359:362   */\n  dup3\n    /* \"#utility.yul\":355:367   */\n  add\n    /* \"#utility.yul\":348:367   */\n  swap1\n  pop\n    /* \"#utility.yul\":7:373   */\n  swap2\n  swap1\n  pop\n  jump\t// out\n    /* \"#utility.yul\":379:745   */\ntag_29:\n    /* \"#utility.yul\":521:524   */\n  0x00\n    /* \"#utility.yul\":542:609   */\n  tag_31\n    /* \"#utility.yul\":606:608   */\n  0x17\n    /* \"#utility.yul\":601:604   */\n  dup4\n    /* \"#utility.yul\":542:609   */\n  tag_26\n  jump\t// in\ntag_31:\n    /* \"#utility.yul\":535:609   */\n  swap2\n  pop\n    /* \"#utility.yul\":618:711   */\n  tag_32\n    /* \"#utility.yul\":707:710   */\n  dup3\n    /* \"#utility.yul\":618:711   */\n  tag_33\n  jump\t// in\ntag_32:\n    /* \"#utility.yul\":736:738   */\n  0x20\n    /* \"#utility.yul\":731:734   */\n  dup3\n    /* \"#utility.yul\":727:739   */\n  add\n    /* \"#utility.yul\":720:739   */\n  swap1\n  pop\n    /* \"#utility.yul\":379:745   */\n  swap2\n  swap1\n  pop\n  jump\t// out\n    /* \"#utility.yul\":751:1170   */\ntag_10:\n    /* \"#utility.yul\":917:921   */\n  0x00\n    /* \"#utility.yul\":955:957   */\n  0x20\n    /* \"#utility.yul\":944:953   */\n  dup3\n    /* \"#utility.yul\":940:958   */\n  add\n    /* \"#utility.yul\":932:958   */\n  swap1\n  pop\n    /* \"#utility.yul\":1004:1013   */\n  dup2\n    /* \"#utility.yul\":998:1002   */\n  dup2\n    /* \"#utility.yul\":994:1014   */\n  sub\n    /* \"#utility.yul\":990:991   */\n  0x00\n    /* \"#utility.yul\":979:988   */\n  dup4\n    /* \"#utility.yul\":975:992   */\n  add\n    /* \"#utility.yul\":968:1015   */\n  mstore\n    /* \"#utility.yul\":1032:1163   */\n  tag_35\n    /* \"#utility.yul\":1158:1162   */\n  dup2\n    /* \"#utility.yul\":1032:1163   */\n  tag_23\n  jump\t// in\ntag_35:\n    /* \"#utility.yul\":1024:1163   */\n  swap1\n  pop\n    /* \"#utility.yul\":751:1170   */\n  swap2\n  swap1\n  pop\n  jump\t// out\n    /* \"#utility.yul\":1176:1595   */\ntag_21:\n    /* \"#utility.yul\":1342:1346   */\n  0x00\n    /* \"#utility.yul\":1380:1382   */\n  0x20\n    /* \"#utility.yul\":1369:1378   */\n  dup3\n    /* \"#utility.yul\":1365:1383   */\n  add\n    /* \"#utility.yul\":1357:1383   */\n  swap1\n  pop\n    /* \"#utility.yul\":1429:1438   */\n  dup2\n    /* \"#utility.yul\":1423:1427   */\n  dup2\n    /* \"#utility.yul\":1419:1439   */\n  sub\n    /* \"#utility.yul\":1415:1416   */\n  0x00\n    /* \"#utility.yul\":1404:1413   */\n  dup4\n    /* \"#utility.yul\":1400:1417   */\n  add\n    /* \"#utility.yul\":1393:1440   */\n  mstore\n    /* \"#utility.yul\":1457:1588   */\n  tag_37\n    /* \"#utility.yul\":1583:1587   */\n  dup2\n    /* \"#utility.yul\":1457:1588   */\n  tag_29\n  jump\t// in\ntag_37:\n    /* \"#utility.yul\":1449:1588   */\n  swap1\n  pop\n    /* \"#utility.yul\":1176:1595   */\n  swap2\n  swap1\n  pop\n  jump\t// out\n    /* \"#utility.yul\":1601:1770   */\ntag_26:\n    /* \"#utility.yul\":1685:1696   */\n  0x00\n    /* \"#utility.yul\":1719:1725   */\n  dup3\n    /* \"#utility.yul\":1714:1717   */\n  dup3\n    /* \"#utility.yul\":1707:1726   */\n  mstore\n    /* \"#utility.yul\":1759:1763   */\n  0x20\n    /* \"#utility.yul\":1754:1757   */\n  dup3\n    /* \"#utility.yul\":1750:1764   */\n  add\n    /* \"#utility.yul\":1735:1764   */\n  swap1\n  pop\n    /* \"#utility.yul\":1601:1770   */\n  swap3\n  swap2\n  pop\n  pop\n  jump\t// out\n    /* \"#utility.yul\":1776:1950   */\ntag_28:\n    /* \"#utility.yul\":1916:1942   */\n  0x43616e6e6f7420736574206f776e657220746f207a65726f0000000000000000\n    /* \"#utility.yul\":1912:1913   */\n  0x00\n    /* \"#utility.yul\":1904:1910   */\n  dup3\n    /* \"#utility.yul\":1900:1914   */\n  add\n    /* \"#utility.yul\":1893:1943   */\n  mstore\n    /* \"#utility.yul\":1776:1950   */\n  pop\n  jump\t// out\n    /* \"#utility.yul\":1956:2129   */\ntag_33:\n    /* \"#utility.yul\":2096:2121   */\n  0x43616e6e6f74207472616e7366657220746f2073656c66000000000000000000\n    /* \"#utility.yul\":2092:2093   */\n  0x00\n    /* \"#utility.yul\":2084:2090   */\n  dup3\n    /* \"#utility.yul\":2080:2094   */\n  add\n    /* \"#utility.yul\":2073:2122   */\n  mstore\n    /* \"#utility.yul\":1956:2129   */\n  pop\n  jump\t// out\n    /* \"1_TrueCoinflipETH_flat.sol\":37890:48997  contract TrueCoinflip is VRFConsumerBaseV2, ConfirmedOwner, ReentrancyGuard {... */\ntag_17:\n  shr(0x60, mload(0x80))\n  codecopy(0x00, dataOffset(sub_0), dataSize(sub_0))\n  0x00\n  assignImmutable(\"0x4e5869b372f44a1c9aa0923bc94152ac1c74ce415b48c7d3f09c31f435665329\")\n  return(0x00, dataSize(sub_0))\nstop\n\nsub_0: assembly {\n        /* \"1_TrueCoinflipETH_flat.sol\":37890:48997  contract TrueCoinflip is VRFConsumerBaseV2, ConfirmedOwner, ReentrancyGuard {... */\n      mstore(0x40, 0x80)\n      jumpi(tag_1, lt(calldatasize, 0x04))\n      shr(0xe0, calldataload(0x00))\n      dup1\n      0x8da5cb5b\n      gt\n      tag_36\n      jumpi\n      dup1\n      0xcab11d5d\n      gt\n      tag_37\n      jumpi\n      dup1\n      0xe1fdb4b4\n      gt\n      tag_38\n      jumpi\n      dup1\n      0xe1fdb4b4\n      eq\n      tag_31\n      jumpi\n      dup1\n      0xf2fde38b\n      eq\n      tag_32\n      jumpi\n      dup1\n      0xf5008324\n      eq\n      tag_33\n      jumpi\n      dup1\n      0xf90f4560\n      eq\n      tag_34\n      jumpi\n      dup1\n      0xfa968eea\n      eq\n      tag_35\n      jumpi\n      jump(tag_2)\n    tag_38:\n      dup1\n      0xcab11d5d\n      eq\n      tag_27\n      jumpi\n      dup1\n      0xd8a4676f\n      eq\n      tag_28\n      jumpi\n      dup1\n      0xdf88126f\n      eq\n      tag_29\n      jumpi\n      dup1\n      0xe0c86289\n      eq\n      tag_30\n      jumpi\n      jump(tag_2)\n    tag_37:\n      dup1\n      0xb68eee2a\n      gt\n      tag_39\n      jumpi\n      dup1\n      0xb68eee2a\n      eq\n      tag_23\n      jumpi\n      dup1\n      0xb69ef8a8\n      eq\n      tag_24\n      jumpi\n      dup1\n      0xbbd2e01e\n      eq\n      tag_25\n      jumpi\n      dup1\n      0xc1075329\n      eq\n      tag_26\n      jumpi\n      jump(tag_2)\n    tag_39:\n      dup1\n      0x8da5cb5b\n      eq\n      tag_19\n      jumpi\n      dup1\n      0xa168fa89\n      eq\n      tag_20\n      jumpi\n      dup1\n      0xa4eb718c\n      eq\n      tag_21\n      jumpi\n      dup1\n      0xb539cd55\n      eq\n      tag_22\n      jumpi\n      jump(tag_2)\n    tag_36:\n      dup1\n      0x6c188593\n      gt\n      tag_40\n      jumpi\n      dup1\n      0x81d76905\n      gt\n      tag_41\n      jumpi\n      dup1\n      0x81d76905\n      eq\n      tag_15\n      jumpi\n      dup1\n      0x8796ba8c\n      eq\n      tag_16\n      jumpi\n      dup1\n      0x88fedd04\n      eq\n      tag_17\n      jumpi\n      dup1\n      0x89476069\n      eq\n      tag_18\n      jumpi\n      jump(tag_2)\n    tag_41:\n      dup1\n      0x6c188593\n      eq\n      tag_11\n      jumpi\n      dup1\n      0x79ba5097\n      eq\n      tag_12\n      jumpi\n      dup1\n      0x7cfbc7a5\n      eq\n      tag_13\n      jumpi\n      dup1\n      0x7d14bca5\n      eq\n      tag_14\n      jumpi\n      jump(tag_2)\n    tag_40:\n      dup1\n      0x22af00fa\n      gt\n      tag_42\n      jumpi\n      dup1\n      0x22af00fa\n      eq\n      tag_7\n      jumpi\n      dup1\n      0x24f74697\n      eq\n      tag_8\n      jumpi\n      dup1\n      0x27b54889\n      eq\n      tag_9\n      jumpi\n      dup1\n      0x5d1837b8\n      eq\n      tag_10\n      jumpi\n      jump(tag_2)\n    tag_42:\n      dup1\n      0x04599012\n      eq\n      tag_3\n      jumpi\n      dup1\n      0x05b25980\n      eq\n      tag_4\n      jumpi\n      dup1\n      0x162595ff\n      eq\n      tag_5\n      jumpi\n      dup1\n      0x1fe543e3\n      eq\n      tag_6\n      jumpi\n      jump(tag_2)\n    tag_1:\n      jumpi(tag_2, calldatasize)\n      stop\n    tag_2:\n      stop\n        /* \"1_TrueCoinflipETH_flat.sol\":40860:40990  function balanceToken(address _token) external view returns (uint) {... */\n    tag_3:\n      callvalue\n      dup1\n      iszero\n      tag_47\n      jumpi\n      0x00\n      dup1\n      revert\n    tag_47:\n      pop\n      tag_48\n      0x04\n      dup1\n      calldatasize\n      sub\n      dup2\n      add\n      swap1\n      tag_49\n      swap2\n      swap1\n      tag_50\n      jump\t// in\n    tag_49:\n      tag_51\n      jump\t// in\n    tag_48:\n      mload(0x40)\n      tag_52\n      swap2\n      swap1\n      tag_53\n      jump\t// in\n    tag_52:\n      mload(0x40)\n      dup1\n      swap2\n      sub\n      swap1\n      return\n        /* \"1_TrueCoinflipETH_flat.sol\":40091:40129  mapping(uint256 => uint) public betMap */\n    tag_4:\n      callvalue\n      dup1\n      iszero\n      tag_54\n      jumpi\n      0x00\n      dup1\n      revert\n    tag_54:\n      pop\n      tag_55\n      0x04\n      dup1\n      calldatasize\n      sub\n      dup2\n      add\n      swap1\n      tag_56\n      swap2\n      swap1\n      tag_57\n      jump\t// in\n    tag_56:\n      tag_58\n      jump\t// in\n    tag_55:\n      mload(0x40)\n      tag_59\n      swap2\n      swap1\n      tag_53\n      jump\t// in\n    tag_59:\n      mload(0x40)\n      dup1\n      swap2\n      sub\n      swap1\n      return\n        /* \"1_TrueCoinflipETH_flat.sol\":48897:48989  function zSelfDestruct() public onlyOwner {... */\n    tag_5:\n      callvalue\n      dup1\n      iszero\n      tag_60\n      jumpi\n      0x00\n      dup1\n      revert\n    tag_60:\n      pop\n      tag_61\n      tag_62\n      jump\t// in\n    tag_61:\n      stop\n        /* \"1_TrueCoinflipETH_flat.sol\":9254:9510  function rawFulfillRandomWords(uint256 requestId, uint256[] memory randomWords) external {... */\n    tag_6:\n      callvalue\n      dup1\n      iszero\n      tag_63\n      jumpi\n      0x00\n      dup1\n      revert\n    tag_63:\n      pop\n      tag_64\n      0x04\n      dup1\n      calldatasize\n      sub\n      dup2\n      add\n      swap1\n      tag_65\n      swap2\n      swap1\n      tag_66\n      jump\t// in\n    tag_65:\n      tag_67\n      jump\t// in\n    tag_64:\n      stop\n        /* \"1_TrueCoinflipETH_flat.sol\":39889:39906  Bet[] public bets */\n    tag_7:\n      callvalue\n      dup1\n      iszero\n      tag_68\n      jumpi\n      0x00\n      dup1\n      revert\n    tag_68:\n      pop\n      tag_69\n      0x04\n      dup1\n      calldatasize\n      sub\n      dup2\n      add\n      swap1\n      tag_70\n      swap2\n      swap1\n      tag_57\n      jump\t// in\n    tag_70:\n      tag_71\n      jump\t// in\n    tag_69:\n      mload(0x40)\n      tag_72\n      swap7\n      swap6\n      swap5\n      swap4\n      swap3\n      swap2\n      swap1\n      tag_73\n      jump\t// in\n    tag_72:\n      mload(0x40)\n      dup1\n      swap2\n      sub\n      swap1\n      return\n        /* \"1_TrueCoinflipETH_flat.sol\":38577:38620  uint32 public callbackGasLimit = 100000 * 2 */\n    tag_8:\n      callvalue\n      dup1\n      iszero\n      tag_74\n      jumpi\n      0x00\n      dup1\n      revert\n    tag_74:\n      pop\n      tag_75\n      tag_76\n      jump\t// in\n    tag_75:\n      mload(0x40)\n      tag_77\n      swap2\n      swap1\n      tag_78\n      jump\t// in\n    tag_77:\n      mload(0x40)\n      dup1\n      swap2\n      sub\n      swap1\n      return\n        /* \"1_TrueCoinflipETH_flat.sol\":39109:39147  uint public balanceMaxProfitRatio = 24 */\n    tag_9:\n      callvalue\n      dup1\n      iszero\n      tag_79\n      jumpi\n      0x00\n      dup1\n      revert\n    tag_79:\n      pop\n      tag_80\n      tag_81\n      jump\t// in\n    tag_80:\n      mload(0x40)\n      tag_82\n      swap2\n      swap1\n      tag_53\n      jump\t// in\n    tag_82:\n      mload(0x40)\n      dup1\n      swap2\n      sub\n      swap1\n      return\n        /* \"1_TrueCoinflipETH_flat.sol\":41514:41659  function setBalanceMaxProfitRatio(uint _balanceMaxProfitRatio) external onlyOwner {... */\n    tag_10:\n      callvalue\n      dup1\n      iszero\n      tag_83\n      jumpi\n      0x00\n      dup1\n      revert\n    tag_83:\n      pop\n      tag_84\n      0x04\n      dup1\n      calldatasize\n      sub\n      dup2\n      add\n      swap1\n      tag_85\n      swap2\n      swap1\n      tag_57\n      jump\t// in\n    tag_85:\n      tag_86\n      jump\t// in\n    tag_84:\n      stop\n        /* \"1_TrueCoinflipETH_flat.sol\":41797:41906  function setMinBetAmount(uint _minBetAmount) external onlyOwner {... */\n    tag_11:\n      callvalue\n      dup1\n      iszero\n      tag_87\n      jumpi\n      0x00\n      dup1\n      revert\n    tag_87:\n      pop\n      tag_88\n      0x04\n      dup1\n      calldatasize\n      sub\n      dup2\n      add\n      swap1\n      tag_89\n      swap2\n      swap1\n      tag_57\n      jump\t// in\n    tag_89:\n      tag_90\n      jump\t// in\n    tag_88:\n      stop\n        /* \"1_TrueCoinflipETH_flat.sol\":1289:1554  function acceptOwnership() external override {... */\n    tag_12:\n      callvalue\n      dup1\n      iszero\n      tag_91\n      jumpi\n      0x00\n      dup1\n      revert\n    tag_91:\n      pop\n      tag_92\n      tag_93\n      jump\t// in\n    tag_92:\n      stop\n        /* \"1_TrueCoinflipETH_flat.sol\":41994:42103  function setMaxBetAmount(uint _maxBetAmount) external onlyOwner {... */\n    tag_13:\n      callvalue\n      dup1\n      iszero\n      tag_94\n      jumpi\n      0x00\n      dup1\n      revert\n    tag_94:\n      pop\n      tag_95\n      0x04\n      dup1\n      calldatasize\n      sub\n      dup2\n      add\n      swap1\n      tag_96\n      swap2\n      swap1\n      tag_57\n      jump\t// in\n    tag_96:\n      tag_97\n      jump\t// in\n    tag_95:\n      stop\n        /* \"1_TrueCoinflipETH_flat.sol\":38996:39025  uint public houseEdgeBP = 190 */\n    tag_14:\n      callvalue\n      dup1\n      iszero\n      tag_98\n      jumpi\n      0x00\n      dup1\n      revert\n    tag_98:\n      pop\n      tag_99\n      tag_100\n      jump\t// in\n    tag_99:\n      mload(0x40)\n      tag_101\n      swap2\n      swap1\n      tag_53\n      jump\t// in\n    tag_101:\n      mload(0x40)\n      dup1\n      swap2\n      sub\n      swap1\n      return\n        /* \"1_TrueCoinflipETH_flat.sol\":39398:39431  uint public waitBlockRequest = 20 */\n    tag_15:\n      callvalue\n      dup1\n      iszero\n      tag_102\n      jumpi\n      0x00\n      dup1\n      revert\n    tag_102:\n      pop\n      tag_103\n      tag_104\n      jump\t// in\n    tag_103:\n      mload(0x40)\n      tag_105\n      swap2\n      swap1\n      tag_53\n      jump\t// in\n    tag_105:\n      mload(0x40)\n      dup1\n      swap2\n      sub\n      swap1\n      return\n        /* \"1_TrueCoinflipETH_flat.sol\":38454:38481  uint256[] public requestIds */\n    tag_16:\n      callvalue\n      dup1\n      iszero\n      tag_106\n      jumpi\n      0x00\n      dup1\n      revert\n    tag_106:\n      pop\n      tag_107\n      0x04\n      dup1\n      calldatasize\n      sub\n      dup2\n      add\n      swap1\n      tag_108\n      swap2\n      swap1\n      tag_57\n      jump\t// in\n    tag_108:\n      tag_109\n      jump\t// in\n    tag_107:\n      mload(0x40)\n      tag_110\n      swap2\n      swap1\n      tag_53\n      jump\t// in\n    tag_110:\n      mload(0x40)\n      dup1\n      swap2\n      sub\n      swap1\n      return\n        /* \"1_TrueCoinflipETH_flat.sol\":40207:40229  int public houseProfit */\n    tag_17:\n      callvalue\n      dup1\n      iszero\n      tag_111\n      jumpi\n      0x00\n      dup1\n      revert\n    tag_111:\n      pop\n      tag_112\n      tag_113\n      jump\t// in\n    tag_112:\n      mload(0x40)\n      tag_114\n      swap2\n      swap1\n      tag_115\n      jump\t// in\n    tag_114:\n      mload(0x40)\n      dup1\n      swap2\n      sub\n      swap1\n      return\n        /* \"1_TrueCoinflipETH_flat.sol\":42635:42787  function withdrawToken(address _token) external onlyOwner {... */\n    tag_18:\n      callvalue\n      dup1\n      iszero\n      tag_116\n      jumpi\n      0x00\n      dup1\n      revert\n    tag_116:\n      pop\n      tag_117\n      0x04\n      dup1\n      calldatasize\n      sub\n      dup2\n      add\n      swap1\n      tag_118\n      swap2\n      swap1\n      tag_50\n      jump\t// in\n    tag_118:\n      tag_119\n      jump\t// in\n    tag_117:\n      stop\n        /* \"1_TrueCoinflipETH_flat.sol\":1605:1686  function owner() public view override returns (address) {... */\n    tag_19:\n      callvalue\n      dup1\n      iszero\n      tag_120\n      jumpi\n      0x00\n      dup1\n      revert\n    tag_120:\n      pop\n      tag_121\n      tag_122\n      jump\t// in\n    tag_121:\n      mload(0x40)\n      tag_123\n      swap2\n      swap1\n      tag_124\n      jump\t// in\n    tag_123:\n      mload(0x40)\n      dup1\n      swap2\n      sub\n      swap1\n      return\n        /* \"1_TrueCoinflipETH_flat.sol\":38324:38375  mapping(uint256 => RequestStatus) public s_requests */\n    tag_20:\n      callvalue\n      dup1\n      iszero\n      tag_125\n      jumpi\n      0x00\n      dup1\n      revert\n    tag_125:\n      pop\n      tag_126\n      0x04\n      dup1\n      calldatasize\n      sub\n      dup2\n      add\n      swap1\n      tag_127\n      swap2\n      swap1\n      tag_57\n      jump\t// in\n    tag_127:\n      tag_128\n      jump\t// in\n    tag_126:\n      mload(0x40)\n      tag_129\n      swap4\n      swap3\n      swap2\n      swap1\n      tag_130\n      jump\t// in\n    tag_129:\n      mload(0x40)\n      dup1\n      swap2\n      sub\n      swap1\n      return\n        /* \"1_TrueCoinflipETH_flat.sol\":40726:40854  function setCallbackGasLimit (uint32 _callbackGasLimit) external onlyOwner {... */\n    tag_21:\n      callvalue\n      dup1\n      iszero\n      tag_131\n      jumpi\n      0x00\n      dup1\n      revert\n    tag_131:\n      pop\n      tag_132\n      0x04\n      dup1\n      calldatasize\n      sub\n      dup2\n      add\n      swap1\n      tag_133\n      swap2\n      swap1\n      tag_134\n      jump\t// in\n    tag_133:\n      tag_135\n      jump\t// in\n    tag_132:\n      stop\n        /* \"1_TrueCoinflipETH_flat.sol\":41351:41468  function maxProfit() public view returns (uint) {... */\n    tag_22:\n      callvalue\n      dup1\n      iszero\n      tag_136\n      jumpi\n      0x00\n      dup1\n      revert\n    tag_136:\n      pop\n      tag_137\n      tag_138\n      jump\t// in\n    tag_137:\n      mload(0x40)\n      tag_139\n      swap2\n      swap1\n      tag_53\n      jump\t// in\n    tag_139:\n      mload(0x40)\n      dup1\n      swap2\n      sub\n      swap1\n      return\n        /* \"1_TrueCoinflipETH_flat.sol\":42132:42237  function setHouseEdgeBP(uint _houseEdgeBP) external onlyOwner {... */\n    tag_23:\n      callvalue\n      dup1\n      iszero\n      tag_140\n      jumpi\n      0x00\n      dup1\n      revert\n    tag_140:\n      pop\n      tag_141\n      0x04\n      dup1\n      calldatasize\n      sub\n      dup2\n      add\n      swap1\n      tag_142\n      swap2\n      swap1\n      tag_57\n      jump\t// in\n    tag_142:\n      tag_143\n      jump\t// in\n    tag_141:\n      stop\n        /* \"1_TrueCoinflipETH_flat.sol\":40627:40720  function balance() external view returns (uint) {... */\n    tag_24:\n      callvalue\n      dup1\n      iszero\n      tag_144\n      jumpi\n      0x00\n      dup1\n      revert\n    tag_144:\n      pop\n      tag_145\n      tag_146\n      jump\t// in\n    tag_145:\n      mload(0x40)\n      tag_147\n      swap2\n      swap1\n      tag_53\n      jump\t// in\n    tag_147:\n      mload(0x40)\n      dup1\n      swap2\n      sub\n      swap1\n      return\n        /* \"1_TrueCoinflipETH_flat.sol\":41127:41213  function betsLength() external view returns (uint) {... */\n    tag_25:\n      callvalue\n      dup1\n      iszero\n      tag_148\n      jumpi\n      0x00\n      dup1\n      revert\n    tag_148:\n      pop\n      tag_149\n      tag_150\n      jump\t// in\n    tag_149:\n      mload(0x40)\n      tag_151\n      swap2\n      swap1\n      tag_53\n      jump\t// in\n    tag_151:\n      mload(0x40)\n      dup1\n      swap2\n      sub\n      swap1\n      return\n        /* \"1_TrueCoinflipETH_flat.sol\":42339:42585  function withdrawFunds(address payable beneficiary, uint withdrawAmount) external onlyOwner {... */\n    tag_26:\n      callvalue\n      dup1\n      iszero\n      tag_152\n      jumpi\n      0x00\n      dup1\n      revert\n    tag_152:\n      pop\n      tag_153\n      0x04\n      dup1\n      calldatasize\n      sub\n      dup2\n      add\n      swap1\n      tag_154\n      swap2\n      swap1\n      tag_155\n      jump\t// in\n    tag_154:\n      tag_156\n      jump\t// in\n    tag_153:\n      stop\n        /* \"1_TrueCoinflipETH_flat.sol\":39066:39102  uint public maxBetAmount = 100 ether */\n    tag_27:\n      callvalue\n      dup1\n      iszero\n      tag_157\n      jumpi\n      0x00\n      dup1\n      revert\n    tag_157:\n      pop\n      tag_158\n      tag_159\n      jump\t// in\n    tag_158:\n      mload(0x40)\n      tag_160\n      swap2\n      swap1\n      tag_53\n      jump\t// in\n    tag_160:\n      mload(0x40)\n      dup1\n      swap2\n      sub\n      swap1\n      return\n        /* \"1_TrueCoinflipETH_flat.sol\":48522:48858  function getRequestStatus(uint256 _requestId) external view returns (bool fulfilled, uint randomness, uint256[] memory randomWords) {... */\n    tag_28:\n      callvalue\n      dup1\n      iszero\n      tag_161\n      jumpi\n      0x00\n      dup1\n      revert\n    tag_161:\n      pop\n      tag_162\n      0x04\n      dup1\n      calldatasize\n      sub\n      dup2\n      add\n      swap1\n      tag_163\n      swap2\n      swap1\n      tag_57\n      jump\t// in\n    tag_163:\n      tag_164\n      jump\t// in\n    tag_162:\n      mload(0x40)\n      tag_165\n      swap4\n      swap3\n      swap2\n      swap1\n      tag_166\n      jump\t// in\n    tag_165:\n      mload(0x40)\n      dup1\n      swap2\n      sub\n      swap1\n      return\n        /* \"1_TrueCoinflipETH_flat.sol\":39347:39371  uint public lockedInBets */\n    tag_29:\n      callvalue\n      dup1\n      iszero\n      tag_167\n      jumpi\n      0x00\n      dup1\n      revert\n    tag_167:\n      pop\n      tag_168\n      tag_169\n      jump\t// in\n    tag_168:\n      mload(0x40)\n      tag_170\n      swap2\n      swap1\n      tag_53\n      jump\t// in\n    tag_170:\n      mload(0x40)\n      dup1\n      swap2\n      sub\n      swap1\n      return\n        /* \"1_TrueCoinflipETH_flat.sol\":47514:48023  function requestRandomWords() public onlyOwner returns (uint256 requestId) {... */\n    tag_30:\n      callvalue\n      dup1\n      iszero\n      tag_171\n      jumpi\n      0x00\n      dup1\n      revert\n    tag_171:\n      pop\n      tag_172\n      tag_173\n      jump\t// in\n    tag_172:\n      mload(0x40)\n      tag_174\n      swap2\n      swap1\n      tag_53\n      jump\t// in\n    tag_174:\n      mload(0x40)\n      dup1\n      swap2\n      sub\n      swap1\n      return\n        /* \"1_TrueCoinflipETH_flat.sol\":46355:47187  function refundBet(uint betId) external nonReentrant {... */\n    tag_31:\n      callvalue\n      dup1\n      iszero\n      tag_175\n      jumpi\n      0x00\n      dup1\n      revert\n    tag_175:\n      pop\n      tag_176\n      0x04\n      dup1\n      calldatasize\n      sub\n      dup2\n      add\n      swap1\n      tag_177\n      swap2\n      swap1\n      tag_57\n      jump\t// in\n    tag_177:\n      tag_178\n      jump\t// in\n    tag_176:\n      stop\n        /* \"1_TrueCoinflipETH_flat.sol\":1099:1197  function transferOwnership(address to) public override onlyOwner {... */\n    tag_32:\n      callvalue\n      dup1\n      iszero\n      tag_179\n      jumpi\n      0x00\n      dup1\n      revert\n    tag_179:\n      pop\n      tag_180\n      0x04\n      dup1\n      calldatasize\n      sub\n      dup2\n      add\n      swap1\n      tag_181\n      swap2\n      swap1\n      tag_50\n      jump\t// in\n    tag_181:\n      tag_182\n      jump\t// in\n    tag_180:\n      stop\n        /* \"1_TrueCoinflipETH_flat.sol\":40996:41121  function setwaitBlockRequest(uint _waitBlockRequest) external onlyOwner {... */\n    tag_33:\n      callvalue\n      dup1\n      iszero\n      tag_183\n      jumpi\n      0x00\n      dup1\n      revert\n    tag_183:\n      pop\n      tag_184\n      0x04\n      dup1\n      calldatasize\n      sub\n      dup2\n      add\n      swap1\n      tag_185\n      swap2\n      swap1\n      tag_57\n      jump\t// in\n    tag_185:\n      tag_186\n      jump\t// in\n    tag_184:\n      stop\n        /* \"1_TrueCoinflipETH_flat.sol\":43192:44615  function placeBet() external payable nonReentrant {... */\n    tag_34:\n      tag_187\n      tag_188\n      jump\t// in\n    tag_187:\n      stop\n        /* \"1_TrueCoinflipETH_flat.sol\":39032:39060  uint public minBetAmount = 1 */\n    tag_35:\n      callvalue\n      dup1\n      iszero\n      tag_189\n      jumpi\n      0x00\n      dup1\n      revert\n    tag_189:\n      pop\n      tag_190\n      tag_191\n      jump\t// in\n    tag_190:\n      mload(0x40)\n      tag_192\n      swap2\n      swap1\n      tag_53\n      jump\t// in\n    tag_192:\n      mload(0x40)\n      dup1\n      swap2\n      sub\n      swap1\n      return\n        /* \"1_TrueCoinflipETH_flat.sol\":40860:40990  function balanceToken(address _token) external view returns (uint) {... */\n    tag_51:\n        /* \"1_TrueCoinflipETH_flat.sol\":40921:40925  uint */\n      0x00\n        /* \"1_TrueCoinflipETH_flat.sol\":40951:40957  _token */\n      dup2\n        /* \"1_TrueCoinflipETH_flat.sol\":40944:40968  IERC20(_token).balanceOf */\n      0xffffffffffffffffffffffffffffffffffffffff\n      and\n      0x70a08231\n        /* \"1_TrueCoinflipETH_flat.sol\":40977:40981  this */\n      address\n        /* \"1_TrueCoinflipETH_flat.sol\":40944:40983  IERC20(_token).balanceOf(address(this)) */\n      mload(0x40)\n      dup3\n      0xffffffff\n      and\n      0xe0\n      shl\n      dup2\n      mstore\n      0x04\n      add\n      tag_194\n      swap2\n      swap1\n      tag_124\n      jump\t// in\n    tag_194:\n      0x20\n      mload(0x40)\n      dup1\n      dup4\n      sub\n      dup2\n      dup7\n      dup1\n      extcodesize\n      iszero\n      dup1\n      iszero\n      tag_195\n      jumpi\n      0x00\n      dup1\n      revert\n    tag_195:\n      pop\n      gas\n      staticcall\n      iszero\n      dup1\n      iszero\n      tag_197\n      jumpi\n      returndatasize\n      0x00\n      dup1\n      returndatacopy\n      revert(0x00, returndatasize)\n    tag_197:\n      pop\n      pop\n      pop\n      pop\n      mload(0x40)\n      returndatasize\n      not(0x1f)\n      0x1f\n      dup3\n      add\n      and\n      dup3\n      add\n      dup1\n      0x40\n      mstore\n      pop\n      dup2\n      add\n      swap1\n      tag_198\n      swap2\n      swap1\n      tag_199\n      jump\t// in\n    tag_198:\n        /* \"1_TrueCoinflipETH_flat.sol\":40937:40983  return IERC20(_token).balanceOf(address(this)) */\n      swap1\n      pop\n        /* \"1_TrueCoinflipETH_flat.sol\":40860:40990  function balanceToken(address _token) external view returns (uint) {... */\n      swap2\n      swap1\n      pop\n      jump\t// out\n        /* \"1_TrueCoinflipETH_flat.sol\":40091:40129  mapping(uint256 => uint) public betMap */\n    tag_58:\n      mstore(0x20, 0x0f)\n      dup1\n      0x00\n      mstore\n      keccak256(0x00, 0x40)\n      0x00\n      swap2\n      pop\n      swap1\n      pop\n      sload\n      dup2\n      jump\t// out\n        /* \"1_TrueCoinflipETH_flat.sol\":48897:48989  function zSelfDestruct() public onlyOwner {... */\n    tag_62:\n        /* \"1_TrueCoinflipETH_flat.sol\":2229:2249  _validateOwnership() */\n      tag_201\n        /* \"1_TrueCoinflipETH_flat.sol\":2229:2247  _validateOwnership */\n      tag_202\n        /* \"1_TrueCoinflipETH_flat.sol\":2229:2249  _validateOwnership() */\n      jump\t// in\n    tag_201:\n        /* \"1_TrueCoinflipETH_flat.sol\":48970:48980  msg.sender */\n      caller\n        /* \"1_TrueCoinflipETH_flat.sol\":48949:48982  selfdestruct(payable(msg.sender)) */\n      0xffffffffffffffffffffffffffffffffffffffff\n      and\n      selfdestruct\n        /* \"1_TrueCoinflipETH_flat.sol\":9254:9510  function rawFulfillRandomWords(uint256 requestId, uint256[] memory randomWords) external {... */\n    tag_67:\n        /* \"1_TrueCoinflipETH_flat.sol\":9367:9381  vrfCoordinator */\n      immutable(\"0x4e5869b372f44a1c9aa0923bc94152ac1c74ce415b48c7d3f09c31f435665329\")\n        /* \"1_TrueCoinflipETH_flat.sol\":9353:9381  msg.sender != vrfCoordinator */\n      0xffffffffffffffffffffffffffffffffffffffff\n      and\n        /* \"1_TrueCoinflipETH_flat.sol\":9353:9363  msg.sender */\n      caller\n        /* \"1_TrueCoinflipETH_flat.sol\":9353:9381  msg.sender != vrfCoordinator */\n      0xffffffffffffffffffffffffffffffffffffffff\n      and\n      eq\n        /* \"1_TrueCoinflipETH_flat.sol\":9349:9458  if (msg.sender != vrfCoordinator) {... */\n      tag_205\n      jumpi\n        /* \"1_TrueCoinflipETH_flat.sol\":9424:9434  msg.sender */\n      caller\n        /* \"1_TrueCoinflipETH_flat.sol\":9436:9450  vrfCoordinator */\n      immutable(\"0x4e5869b372f44a1c9aa0923bc94152ac1c74ce415b48c7d3f09c31f435665329\")\n        /* \"1_TrueCoinflipETH_flat.sol\":9398:9451  OnlyCoordinatorCanFulfill(msg.sender, vrfCoordinator) */\n      mload(0x40)\n      0x1cf993f400000000000000000000000000000000000000000000000000000000\n      dup2\n      mstore\n      0x04\n      add\n      tag_206\n      swap3\n      swap2\n      swap1\n      tag_207\n      jump\t// in\n    tag_206:\n      mload(0x40)\n      dup1\n      swap2\n      sub\n      swap1\n      revert\n        /* \"1_TrueCoinflipETH_flat.sol\":9349:9458  if (msg.sender != vrfCoordinator) {... */\n    tag_205:\n        /* \"1_TrueCoinflipETH_flat.sol\":9463:9505  fulfillRandomWords(requestId, randomWords) */\n      tag_208\n        /* \"1_TrueCoinflipETH_flat.sol\":9482:9491  requestId */\n      dup3\n        /* \"1_TrueCoinflipETH_flat.sol\":9493:9504  randomWords */\n      dup3\n        /* \"1_TrueCoinflipETH_flat.sol\":9463:9481  fulfillRandomWords */\n      tag_209\n        /* \"1_TrueCoinflipETH_flat.sol\":9463:9505  fulfillRandomWords(requestId, randomWords) */\n      jump\t// in\n    tag_208:\n        /* \"1_TrueCoinflipETH_flat.sol\":9254:9510  function rawFulfillRandomWords(uint256 requestId, uint256[] memory randomWords) external {... */\n      pop\n      pop\n      jump\t// out\n        /* \"1_TrueCoinflipETH_flat.sol\":39889:39906  Bet[] public bets */\n    tag_71:\n      0x0e\n      dup2\n      dup2\n      sload\n      dup2\n      lt\n      tag_210\n      jumpi\n      0x00\n      dup1\n      revert\n    tag_210:\n      swap1\n      0x00\n      mstore\n      keccak256(0x00, 0x20)\n      swap1\n      0x05\n      mul\n      add\n      0x00\n      swap2\n      pop\n      swap1\n      pop\n      dup1\n      0x00\n      add\n      sload\n      swap1\n      dup1\n      0x01\n      add\n      sload\n      swap1\n      dup1\n      0x02\n      add\n      0x00\n      swap1\n      sload\n      swap1\n      0x0100\n      exp\n      swap1\n      div\n      0xffffffffffffffffffffffffffffffffffffffff\n      and\n      swap1\n      dup1\n      0x02\n      add\n      0x14\n      swap1\n      sload\n      swap1\n      0x0100\n      exp\n      swap1\n      div\n      0xff\n      and\n      swap1\n      dup1\n      0x03\n      add\n      sload\n      swap1\n      dup1\n      0x04\n      add\n      sload\n      swap1\n      pop\n      dup7\n      jump\t// out\n        /* \"1_TrueCoinflipETH_flat.sol\":38577:38620  uint32 public callbackGasLimit = 100000 * 2 */\n    tag_76:\n      0x07\n      0x00\n      swap1\n      sload\n      swap1\n      0x0100\n      exp\n      swap1\n      div\n      0xffffffff\n      and\n      dup2\n      jump\t// out\n        /* \"1_TrueCoinflipETH_flat.sol\":39109:39147  uint public balanceMaxProfitRatio = 24 */\n    tag_81:\n      sload(0x0b)\n      dup2\n      jump\t// out\n        /* \"1_TrueCoinflipETH_flat.sol\":41514:41659  function setBalanceMaxProfitRatio(uint _balanceMaxProfitRatio) external onlyOwner {... */\n    tag_86:\n        /* \"1_TrueCoinflipETH_flat.sol\":2229:2249  _validateOwnership() */\n      tag_213\n        /* \"1_TrueCoinflipETH_flat.sol\":2229:2247  _validateOwnership */\n      tag_202\n        /* \"1_TrueCoinflipETH_flat.sol\":2229:2249  _validateOwnership() */\n      jump\t// in\n    tag_213:\n        /* \"1_TrueCoinflipETH_flat.sol\":41630:41652  _balanceMaxProfitRatio */\n      dup1\n        /* \"1_TrueCoinflipETH_flat.sol\":41606:41627  balanceMaxProfitRatio */\n      0x0b\n        /* \"1_TrueCoinflipETH_flat.sol\":41606:41652  balanceMaxProfitRatio = _balanceMaxProfitRatio */\n      dup2\n      swap1\n      sstore\n      pop\n        /* \"1_TrueCoinflipETH_flat.sol\":41514:41659  function setBalanceMaxProfitRatio(uint _balanceMaxProfitRatio) external onlyOwner {... */\n      pop\n      jump\t// out\n        /* \"1_TrueCoinflipETH_flat.sol\":41797:41906  function setMinBetAmount(uint _minBetAmount) external onlyOwner {... */\n    tag_90:\n        /* \"1_TrueCoinflipETH_flat.sol\":2229:2249  _validateOwnership() */\n      tag_216\n        /* \"1_TrueCoinflipETH_flat.sol\":2229:2247  _validateOwnership */\n      tag_202\n        /* \"1_TrueCoinflipETH_flat.sol\":2229:2249  _validateOwnership() */\n      jump\t// in\n    tag_216:\n        /* \"1_TrueCoinflipETH_flat.sol\":41886:41899  _minBetAmount */\n      dup1\n        /* \"1_TrueCoinflipETH_flat.sol\":41871:41883  minBetAmount */\n      0x09\n        /* \"1_TrueCoinflipETH_flat.sol\":41871:41899  minBetAmount = _minBetAmount */\n      dup2\n      swap1\n      sstore\n      pop\n        /* \"1_TrueCoinflipETH_flat.sol\":41797:41906  function setMinBetAmount(uint _minBetAmount) external onlyOwner {... */\n      pop\n      jump\t// out\n        /* \"1_TrueCoinflipETH_flat.sol\":1289:1554  function acceptOwnership() external override {... */\n    tag_93:\n        /* \"1_TrueCoinflipETH_flat.sol\":1362:1376  s_pendingOwner */\n      0x01\n      0x00\n      swap1\n      sload\n      swap1\n      0x0100\n      exp\n      swap1\n      div\n      0xffffffffffffffffffffffffffffffffffffffff\n      and\n        /* \"1_TrueCoinflipETH_flat.sol\":1348:1376  msg.sender == s_pendingOwner */\n      0xffffffffffffffffffffffffffffffffffffffff\n      and\n        /* \"1_TrueCoinflipETH_flat.sol\":1348:1358  msg.sender */\n      caller\n        /* \"1_TrueCoinflipETH_flat.sol\":1348:1376  msg.sender == s_pendingOwner */\n      0xffffffffffffffffffffffffffffffffffffffff\n      and\n      eq\n        /* \"1_TrueCoinflipETH_flat.sol\":1340:1403  require(msg.sender == s_pendingOwner, \"Must be proposed owner\") */\n      tag_219\n      jumpi\n      mload(0x40)\n      0x08c379a000000000000000000000000000000000000000000000000000000000\n      dup2\n      mstore\n      0x04\n      add\n      tag_220\n      swap1\n      tag_221\n      jump\t// in\n    tag_220:\n      mload(0x40)\n      dup1\n      swap2\n      sub\n      swap1\n      revert\n    tag_219:\n        /* \"1_TrueCoinflipETH_flat.sol\":1410:1426  address oldOwner */\n      0x00\n        /* \"1_TrueCoinflipETH_flat.sol\":1429:1436  s_owner */\n      dup1\n      0x00\n      swap1\n      sload\n      swap1\n      0x0100\n      exp\n      swap1\n      div\n      0xffffffffffffffffffffffffffffffffffffffff\n      and\n        /* \"1_TrueCoinflipETH_flat.sol\":1410:1436  address oldOwner = s_owner */\n      swap1\n      pop\n        /* \"1_TrueCoinflipETH_flat.sol\":1452:1462  msg.sender */\n      caller\n        /* \"1_TrueCoinflipETH_flat.sol\":1442:1449  s_owner */\n      0x00\n      dup1\n        /* \"1_TrueCoinflipETH_flat.sol\":1442:1462  s_owner = msg.sender */\n      0x0100\n      exp\n      dup2\n      sload\n      dup2\n      0xffffffffffffffffffffffffffffffffffffffff\n      mul\n      not\n      and\n      swap1\n      dup4\n      0xffffffffffffffffffffffffffffffffffffffff\n      and\n      mul\n      or\n      swap1\n      sstore\n      pop\n        /* \"1_TrueCoinflipETH_flat.sol\":1493:1494  0 */\n      0x00\n        /* \"1_TrueCoinflipETH_flat.sol\":1468:1482  s_pendingOwner */\n      0x01\n      0x00\n        /* \"1_TrueCoinflipETH_flat.sol\":1468:1495  s_pendingOwner = address(0) */\n      0x0100\n      exp\n      dup2\n      sload\n      dup2\n      0xffffffffffffffffffffffffffffffffffffffff\n      mul\n      not\n      and\n      swap1\n      dup4\n      0xffffffffffffffffffffffffffffffffffffffff\n      and\n      mul\n      or\n      swap1\n      sstore\n      pop\n        /* \"1_TrueCoinflipETH_flat.sol\":1538:1548  msg.sender */\n      caller\n        /* \"1_TrueCoinflipETH_flat.sol\":1507:1549  OwnershipTransferred(oldOwner, msg.sender) */\n      0xffffffffffffffffffffffffffffffffffffffff\n      and\n        /* \"1_TrueCoinflipETH_flat.sol\":1528:1536  oldOwner */\n      dup2\n        /* \"1_TrueCoinflipETH_flat.sol\":1507:1549  OwnershipTransferred(oldOwner, msg.sender) */\n      0xffffffffffffffffffffffffffffffffffffffff\n      and\n      0x8be0079c531659141344cd1fd0a4f28419497f9722a3daafe3b4186f6b6457e0\n      mload(0x40)\n      mload(0x40)\n      dup1\n      swap2\n      sub\n      swap1\n      log3\n        /* \"1_TrueCoinflipETH_flat.sol\":1334:1554  {... */\n      pop\n        /* \"1_TrueCoinflipETH_flat.sol\":1289:1554  function acceptOwnership() external override {... */\n      jump\t// out\n        /* \"1_TrueCoinflipETH_flat.sol\":41994:42103  function setMaxBetAmount(uint _maxBetAmount) external onlyOwner {... */\n    tag_97:\n        /* \"1_TrueCoinflipETH_flat.sol\":2229:2249  _validateOwnership() */\n      tag_223\n        /* \"1_TrueCoinflipETH_flat.sol\":2229:2247  _validateOwnership */\n      tag_202\n        /* \"1_TrueCoinflipETH_flat.sol\":2229:2249  _validateOwnership() */\n      jump\t// in\n    tag_223:\n        /* \"1_TrueCoinflipETH_flat.sol\":42083:42096  _maxBetAmount */\n      dup1\n        /* \"1_TrueCoinflipETH_flat.sol\":42068:42080  maxBetAmount */\n      0x0a\n        /* \"1_TrueCoinflipETH_flat.sol\":42068:42096  maxBetAmount = _maxBetAmount */\n      dup2\n      swap1\n      sstore\n      pop\n        /* \"1_TrueCoinflipETH_flat.sol\":41994:42103  function setMaxBetAmount(uint _maxBetAmount) external onlyOwner {... */\n      pop\n      jump\t// out\n        /* \"1_TrueCoinflipETH_flat.sol\":38996:39025  uint public houseEdgeBP = 190 */\n    tag_100:\n      sload(0x08)\n      dup2\n      jump\t// out\n        /* \"1_TrueCoinflipETH_flat.sol\":39398:39431  uint public waitBlockRequest = 20 */\n    tag_104:\n      sload(0x0d)\n      dup2\n      jump\t// out\n        /* \"1_TrueCoinflipETH_flat.sol\":38454:38481  uint256[] public requestIds */\n    tag_109:\n      0x05\n      dup2\n      dup2\n      sload\n      dup2\n      lt\n      tag_225\n      jumpi\n      0x00\n      dup1\n      revert\n    tag_225:\n      swap1\n      0x00\n      mstore\n      keccak256(0x00, 0x20)\n      add\n      0x00\n      swap2\n      pop\n      swap1\n      pop\n      sload\n      dup2\n      jump\t// out\n        /* \"1_TrueCoinflipETH_flat.sol\":40207:40229  int public houseProfit */\n    tag_113:\n      sload(0x10)\n      dup2\n      jump\t// out\n        /* \"1_TrueCoinflipETH_flat.sol\":42635:42787  function withdrawToken(address _token) external onlyOwner {... */\n    tag_119:\n        /* \"1_TrueCoinflipETH_flat.sol\":2229:2249  _validateOwnership() */\n      tag_228\n        /* \"1_TrueCoinflipETH_flat.sol\":2229:2247  _validateOwnership */\n      tag_202\n        /* \"1_TrueCoinflipETH_flat.sol\":2229:2249  _validateOwnership() */\n      jump\t// in\n    tag_228:\n        /* \"1_TrueCoinflipETH_flat.sol\":42703:42780  IERC20(_token).safeTransfer(owner(), IERC20(_token).balanceOf(address(this))) */\n      tag_230\n        /* \"1_TrueCoinflipETH_flat.sol\":42731:42738  owner() */\n      tag_231\n        /* \"1_TrueCoinflipETH_flat.sol\":42731:42736  owner */\n      tag_122\n        /* \"1_TrueCoinflipETH_flat.sol\":42731:42738  owner() */\n      jump\t// in\n    tag_231:\n        /* \"1_TrueCoinflipETH_flat.sol\":42747:42753  _token */\n      dup3\n        /* \"1_TrueCoinflipETH_flat.sol\":42740:42764  IERC20(_token).balanceOf */\n      0xffffffffffffffffffffffffffffffffffffffff\n      and\n      0x70a08231\n        /* \"1_TrueCoinflipETH_flat.sol\":42773:42777  this */\n      address\n        /* \"1_TrueCoinflipETH_flat.sol\":42740:42779  IERC20(_token).balanceOf(address(this)) */\n      mload(0x40)\n      dup3\n      0xffffffff\n      and\n      0xe0\n      shl\n      dup2\n      mstore\n      0x04\n      add\n      tag_232\n      swap2\n      swap1\n      tag_124\n      jump\t// in\n    tag_232:\n      0x20\n      mload(0x40)\n      dup1\n      dup4\n      sub\n      dup2\n      dup7\n      dup1\n      extcodesize\n      iszero\n      dup1\n      iszero\n      tag_233\n      jumpi\n      0x00\n      dup1\n      revert\n    tag_233:\n      pop\n      gas\n      staticcall\n      iszero\n      dup1\n      iszero\n      tag_235\n      jumpi\n      returndatasize\n      0x00\n      dup1\n      returndatacopy\n      revert(0x00, returndatasize)\n    tag_235:\n      pop\n      pop\n      pop\n      pop\n      mload(0x40)\n      returndatasize\n      not(0x1f)\n      0x1f\n      dup3\n      add\n      and\n      dup3\n      add\n      dup1\n      0x40\n      mstore\n      pop\n      dup2\n      add\n      swap1\n      tag_236\n      swap2\n      swap1\n      tag_199\n      jump\t// in\n    tag_236:\n        /* \"1_TrueCoinflipETH_flat.sol\":42710:42716  _token */\n      dup4\n        /* \"1_TrueCoinflipETH_flat.sol\":42703:42730  IERC20(_token).safeTransfer */\n      0xffffffffffffffffffffffffffffffffffffffff\n      and\n      tag_237\n      swap1\n        /* \"1_TrueCoinflipETH_flat.sol\":42703:42780  IERC20(_token).safeTransfer(owner(), IERC20(_token).balanceOf(address(this))) */\n      swap3\n      swap2\n      swap1\n      0xffffffff\n      and\n      jump\t// in\n    tag_230:\n        /* \"1_TrueCoinflipETH_flat.sol\":42635:42787  function withdrawToken(address _token) external onlyOwner {... */\n      pop\n      jump\t// out\n        /* \"1_TrueCoinflipETH_flat.sol\":1605:1686  function owner() public view override returns (address) {... */\n    tag_122:\n        /* \"1_TrueCoinflipETH_flat.sol\":1652:1659  address */\n      0x00\n        /* \"1_TrueCoinflipETH_flat.sol\":1674:1681  s_owner */\n      dup1\n      0x00\n      swap1\n      sload\n      swap1\n      0x0100\n      exp\n      swap1\n      div\n      0xffffffffffffffffffffffffffffffffffffffff\n      and\n        /* \"1_TrueCoinflipETH_flat.sol\":1667:1681  return s_owner */\n      swap1\n      pop\n        /* \"1_TrueCoinflipETH_flat.sol\":1605:1686  function owner() public view override returns (address) {... */\n      swap1\n      jump\t// out\n        /* \"1_TrueCoinflipETH_flat.sol\":38324:38375  mapping(uint256 => RequestStatus) public s_requests */\n    tag_128:\n      mstore(0x20, 0x03)\n      dup1\n      0x00\n      mstore\n      keccak256(0x00, 0x40)\n      0x00\n      swap2\n      pop\n      swap1\n      pop\n      dup1\n      0x00\n      add\n      0x00\n      swap1\n      sload\n      swap1\n      0x0100\n      exp\n      swap1\n      div\n      0xff\n      and\n      swap1\n      dup1\n      0x00\n      add\n      0x01\n      swap1\n      sload\n      swap1\n      0x0100\n      exp\n      swap1\n      div\n      0xff\n      and\n      swap1\n      dup1\n      0x01\n      add\n      sload\n      swap1\n      pop\n      dup4\n      jump\t// out\n        /* \"1_TrueCoinflipETH_flat.sol\":40726:40854  function setCallbackGasLimit (uint32 _callbackGasLimit) external onlyOwner {... */\n    tag_135:\n        /* \"1_TrueCoinflipETH_flat.sol\":2229:2249  _validateOwnership() */\n      tag_240\n        /* \"1_TrueCoinflipETH_flat.sol\":2229:2247  _validateOwnership */\n      tag_202\n        /* \"1_TrueCoinflipETH_flat.sol\":2229:2249  _validateOwnership() */\n      jump\t// in\n    tag_240:\n        /* \"1_TrueCoinflipETH_flat.sol\":40830:40847  _callbackGasLimit */\n      dup1\n        /* \"1_TrueCoinflipETH_flat.sol\":40811:40827  callbackGasLimit */\n      0x07\n      0x00\n        /* \"1_TrueCoinflipETH_flat.sol\":40811:40847  callbackGasLimit = _callbackGasLimit */\n      0x0100\n      exp\n      dup2\n      sload\n      dup2\n      0xffffffff\n      mul\n      not\n      and\n      swap1\n      dup4\n      0xffffffff\n      and\n      mul\n      or\n      swap1\n      sstore\n      pop\n        /* \"1_TrueCoinflipETH_flat.sol\":40726:40854  function setCallbackGasLimit (uint32 _callbackGasLimit) external onlyOwner {... */\n      pop\n      jump\t// out\n        /* \"1_TrueCoinflipETH_flat.sol\":41351:41468  function maxProfit() public view returns (uint) {... */\n    tag_138:\n        /* \"1_TrueCoinflipETH_flat.sol\":41393:41397  uint */\n      0x00\n        /* \"1_TrueCoinflipETH_flat.sol\":41440:41461  balanceMaxProfitRatio */\n      sload(0x0b)\n        /* \"1_TrueCoinflipETH_flat.sol\":41416:41437  address(this).balance */\n      selfbalance\n        /* \"1_TrueCoinflipETH_flat.sol\":41416:41461  address(this).balance / balanceMaxProfitRatio */\n      tag_243\n      swap2\n      swap1\n      tag_244\n      jump\t// in\n    tag_243:\n        /* \"1_TrueCoinflipETH_flat.sol\":41409:41461  return address(this).balance / balanceMaxProfitRatio */\n      swap1\n      pop\n        /* \"1_TrueCoinflipETH_flat.sol\":41351:41468  function maxProfit() public view returns (uint) {... */\n      swap1\n      jump\t// out\n        /* \"1_TrueCoinflipETH_flat.sol\":42132:42237  function setHouseEdgeBP(uint _houseEdgeBP) external onlyOwner {... */\n    tag_143:\n        /* \"1_TrueCoinflipETH_flat.sol\":2229:2249  _validateOwnership() */\n      tag_246\n        /* \"1_TrueCoinflipETH_flat.sol\":2229:2247  _validateOwnership */\n      tag_202\n        /* \"1_TrueCoinflipETH_flat.sol\":2229:2249  _validateOwnership() */\n      jump\t// in\n    tag_246:\n        /* \"1_TrueCoinflipETH_flat.sol\":42218:42230  _houseEdgeBP */\n      dup1\n        /* \"1_TrueCoinflipETH_flat.sol\":42204:42215  houseEdgeBP */\n      0x08\n        /* \"1_TrueCoinflipETH_flat.sol\":42204:42230  houseEdgeBP = _houseEdgeBP */\n      dup2\n      swap1\n      sstore\n      pop\n        /* \"1_TrueCoinflipETH_flat.sol\":42132:42237  function setHouseEdgeBP(uint _houseEdgeBP) external onlyOwner {... */\n      pop\n      jump\t// out\n        /* \"1_TrueCoinflipETH_flat.sol\":40627:40720  function balance() external view returns (uint) {... */\n    tag_146:\n        /* \"1_TrueCoinflipETH_flat.sol\":40669:40673  uint */\n      0x00\n        /* \"1_TrueCoinflipETH_flat.sol\":40692:40713  address(this).balance */\n      selfbalance\n        /* \"1_TrueCoinflipETH_flat.sol\":40685:40713  return address(this).balance */\n      swap1\n      pop\n        /* \"1_TrueCoinflipETH_flat.sol\":40627:40720  function balance() external view returns (uint) {... */\n      swap1\n      jump\t// out\n        /* \"1_TrueCoinflipETH_flat.sol\":41127:41213  function betsLength() external view returns (uint) {... */\n    tag_150:\n        /* \"1_TrueCoinflipETH_flat.sol\":41172:41176  uint */\n      0x00\n        /* \"1_TrueCoinflipETH_flat.sol\":41195:41199  bets */\n      0x0e\n        /* \"1_TrueCoinflipETH_flat.sol\":41195:41206  bets.length */\n      dup1\n      sload\n      swap1\n      pop\n        /* \"1_TrueCoinflipETH_flat.sol\":41188:41206  return bets.length */\n      swap1\n      pop\n        /* \"1_TrueCoinflipETH_flat.sol\":41127:41213  function betsLength() external view returns (uint) {... */\n      swap1\n      jump\t// out\n        /* \"1_TrueCoinflipETH_flat.sol\":42339:42585  function withdrawFunds(address payable beneficiary, uint withdrawAmount) external onlyOwner {... */\n    tag_156:\n        /* \"1_TrueCoinflipETH_flat.sol\":2229:2249  _validateOwnership() */\n      tag_251\n        /* \"1_TrueCoinflipETH_flat.sol\":2229:2247  _validateOwnership */\n      tag_202\n        /* \"1_TrueCoinflipETH_flat.sol\":2229:2249  _validateOwnership() */\n      jump\t// in\n    tag_251:\n        /* \"1_TrueCoinflipETH_flat.sol\":42491:42503  lockedInBets */\n      sload(0x0c)\n        /* \"1_TrueCoinflipETH_flat.sol\":42467:42488  address(this).balance */\n      selfbalance\n        /* \"1_TrueCoinflipETH_flat.sol\":42467:42503  address(this).balance - lockedInBets */\n      tag_253\n      swap2\n      swap1\n      tag_254\n      jump\t// in\n    tag_253:\n        /* \"1_TrueCoinflipETH_flat.sol\":42449:42463  withdrawAmount */\n      dup2\n        /* \"1_TrueCoinflipETH_flat.sol\":42449:42503  withdrawAmount <= address(this).balance - lockedInBets */\n      gt\n      iszero\n        /* \"1_TrueCoinflipETH_flat.sol\":42441:42532  require(withdrawAmount <= address(this).balance - lockedInBets, \"Withdrawal exceeds limit\") */\n      tag_255\n      jumpi\n      mload(0x40)\n      0x08c379a000000000000000000000000000000000000000000000000000000000\n      dup2\n      mstore\n      0x04\n      add\n      tag_256\n      swap1\n      tag_257\n      jump\t// in\n    tag_256:\n      mload(0x40)\n      dup1\n      swap2\n      sub\n      swap1\n      revert\n    tag_255:\n        /* \"1_TrueCoinflipETH_flat.sol\":42542:42553  beneficiary */\n      dup2\n        /* \"1_TrueCoinflipETH_flat.sol\":42542:42562  beneficiary.transfer */\n      0xffffffffffffffffffffffffffffffffffffffff\n      and\n        /* \"1_TrueCoinflipETH_flat.sol\":42542:42578  beneficiary.transfer(withdrawAmount) */\n      0x08fc\n        /* \"1_TrueCoinflipETH_flat.sol\":42563:42577  withdrawAmount */\n      dup3\n        /* \"1_TrueCoinflipETH_flat.sol\":42542:42578  beneficiary.transfer(withdrawAmount) */\n      swap1\n      dup2\n      iszero\n      mul\n      swap1\n      mload(0x40)\n      0x00\n      mload(0x40)\n      dup1\n      dup4\n      sub\n      dup2\n      dup6\n      dup9\n      dup9\n      call\n      swap4\n      pop\n      pop\n      pop\n      pop\n      iszero\n      dup1\n      iszero\n      tag_259\n      jumpi\n      returndatasize\n      0x00\n      dup1\n      returndatacopy\n      revert(0x00, returndatasize)\n    tag_259:\n      pop\n        /* \"1_TrueCoinflipETH_flat.sol\":42339:42585  function withdrawFunds(address payable beneficiary, uint withdrawAmount) external onlyOwner {... */\n      pop\n      pop\n      jump\t// out\n        /* \"1_TrueCoinflipETH_flat.sol\":39066:39102  uint public maxBetAmount = 100 ether */\n    tag_159:\n      sload(0x0a)\n      dup2\n      jump\t// out\n        /* \"1_TrueCoinflipETH_flat.sol\":48522:48858  function getRequestStatus(uint256 _requestId) external view returns (bool fulfilled, uint randomness, uint256[] memory randomWords) {... */\n    tag_164:\n        /* \"1_TrueCoinflipETH_flat.sol\":48591:48605  bool fulfilled */\n      0x00\n        /* \"1_TrueCoinflipETH_flat.sol\":48607:48622  uint randomness */\n      dup1\n        /* \"1_TrueCoinflipETH_flat.sol\":48624:48652  uint256[] memory randomWords */\n      0x60\n        /* \"1_TrueCoinflipETH_flat.sol\":48668:48678  s_requests */\n      0x03\n        /* \"1_TrueCoinflipETH_flat.sol\":48668:48690  s_requests[_requestId] */\n      0x00\n        /* \"1_TrueCoinflipETH_flat.sol\":48679:48689  _requestId */\n      dup6\n        /* \"1_TrueCoinflipETH_flat.sol\":48668:48690  s_requests[_requestId] */\n      dup2\n      mstore\n      0x20\n      add\n      swap1\n      dup2\n      mstore\n      0x20\n      add\n      0x00\n      keccak256\n        /* \"1_TrueCoinflipETH_flat.sol\":48668:48697  s_requests[_requestId].exists */\n      0x00\n      add\n      0x01\n      swap1\n      sload\n      swap1\n      0x0100\n      exp\n      swap1\n      div\n      0xff\n      and\n        /* \"1_TrueCoinflipETH_flat.sol\":48660:48719  require(s_requests[_requestId].exists, \"request not found\") */\n      tag_261\n      jumpi\n      mload(0x40)\n      0x08c379a000000000000000000000000000000000000000000000000000000000\n      dup2\n      mstore\n      0x04\n      add\n      tag_262\n      swap1\n      tag_263\n      jump\t// in\n    tag_262:\n      mload(0x40)\n      dup1\n      swap2\n      sub\n      swap1\n      revert\n    tag_261:\n        /* \"1_TrueCoinflipETH_flat.sol\":48725:48753  RequestStatus memory request */\n      0x00\n        /* \"1_TrueCoinflipETH_flat.sol\":48756:48766  s_requests */\n      0x03\n        /* \"1_TrueCoinflipETH_flat.sol\":48756:48778  s_requests[_requestId] */\n      0x00\n        /* \"1_TrueCoinflipETH_flat.sol\":48767:48777  _requestId */\n      dup7\n        /* \"1_TrueCoinflipETH_flat.sol\":48756:48778  s_requests[_requestId] */\n      dup2\n      mstore\n      0x20\n      add\n      swap1\n      dup2\n      mstore\n      0x20\n      add\n      0x00\n      keccak256\n        /* \"1_TrueCoinflipETH_flat.sol\":48725:48778  RequestStatus memory request = s_requests[_requestId] */\n      mload(0x40)\n      dup1\n      0x80\n      add\n      0x40\n      mstore\n      swap1\n      dup2\n      0x00\n      dup3\n      add\n      0x00\n      swap1\n      sload\n      swap1\n      0x0100\n      exp\n      swap1\n      div\n      0xff\n      and\n      iszero\n      iszero\n      iszero\n      iszero\n      dup2\n      mstore\n      0x20\n      add\n      0x00\n      dup3\n      add\n      0x01\n      swap1\n      sload\n      swap1\n      0x0100\n      exp\n      swap1\n      div\n      0xff\n      and\n      iszero\n      iszero\n      iszero\n      iszero\n      dup2\n      mstore\n      0x20\n      add\n      0x01\n      dup3\n      add\n      sload\n      dup2\n      mstore\n      0x20\n      add\n      0x02\n      dup3\n      add\n      dup1\n      sload\n      dup1\n      0x20\n      mul\n      0x20\n      add\n      mload(0x40)\n      swap1\n      dup2\n      add\n      0x40\n      mstore\n      dup1\n      swap3\n      swap2\n      swap1\n      dup2\n      dup2\n      mstore\n      0x20\n      add\n      dup3\n      dup1\n      sload\n      dup1\n      iszero\n      tag_264\n      jumpi\n      0x20\n      mul\n      dup3\n      add\n      swap2\n      swap1\n      0x00\n      mstore\n      keccak256(0x00, 0x20)\n      swap1\n    tag_265:\n      dup2\n      sload\n      dup2\n      mstore\n      0x20\n      add\n      swap1\n      0x01\n      add\n      swap1\n      dup1\n      dup4\n      gt\n      tag_265\n      jumpi\n    tag_264:\n      pop\n      pop\n      pop\n      pop\n      pop\n      dup2\n      mstore\n      pop\n      pop\n      swap1\n      pop\n        /* \"1_TrueCoinflipETH_flat.sol\":48792:48799  request */\n      dup1\n        /* \"1_TrueCoinflipETH_flat.sol\":48792:48809  request.fulfilled */\n      0x00\n      add\n      mload\n        /* \"1_TrueCoinflipETH_flat.sol\":48811:48818  request */\n      dup2\n        /* \"1_TrueCoinflipETH_flat.sol\":48811:48829  request.randomness */\n      0x40\n      add\n      mload\n        /* \"1_TrueCoinflipETH_flat.sol\":48831:48838  request */\n      dup3\n        /* \"1_TrueCoinflipETH_flat.sol\":48831:48850  request.randomWords */\n      0x60\n      add\n      mload\n        /* \"1_TrueCoinflipETH_flat.sol\":48784:48851  return (request.fulfilled, request.randomness, request.randomWords) */\n      swap4\n      pop\n      swap4\n      pop\n      swap4\n      pop\n      pop\n        /* \"1_TrueCoinflipETH_flat.sol\":48522:48858  function getRequestStatus(uint256 _requestId) external view returns (bool fulfilled, uint randomness, uint256[] memory randomWords) {... */\n      swap2\n      swap4\n      swap1\n      swap3\n      pop\n      jump\t// out\n        /* \"1_TrueCoinflipETH_flat.sol\":39347:39371  uint public lockedInBets */\n    tag_169:\n      sload(0x0c)\n      dup2\n      jump\t// out\n        /* \"1_TrueCoinflipETH_flat.sol\":47514:48023  function requestRandomWords() public onlyOwner returns (uint256 requestId) {... */\n    tag_173:\n        /* \"1_TrueCoinflipETH_flat.sol\":47570:47587  uint256 requestId */\n      0x00\n        /* \"1_TrueCoinflipETH_flat.sol\":2229:2249  _validateOwnership() */\n      tag_267\n        /* \"1_TrueCoinflipETH_flat.sol\":2229:2247  _validateOwnership */\n      tag_202\n        /* \"1_TrueCoinflipETH_flat.sol\":2229:2249  _validateOwnership() */\n      jump\t// in\n    tag_267:\n        /* \"1_TrueCoinflipETH_flat.sol\":47673:47684  COORDINATOR */\n      0x04\n      0x00\n      swap1\n      sload\n      swap1\n      0x0100\n      exp\n      swap1\n      div\n      0xffffffffffffffffffffffffffffffffffffffff\n      and\n        /* \"1_TrueCoinflipETH_flat.sol\":47673:47703  COORDINATOR.requestRandomWords */\n      0xffffffffffffffffffffffffffffffffffffffff\n      and\n      0x5d3b1d30\n        /* \"1_TrueCoinflipETH_flat.sol\":47704:47711  keyHash */\n      sload(0x06)\n        /* \"1_TrueCoinflipETH_flat.sol\":47713:47729  s_subscriptionId */\n      0x04\n      0x14\n      swap1\n      sload\n      swap1\n      0x0100\n      exp\n      swap1\n      div\n      0xffffffffffffffff\n      and\n        /* \"1_TrueCoinflipETH_flat.sol\":47731:47751  requestConfirmations */\n      0x07\n      0x04\n      swap1\n      sload\n      swap1\n      0x0100\n      exp\n      swap1\n      div\n      0xffff\n      and\n        /* \"1_TrueCoinflipETH_flat.sol\":47753:47769  callbackGasLimit */\n      0x07\n      0x00\n      swap1\n      sload\n      swap1\n      0x0100\n      exp\n      swap1\n      div\n      0xffffffff\n      and\n        /* \"1_TrueCoinflipETH_flat.sol\":47771:47779  numWords */\n      0x07\n      0x06\n      swap1\n      sload\n      swap1\n      0x0100\n      exp\n      swap1\n      div\n      0xffffffff\n      and\n        /* \"1_TrueCoinflipETH_flat.sol\":47673:47780  COORDINATOR.requestRandomWords(keyHash, s_subscriptionId, requestConfirmations, callbackGasLimit, numWords) */\n      mload(0x40)\n      dup7\n      0xffffffff\n      and\n      0xe0\n      shl\n      dup2\n      mstore\n      0x04\n      add\n      tag_269\n      swap6\n      swap5\n      swap4\n      swap3\n      swap2\n      swap1\n      tag_270\n      jump\t// in\n    tag_269:\n      0x20\n      mload(0x40)\n      dup1\n      dup4\n      sub\n      dup2\n      0x00\n      dup8\n      dup1\n      extcodesize\n      iszero\n      dup1\n      iszero\n      tag_271\n      jumpi\n      0x00\n      dup1\n      revert\n    tag_271:\n      pop\n      gas\n      call\n      iszero\n      dup1\n      iszero\n      tag_273\n      jumpi\n      returndatasize\n      0x00\n      dup1\n      returndatacopy\n      revert(0x00, returndatasize)\n    tag_273:\n      pop\n      pop\n      pop\n      pop\n      mload(0x40)\n      returndatasize\n      not(0x1f)\n      0x1f\n      dup3\n      add\n      and\n      dup3\n      add\n      dup1\n      0x40\n      mstore\n      pop\n      dup2\n      add\n      swap1\n      tag_274\n      swap2\n      swap1\n      tag_199\n      jump\t// in\n    tag_274:\n        /* \"1_TrueCoinflipETH_flat.sol\":47661:47780  requestId = COORDINATOR.requestRandomWords(keyHash, s_subscriptionId, requestConfirmations, callbackGasLimit, numWords) */\n      swap1\n      pop\n        /* \"1_TrueCoinflipETH_flat.sol\":47814:47907  RequestStatus({randomness: 0, randomWords: new uint256[](0), exists: true, fulfilled: false}) */\n      mload(0x40)\n      dup1\n      0x80\n      add\n      0x40\n      mstore\n      dup1\n        /* \"1_TrueCoinflipETH_flat.sol\":47900:47905  false */\n      0x00\n        /* \"1_TrueCoinflipETH_flat.sol\":47814:47907  RequestStatus({randomness: 0, randomWords: new uint256[](0), exists: true, fulfilled: false}) */\n      iszero\n      iszero\n      dup2\n      mstore\n      0x20\n      add\n        /* \"1_TrueCoinflipETH_flat.sol\":47883:47887  true */\n      0x01\n        /* \"1_TrueCoinflipETH_flat.sol\":47814:47907  RequestStatus({randomness: 0, randomWords: new uint256[](0), exists: true, fulfilled: false}) */\n      iszero\n      iszero\n      dup2\n      mstore\n      0x20\n      add\n        /* \"1_TrueCoinflipETH_flat.sol\":47841:47842  0 */\n      0x00\n        /* \"1_TrueCoinflipETH_flat.sol\":47814:47907  RequestStatus({randomness: 0, randomWords: new uint256[](0), exists: true, fulfilled: false}) */\n      dup2\n      mstore\n      0x20\n      add\n        /* \"1_TrueCoinflipETH_flat.sol\":47871:47872  0 */\n      0x00\n        /* \"1_TrueCoinflipETH_flat.sol\":47857:47873  new uint256[](0) */\n      0xffffffffffffffff\n      dup2\n      gt\n      iszero\n      tag_275\n      jumpi\n      tag_276\n      tag_277\n      jump\t// in\n    tag_276:\n    tag_275:\n      mload(0x40)\n      swap1\n      dup1\n      dup3\n      mstore\n      dup1\n      0x20\n      mul\n      0x20\n      add\n      dup3\n      add\n      0x40\n      mstore\n      dup1\n      iszero\n      tag_278\n      jumpi\n      dup2\n      0x20\n      add\n      0x20\n      dup3\n      mul\n      dup1\n      calldatasize\n      dup4\n      calldatacopy\n      dup1\n      dup3\n      add\n      swap2\n      pop\n      pop\n      swap1\n      pop\n    tag_278:\n      pop\n        /* \"1_TrueCoinflipETH_flat.sol\":47814:47907  RequestStatus({randomness: 0, randomWords: new uint256[](0), exists: true, fulfilled: false}) */\n      dup2\n      mstore\n      pop\n        /* \"1_TrueCoinflipETH_flat.sol\":47790:47800  s_requests */\n      0x03\n        /* \"1_TrueCoinflipETH_flat.sol\":47790:47811  s_requests[requestId] */\n      0x00\n        /* \"1_TrueCoinflipETH_flat.sol\":47801:47810  requestId */\n      dup4\n        /* \"1_TrueCoinflipETH_flat.sol\":47790:47811  s_requests[requestId] */\n      dup2\n      mstore\n      0x20\n      add\n      swap1\n      dup2\n      mstore\n      0x20\n      add\n      0x00\n      keccak256\n        /* \"1_TrueCoinflipETH_flat.sol\":47790:47907  s_requests[requestId] = RequestStatus({randomness: 0, randomWords: new uint256[](0), exists: true, fulfilled: false}) */\n      0x00\n      dup3\n      add\n      mload\n      dup2\n      0x00\n      add\n      exp(0x0100, 0x00)\n      dup2\n      sload\n      dup2\n      0xff\n      mul\n      not\n      and\n      swap1\n      dup4\n      iszero\n      iszero\n      mul\n      or\n      swap1\n      sstore\n      pop\n      0x20\n      dup3\n      add\n      mload\n      dup2\n      0x00\n      add\n      exp(0x0100, 0x01)\n      dup2\n      sload\n      dup2\n      0xff\n      mul\n      not\n      and\n      swap1\n      dup4\n      iszero\n      iszero\n      mul\n      or\n      swap1\n      sstore\n      pop\n      0x40\n      dup3\n      add\n      mload\n      dup2\n      0x01\n      add\n      sstore\n      0x60\n      dup3\n      add\n      mload\n      dup2\n      0x02\n      add\n      swap1\n      dup1\n      mload\n      swap1\n      0x20\n      add\n      swap1\n      tag_279\n      swap3\n      swap2\n      swap1\n      tag_280\n      jump\t// in\n    tag_279:\n      pop\n      swap1\n      pop\n      pop\n        /* \"1_TrueCoinflipETH_flat.sol\":47917:47927  requestIds */\n      0x05\n        /* \"1_TrueCoinflipETH_flat.sol\":47933:47942  requestId */\n      dup2\n        /* \"1_TrueCoinflipETH_flat.sol\":47917:47943  requestIds.push(requestId) */\n      swap1\n      dup1\n      0x01\n      dup2\n      sload\n      add\n      dup1\n      dup3\n      sstore\n      dup1\n      swap2\n      pop\n      pop\n      0x01\n      swap1\n      sub\n      swap1\n      0x00\n      mstore\n      keccak256(0x00, 0x20)\n      add\n      0x00\n      swap1\n      swap2\n      swap1\n      swap2\n      swap1\n      swap2\n      pop\n      sstore\n        /* \"1_TrueCoinflipETH_flat.sol\":47958:47990  RequestSent(requestId, numWords) */\n      0xcc58b13ad3eab50626c6a6300b1d139cd6ebb1688a7cced9461c2f7e762665ee\n        /* \"1_TrueCoinflipETH_flat.sol\":47970:47979  requestId */\n      dup2\n        /* \"1_TrueCoinflipETH_flat.sol\":47981:47989  numWords */\n      0x07\n      0x06\n      swap1\n      sload\n      swap1\n      0x0100\n      exp\n      swap1\n      div\n      0xffffffff\n      and\n        /* \"1_TrueCoinflipETH_flat.sol\":47958:47990  RequestSent(requestId, numWords) */\n      mload(0x40)\n      tag_282\n      swap3\n      swap2\n      swap1\n      tag_283\n      jump\t// in\n    tag_282:\n      mload(0x40)\n      dup1\n      swap2\n      sub\n      swap1\n      log1\n        /* \"1_TrueCoinflipETH_flat.sol\":47514:48023  function requestRandomWords() public onlyOwner returns (uint256 requestId) {... */\n      swap1\n      jump\t// out\n        /* \"1_TrueCoinflipETH_flat.sol\":46355:47187  function refundBet(uint betId) external nonReentrant {... */\n    tag_178:\n        /* \"1_TrueCoinflipETH_flat.sol\":35578:35599  _nonReentrantBefore() */\n      tag_285\n        /* \"1_TrueCoinflipETH_flat.sol\":35578:35597  _nonReentrantBefore */\n      tag_286\n        /* \"1_TrueCoinflipETH_flat.sol\":35578:35599  _nonReentrantBefore() */\n      jump\t// in\n    tag_285:\n        /* \"1_TrueCoinflipETH_flat.sol\":46427:46442  Bet storage bet */\n      0x00\n        /* \"1_TrueCoinflipETH_flat.sol\":46445:46449  bets */\n      0x0e\n        /* \"1_TrueCoinflipETH_flat.sol\":46450:46455  betId */\n      dup3\n        /* \"1_TrueCoinflipETH_flat.sol\":46445:46456  bets[betId] */\n      dup2\n      sload\n      dup2\n      lt\n      tag_288\n      jumpi\n      tag_289\n      tag_290\n      jump\t// in\n    tag_289:\n    tag_288:\n      swap1\n      0x00\n      mstore\n      keccak256(0x00, 0x20)\n      swap1\n      0x05\n      mul\n      add\n        /* \"1_TrueCoinflipETH_flat.sol\":46427:46456  Bet storage bet = bets[betId] */\n      swap1\n      pop\n        /* \"1_TrueCoinflipETH_flat.sol\":46466:46477  uint amount */\n      0x00\n        /* \"1_TrueCoinflipETH_flat.sol\":46480:46483  bet */\n      dup2\n        /* \"1_TrueCoinflipETH_flat.sol\":46480:46490  bet.amount */\n      0x00\n      add\n      sload\n        /* \"1_TrueCoinflipETH_flat.sol\":46466:46490  uint amount = bet.amount */\n      swap1\n      pop\n        /* \"1_TrueCoinflipETH_flat.sol\":46547:46548  0 */\n      0x00\n        /* \"1_TrueCoinflipETH_flat.sol\":46538:46544  amount */\n      dup2\n        /* \"1_TrueCoinflipETH_flat.sol\":46538:46548  amount > 0 */\n      gt\n        /* \"1_TrueCoinflipETH_flat.sol\":46530:46571  require(amount > 0, \"Bet does not exist\") */\n      tag_292\n      jumpi\n      mload(0x40)\n      0x08c379a000000000000000000000000000000000000000000000000000000000\n      dup2\n      mstore\n      0x04\n      add\n      tag_293\n      swap1\n      tag_294\n      jump\t// in\n    tag_293:\n      mload(0x40)\n      dup1\n      swap2\n      sub\n      swap1\n      revert\n    tag_292:\n        /* \"1_TrueCoinflipETH_flat.sol\":46606:46611  false */\n      0x00\n        /* \"1_TrueCoinflipETH_flat.sol\":46589:46611  bet.isSettled == false */\n      iszero\n      iszero\n        /* \"1_TrueCoinflipETH_flat.sol\":46589:46592  bet */\n      dup3\n        /* \"1_TrueCoinflipETH_flat.sol\":46589:46602  bet.isSettled */\n      0x02\n      add\n      0x14\n      swap1\n      sload\n      swap1\n      0x0100\n      exp\n      swap1\n      div\n      0xff\n      and\n        /* \"1_TrueCoinflipETH_flat.sol\":46589:46611  bet.isSettled == false */\n      iszero\n      iszero\n      eq\n        /* \"1_TrueCoinflipETH_flat.sol\":46581:46638  require(bet.isSettled == false, \"Bet is settled already\") */\n      tag_295\n      jumpi\n      mload(0x40)\n      0x08c379a000000000000000000000000000000000000000000000000000000000\n      dup2\n      mstore\n      0x04\n      add\n      tag_296\n      swap1\n      tag_297\n      jump\t// in\n    tag_296:\n      mload(0x40)\n      dup1\n      swap2\n      sub\n      swap1\n      revert\n    tag_295:\n        /* \"1_TrueCoinflipETH_flat.sol\":46694:46710  waitBlockRequest */\n      sload(0x0d)\n        /* \"1_TrueCoinflipETH_flat.sol\":46671:46674  bet */\n      dup3\n        /* \"1_TrueCoinflipETH_flat.sol\":46671:46691  bet.placeBlockNumber */\n      0x01\n      add\n      sload\n        /* \"1_TrueCoinflipETH_flat.sol\":46671:46710  bet.placeBlockNumber + waitBlockRequest */\n      tag_298\n      swap2\n      swap1\n      tag_299\n      jump\t// in\n    tag_298:\n        /* \"1_TrueCoinflipETH_flat.sol\":46656:46668  block.number */\n      number\n        /* \"1_TrueCoinflipETH_flat.sol\":46656:46710  block.number > bet.placeBlockNumber + waitBlockRequest */\n      gt\n        /* \"1_TrueCoinflipETH_flat.sol\":46648:46744  require(block.number > bet.placeBlockNumber + waitBlockRequest, \"Wait before requesting refund\") */\n      tag_300\n      jumpi\n      mload(0x40)\n      0x08c379a000000000000000000000000000000000000000000000000000000000\n      dup2\n      mstore\n      0x04\n      add\n      tag_301\n      swap1\n      tag_302\n      jump\t// in\n    tag_301:\n      mload(0x40)\n      dup1\n      swap2\n      sub\n      swap1\n      revert\n    tag_300:\n        /* \"1_TrueCoinflipETH_flat.sol\":46755:46777  uint possibleWinAmount */\n      0x00\n        /* \"1_TrueCoinflipETH_flat.sol\":46780:46800  getWinAmount(amount) */\n      tag_303\n        /* \"1_TrueCoinflipETH_flat.sol\":46793:46799  amount */\n      dup3\n        /* \"1_TrueCoinflipETH_flat.sol\":46780:46792  getWinAmount */\n      tag_304\n        /* \"1_TrueCoinflipETH_flat.sol\":46780:46800  getWinAmount(amount) */\n      jump\t// in\n    tag_303:\n        /* \"1_TrueCoinflipETH_flat.sol\":46755:46800  uint possibleWinAmount = getWinAmount(amount) */\n      swap1\n      pop\n        /* \"1_TrueCoinflipETH_flat.sol\":46909:46926  possibleWinAmount */\n      dup1\n        /* \"1_TrueCoinflipETH_flat.sol\":46893:46905  lockedInBets */\n      0x0c\n      0x00\n        /* \"1_TrueCoinflipETH_flat.sol\":46893:46926  lockedInBets -= possibleWinAmount */\n      dup3\n      dup3\n      sload\n      tag_305\n      swap2\n      swap1\n      tag_254\n      jump\t// in\n    tag_305:\n      swap3\n      pop\n      pop\n      dup2\n      swap1\n      sstore\n      pop\n        /* \"1_TrueCoinflipETH_flat.sol\":46983:46987  true */\n      0x01\n        /* \"1_TrueCoinflipETH_flat.sol\":46967:46970  bet */\n      dup4\n        /* \"1_TrueCoinflipETH_flat.sol\":46967:46980  bet.isSettled */\n      0x02\n      add\n      0x14\n        /* \"1_TrueCoinflipETH_flat.sol\":46967:46987  bet.isSettled = true */\n      0x0100\n      exp\n      dup2\n      sload\n      dup2\n      0xff\n      mul\n      not\n      and\n      swap1\n      dup4\n      iszero\n      iszero\n      mul\n      or\n      swap1\n      sstore\n      pop\n        /* \"1_TrueCoinflipETH_flat.sol\":47013:47019  amount */\n      dup2\n        /* \"1_TrueCoinflipETH_flat.sol\":46997:47000  bet */\n      dup4\n        /* \"1_TrueCoinflipETH_flat.sol\":46997:47010  bet.winAmount */\n      0x04\n      add\n        /* \"1_TrueCoinflipETH_flat.sol\":46997:47019  bet.winAmount = amount */\n      dup2\n      swap1\n      sstore\n      pop\n        /* \"1_TrueCoinflipETH_flat.sol\":47058:47061  bet */\n      dup3\n        /* \"1_TrueCoinflipETH_flat.sol\":47058:47069  bet.gambler */\n      0x02\n      add\n      0x00\n      swap1\n      sload\n      swap1\n      0x0100\n      exp\n      swap1\n      div\n      0xffffffffffffffffffffffffffffffffffffffff\n      and\n        /* \"1_TrueCoinflipETH_flat.sol\":47058:47078  bet.gambler.transfer */\n      0xffffffffffffffffffffffffffffffffffffffff\n      and\n        /* \"1_TrueCoinflipETH_flat.sol\":47058:47086  bet.gambler.transfer(amount) */\n      0x08fc\n        /* \"1_TrueCoinflipETH_flat.sol\":47079:47085  amount */\n      dup4\n        /* \"1_TrueCoinflipETH_flat.sol\":47058:47086  bet.gambler.transfer(amount) */\n      swap1\n      dup2\n      iszero\n      mul\n      swap1\n      mload(0x40)\n      0x00\n      mload(0x40)\n      dup1\n      dup4\n      sub\n      dup2\n      dup6\n      dup9\n      dup9\n      call\n      swap4\n      pop\n      pop\n      pop\n      pop\n      iszero\n      dup1\n      iszero\n      tag_307\n      jumpi\n      returndatasize\n      0x00\n      dup1\n      returndatacopy\n      revert(0x00, returndatasize)\n    tag_307:\n      pop\n        /* \"1_TrueCoinflipETH_flat.sol\":47160:47163  bet */\n      dup3\n        /* \"1_TrueCoinflipETH_flat.sol\":47160:47171  bet.gambler */\n      0x02\n      add\n      0x00\n      swap1\n      sload\n      swap1\n      0x0100\n      exp\n      swap1\n      div\n      0xffffffffffffffffffffffffffffffffffffffff\n      and\n        /* \"1_TrueCoinflipETH_flat.sol\":47141:47180  BetRefunded(betId, bet.gambler, amount) */\n      0xffffffffffffffffffffffffffffffffffffffff\n      and\n        /* \"1_TrueCoinflipETH_flat.sol\":47153:47158  betId */\n      dup5\n        /* \"1_TrueCoinflipETH_flat.sol\":47141:47180  BetRefunded(betId, bet.gambler, amount) */\n      0xf22517a5eae9f54be712c3150eca5ba925d233687b223c2ebf89272f12ee0865\n        /* \"1_TrueCoinflipETH_flat.sol\":47173:47179  amount */\n      dup5\n        /* \"1_TrueCoinflipETH_flat.sol\":47141:47180  BetRefunded(betId, bet.gambler, amount) */\n      mload(0x40)\n      tag_308\n      swap2\n      swap1\n      tag_53\n      jump\t// in\n    tag_308:\n      mload(0x40)\n      dup1\n      swap2\n      sub\n      swap1\n      log3\n        /* \"1_TrueCoinflipETH_flat.sol\":46408:47187  {... */\n      pop\n      pop\n      pop\n        /* \"1_TrueCoinflipETH_flat.sol\":35620:35640  _nonReentrantAfter() */\n      tag_309\n        /* \"1_TrueCoinflipETH_flat.sol\":35620:35638  _nonReentrantAfter */\n      tag_310\n        /* \"1_TrueCoinflipETH_flat.sol\":35620:35640  _nonReentrantAfter() */\n      jump\t// in\n    tag_309:\n        /* \"1_TrueCoinflipETH_flat.sol\":46355:47187  function refundBet(uint betId) external nonReentrant {... */\n      pop\n      jump\t// out\n        /* \"1_TrueCoinflipETH_flat.sol\":1099:1197  function transferOwnership(address to) public override onlyOwner {... */\n    tag_182:\n        /* \"1_TrueCoinflipETH_flat.sol\":2229:2249  _validateOwnership() */\n      tag_312\n        /* \"1_TrueCoinflipETH_flat.sol\":2229:2247  _validateOwnership */\n      tag_202\n        /* \"1_TrueCoinflipETH_flat.sol\":2229:2249  _validateOwnership() */\n      jump\t// in\n    tag_312:\n        /* \"1_TrueCoinflipETH_flat.sol\":1170:1192  _transferOwnership(to) */\n      tag_314\n        /* \"1_TrueCoinflipETH_flat.sol\":1189:1191  to */\n      dup2\n        /* \"1_TrueCoinflipETH_flat.sol\":1170:1188  _transferOwnership */\n      tag_315\n        /* \"1_TrueCoinflipETH_flat.sol\":1170:1192  _transferOwnership(to) */\n      jump\t// in\n    tag_314:\n        /* \"1_TrueCoinflipETH_flat.sol\":1099:1197  function transferOwnership(address to) public override onlyOwner {... */\n      pop\n      jump\t// out\n        /* \"1_TrueCoinflipETH_flat.sol\":40996:41121  function setwaitBlockRequest(uint _waitBlockRequest) external onlyOwner {... */\n    tag_186:\n        /* \"1_TrueCoinflipETH_flat.sol\":2229:2249  _validateOwnership() */\n      tag_317\n        /* \"1_TrueCoinflipETH_flat.sol\":2229:2247  _validateOwnership */\n      tag_202\n        /* \"1_TrueCoinflipETH_flat.sol\":2229:2249  _validateOwnership() */\n      jump\t// in\n    tag_317:\n        /* \"1_TrueCoinflipETH_flat.sol\":41097:41114  _waitBlockRequest */\n      dup1\n        /* \"1_TrueCoinflipETH_flat.sol\":41078:41094  waitBlockRequest */\n      0x0d\n        /* \"1_TrueCoinflipETH_flat.sol\":41078:41114  waitBlockRequest = _waitBlockRequest */\n      dup2\n      swap1\n      sstore\n      pop\n        /* \"1_TrueCoinflipETH_flat.sol\":40996:41121  function setwaitBlockRequest(uint _waitBlockRequest) external onlyOwner {... */\n      pop\n      jump\t// out\n        /* \"1_TrueCoinflipETH_flat.sol\":43192:44615  function placeBet() external payable nonReentrant {... */\n    tag_188:\n        /* \"1_TrueCoinflipETH_flat.sol\":35578:35599  _nonReentrantBefore() */\n      tag_320\n        /* \"1_TrueCoinflipETH_flat.sol\":35578:35597  _nonReentrantBefore */\n      tag_286\n        /* \"1_TrueCoinflipETH_flat.sol\":35578:35599  _nonReentrantBefore() */\n      jump\t// in\n    tag_320:\n        /* \"1_TrueCoinflipETH_flat.sol\":43285:43296  uint amount */\n      0x00\n        /* \"1_TrueCoinflipETH_flat.sol\":43299:43308  msg.value */\n      callvalue\n        /* \"1_TrueCoinflipETH_flat.sol\":43285:43308  uint amount = msg.value */\n      swap1\n      pop\n        /* \"1_TrueCoinflipETH_flat.sol\":43346:43368  uint possibleWinAmount */\n      0x00\n        /* \"1_TrueCoinflipETH_flat.sol\":43371:43391  getWinAmount(amount) */\n      tag_322\n        /* \"1_TrueCoinflipETH_flat.sol\":43384:43390  amount */\n      dup3\n        /* \"1_TrueCoinflipETH_flat.sol\":43371:43383  getWinAmount */\n      tag_304\n        /* \"1_TrueCoinflipETH_flat.sol\":43371:43391  getWinAmount(amount) */\n      jump\t// in\n    tag_322:\n        /* \"1_TrueCoinflipETH_flat.sol\":43346:43391  uint possibleWinAmount = getWinAmount(amount) */\n      swap1\n      pop\n        /* \"1_TrueCoinflipETH_flat.sol\":43525:43536  maxProfit() */\n      tag_323\n        /* \"1_TrueCoinflipETH_flat.sol\":43525:43534  maxProfit */\n      tag_138\n        /* \"1_TrueCoinflipETH_flat.sol\":43525:43536  maxProfit() */\n      jump\t// in\n    tag_323:\n        /* \"1_TrueCoinflipETH_flat.sol\":43516:43522  amount */\n      dup3\n        /* \"1_TrueCoinflipETH_flat.sol\":43516:43536  amount + maxProfit() */\n      tag_324\n      swap2\n      swap1\n      tag_299\n      jump\t// in\n    tag_324:\n        /* \"1_TrueCoinflipETH_flat.sol\":43495:43512  possibleWinAmount */\n      dup2\n        /* \"1_TrueCoinflipETH_flat.sol\":43495:43536  possibleWinAmount <= amount + maxProfit() */\n      gt\n      iszero\n        /* \"1_TrueCoinflipETH_flat.sol\":43487:43560  require(possibleWinAmount <= amount + maxProfit(), \"maxProfit violation\") */\n      tag_325\n      jumpi\n      mload(0x40)\n      0x08c379a000000000000000000000000000000000000000000000000000000000\n      dup2\n      mstore\n      0x04\n      add\n      tag_326\n      swap1\n      tag_327\n      jump\t// in\n    tag_326:\n      mload(0x40)\n      dup1\n      swap2\n      sub\n      swap1\n      revert\n    tag_325:\n        /* \"1_TrueCoinflipETH_flat.sol\":43686:43707  address(this).balance */\n      selfbalance\n        /* \"1_TrueCoinflipETH_flat.sol\":43665:43682  possibleWinAmount */\n      dup2\n        /* \"1_TrueCoinflipETH_flat.sol\":43650:43662  lockedInBets */\n      sload(0x0c)\n        /* \"1_TrueCoinflipETH_flat.sol\":43650:43682  lockedInBets + possibleWinAmount */\n      tag_328\n      swap2\n      swap1\n      tag_299\n      jump\t// in\n    tag_328:\n        /* \"1_TrueCoinflipETH_flat.sol\":43650:43707  lockedInBets + possibleWinAmount <= address(this).balance */\n      gt\n      iszero\n        /* \"1_TrueCoinflipETH_flat.sol\":43642:43730  require(lockedInBets + possibleWinAmount <= address(this).balance, \"Insufficient funds\") */\n      tag_329\n      jumpi\n      mload(0x40)\n      0x08c379a000000000000000000000000000000000000000000000000000000000\n      dup2\n      mstore\n      0x04\n      add\n      tag_330\n      swap1\n      tag_331\n      jump\t// in\n    tag_330:\n      mload(0x40)\n      dup1\n      swap2\n      sub\n      swap1\n      revert\n    tag_329:\n        /* \"1_TrueCoinflipETH_flat.sol\":43787:43804  possibleWinAmount */\n      dup1\n        /* \"1_TrueCoinflipETH_flat.sol\":43771:43783  lockedInBets */\n      0x0c\n      0x00\n        /* \"1_TrueCoinflipETH_flat.sol\":43771:43804  lockedInBets += possibleWinAmount */\n      dup3\n      dup3\n      sload\n      tag_332\n      swap2\n      swap1\n      tag_299\n      jump\t// in\n    tag_332:\n      swap3\n      pop\n      pop\n      dup2\n      swap1\n      sstore\n      pop\n        /* \"1_TrueCoinflipETH_flat.sol\":43998:44018  uint256 requestIdMod */\n      0x00\n        /* \"1_TrueCoinflipETH_flat.sol\":44021:44041  requestRandomWords() */\n      tag_333\n        /* \"1_TrueCoinflipETH_flat.sol\":44021:44039  requestRandomWords */\n      tag_173\n        /* \"1_TrueCoinflipETH_flat.sol\":44021:44041  requestRandomWords() */\n      jump\t// in\n    tag_333:\n        /* \"1_TrueCoinflipETH_flat.sol\":43998:44041  uint256 requestIdMod = requestRandomWords() */\n      swap1\n      pop\n        /* \"1_TrueCoinflipETH_flat.sol\":44111:44115  bets */\n      0x0e\n        /* \"1_TrueCoinflipETH_flat.sol\":44111:44122  bets.length */\n      dup1\n      sload\n      swap1\n      pop\n        /* \"1_TrueCoinflipETH_flat.sol\":44088:44094  betMap */\n      0x0f\n        /* \"1_TrueCoinflipETH_flat.sol\":44088:44108  betMap[requestIdMod] */\n      0x00\n        /* \"1_TrueCoinflipETH_flat.sol\":44095:44107  requestIdMod */\n      dup4\n        /* \"1_TrueCoinflipETH_flat.sol\":44088:44108  betMap[requestIdMod] */\n      dup2\n      mstore\n      0x20\n      add\n      swap1\n      dup2\n      mstore\n      0x20\n      add\n      0x00\n      keccak256\n        /* \"1_TrueCoinflipETH_flat.sol\":44088:44122  betMap[requestIdMod] = bets.length */\n      dup2\n      swap1\n      sstore\n      pop\n        /* \"1_TrueCoinflipETH_flat.sol\":44274:44284  msg.sender */\n      caller\n        /* \"1_TrueCoinflipETH_flat.sol\":44251:44293  BetPlaced(bets.length, msg.sender, amount) */\n      0xffffffffffffffffffffffffffffffffffffffff\n      and\n        /* \"1_TrueCoinflipETH_flat.sol\":44261:44265  bets */\n      0x0e\n        /* \"1_TrueCoinflipETH_flat.sol\":44261:44272  bets.length */\n      dup1\n      sload\n      swap1\n      pop\n        /* \"1_TrueCoinflipETH_flat.sol\":44251:44293  BetPlaced(bets.length, msg.sender, amount) */\n      0x87b9df6fa7123c2e6044c3a3a37b4b0662c188d7a58ef86ee55067c46e4613ad\n        /* \"1_TrueCoinflipETH_flat.sol\":44286:44292  amount */\n      dup6\n        /* \"1_TrueCoinflipETH_flat.sol\":44251:44293  BetPlaced(bets.length, msg.sender, amount) */\n      mload(0x40)\n      tag_334\n      swap2\n      swap1\n      tag_53\n      jump\t// in\n    tag_334:\n      mload(0x40)\n      dup1\n      swap2\n      sub\n      swap1\n      log3\n        /* \"1_TrueCoinflipETH_flat.sol\":44338:44342  bets */\n      0x0e\n        /* \"1_TrueCoinflipETH_flat.sol\":44348:44607  Bet(... */\n      mload(0x40)\n      dup1\n      0xc0\n      add\n      0x40\n      mstore\n      dup1\n        /* \"1_TrueCoinflipETH_flat.sol\":44391:44397  amount */\n      dup6\n        /* \"1_TrueCoinflipETH_flat.sol\":44348:44607  Bet(... */\n      dup2\n      mstore\n      0x20\n      add\n        /* \"1_TrueCoinflipETH_flat.sol\":44433:44445  block.number */\n      number\n        /* \"1_TrueCoinflipETH_flat.sol\":44348:44607  Bet(... */\n      dup2\n      mstore\n      0x20\n      add\n        /* \"1_TrueCoinflipETH_flat.sol\":44480:44490  msg.sender */\n      caller\n        /* \"1_TrueCoinflipETH_flat.sol\":44348:44607  Bet(... */\n      0xffffffffffffffffffffffffffffffffffffffff\n      and\n      dup2\n      mstore\n      0x20\n      add\n        /* \"1_TrueCoinflipETH_flat.sol\":44520:44525  false */\n      0x00\n        /* \"1_TrueCoinflipETH_flat.sol\":44348:44607  Bet(... */\n      iszero\n      iszero\n      dup2\n      mstore\n      0x20\n      add\n        /* \"1_TrueCoinflipETH_flat.sol\":44552:44553  0 */\n      0x00\n        /* \"1_TrueCoinflipETH_flat.sol\":44348:44607  Bet(... */\n      dup2\n      mstore\n      0x20\n      add\n        /* \"1_TrueCoinflipETH_flat.sol\":44582:44583  0 */\n      0x00\n        /* \"1_TrueCoinflipETH_flat.sol\":44348:44607  Bet(... */\n      dup2\n      mstore\n      pop\n        /* \"1_TrueCoinflipETH_flat.sol\":44338:44608  bets.push(Bet(... */\n      swap1\n      dup1\n      0x01\n      dup2\n      sload\n      add\n      dup1\n      dup3\n      sstore\n      dup1\n      swap2\n      pop\n      pop\n      0x01\n      swap1\n      sub\n      swap1\n      0x00\n      mstore\n      keccak256(0x00, 0x20)\n      swap1\n      0x05\n      mul\n      add\n      0x00\n      swap1\n      swap2\n      swap1\n      swap2\n      swap1\n      swap2\n      pop\n      0x00\n      dup3\n      add\n      mload\n      dup2\n      0x00\n      add\n      sstore\n      0x20\n      dup3\n      add\n      mload\n      dup2\n      0x01\n      add\n      sstore\n      0x40\n      dup3\n      add\n      mload\n      dup2\n      0x02\n      add\n      exp(0x0100, 0x00)\n      dup2\n      sload\n      dup2\n      0xffffffffffffffffffffffffffffffffffffffff\n      mul\n      not\n      and\n      swap1\n      dup4\n      0xffffffffffffffffffffffffffffffffffffffff\n      and\n      mul\n      or\n      swap1\n      sstore\n      pop\n      0x60\n      dup3\n      add\n      mload\n      dup2\n      0x02\n      add\n      exp(0x0100, 0x14)\n      dup2\n      sload\n      dup2\n      0xff\n      mul\n      not\n      and\n      swap1\n      dup4\n      iszero\n      iszero\n      mul\n      or\n      swap1\n      sstore\n      pop\n      0x80\n      dup3\n      add\n      mload\n      dup2\n      0x03\n      add\n      sstore\n      0xa0\n      dup3\n      add\n      mload\n      dup2\n      0x04\n      add\n      sstore\n      pop\n      pop\n        /* \"1_TrueCoinflipETH_flat.sol\":43242:44615  {... */\n      pop\n      pop\n      pop\n        /* \"1_TrueCoinflipETH_flat.sol\":35620:35640  _nonReentrantAfter() */\n      tag_336\n        /* \"1_TrueCoinflipETH_flat.sol\":35620:35638  _nonReentrantAfter */\n      tag_310\n        /* \"1_TrueCoinflipETH_flat.sol\":35620:35640  _nonReentrantAfter() */\n      jump\t// in\n    tag_336:\n        /* \"1_TrueCoinflipETH_flat.sol\":43192:44615  function placeBet() external payable nonReentrant {... */\n      jump\t// out\n        /* \"1_TrueCoinflipETH_flat.sol\":39032:39060  uint public minBetAmount = 1 */\n    tag_191:\n      sload(0x09)\n      dup2\n      jump\t// out\n        /* \"1_TrueCoinflipETH_flat.sol\":2003:2114  function _validateOwnership() internal view {... */\n    tag_202:\n        /* \"1_TrueCoinflipETH_flat.sol\":2075:2082  s_owner */\n      0x00\n      dup1\n      sload\n      swap1\n      0x0100\n      exp\n      swap1\n      div\n      0xffffffffffffffffffffffffffffffffffffffff\n      and\n        /* \"1_TrueCoinflipETH_flat.sol\":2061:2082  msg.sender == s_owner */\n      0xffffffffffffffffffffffffffffffffffffffff\n      and\n        /* \"1_TrueCoinflipETH_flat.sol\":2061:2071  msg.sender */\n      caller\n        /* \"1_TrueCoinflipETH_flat.sol\":2061:2082  msg.sender == s_owner */\n      0xffffffffffffffffffffffffffffffffffffffff\n      and\n      eq\n        /* \"1_TrueCoinflipETH_flat.sol\":2053:2109  require(msg.sender == s_owner, \"Only callable by owner\") */\n      tag_338\n      jumpi\n      mload(0x40)\n      0x08c379a000000000000000000000000000000000000000000000000000000000\n      dup2\n      mstore\n      0x04\n      add\n      tag_339\n      swap1\n      tag_340\n      jump\t// in\n    tag_339:\n      mload(0x40)\n      dup1\n      swap2\n      sub\n      swap1\n      revert\n    tag_338:\n        /* \"1_TrueCoinflipETH_flat.sol\":2003:2114  function _validateOwnership() internal view {... */\n      jump\t// out\n        /* \"1_TrueCoinflipETH_flat.sol\":48033:48516  function fulfillRandomWords( uint256 _requestId, uint256[] memory _randomWords) internal override {... */\n    tag_209:\n        /* \"1_TrueCoinflipETH_flat.sol\":48145:48155  s_requests */\n      0x03\n        /* \"1_TrueCoinflipETH_flat.sol\":48145:48167  s_requests[_requestId] */\n      0x00\n        /* \"1_TrueCoinflipETH_flat.sol\":48156:48166  _requestId */\n      dup4\n        /* \"1_TrueCoinflipETH_flat.sol\":48145:48167  s_requests[_requestId] */\n      dup2\n      mstore\n      0x20\n      add\n      swap1\n      dup2\n      mstore\n      0x20\n      add\n      0x00\n      keccak256\n        /* \"1_TrueCoinflipETH_flat.sol\":48145:48174  s_requests[_requestId].exists */\n      0x00\n      add\n      0x01\n      swap1\n      sload\n      swap1\n      0x0100\n      exp\n      swap1\n      div\n      0xff\n      and\n        /* \"1_TrueCoinflipETH_flat.sol\":48137:48196  require(s_requests[_requestId].exists, \"request not found\") */\n      tag_342\n      jumpi\n      mload(0x40)\n      0x08c379a000000000000000000000000000000000000000000000000000000000\n      dup2\n      mstore\n      0x04\n      add\n      tag_343\n      swap1\n      tag_263\n      jump\t// in\n    tag_343:\n      mload(0x40)\n      dup1\n      swap2\n      sub\n      swap1\n      revert\n    tag_342:\n        /* \"1_TrueCoinflipETH_flat.sol\":48239:48251  _randomWords */\n      dup1\n        /* \"1_TrueCoinflipETH_flat.sol\":48202:48212  s_requests */\n      0x03\n        /* \"1_TrueCoinflipETH_flat.sol\":48202:48224  s_requests[_requestId] */\n      0x00\n        /* \"1_TrueCoinflipETH_flat.sol\":48213:48223  _requestId */\n      dup5\n        /* \"1_TrueCoinflipETH_flat.sol\":48202:48224  s_requests[_requestId] */\n      dup2\n      mstore\n      0x20\n      add\n      swap1\n      dup2\n      mstore\n      0x20\n      add\n      0x00\n      keccak256\n        /* \"1_TrueCoinflipETH_flat.sol\":48202:48236  s_requests[_requestId].randomWords */\n      0x02\n      add\n        /* \"1_TrueCoinflipETH_flat.sol\":48202:48251  s_requests[_requestId].randomWords = _randomWords */\n      swap1\n      dup1\n      mload\n      swap1\n      0x20\n      add\n      swap1\n      tag_344\n      swap3\n      swap2\n      swap1\n      tag_280\n      jump\t// in\n    tag_344:\n      pop\n        /* \"1_TrueCoinflipETH_flat.sol\":48292:48296  true */\n      0x01\n        /* \"1_TrueCoinflipETH_flat.sol\":48257:48267  s_requests */\n      0x03\n        /* \"1_TrueCoinflipETH_flat.sol\":48257:48279  s_requests[_requestId] */\n      0x00\n        /* \"1_TrueCoinflipETH_flat.sol\":48268:48278  _requestId */\n      dup5\n        /* \"1_TrueCoinflipETH_flat.sol\":48257:48279  s_requests[_requestId] */\n      dup2\n      mstore\n      0x20\n      add\n      swap1\n      dup2\n      mstore\n      0x20\n      add\n      0x00\n      keccak256\n        /* \"1_TrueCoinflipETH_flat.sol\":48257:48289  s_requests[_requestId].fulfilled */\n      0x00\n      add\n      0x00\n        /* \"1_TrueCoinflipETH_flat.sol\":48257:48296  s_requests[_requestId].fulfilled = true */\n      0x0100\n      exp\n      dup2\n      sload\n      dup2\n      0xff\n      mul\n      not\n      and\n      swap1\n      dup4\n      iszero\n      iszero\n      mul\n      or\n      swap1\n      sstore\n      pop\n        /* \"1_TrueCoinflipETH_flat.sol\":48395:48396  1 */\n      0x01\n        /* \"1_TrueCoinflipETH_flat.sol\":48390:48391  2 */\n      0x02\n        /* \"1_TrueCoinflipETH_flat.sol\":48372:48384  _randomWords */\n      dup3\n        /* \"1_TrueCoinflipETH_flat.sol\":48385:48386  0 */\n      0x00\n        /* \"1_TrueCoinflipETH_flat.sol\":48372:48387  _randomWords[0] */\n      dup2\n      mload\n      dup2\n      lt\n      tag_345\n      jumpi\n      tag_346\n      tag_290\n      jump\t// in\n    tag_346:\n    tag_345:\n      0x20\n      mul\n      0x20\n      add\n      add\n      mload\n        /* \"1_TrueCoinflipETH_flat.sol\":48372:48391  _randomWords[0] % 2 */\n      tag_347\n      swap2\n      swap1\n      tag_348\n      jump\t// in\n    tag_347:\n        /* \"1_TrueCoinflipETH_flat.sol\":48371:48396  (_randomWords[0] % 2) + 1 */\n      tag_349\n      swap2\n      swap1\n      tag_299\n      jump\t// in\n    tag_349:\n        /* \"1_TrueCoinflipETH_flat.sol\":48335:48345  s_requests */\n      0x03\n        /* \"1_TrueCoinflipETH_flat.sol\":48335:48357  s_requests[_requestId] */\n      0x00\n        /* \"1_TrueCoinflipETH_flat.sol\":48346:48356  _requestId */\n      dup5\n        /* \"1_TrueCoinflipETH_flat.sol\":48335:48357  s_requests[_requestId] */\n      dup2\n      mstore\n      0x20\n      add\n      swap1\n      dup2\n      mstore\n      0x20\n      add\n      0x00\n      keccak256\n        /* \"1_TrueCoinflipETH_flat.sol\":48335:48368  s_requests[_requestId].randomness */\n      0x01\n      add\n        /* \"1_TrueCoinflipETH_flat.sol\":48335:48396  s_requests[_requestId].randomness = (_randomWords[0] % 2) + 1 */\n      dup2\n      swap1\n      sstore\n      pop\n        /* \"1_TrueCoinflipETH_flat.sol\":48471:48509  settleBet(_requestId, _randomWords[0]) */\n      tag_350\n        /* \"1_TrueCoinflipETH_flat.sol\":48481:48491  _requestId */\n      dup3\n        /* \"1_TrueCoinflipETH_flat.sol\":48493:48505  _randomWords */\n      dup3\n        /* \"1_TrueCoinflipETH_flat.sol\":48506:48507  0 */\n      0x00\n        /* \"1_TrueCoinflipETH_flat.sol\":48493:48508  _randomWords[0] */\n      dup2\n      mload\n      dup2\n      lt\n      tag_351\n      jumpi\n      tag_352\n      tag_290\n      jump\t// in\n    tag_352:\n    tag_351:\n      0x20\n      mul\n      0x20\n      add\n      add\n      mload\n        /* \"1_TrueCoinflipETH_flat.sol\":48471:48480  settleBet */\n      tag_353\n        /* \"1_TrueCoinflipETH_flat.sol\":48471:48509  settleBet(_requestId, _randomWords[0]) */\n      jump\t// in\n    tag_350:\n        /* \"1_TrueCoinflipETH_flat.sol\":48033:48516  function fulfillRandomWords( uint256 _requestId, uint256[] memory _randomWords) internal override {... */\n      pop\n      pop\n      jump\t// out\n        /* \"1_TrueCoinflipETH_flat.sol\":29696:29871  function safeTransfer(IERC20 token, address to, uint256 value) internal {... */\n    tag_237:\n        /* \"1_TrueCoinflipETH_flat.sol\":29778:29864  _callOptionalReturn(token, abi.encodeWithSelector(token.transfer.selector, to, value)) */\n      tag_355\n        /* \"1_TrueCoinflipETH_flat.sol\":29798:29803  token */\n      dup4\n        /* \"1_TrueCoinflipETH_flat.sol\":29828:29851  token.transfer.selector */\n      shl(0xe0, 0xa9059cbb)\n        /* \"1_TrueCoinflipETH_flat.sol\":29853:29855  to */\n      dup5\n        /* \"1_TrueCoinflipETH_flat.sol\":29857:29862  value */\n      dup5\n        /* \"1_TrueCoinflipETH_flat.sol\":29805:29863  abi.encodeWithSelector(token.transfer.selector, to, value) */\n      add(0x24, mload(0x40))\n      tag_356\n      swap3\n      swap2\n      swap1\n      tag_357\n      jump\t// in\n    tag_356:\n      mload(0x40)\n      0x20\n      dup2\n      dup4\n      sub\n      sub\n      dup2\n      mstore\n      swap1\n      0x40\n      mstore\n      swap1\n      not(0xffffffffffffffffffffffffffffffffffffffffffffffffffffffff)\n      and\n      0x20\n      dup3\n      add\n      dup1\n      mload\n      0xffffffffffffffffffffffffffffffffffffffffffffffffffffffff\n      dup4\n      dup2\n      dup4\n      and\n      or\n      dup4\n      mstore\n      pop\n      pop\n      pop\n      pop\n        /* \"1_TrueCoinflipETH_flat.sol\":29778:29797  _callOptionalReturn */\n      tag_358\n        /* \"1_TrueCoinflipETH_flat.sol\":29778:29864  _callOptionalReturn(token, abi.encodeWithSelector(token.transfer.selector, to, value)) */\n      jump\t// in\n    tag_355:\n        /* \"1_TrueCoinflipETH_flat.sol\":29696:29871  function safeTransfer(IERC20 token, address to, uint256 value) internal {... */\n      pop\n      pop\n      pop\n      jump\t// out\n        /* \"1_TrueCoinflipETH_flat.sol\":35653:35940  function _nonReentrantBefore() private {... */\n    tag_286:\n        /* \"1_TrueCoinflipETH_flat.sol\":35076:35077  2 */\n      0x02\n        /* \"1_TrueCoinflipETH_flat.sol\":35785:35792  _status */\n      dup1\n      sload\n        /* \"1_TrueCoinflipETH_flat.sol\":35785:35804  _status != _ENTERED */\n      eq\n      iszero\n        /* \"1_TrueCoinflipETH_flat.sol\":35777:35840  require(_status != _ENTERED, \"ReentrancyGuard: reentrant call\") */\n      tag_360\n      jumpi\n      mload(0x40)\n      0x08c379a000000000000000000000000000000000000000000000000000000000\n      dup2\n      mstore\n      0x04\n      add\n      tag_361\n      swap1\n      tag_362\n      jump\t// in\n    tag_361:\n      mload(0x40)\n      dup1\n      swap2\n      sub\n      swap1\n      revert\n    tag_360:\n        /* \"1_TrueCoinflipETH_flat.sol\":35076:35077  2 */\n      0x02\n        /* \"1_TrueCoinflipETH_flat.sol\":35915:35922  _status */\n      dup1\n        /* \"1_TrueCoinflipETH_flat.sol\":35915:35933  _status = _ENTERED */\n      dup2\n      swap1\n      sstore\n      pop\n        /* \"1_TrueCoinflipETH_flat.sol\":35653:35940  function _nonReentrantBefore() private {... */\n      jump\t// out\n        /* \"1_TrueCoinflipETH_flat.sol\":42878:43054  function getWinAmount(uint _amount) private view returns (uint winAmount) {... */\n    tag_304:\n        /* \"1_TrueCoinflipETH_flat.sol\":42936:42950  uint winAmount */\n      0x00\n        /* \"1_TrueCoinflipETH_flat.sol\":42962:42979  uint houseEdgeFee */\n      dup1\n        /* \"1_TrueCoinflipETH_flat.sol\":43008:43011  100 */\n      0x64\n        /* \"1_TrueCoinflipETH_flat.sol\":42993:43004  houseEdgeBP */\n      sload(0x08)\n        /* \"1_TrueCoinflipETH_flat.sol\":42982:42989  _amount */\n      dup5\n        /* \"1_TrueCoinflipETH_flat.sol\":42982:43005  _amount * (houseEdgeBP) */\n      tag_364\n      swap2\n      swap1\n      tag_365\n      jump\t// in\n    tag_364:\n        /* \"1_TrueCoinflipETH_flat.sol\":42982:43011  _amount * (houseEdgeBP) / 100 */\n      tag_366\n      swap2\n      swap1\n      tag_244\n      jump\t// in\n    tag_366:\n        /* \"1_TrueCoinflipETH_flat.sol\":42962:43011  uint houseEdgeFee = _amount * (houseEdgeBP) / 100 */\n      swap1\n      pop\n        /* \"1_TrueCoinflipETH_flat.sol\":43034:43046  houseEdgeFee */\n      dup1\n        /* \"1_TrueCoinflipETH_flat.sol\":43021:43047  winAmount = (houseEdgeFee) */\n      swap2\n      pop\n        /* \"1_TrueCoinflipETH_flat.sol\":42952:43054  {... */\n      pop\n        /* \"1_TrueCoinflipETH_flat.sol\":42878:43054  function getWinAmount(uint _amount) private view returns (uint winAmount) {... */\n      swap2\n      swap1\n      pop\n      jump\t// out\n        /* \"1_TrueCoinflipETH_flat.sol\":35946:36155  function _nonReentrantAfter() private {... */\n    tag_310:\n        /* \"1_TrueCoinflipETH_flat.sol\":35033:35034  1 */\n      0x01\n        /* \"1_TrueCoinflipETH_flat.sol\":36126:36133  _status */\n      0x02\n        /* \"1_TrueCoinflipETH_flat.sol\":36126:36148  _status = _NOT_ENTERED */\n      dup2\n      swap1\n      sstore\n      pop\n        /* \"1_TrueCoinflipETH_flat.sol\":35946:36155  function _nonReentrantAfter() private {... */\n      jump\t// out\n        /* \"1_TrueCoinflipETH_flat.sol\":1770:1958  function _transferOwnership(address to) private {... */\n    tag_315:\n        /* \"1_TrueCoinflipETH_flat.sol\":1838:1848  msg.sender */\n      caller\n        /* \"1_TrueCoinflipETH_flat.sol\":1832:1848  to != msg.sender */\n      0xffffffffffffffffffffffffffffffffffffffff\n      and\n        /* \"1_TrueCoinflipETH_flat.sol\":1832:1834  to */\n      dup2\n        /* \"1_TrueCoinflipETH_flat.sol\":1832:1848  to != msg.sender */\n      0xffffffffffffffffffffffffffffffffffffffff\n      and\n      eq\n      iszero\n        /* \"1_TrueCoinflipETH_flat.sol\":1824:1876  require(to != msg.sender, \"Cannot transfer to self\") */\n      tag_369\n      jumpi\n      mload(0x40)\n      0x08c379a000000000000000000000000000000000000000000000000000000000\n      dup2\n      mstore\n      0x04\n      add\n      tag_370\n      swap1\n      tag_371\n      jump\t// in\n    tag_370:\n      mload(0x40)\n      dup1\n      swap2\n      sub\n      swap1\n      revert\n    tag_369:\n        /* \"1_TrueCoinflipETH_flat.sol\":1900:1902  to */\n      dup1\n        /* \"1_TrueCoinflipETH_flat.sol\":1883:1897  s_pendingOwner */\n      0x01\n      0x00\n        /* \"1_TrueCoinflipETH_flat.sol\":1883:1902  s_pendingOwner = to */\n      0x0100\n      exp\n      dup2\n      sload\n      dup2\n      0xffffffffffffffffffffffffffffffffffffffff\n      mul\n      not\n      and\n      swap1\n      dup4\n      0xffffffffffffffffffffffffffffffffffffffff\n      and\n      mul\n      or\n      swap1\n      sstore\n      pop\n        /* \"1_TrueCoinflipETH_flat.sol\":1950:1952  to */\n      dup1\n        /* \"1_TrueCoinflipETH_flat.sol\":1914:1953  OwnershipTransferRequested(s_owner, to) */\n      0xffffffffffffffffffffffffffffffffffffffff\n      and\n        /* \"1_TrueCoinflipETH_flat.sol\":1941:1948  s_owner */\n      0x00\n      dup1\n      sload\n      swap1\n      0x0100\n      exp\n      swap1\n      div\n      0xffffffffffffffffffffffffffffffffffffffff\n      and\n        /* \"1_TrueCoinflipETH_flat.sol\":1914:1953  OwnershipTransferRequested(s_owner, to) */\n      0xffffffffffffffffffffffffffffffffffffffff\n      and\n      0xed8889f560326eb138920d842192f0eb3dd22b4f139c87a2c57538e05bae1278\n      mload(0x40)\n      mload(0x40)\n      dup1\n      swap2\n      sub\n      swap1\n      log3\n        /* \"1_TrueCoinflipETH_flat.sol\":1770:1958  function _transferOwnership(address to) private {... */\n      pop\n      jump\t// out\n        /* \"1_TrueCoinflipETH_flat.sol\":44750:46349  function settleBet(uint _requestIdMod, uint _randomNumber) internal nonReentrant {... */\n    tag_353:\n        /* \"1_TrueCoinflipETH_flat.sol\":35578:35599  _nonReentrantBefore() */\n      tag_373\n        /* \"1_TrueCoinflipETH_flat.sol\":35578:35597  _nonReentrantBefore */\n      tag_286\n        /* \"1_TrueCoinflipETH_flat.sol\":35578:35599  _nonReentrantBefore() */\n      jump\t// in\n    tag_373:\n        /* \"1_TrueCoinflipETH_flat.sol\":44850:44860  uint betId */\n      0x00\n        /* \"1_TrueCoinflipETH_flat.sol\":44863:44869  betMap */\n      0x0f\n        /* \"1_TrueCoinflipETH_flat.sol\":44863:44884  betMap[_requestIdMod] */\n      0x00\n        /* \"1_TrueCoinflipETH_flat.sol\":44870:44883  _requestIdMod */\n      dup5\n        /* \"1_TrueCoinflipETH_flat.sol\":44863:44884  betMap[_requestIdMod] */\n      dup2\n      mstore\n      0x20\n      add\n      swap1\n      dup2\n      mstore\n      0x20\n      add\n      0x00\n      keccak256\n      sload\n        /* \"1_TrueCoinflipETH_flat.sol\":44850:44884  uint betId = betMap[_requestIdMod] */\n      swap1\n      pop\n        /* \"1_TrueCoinflipETH_flat.sol\":44894:44909  Bet storage bet */\n      0x00\n        /* \"1_TrueCoinflipETH_flat.sol\":44912:44916  bets */\n      0x0e\n        /* \"1_TrueCoinflipETH_flat.sol\":44917:44922  betId */\n      dup3\n        /* \"1_TrueCoinflipETH_flat.sol\":44912:44923  bets[betId] */\n      dup2\n      sload\n      dup2\n      lt\n      tag_375\n      jumpi\n      tag_376\n      tag_290\n      jump\t// in\n    tag_376:\n    tag_375:\n      swap1\n      0x00\n      mstore\n      keccak256(0x00, 0x20)\n      swap1\n      0x05\n      mul\n      add\n        /* \"1_TrueCoinflipETH_flat.sol\":44894:44923  Bet storage bet = bets[betId] */\n      swap1\n      pop\n        /* \"1_TrueCoinflipETH_flat.sol\":44933:44944  uint amount */\n      0x00\n        /* \"1_TrueCoinflipETH_flat.sol\":44947:44950  bet */\n      dup2\n        /* \"1_TrueCoinflipETH_flat.sol\":44947:44957  bet.amount */\n      0x00\n      add\n      sload\n        /* \"1_TrueCoinflipETH_flat.sol\":44933:44957  uint amount = bet.amount */\n      swap1\n      pop\n        /* \"1_TrueCoinflipETH_flat.sol\":45023:45024  0 */\n      0x00\n        /* \"1_TrueCoinflipETH_flat.sol\":45014:45020  amount */\n      dup2\n        /* \"1_TrueCoinflipETH_flat.sol\":45014:45024  amount > 0 */\n      gt\n        /* \"1_TrueCoinflipETH_flat.sol\":45006:45047  require(amount > 0, \"Bet does not exist\") */\n      tag_378\n      jumpi\n      mload(0x40)\n      0x08c379a000000000000000000000000000000000000000000000000000000000\n      dup2\n      mstore\n      0x04\n      add\n      tag_379\n      swap1\n      tag_294\n      jump\t// in\n    tag_379:\n      mload(0x40)\n      dup1\n      swap2\n      sub\n      swap1\n      revert\n    tag_378:\n        /* \"1_TrueCoinflipETH_flat.sol\":45082:45087  false */\n      0x00\n        /* \"1_TrueCoinflipETH_flat.sol\":45065:45087  bet.isSettled == false */\n      iszero\n      iszero\n        /* \"1_TrueCoinflipETH_flat.sol\":45065:45068  bet */\n      dup3\n        /* \"1_TrueCoinflipETH_flat.sol\":45065:45078  bet.isSettled */\n      0x02\n      add\n      0x14\n      swap1\n      sload\n      swap1\n      0x0100\n      exp\n      swap1\n      div\n      0xff\n      and\n        /* \"1_TrueCoinflipETH_flat.sol\":45065:45087  bet.isSettled == false */\n      iszero\n      iszero\n      eq\n        /* \"1_TrueCoinflipETH_flat.sol\":45057:45114  require(bet.isSettled == false, \"Bet is settled already\") */\n      tag_380\n      jumpi\n      mload(0x40)\n      0x08c379a000000000000000000000000000000000000000000000000000000000\n      dup2\n      mstore\n      0x04\n      add\n      tag_381\n      swap1\n      tag_297\n      jump\t// in\n    tag_381:\n      mload(0x40)\n      dup1\n      swap2\n      sub\n      swap1\n      revert\n    tag_380:\n        /* \"1_TrueCoinflipETH_flat.sol\":45193:45216  address payable gambler */\n      0x00\n        /* \"1_TrueCoinflipETH_flat.sol\":45219:45222  bet */\n      dup3\n        /* \"1_TrueCoinflipETH_flat.sol\":45219:45230  bet.gambler */\n      0x02\n      add\n      0x00\n      swap1\n      sload\n      swap1\n      0x0100\n      exp\n      swap1\n      div\n      0xffffffffffffffffffffffffffffffffffffffff\n      and\n        /* \"1_TrueCoinflipETH_flat.sol\":45193:45230  address payable gambler = bet.gambler */\n      swap1\n      pop\n        /* \"1_TrueCoinflipETH_flat.sol\":45299:45311  uint outcome */\n      0x00\n        /* \"1_TrueCoinflipETH_flat.sol\":45334:45335  1 */\n      0x01\n        /* \"1_TrueCoinflipETH_flat.sol\":45330:45331  2 */\n      0x02\n        /* \"1_TrueCoinflipETH_flat.sol\":45314:45327  _randomNumber */\n      dup8\n        /* \"1_TrueCoinflipETH_flat.sol\":45314:45331  _randomNumber % 2 */\n      tag_382\n      swap2\n      swap1\n      tag_348\n      jump\t// in\n    tag_382:\n        /* \"1_TrueCoinflipETH_flat.sol\":45314:45335  _randomNumber % 2 + 1 */\n      tag_383\n      swap2\n      swap1\n      tag_299\n      jump\t// in\n    tag_383:\n        /* \"1_TrueCoinflipETH_flat.sol\":45299:45335  uint outcome = _randomNumber % 2 + 1 */\n      swap1\n      pop\n        /* \"1_TrueCoinflipETH_flat.sol\":45393:45415  uint possibleWinAmount */\n      0x00\n        /* \"1_TrueCoinflipETH_flat.sol\":45418:45438  getWinAmount(amount) */\n      tag_384\n        /* \"1_TrueCoinflipETH_flat.sol\":45431:45437  amount */\n      dup5\n        /* \"1_TrueCoinflipETH_flat.sol\":45418:45430  getWinAmount */\n      tag_304\n        /* \"1_TrueCoinflipETH_flat.sol\":45418:45438  getWinAmount(amount) */\n      jump\t// in\n    tag_384:\n        /* \"1_TrueCoinflipETH_flat.sol\":45393:45438  uint possibleWinAmount = getWinAmount(amount) */\n      swap1\n      pop\n        /* \"1_TrueCoinflipETH_flat.sol\":45490:45504  uint winAmount */\n      0x00\n        /* \"1_TrueCoinflipETH_flat.sol\":45534:45535  1 */\n      0x01\n        /* \"1_TrueCoinflipETH_flat.sol\":45523:45530  outcome */\n      dup4\n        /* \"1_TrueCoinflipETH_flat.sol\":45523:45535  outcome == 1 */\n      eq\n        /* \"1_TrueCoinflipETH_flat.sol\":45519:45632  if (outcome == 1 ) {... */\n      iszero\n      tag_385\n      jumpi\n        /* \"1_TrueCoinflipETH_flat.sol\":45568:45585  possibleWinAmount */\n      dup2\n        /* \"1_TrueCoinflipETH_flat.sol\":45556:45585  winAmount = possibleWinAmount */\n      swap1\n      pop\n        /* \"1_TrueCoinflipETH_flat.sol\":45519:45632  if (outcome == 1 ) {... */\n      jump(tag_386)\n    tag_385:\n    tag_386:\n        /* \"1_TrueCoinflipETH_flat.sol\":45654:45671  possibleWinAmount */\n      dup2\n        /* \"1_TrueCoinflipETH_flat.sol\":45642:45671  winAmount = possibleWinAmount */\n      swap1\n      pop\n        /* \"1_TrueCoinflipETH_flat.sol\":45780:45797  possibleWinAmount */\n      dup2\n        /* \"1_TrueCoinflipETH_flat.sol\":45764:45776  lockedInBets */\n      0x0c\n      0x00\n        /* \"1_TrueCoinflipETH_flat.sol\":45764:45797  lockedInBets -= possibleWinAmount */\n      dup3\n      dup3\n      sload\n      tag_387\n      swap2\n      swap1\n      tag_254\n      jump\t// in\n    tag_387:\n      swap3\n      pop\n      pop\n      dup2\n      swap1\n      sstore\n      pop\n        /* \"1_TrueCoinflipETH_flat.sol\":45854:45858  true */\n      0x01\n        /* \"1_TrueCoinflipETH_flat.sol\":45838:45841  bet */\n      dup7\n        /* \"1_TrueCoinflipETH_flat.sol\":45838:45851  bet.isSettled */\n      0x02\n      add\n      0x14\n        /* \"1_TrueCoinflipETH_flat.sol\":45838:45858  bet.isSettled = true */\n      0x0100\n      exp\n      dup2\n      sload\n      dup2\n      0xff\n      mul\n      not\n      and\n      swap1\n      dup4\n      iszero\n      iszero\n      mul\n      or\n      swap1\n      sstore\n      pop\n        /* \"1_TrueCoinflipETH_flat.sol\":45884:45893  winAmount */\n      dup1\n        /* \"1_TrueCoinflipETH_flat.sol\":45868:45871  bet */\n      dup7\n        /* \"1_TrueCoinflipETH_flat.sol\":45868:45881  bet.winAmount */\n      0x04\n      add\n        /* \"1_TrueCoinflipETH_flat.sol\":45868:45893  bet.winAmount = winAmount */\n      dup2\n      swap1\n      sstore\n      pop\n        /* \"1_TrueCoinflipETH_flat.sol\":45917:45924  outcome */\n      dup3\n        /* \"1_TrueCoinflipETH_flat.sol\":45903:45906  bet */\n      dup7\n        /* \"1_TrueCoinflipETH_flat.sol\":45903:45914  bet.outcome */\n      0x03\n      add\n        /* \"1_TrueCoinflipETH_flat.sol\":45903:45924  bet.outcome = outcome */\n      dup2\n      swap1\n      sstore\n      pop\n        /* \"1_TrueCoinflipETH_flat.sol\":46054:46055  0 */\n      0x00\n        /* \"1_TrueCoinflipETH_flat.sol\":46042:46051  winAmount */\n      dup2\n        /* \"1_TrueCoinflipETH_flat.sol\":46042:46055  winAmount > 0 */\n      gt\n        /* \"1_TrueCoinflipETH_flat.sol\":46038:46218  if (winAmount > 0) {... */\n      iszero\n      tag_388\n      jumpi\n        /* \"1_TrueCoinflipETH_flat.sol\":46102:46108  amount */\n      dup5\n        /* \"1_TrueCoinflipETH_flat.sol\":46090:46099  winAmount */\n      dup2\n        /* \"1_TrueCoinflipETH_flat.sol\":46090:46108  winAmount - amount */\n      tag_389\n      swap2\n      swap1\n      tag_254\n      jump\t// in\n    tag_389:\n        /* \"1_TrueCoinflipETH_flat.sol\":46071:46082  houseProfit */\n      0x10\n      0x00\n        /* \"1_TrueCoinflipETH_flat.sol\":46071:46109  houseProfit -= int(winAmount - amount) */\n      dup3\n      dup3\n      sload\n      tag_390\n      swap2\n      swap1\n      tag_391\n      jump\t// in\n    tag_390:\n      swap3\n      pop\n      pop\n      dup2\n      swap1\n      sstore\n      pop\n        /* \"1_TrueCoinflipETH_flat.sol\":46123:46130  gambler */\n      dup4\n        /* \"1_TrueCoinflipETH_flat.sol\":46123:46139  gambler.transfer */\n      0xffffffffffffffffffffffffffffffffffffffff\n      and\n        /* \"1_TrueCoinflipETH_flat.sol\":46123:46150  gambler.transfer(winAmount) */\n      0x08fc\n        /* \"1_TrueCoinflipETH_flat.sol\":46140:46149  winAmount */\n      dup3\n        /* \"1_TrueCoinflipETH_flat.sol\":46123:46150  gambler.transfer(winAmount) */\n      swap1\n      dup2\n      iszero\n      mul\n      swap1\n      mload(0x40)\n      0x00\n      mload(0x40)\n      dup1\n      dup4\n      sub\n      dup2\n      dup6\n      dup9\n      dup9\n      call\n      swap4\n      pop\n      pop\n      pop\n      pop\n      iszero\n      dup1\n      iszero\n      tag_393\n      jumpi\n      returndatasize\n      0x00\n      dup1\n      returndatacopy\n      revert(0x00, returndatasize)\n    tag_393:\n      pop\n        /* \"1_TrueCoinflipETH_flat.sol\":46038:46218  if (winAmount > 0) {... */\n      jump(tag_394)\n    tag_388:\n        /* \"1_TrueCoinflipETH_flat.sol\":46200:46206  amount */\n      dup5\n        /* \"1_TrueCoinflipETH_flat.sol\":46181:46192  houseProfit */\n      0x10\n      0x00\n        /* \"1_TrueCoinflipETH_flat.sol\":46181:46207  houseProfit += int(amount) */\n      dup3\n      dup3\n      sload\n      tag_395\n      swap2\n      swap1\n      tag_396\n      jump\t// in\n    tag_395:\n      swap3\n      pop\n      pop\n      dup2\n      swap1\n      sstore\n      pop\n        /* \"1_TrueCoinflipETH_flat.sol\":46038:46218  if (winAmount > 0) {... */\n    tag_394:\n        /* \"1_TrueCoinflipETH_flat.sol\":46306:46313  gambler */\n      dup4\n        /* \"1_TrueCoinflipETH_flat.sol\":46288:46342  BetSettled(betId, gambler, amount, outcome, winAmount) */\n      0xffffffffffffffffffffffffffffffffffffffff\n      and\n        /* \"1_TrueCoinflipETH_flat.sol\":46299:46304  betId */\n      dup8\n        /* \"1_TrueCoinflipETH_flat.sol\":46288:46342  BetSettled(betId, gambler, amount, outcome, winAmount) */\n      0xe6ebe32872ac4efcc1a2941e37098f5291c49bead807c24cba8acbd32af8e765\n        /* \"1_TrueCoinflipETH_flat.sol\":46315:46321  amount */\n      dup8\n        /* \"1_TrueCoinflipETH_flat.sol\":46323:46330  outcome */\n      dup7\n        /* \"1_TrueCoinflipETH_flat.sol\":46332:46341  winAmount */\n      dup6\n        /* \"1_TrueCoinflipETH_flat.sol\":46288:46342  BetSettled(betId, gambler, amount, outcome, winAmount) */\n      mload(0x40)\n      tag_397\n      swap4\n      swap3\n      swap2\n      swap1\n      tag_398\n      jump\t// in\n    tag_397:\n      mload(0x40)\n      dup1\n      swap2\n      sub\n      swap1\n      log3\n        /* \"1_TrueCoinflipETH_flat.sol\":44831:46349  {... */\n      pop\n      pop\n      pop\n      pop\n      pop\n      pop\n      pop\n        /* \"1_TrueCoinflipETH_flat.sol\":35620:35640  _nonReentrantAfter() */\n      tag_399\n        /* \"1_TrueCoinflipETH_flat.sol\":35620:35638  _nonReentrantAfter */\n      tag_310\n        /* \"1_TrueCoinflipETH_flat.sol\":35620:35640  _nonReentrantAfter() */\n      jump\t// in\n    tag_399:\n        /* \"1_TrueCoinflipETH_flat.sol\":44750:46349  function settleBet(uint _requestIdMod, uint _randomNumber) internal nonReentrant {... */\n      pop\n      pop\n      jump\t// out\n        /* \"1_TrueCoinflipETH_flat.sol\":32522:33228  function _callOptionalReturn(IERC20 token, bytes memory data) private {... */\n    tag_358:\n        /* \"1_TrueCoinflipETH_flat.sol\":32941:32964  bytes memory returndata */\n      0x00\n        /* \"1_TrueCoinflipETH_flat.sol\":32967:33036  address(token).functionCall(data, \"SafeERC20: low-level call failed\") */\n      tag_401\n        /* \"1_TrueCoinflipETH_flat.sol\":32995:32999  data */\n      dup3\n        /* \"1_TrueCoinflipETH_flat.sol\":32967:33036  address(token).functionCall(data, \"SafeERC20: low-level call failed\") */\n      mload(0x40)\n      dup1\n      0x40\n      add\n      0x40\n      mstore\n      dup1\n      0x20\n      dup2\n      mstore\n      0x20\n      add\n      0x5361666545524332303a206c6f772d6c6576656c2063616c6c206661696c6564\n      dup2\n      mstore\n      pop\n        /* \"1_TrueCoinflipETH_flat.sol\":32975:32980  token */\n      dup6\n        /* \"1_TrueCoinflipETH_flat.sol\":32967:32994  address(token).functionCall */\n      0xffffffffffffffffffffffffffffffffffffffff\n      and\n      tag_402\n      swap1\n        /* \"1_TrueCoinflipETH_flat.sol\":32967:33036  address(token).functionCall(data, \"SafeERC20: low-level call failed\") */\n      swap3\n      swap2\n      swap1\n      0xffffffff\n      and\n      jump\t// in\n    tag_401:\n        /* \"1_TrueCoinflipETH_flat.sol\":32941:33036  bytes memory returndata = address(token).functionCall(data, \"SafeERC20: low-level call failed\") */\n      swap1\n      pop\n        /* \"1_TrueCoinflipETH_flat.sol\":33070:33071  0 */\n      0x00\n        /* \"1_TrueCoinflipETH_flat.sol\":33050:33060  returndata */\n      dup2\n        /* \"1_TrueCoinflipETH_flat.sol\":33050:33067  returndata.length */\n      mload\n        /* \"1_TrueCoinflipETH_flat.sol\":33050:33071  returndata.length > 0 */\n      gt\n        /* \"1_TrueCoinflipETH_flat.sol\":33046:33222  if (returndata.length > 0) {... */\n      iszero\n      tag_403\n      jumpi\n        /* \"1_TrueCoinflipETH_flat.sol\":33145:33155  returndata */\n      dup1\n        /* \"1_TrueCoinflipETH_flat.sol\":33134:33164  abi.decode(returndata, (bool)) */\n      dup1\n      0x20\n      add\n      swap1\n      mload\n      dup2\n      add\n      swap1\n      tag_404\n      swap2\n      swap1\n      tag_405\n      jump\t// in\n    tag_404:\n        /* \"1_TrueCoinflipETH_flat.sol\":33126:33211  require(abi.decode(returndata, (bool)), \"SafeERC20: ERC20 operation did not succeed\") */\n      tag_406\n      jumpi\n      mload(0x40)\n      0x08c379a000000000000000000000000000000000000000000000000000000000\n      dup2\n      mstore\n      0x04\n      add\n      tag_407\n      swap1\n      tag_408\n      jump\t// in\n    tag_407:\n      mload(0x40)\n      dup1\n      swap2\n      sub\n      swap1\n      revert\n    tag_406:\n        /* \"1_TrueCoinflipETH_flat.sol\":33046:33222  if (returndata.length > 0) {... */\n    tag_403:\n        /* \"1_TrueCoinflipETH_flat.sol\":32592:33228  {... */\n      pop\n        /* \"1_TrueCoinflipETH_flat.sol\":32522:33228  function _callOptionalReturn(IERC20 token, bytes memory data) private {... */\n      pop\n      pop\n      jump\t// out\n        /* \"1_TrueCoinflipETH_flat.sol\":18575:18798  function functionCall(... */\n    tag_402:\n        /* \"1_TrueCoinflipETH_flat.sol\":18708:18720  bytes memory */\n      0x60\n        /* \"1_TrueCoinflipETH_flat.sol\":18739:18791  functionCallWithValue(target, data, 0, errorMessage) */\n      tag_410\n        /* \"1_TrueCoinflipETH_flat.sol\":18761:18767  target */\n      dup5\n        /* \"1_TrueCoinflipETH_flat.sol\":18769:18773  data */\n      dup5\n        /* \"1_TrueCoinflipETH_flat.sol\":18775:18776  0 */\n      0x00\n        /* \"1_TrueCoinflipETH_flat.sol\":18778:18790  errorMessage */\n      dup6\n        /* \"1_TrueCoinflipETH_flat.sol\":18739:18760  functionCallWithValue */\n      tag_411\n        /* \"1_TrueCoinflipETH_flat.sol\":18739:18791  functionCallWithValue(target, data, 0, errorMessage) */\n      jump\t// in\n    tag_410:\n        /* \"1_TrueCoinflipETH_flat.sol\":18732:18791  return functionCallWithValue(target, data, 0, errorMessage) */\n      swap1\n      pop\n        /* \"1_TrueCoinflipETH_flat.sol\":18575:18798  function functionCall(... */\n      swap4\n      swap3\n      pop\n      pop\n      pop\n      jump\t// out\n        /* \"1_TrueCoinflipETH_flat.sol\":19632:20078  function functionCallWithValue(... */\n    tag_411:\n        /* \"1_TrueCoinflipETH_flat.sol\":19797:19809  bytes memory */\n      0x60\n        /* \"1_TrueCoinflipETH_flat.sol\":19854:19859  value */\n      dup3\n        /* \"1_TrueCoinflipETH_flat.sol\":19829:19850  address(this).balance */\n      selfbalance\n        /* \"1_TrueCoinflipETH_flat.sol\":19829:19859  address(this).balance >= value */\n      lt\n      iszero\n        /* \"1_TrueCoinflipETH_flat.sol\":19821:19902  require(address(this).balance >= value, \"Address: insufficient balance for call\") */\n      tag_413\n      jumpi\n      mload(0x40)\n      0x08c379a000000000000000000000000000000000000000000000000000000000\n      dup2\n      mstore\n      0x04\n      add\n      tag_414\n      swap1\n      tag_415\n      jump\t// in\n    tag_414:\n      mload(0x40)\n      dup1\n      swap2\n      sub\n      swap1\n      revert\n    tag_413:\n        /* \"1_TrueCoinflipETH_flat.sol\":19913:19925  bool success */\n      0x00\n        /* \"1_TrueCoinflipETH_flat.sol\":19927:19950  bytes memory returndata */\n      dup1\n        /* \"1_TrueCoinflipETH_flat.sol\":19954:19960  target */\n      dup7\n        /* \"1_TrueCoinflipETH_flat.sol\":19954:19965  target.call */\n      0xffffffffffffffffffffffffffffffffffffffff\n      and\n        /* \"1_TrueCoinflipETH_flat.sol\":19973:19978  value */\n      dup6\n        /* \"1_TrueCoinflipETH_flat.sol\":19980:19984  data */\n      dup8\n        /* \"1_TrueCoinflipETH_flat.sol\":19954:19985  target.call{value: value}(data) */\n      mload(0x40)\n      tag_416\n      swap2\n      swap1\n      tag_417\n      jump\t// in\n    tag_416:\n      0x00\n      mload(0x40)\n      dup1\n      dup4\n      sub\n      dup2\n      dup6\n      dup8\n      gas\n      call\n      swap3\n      pop\n      pop\n      pop\n      returndatasize\n      dup1\n      0x00\n      dup2\n      eq\n      tag_420\n      jumpi\n      mload(0x40)\n      swap2\n      pop\n      and(add(returndatasize, 0x3f), not(0x1f))\n      dup3\n      add\n      0x40\n      mstore\n      returndatasize\n      dup3\n      mstore\n      returndatasize\n      0x00\n      0x20\n      dup5\n      add\n      returndatacopy\n      jump(tag_419)\n    tag_420:\n      0x60\n      swap2\n      pop\n    tag_419:\n      pop\n        /* \"1_TrueCoinflipETH_flat.sol\":19912:19985  (bool success, bytes memory returndata) = target.call{value: value}(data) */\n      swap2\n      pop\n      swap2\n      pop\n        /* \"1_TrueCoinflipETH_flat.sol\":20002:20071  verifyCallResultFromTarget(target, success, returndata, errorMessage) */\n      tag_421\n        /* \"1_TrueCoinflipETH_flat.sol\":20029:20035  target */\n      dup8\n        /* \"1_TrueCoinflipETH_flat.sol\":20037:20044  success */\n      dup4\n        /* \"1_TrueCoinflipETH_flat.sol\":20046:20056  returndata */\n      dup4\n        /* \"1_TrueCoinflipETH_flat.sol\":20058:20070  errorMessage */\n      dup8\n        /* \"1_TrueCoinflipETH_flat.sol\":20002:20028  verifyCallResultFromTarget */\n      tag_422\n        /* \"1_TrueCoinflipETH_flat.sol\":20002:20071  verifyCallResultFromTarget(target, success, returndata, errorMessage) */\n      jump\t// in\n    tag_421:\n        /* \"1_TrueCoinflipETH_flat.sol\":19995:20071  return verifyCallResultFromTarget(target, success, returndata, errorMessage) */\n      swap3\n      pop\n      pop\n      pop\n        /* \"1_TrueCoinflipETH_flat.sol\":19632:20078  function functionCallWithValue(... */\n      swap5\n      swap4\n      pop\n      pop\n      pop\n      pop\n      jump\t// out\n        /* \"1_TrueCoinflipETH_flat.sol\":22138:22766  function verifyCallResultFromTarget(... */\n    tag_422:\n        /* \"1_TrueCoinflipETH_flat.sol\":22318:22330  bytes memory */\n      0x60\n        /* \"1_TrueCoinflipETH_flat.sol\":22346:22353  success */\n      dup4\n        /* \"1_TrueCoinflipETH_flat.sol\":22342:22760  if (success) {... */\n      iszero\n      tag_424\n      jumpi\n        /* \"1_TrueCoinflipETH_flat.sol\":22394:22395  0 */\n      0x00\n        /* \"1_TrueCoinflipETH_flat.sol\":22373:22383  returndata */\n      dup4\n        /* \"1_TrueCoinflipETH_flat.sol\":22373:22390  returndata.length */\n      mload\n        /* \"1_TrueCoinflipETH_flat.sol\":22373:22395  returndata.length == 0 */\n      eq\n        /* \"1_TrueCoinflipETH_flat.sol\":22369:22655  if (returndata.length == 0) {... */\n      iszero\n      tag_425\n      jumpi\n        /* \"1_TrueCoinflipETH_flat.sol\":22588:22606  isContract(target) */\n      tag_426\n        /* \"1_TrueCoinflipETH_flat.sol\":22599:22605  target */\n      dup6\n        /* \"1_TrueCoinflipETH_flat.sol\":22588:22598  isContract */\n      tag_427\n        /* \"1_TrueCoinflipETH_flat.sol\":22588:22606  isContract(target) */\n      jump\t// in\n    tag_426:\n        /* \"1_TrueCoinflipETH_flat.sol\":22580:22640  require(isContract(target), \"Address: call to non-contract\") */\n      tag_428\n      jumpi\n      mload(0x40)\n      0x08c379a000000000000000000000000000000000000000000000000000000000\n      dup2\n      mstore\n      0x04\n      add\n      tag_429\n      swap1\n      tag_430\n      jump\t// in\n    tag_429:\n      mload(0x40)\n      dup1\n      swap2\n      sub\n      swap1\n      revert\n    tag_428:\n        /* \"1_TrueCoinflipETH_flat.sol\":22369:22655  if (returndata.length == 0) {... */\n    tag_425:\n        /* \"1_TrueCoinflipETH_flat.sol\":22675:22685  returndata */\n      dup3\n        /* \"1_TrueCoinflipETH_flat.sol\":22668:22685  return returndata */\n      swap1\n      pop\n      jump(tag_423)\n        /* \"1_TrueCoinflipETH_flat.sol\":22342:22760  if (success) {... */\n    tag_424:\n        /* \"1_TrueCoinflipETH_flat.sol\":22716:22749  _revert(returndata, errorMessage) */\n      tag_432\n        /* \"1_TrueCoinflipETH_flat.sol\":22724:22734  returndata */\n      dup4\n        /* \"1_TrueCoinflipETH_flat.sol\":22736:22748  errorMessage */\n      dup4\n        /* \"1_TrueCoinflipETH_flat.sol\":22716:22723  _revert */\n      tag_433\n        /* \"1_TrueCoinflipETH_flat.sol\":22716:22749  _revert(returndata, errorMessage) */\n      jump\t// in\n    tag_432:\n        /* \"1_TrueCoinflipETH_flat.sol\":22138:22766  function verifyCallResultFromTarget(... */\n    tag_423:\n      swap5\n      swap4\n      pop\n      pop\n      pop\n      pop\n      jump\t// out\n        /* \"1_TrueCoinflipETH_flat.sol\":15878:16198  function isContract(address account) internal view returns (bool) {... */\n    tag_427:\n        /* \"1_TrueCoinflipETH_flat.sol\":15938:15942  bool */\n      0x00\n        /* \"1_TrueCoinflipETH_flat.sol\":16190:16191  0 */\n      dup1\n        /* \"1_TrueCoinflipETH_flat.sol\":16168:16175  account */\n      dup3\n        /* \"1_TrueCoinflipETH_flat.sol\":16168:16187  account.code.length */\n      0xffffffffffffffffffffffffffffffffffffffff\n      and\n      extcodesize\n        /* \"1_TrueCoinflipETH_flat.sol\":16168:16191  account.code.length > 0 */\n      gt\n        /* \"1_TrueCoinflipETH_flat.sol\":16161:16191  return account.code.length > 0 */\n      swap1\n      pop\n        /* \"1_TrueCoinflipETH_flat.sol\":15878:16198  function isContract(address account) internal view returns (bool) {... */\n      swap2\n      swap1\n      pop\n      jump\t// out\n        /* \"1_TrueCoinflipETH_flat.sol\":23288:23828  function _revert(bytes memory returndata, string memory errorMessage) private pure {... */\n    tag_433:\n        /* \"1_TrueCoinflipETH_flat.sol\":23467:23468  0 */\n      0x00\n        /* \"1_TrueCoinflipETH_flat.sol\":23447:23457  returndata */\n      dup3\n        /* \"1_TrueCoinflipETH_flat.sol\":23447:23464  returndata.length */\n      mload\n        /* \"1_TrueCoinflipETH_flat.sol\":23447:23468  returndata.length > 0 */\n      gt\n        /* \"1_TrueCoinflipETH_flat.sol\":23443:23822  if (returndata.length > 0) {... */\n      iszero\n      tag_436\n      jumpi\n        /* \"1_TrueCoinflipETH_flat.sol\":23675:23685  returndata */\n      dup2\n        /* \"1_TrueCoinflipETH_flat.sol\":23669:23686  mload(returndata) */\n      mload\n        /* \"1_TrueCoinflipETH_flat.sol\":23731:23746  returndata_size */\n      dup1\n        /* \"1_TrueCoinflipETH_flat.sol\":23718:23728  returndata */\n      dup4\n        /* \"1_TrueCoinflipETH_flat.sol\":23714:23716  32 */\n      0x20\n        /* \"1_TrueCoinflipETH_flat.sol\":23710:23729  add(32, returndata) */\n      add\n        /* \"1_TrueCoinflipETH_flat.sol\":23703:23747  revert(add(32, returndata), returndata_size) */\n      revert\n        /* \"1_TrueCoinflipETH_flat.sol\":23443:23822  if (returndata.length > 0) {... */\n    tag_436:\n        /* \"1_TrueCoinflipETH_flat.sol\":23798:23810  errorMessage */\n      dup1\n        /* \"1_TrueCoinflipETH_flat.sol\":23791:23811  revert(errorMessage) */\n      mload(0x40)\n      0x08c379a000000000000000000000000000000000000000000000000000000000\n      dup2\n      mstore\n      0x04\n      add\n      tag_438\n      swap2\n      swap1\n      tag_439\n      jump\t// in\n    tag_438:\n      mload(0x40)\n      dup1\n      swap2\n      sub\n      swap1\n      revert\n    tag_280:\n      dup3\n      dup1\n      sload\n      dup3\n      dup3\n      sstore\n      swap1\n      0x00\n      mstore\n      keccak256(0x00, 0x20)\n      swap1\n      dup2\n      add\n      swap3\n      dup3\n      iszero\n      tag_440\n      jumpi\n      swap2\n      0x20\n      mul\n      dup3\n      add\n    tag_441:\n      dup3\n      dup2\n      gt\n      iszero\n      tag_442\n      jumpi\n      dup3\n      mload\n      dup3\n      sstore\n      swap2\n      0x20\n      add\n      swap2\n      swap1\n      0x01\n      add\n      swap1\n      jump(tag_441)\n    tag_442:\n    tag_440:\n      pop\n      swap1\n      pop\n      tag_443\n      swap2\n      swap1\n      tag_444\n      jump\t// in\n    tag_443:\n      pop\n      swap1\n      jump\t// out\n    tag_444:\n    tag_445:\n      dup1\n      dup3\n      gt\n      iszero\n      tag_446\n      jumpi\n      0x00\n      dup2\n      0x00\n      swap1\n      sstore\n      pop\n      0x01\n      add\n      jump(tag_445)\n    tag_446:\n      pop\n      swap1\n      jump\t// out\n        /* \"#utility.yul\":24:746   */\n    tag_448:\n        /* \"#utility.yul\":120:125   */\n      0x00\n        /* \"#utility.yul\":145:226   */\n      tag_450\n        /* \"#utility.yul\":161:225   */\n      tag_451\n        /* \"#utility.yul\":218:224   */\n      dup5\n        /* \"#utility.yul\":161:225   */\n      tag_452\n      jump\t// in\n    tag_451:\n        /* \"#utility.yul\":145:226   */\n      tag_453\n      jump\t// in\n    tag_450:\n        /* \"#utility.yul\":136:226   */\n      swap1\n      pop\n        /* \"#utility.yul\":246:251   */\n      dup1\n        /* \"#utility.yul\":275:281   */\n      dup4\n        /* \"#utility.yul\":268:273   */\n      dup3\n        /* \"#utility.yul\":261:282   */\n      mstore\n        /* \"#utility.yul\":309:313   */\n      0x20\n        /* \"#utility.yul\":302:307   */\n      dup3\n        /* \"#utility.yul\":298:314   */\n      add\n        /* \"#utility.yul\":291:314   */\n      swap1\n      pop\n        /* \"#utility.yul\":335:341   */\n      dup3\n        /* \"#utility.yul\":385:388   */\n      dup6\n        /* \"#utility.yul\":377:381   */\n      0x20\n        /* \"#utility.yul\":369:375   */\n      dup7\n        /* \"#utility.yul\":365:382   */\n      mul\n        /* \"#utility.yul\":360:363   */\n      dup3\n        /* \"#utility.yul\":356:383   */\n      add\n        /* \"#utility.yul\":353:389   */\n      gt\n        /* \"#utility.yul\":350:493   */\n      iszero\n      tag_454\n      jumpi\n        /* \"#utility.yul\":404:483   */\n      tag_455\n      tag_456\n      jump\t// in\n    tag_455:\n        /* \"#utility.yul\":350:493   */\n    tag_454:\n        /* \"#utility.yul\":517:518   */\n      0x00\n        /* \"#utility.yul\":502:740   */\n    tag_457:\n        /* \"#utility.yul\":527:533   */\n      dup6\n        /* \"#utility.yul\":524:525   */\n      dup2\n        /* \"#utility.yul\":521:534   */\n      lt\n        /* \"#utility.yul\":502:740   */\n      iszero\n      tag_459\n      jumpi\n        /* \"#utility.yul\":595:598   */\n      dup2\n        /* \"#utility.yul\":624:661   */\n      tag_460\n        /* \"#utility.yul\":657:660   */\n      dup9\n        /* \"#utility.yul\":645:655   */\n      dup3\n        /* \"#utility.yul\":624:661   */\n      tag_461\n      jump\t// in\n    tag_460:\n        /* \"#utility.yul\":619:622   */\n      dup5\n        /* \"#utility.yul\":612:662   */\n      mstore\n        /* \"#utility.yul\":691:695   */\n      0x20\n        /* \"#utility.yul\":686:689   */\n      dup5\n        /* \"#utility.yul\":682:696   */\n      add\n        /* \"#utility.yul\":675:696   */\n      swap4\n      pop\n        /* \"#utility.yul\":725:729   */\n      0x20\n        /* \"#utility.yul\":720:723   */\n      dup4\n        /* \"#utility.yul\":716:730   */\n      add\n        /* \"#utility.yul\":709:730   */\n      swap3\n      pop\n        /* \"#utility.yul\":562:740   */\n      pop\n        /* \"#utility.yul\":549:550   */\n      0x01\n        /* \"#utility.yul\":546:547   */\n      dup2\n        /* \"#utility.yul\":542:551   */\n      add\n        /* \"#utility.yul\":537:551   */\n      swap1\n      pop\n        /* \"#utility.yul\":502:740   */\n      jump(tag_457)\n    tag_459:\n        /* \"#utility.yul\":506:520   */\n      pop\n        /* \"#utility.yul\":126:746   */\n      pop\n      pop\n        /* \"#utility.yul\":24:746   */\n      swap4\n      swap3\n      pop\n      pop\n      pop\n      jump\t// out\n        /* \"#utility.yul\":752:891   */\n    tag_462:\n        /* \"#utility.yul\":798:803   */\n      0x00\n        /* \"#utility.yul\":836:842   */\n      dup2\n        /* \"#utility.yul\":823:843   */\n      calldataload\n        /* \"#utility.yul\":814:843   */\n      swap1\n      pop\n        /* \"#utility.yul\":852:885   */\n      tag_464\n        /* \"#utility.yul\":879:884   */\n      dup2\n        /* \"#utility.yul\":852:885   */\n      tag_465\n      jump\t// in\n    tag_464:\n        /* \"#utility.yul\":752:891   */\n      swap3\n      swap2\n      pop\n      pop\n      jump\t// out\n        /* \"#utility.yul\":897:1052   */\n    tag_466:\n        /* \"#utility.yul\":951:956   */\n      0x00\n        /* \"#utility.yul\":989:995   */\n      dup2\n        /* \"#utility.yul\":976:996   */\n      calldataload\n        /* \"#utility.yul\":967:996   */\n      swap1\n      pop\n        /* \"#utility.yul\":1005:1046   */\n      tag_468\n        /* \"#utility.yul\":1040:1045   */\n      dup2\n        /* \"#utility.yul\":1005:1046   */\n      tag_469\n      jump\t// in\n    tag_468:\n        /* \"#utility.yul\":897:1052   */\n      swap3\n      swap2\n      pop\n      pop\n      jump\t// out\n        /* \"#utility.yul\":1075:1445   */\n    tag_470:\n        /* \"#utility.yul\":1146:1151   */\n      0x00\n        /* \"#utility.yul\":1195:1198   */\n      dup3\n        /* \"#utility.yul\":1188:1192   */\n      0x1f\n        /* \"#utility.yul\":1180:1186   */\n      dup4\n        /* \"#utility.yul\":1176:1193   */\n      add\n        /* \"#utility.yul\":1172:1199   */\n      slt\n        /* \"#utility.yul\":1162:1284   */\n      tag_472\n      jumpi\n        /* \"#utility.yul\":1203:1282   */\n      tag_473\n      tag_474\n      jump\t// in\n    tag_473:\n        /* \"#utility.yul\":1162:1284   */\n    tag_472:\n        /* \"#utility.yul\":1320:1326   */\n      dup2\n        /* \"#utility.yul\":1307:1327   */\n      calldataload\n        /* \"#utility.yul\":1345:1439   */\n      tag_475\n        /* \"#utility.yul\":1435:1438   */\n      dup5\n        /* \"#utility.yul\":1427:1433   */\n      dup3\n        /* \"#utility.yul\":1420:1424   */\n      0x20\n        /* \"#utility.yul\":1412:1418   */\n      dup7\n        /* \"#utility.yul\":1408:1425   */\n      add\n        /* \"#utility.yul\":1345:1439   */\n      tag_448\n      jump\t// in\n    tag_475:\n        /* \"#utility.yul\":1336:1439   */\n      swap2\n      pop\n        /* \"#utility.yul\":1152:1445   */\n      pop\n        /* \"#utility.yul\":1075:1445   */\n      swap3\n      swap2\n      pop\n      pop\n      jump\t// out\n        /* \"#utility.yul\":1451:1588   */\n    tag_476:\n        /* \"#utility.yul\":1505:1510   */\n      0x00\n        /* \"#utility.yul\":1536:1542   */\n      dup2\n        /* \"#utility.yul\":1530:1543   */\n      mload\n        /* \"#utility.yul\":1521:1543   */\n      swap1\n      pop\n        /* \"#utility.yul\":1552:1582   */\n      tag_478\n        /* \"#utility.yul\":1576:1581   */\n      dup2\n        /* \"#utility.yul\":1552:1582   */\n      tag_479\n      jump\t// in\n    tag_478:\n        /* \"#utility.yul\":1451:1588   */\n      swap3\n      swap2\n      pop\n      pop\n      jump\t// out\n        /* \"#utility.yul\":1594:1733   */\n    tag_461:\n        /* \"#utility.yul\":1640:1645   */\n      0x00\n        /* \"#utility.yul\":1678:1684   */\n      dup2\n        /* \"#utility.yul\":1665:1685   */\n      calldataload\n        /* \"#utility.yul\":1656:1685   */\n      swap1\n      pop\n        /* \"#utility.yul\":1694:1727   */\n      tag_481\n        /* \"#utility.yul\":1721:1726   */\n      dup2\n        /* \"#utility.yul\":1694:1727   */\n      tag_482\n      jump\t// in\n    tag_481:\n        /* \"#utility.yul\":1594:1733   */\n      swap3\n      swap2\n      pop\n      pop\n      jump\t// out\n        /* \"#utility.yul\":1739:1882   */\n    tag_483:\n        /* \"#utility.yul\":1796:1801   */\n      0x00\n        /* \"#utility.yul\":1827:1833   */\n      dup2\n        /* \"#utility.yul\":1821:1834   */\n      mload\n        /* \"#utility.yul\":1812:1834   */\n      swap1\n      pop\n        /* \"#utility.yul\":1843:1876   */\n      tag_485\n        /* \"#utility.yul\":1870:1875   */\n      dup2\n        /* \"#utility.yul\":1843:1876   */\n      tag_482\n      jump\t// in\n    tag_485:\n        /* \"#utility.yul\":1739:1882   */\n      swap3\n      swap2\n      pop\n      pop\n      jump\t// out\n        /* \"#utility.yul\":1888:2025   */\n    tag_486:\n        /* \"#utility.yul\":1933:1938   */\n      0x00\n        /* \"#utility.yul\":1971:1977   */\n      dup2\n        /* \"#utility.yul\":1958:1978   */\n      calldataload\n        /* \"#utility.yul\":1949:1978   */\n      swap1\n      pop\n        /* \"#utility.yul\":1987:2019   */\n      tag_488\n        /* \"#utility.yul\":2013:2018   */\n      dup2\n        /* \"#utility.yul\":1987:2019   */\n      tag_489\n      jump\t// in\n    tag_488:\n        /* \"#utility.yul\":1888:2025   */\n      swap3\n      swap2\n      pop\n      pop\n      jump\t// out\n        /* \"#utility.yul\":2031:2360   */\n    tag_50:\n        /* \"#utility.yul\":2090:2096   */\n      0x00\n        /* \"#utility.yul\":2139:2141   */\n      0x20\n        /* \"#utility.yul\":2127:2136   */\n      dup3\n        /* \"#utility.yul\":2118:2125   */\n      dup5\n        /* \"#utility.yul\":2114:2137   */\n      sub\n        /* \"#utility.yul\":2110:2142   */\n      slt\n        /* \"#utility.yul\":2107:2226   */\n      iszero\n      tag_491\n      jumpi\n        /* \"#utility.yul\":2145:2224   */\n      tag_492\n      tag_493\n      jump\t// in\n    tag_492:\n        /* \"#utility.yul\":2107:2226   */\n    tag_491:\n        /* \"#utility.yul\":2265:2266   */\n      0x00\n        /* \"#utility.yul\":2290:2343   */\n      tag_494\n        /* \"#utility.yul\":2335:2342   */\n      dup5\n        /* \"#utility.yul\":2326:2332   */\n      dup3\n        /* \"#utility.yul\":2315:2324   */\n      dup6\n        /* \"#utility.yul\":2311:2333   */\n      add\n        /* \"#utility.yul\":2290:2343   */\n      tag_462\n      jump\t// in\n    tag_494:\n        /* \"#utility.yul\":2280:2343   */\n      swap2\n      pop\n        /* \"#utility.yul\":2236:2353   */\n      pop\n        /* \"#utility.yul\":2031:2360   */\n      swap3\n      swap2\n      pop\n      pop\n      jump\t// out\n        /* \"#utility.yul\":2366:2856   */\n    tag_155:\n        /* \"#utility.yul\":2442:2448   */\n      0x00\n        /* \"#utility.yul\":2450:2456   */\n      dup1\n        /* \"#utility.yul\":2499:2501   */\n      0x40\n        /* \"#utility.yul\":2487:2496   */\n      dup4\n        /* \"#utility.yul\":2478:2485   */\n      dup6\n        /* \"#utility.yul\":2474:2497   */\n      sub\n        /* \"#utility.yul\":2470:2502   */\n      slt\n        /* \"#utility.yul\":2467:2586   */\n      iszero\n      tag_496\n      jumpi\n        /* \"#utility.yul\":2505:2584   */\n      tag_497\n      tag_493\n      jump\t// in\n    tag_497:\n        /* \"#utility.yul\":2467:2586   */\n    tag_496:\n        /* \"#utility.yul\":2625:2626   */\n      0x00\n        /* \"#utility.yul\":2650:2711   */\n      tag_498\n        /* \"#utility.yul\":2703:2710   */\n      dup6\n        /* \"#utility.yul\":2694:2700   */\n      dup3\n        /* \"#utility.yul\":2683:2692   */\n      dup7\n        /* \"#utility.yul\":2679:2701   */\n      add\n        /* \"#utility.yul\":2650:2711   */\n      tag_466\n      jump\t// in\n    tag_498:\n        /* \"#utility.yul\":2640:2711   */\n      swap3\n      pop\n        /* \"#utility.yul\":2596:2721   */\n      pop\n        /* \"#utility.yul\":2760:2762   */\n      0x20\n        /* \"#utility.yul\":2786:2839   */\n      tag_499\n        /* \"#utility.yul\":2831:2838   */\n      dup6\n        /* \"#utility.yul\":2822:2828   */\n      dup3\n        /* \"#utility.yul\":2811:2820   */\n      dup7\n        /* \"#utility.yul\":2807:2829   */\n      add\n        /* \"#utility.yul\":2786:2839   */\n      tag_461\n      jump\t// in\n    tag_499:\n        /* \"#utility.yul\":2776:2839   */\n      swap2\n      pop\n        /* \"#utility.yul\":2731:2849   */\n      pop\n        /* \"#utility.yul\":2366:2856   */\n      swap3\n      pop\n      swap3\n      swap1\n      pop\n      jump\t// out\n        /* \"#utility.yul\":2862:3207   */\n    tag_405:\n        /* \"#utility.yul\":2929:2935   */\n      0x00\n        /* \"#utility.yul\":2978:2980   */\n      0x20\n        /* \"#utility.yul\":2966:2975   */\n      dup3\n        /* \"#utility.yul\":2957:2964   */\n      dup5\n        /* \"#utility.yul\":2953:2976   */\n      sub\n        /* \"#utility.yul\":2949:2981   */\n      slt\n        /* \"#utility.yul\":2946:3065   */\n      iszero\n      tag_501\n      jumpi\n        /* \"#utility.yul\":2984:3063   */\n      tag_502\n      tag_493\n      jump\t// in\n    tag_502:\n        /* \"#utility.yul\":2946:3065   */\n    tag_501:\n        /* \"#utility.yul\":3104:3105   */\n      0x00\n        /* \"#utility.yul\":3129:3190   */\n      tag_503\n        /* \"#utility.yul\":3182:3189   */\n      dup5\n        /* \"#utility.yul\":3173:3179   */\n      dup3\n        /* \"#utility.yul\":3162:3171   */\n      dup6\n        /* \"#utility.yul\":3158:3180   */\n      add\n        /* \"#utility.yul\":3129:3190   */\n      tag_476\n      jump\t// in\n    tag_503:\n        /* \"#utility.yul\":3119:3190   */\n      swap2\n      pop\n        /* \"#utility.yul\":3075:3200   */\n      pop\n        /* \"#utility.yul\":2862:3207   */\n      swap3\n      swap2\n      pop\n      pop\n      jump\t// out\n        /* \"#utility.yul\":3213:3542   */\n    tag_57:\n        /* \"#utility.yul\":3272:3278   */\n      0x00\n        /* \"#utility.yul\":3321:3323   */\n      0x20\n        /* \"#utility.yul\":3309:3318   */\n      dup3\n        /* \"#utility.yul\":3300:3307   */\n      dup5\n        /* \"#utility.yul\":3296:3319   */\n      sub\n        /* \"#utility.yul\":3292:3324   */\n      slt\n        /* \"#utility.yul\":3289:3408   */\n      iszero\n      tag_505\n      jumpi\n        /* \"#utility.yul\":3327:3406   */\n      tag_506\n      tag_493\n      jump\t// in\n    tag_506:\n        /* \"#utility.yul\":3289:3408   */\n    tag_505:\n        /* \"#utility.yul\":3447:3448   */\n      0x00\n        /* \"#utility.yul\":3472:3525   */\n      tag_507\n        /* \"#utility.yul\":3517:3524   */\n      dup5\n        /* \"#utility.yul\":3508:3514   */\n      dup3\n        /* \"#utility.yul\":3497:3506   */\n      dup6\n        /* \"#utility.yul\":3493:3515   */\n      add\n        /* \"#utility.yul\":3472:3525   */\n      tag_461\n      jump\t// in\n    tag_507:\n        /* \"#utility.yul\":3462:3525   */\n      swap2\n      pop\n        /* \"#utility.yul\":3418:3535   */\n      pop\n        /* \"#utility.yul\":3213:3542   */\n      swap3\n      swap2\n      pop\n      pop\n      jump\t// out\n        /* \"#utility.yul\":3548:3899   */\n    tag_199:\n        /* \"#utility.yul\":3618:3624   */\n      0x00\n        /* \"#utility.yul\":3667:3669   */\n      0x20\n        /* \"#utility.yul\":3655:3664   */\n      dup3\n        /* \"#utility.yul\":3646:3653   */\n      dup5\n        /* \"#utility.yul\":3642:3665   */\n      sub\n        /* \"#utility.yul\":3638:3670   */\n      slt\n        /* \"#utility.yul\":3635:3754   */\n      iszero\n      tag_509\n      jumpi\n        /* \"#utility.yul\":3673:3752   */\n      tag_510\n      tag_493\n      jump\t// in\n    tag_510:\n        /* \"#utility.yul\":3635:3754   */\n    tag_509:\n        /* \"#utility.yul\":3793:3794   */\n      0x00\n        /* \"#utility.yul\":3818:3882   */\n      tag_511\n        /* \"#utility.yul\":3874:3881   */\n      dup5\n        /* \"#utility.yul\":3865:3871   */\n      dup3\n        /* \"#utility.yul\":3854:3863   */\n      dup6\n        /* \"#utility.yul\":3850:3872   */\n      add\n        /* \"#utility.yul\":3818:3882   */\n      tag_483\n      jump\t// in\n    tag_511:\n        /* \"#utility.yul\":3808:3882   */\n      swap2\n      pop\n        /* \"#utility.yul\":3764:3892   */\n      pop\n        /* \"#utility.yul\":3548:3899   */\n      swap3\n      swap2\n      pop\n      pop\n      jump\t// out\n        /* \"#utility.yul\":3905:4589   */\n    tag_66:\n        /* \"#utility.yul\":3998:4004   */\n      0x00\n        /* \"#utility.yul\":4006:4012   */\n      dup1\n        /* \"#utility.yul\":4055:4057   */\n      0x40\n        /* \"#utility.yul\":4043:4052   */\n      dup4\n        /* \"#utility.yul\":4034:4041   */\n      dup6\n        /* \"#utility.yul\":4030:4053   */\n      sub\n        /* \"#utility.yul\":4026:4058   */\n      slt\n        /* \"#utility.yul\":4023:4142   */\n      iszero\n      tag_513\n      jumpi\n        /* \"#utility.yul\":4061:4140   */\n      tag_514\n      tag_493\n      jump\t// in\n    tag_514:\n        /* \"#utility.yul\":4023:4142   */\n    tag_513:\n        /* \"#utility.yul\":4181:4182   */\n      0x00\n        /* \"#utility.yul\":4206:4259   */\n      tag_515\n        /* \"#utility.yul\":4251:4258   */\n      dup6\n        /* \"#utility.yul\":4242:4248   */\n      dup3\n        /* \"#utility.yul\":4231:4240   */\n      dup7\n        /* \"#utility.yul\":4227:4249   */\n      add\n        /* \"#utility.yul\":4206:4259   */\n      tag_461\n      jump\t// in\n    tag_515:\n        /* \"#utility.yul\":4196:4259   */\n      swap3\n      pop\n        /* \"#utility.yul\":4152:4269   */\n      pop\n        /* \"#utility.yul\":4336:4338   */\n      0x20\n        /* \"#utility.yul\":4325:4334   */\n      dup4\n        /* \"#utility.yul\":4321:4339   */\n      add\n        /* \"#utility.yul\":4308:4340   */\n      calldataload\n        /* \"#utility.yul\":4367:4385   */\n      0xffffffffffffffff\n        /* \"#utility.yul\":4359:4365   */\n      dup2\n        /* \"#utility.yul\":4356:4386   */\n      gt\n        /* \"#utility.yul\":4353:4470   */\n      iszero\n      tag_516\n      jumpi\n        /* \"#utility.yul\":4389:4468   */\n      tag_517\n      tag_518\n      jump\t// in\n    tag_517:\n        /* \"#utility.yul\":4353:4470   */\n    tag_516:\n        /* \"#utility.yul\":4494:4572   */\n      tag_519\n        /* \"#utility.yul\":4564:4571   */\n      dup6\n        /* \"#utility.yul\":4555:4561   */\n      dup3\n        /* \"#utility.yul\":4544:4553   */\n      dup7\n        /* \"#utility.yul\":4540:4562   */\n      add\n        /* \"#utility.yul\":4494:4572   */\n      tag_470\n      jump\t// in\n    tag_519:\n        /* \"#utility.yul\":4484:4572   */\n      swap2\n      pop\n        /* \"#utility.yul\":4279:4582   */\n      pop\n        /* \"#utility.yul\":3905:4589   */\n      swap3\n      pop\n      swap3\n      swap1\n      pop\n      jump\t// out\n        /* \"#utility.yul\":4595:4922   */\n    tag_134:\n        /* \"#utility.yul\":4653:4659   */\n      0x00\n        /* \"#utility.yul\":4702:4704   */\n      0x20\n        /* \"#utility.yul\":4690:4699   */\n      dup3\n        /* \"#utility.yul\":4681:4688   */\n      dup5\n        /* \"#utility.yul\":4677:4700   */\n      sub\n        /* \"#utility.yul\":4673:4705   */\n      slt\n        /* \"#utility.yul\":4670:4789   */\n      iszero\n      tag_521\n      jumpi\n        /* \"#utility.yul\":4708:4787   */\n      tag_522\n      tag_493\n      jump\t// in\n    tag_522:\n        /* \"#utility.yul\":4670:4789   */\n    tag_521:\n        /* \"#utility.yul\":4828:4829   */\n      0x00\n        /* \"#utility.yul\":4853:4905   */\n      tag_523\n        /* \"#utility.yul\":4897:4904   */\n      dup5\n        /* \"#utility.yul\":4888:4894   */\n      dup3\n        /* \"#utility.yul\":4877:4886   */\n      dup6\n        /* \"#utility.yul\":4873:4895   */\n      add\n        /* \"#utility.yul\":4853:4905   */\n      tag_486\n      jump\t// in\n    tag_523:\n        /* \"#utility.yul\":4843:4905   */\n      swap2\n      pop\n        /* \"#utility.yul\":4799:4915   */\n      pop\n        /* \"#utility.yul\":4595:4922   */\n      swap3\n      swap2\n      pop\n      pop\n      jump\t// out\n        /* \"#utility.yul\":4928:5107   */\n    tag_524:\n        /* \"#utility.yul\":4997:5007   */\n      0x00\n        /* \"#utility.yul\":5018:5064   */\n      tag_526\n        /* \"#utility.yul\":5060:5063   */\n      dup4\n        /* \"#utility.yul\":5052:5058   */\n      dup4\n        /* \"#utility.yul\":5018:5064   */\n      tag_527\n      jump\t// in\n    tag_526:\n        /* \"#utility.yul\":5096:5100   */\n      0x20\n        /* \"#utility.yul\":5091:5094   */\n      dup4\n        /* \"#utility.yul\":5087:5101   */\n      add\n        /* \"#utility.yul\":5073:5101   */\n      swap1\n      pop\n        /* \"#utility.yul\":4928:5107   */\n      swap3\n      swap2\n      pop\n      pop\n      jump\t// out\n        /* \"#utility.yul\":5113:5255   */\n    tag_528:\n        /* \"#utility.yul\":5216:5248   */\n      tag_530\n        /* \"#utility.yul\":5242:5247   */\n      dup2\n        /* \"#utility.yul\":5216:5248   */\n      tag_531\n      jump\t// in\n    tag_530:\n        /* \"#utility.yul\":5211:5214   */\n      dup3\n        /* \"#utility.yul\":5204:5249   */\n      mstore\n        /* \"#utility.yul\":5113:5255   */\n      pop\n      pop\n      jump\t// out\n        /* \"#utility.yul\":5261:5379   */\n    tag_532:\n        /* \"#utility.yul\":5348:5372   */\n      tag_534\n        /* \"#utility.yul\":5366:5371   */\n      dup2\n        /* \"#utility.yul\":5348:5372   */\n      tag_535\n      jump\t// in\n    tag_534:\n        /* \"#utility.yul\":5343:5346   */\n      dup3\n        /* \"#utility.yul\":5336:5373   */\n      mstore\n        /* \"#utility.yul\":5261:5379   */\n      pop\n      pop\n      jump\t// out\n        /* \"#utility.yul\":5415:6147   */\n    tag_536:\n        /* \"#utility.yul\":5534:5537   */\n      0x00\n        /* \"#utility.yul\":5563:5617   */\n      tag_538\n        /* \"#utility.yul\":5611:5616   */\n      dup3\n        /* \"#utility.yul\":5563:5617   */\n      tag_539\n      jump\t// in\n    tag_538:\n        /* \"#utility.yul\":5633:5719   */\n      tag_540\n        /* \"#utility.yul\":5712:5718   */\n      dup2\n        /* \"#utility.yul\":5707:5710   */\n      dup6\n        /* \"#utility.yul\":5633:5719   */\n      tag_541\n      jump\t// in\n    tag_540:\n        /* \"#utility.yul\":5626:5719   */\n      swap4\n      pop\n        /* \"#utility.yul\":5743:5799   */\n      tag_542\n        /* \"#utility.yul\":5793:5798   */\n      dup4\n        /* \"#utility.yul\":5743:5799   */\n      tag_543\n      jump\t// in\n    tag_542:\n        /* \"#utility.yul\":5822:5829   */\n      dup1\n        /* \"#utility.yul\":5853:5854   */\n      0x00\n        /* \"#utility.yul\":5838:6122   */\n    tag_544:\n        /* \"#utility.yul\":5863:5869   */\n      dup4\n        /* \"#utility.yul\":5860:5861   */\n      dup2\n        /* \"#utility.yul\":5857:5870   */\n      lt\n        /* \"#utility.yul\":5838:6122   */\n      iszero\n      tag_546\n      jumpi\n        /* \"#utility.yul\":5939:5945   */\n      dup2\n        /* \"#utility.yul\":5933:5946   */\n      mload\n        /* \"#utility.yul\":5966:6029   */\n      tag_547\n        /* \"#utility.yul\":6025:6028   */\n      dup9\n        /* \"#utility.yul\":6010:6023   */\n      dup3\n        /* \"#utility.yul\":5966:6029   */\n      tag_524\n      jump\t// in\n    tag_547:\n        /* \"#utility.yul\":5959:6029   */\n      swap8\n      pop\n        /* \"#utility.yul\":6052:6112   */\n      tag_548\n        /* \"#utility.yul\":6105:6111   */\n      dup4\n        /* \"#utility.yul\":6052:6112   */\n      tag_549\n      jump\t// in\n    tag_548:\n        /* \"#utility.yul\":6042:6112   */\n      swap3\n      pop\n        /* \"#utility.yul\":5898:6122   */\n      pop\n        /* \"#utility.yul\":5885:5886   */\n      0x01\n        /* \"#utility.yul\":5882:5883   */\n      dup2\n        /* \"#utility.yul\":5878:5887   */\n      add\n        /* \"#utility.yul\":5873:5887   */\n      swap1\n      pop\n        /* \"#utility.yul\":5838:6122   */\n      jump(tag_544)\n    tag_546:\n        /* \"#utility.yul\":5842:5856   */\n      pop\n        /* \"#utility.yul\":6138:6141   */\n      dup6\n        /* \"#utility.yul\":6131:6141   */\n      swap4\n      pop\n        /* \"#utility.yul\":5539:6147   */\n      pop\n      pop\n      pop\n        /* \"#utility.yul\":5415:6147   */\n      swap3\n      swap2\n      pop\n      pop\n      jump\t// out\n        /* \"#utility.yul\":6153:6262   */\n    tag_550:\n        /* \"#utility.yul\":6234:6255   */\n      tag_552\n        /* \"#utility.yul\":6249:6254   */\n      dup2\n        /* \"#utility.yul\":6234:6255   */\n      tag_553\n      jump\t// in\n    tag_552:\n        /* \"#utility.yul\":6229:6232   */\n      dup3\n        /* \"#utility.yul\":6222:6256   */\n      mstore\n        /* \"#utility.yul\":6153:6262   */\n      pop\n      pop\n      jump\t// out\n        /* \"#utility.yul\":6268:6386   */\n    tag_554:\n        /* \"#utility.yul\":6355:6379   */\n      tag_556\n        /* \"#utility.yul\":6373:6378   */\n      dup2\n        /* \"#utility.yul\":6355:6379   */\n      tag_557\n      jump\t// in\n    tag_556:\n        /* \"#utility.yul\":6350:6353   */\n      dup3\n        /* \"#utility.yul\":6343:6380   */\n      mstore\n        /* \"#utility.yul\":6268:6386   */\n      pop\n      pop\n      jump\t// out\n        /* \"#utility.yul\":6392:6765   */\n    tag_558:\n        /* \"#utility.yul\":6496:6499   */\n      0x00\n        /* \"#utility.yul\":6524:6562   */\n      tag_560\n        /* \"#utility.yul\":6556:6561   */\n      dup3\n        /* \"#utility.yul\":6524:6562   */\n      tag_561\n      jump\t// in\n    tag_560:\n        /* \"#utility.yul\":6578:6666   */\n      tag_562\n        /* \"#utility.yul\":6659:6665   */\n      dup2\n        /* \"#utility.yul\":6654:6657   */\n      dup6\n        /* \"#utility.yul\":6578:6666   */\n      tag_563\n      jump\t// in\n    tag_562:\n        /* \"#utility.yul\":6571:6666   */\n      swap4\n      pop\n        /* \"#utility.yul\":6675:6727   */\n      tag_564\n        /* \"#utility.yul\":6720:6726   */\n      dup2\n        /* \"#utility.yul\":6715:6718   */\n      dup6\n        /* \"#utility.yul\":6708:6712   */\n      0x20\n        /* \"#utility.yul\":6701:6706   */\n      dup7\n        /* \"#utility.yul\":6697:6713   */\n      add\n        /* \"#utility.yul\":6675:6727   */\n      tag_565\n      jump\t// in\n    tag_564:\n        /* \"#utility.yul\":6752:6758   */\n      dup1\n        /* \"#utility.yul\":6747:6750   */\n      dup5\n        /* \"#utility.yul\":6743:6759   */\n      add\n        /* \"#utility.yul\":6736:6759   */\n      swap2\n      pop\n        /* \"#utility.yul\":6500:6765   */\n      pop\n        /* \"#utility.yul\":6392:6765   */\n      swap3\n      swap2\n      pop\n      pop\n      jump\t// out\n        /* \"#utility.yul\":6771:6886   */\n    tag_566:\n        /* \"#utility.yul\":6856:6879   */\n      tag_568\n        /* \"#utility.yul\":6873:6878   */\n      dup2\n        /* \"#utility.yul\":6856:6879   */\n      tag_569\n      jump\t// in\n    tag_568:\n        /* \"#utility.yul\":6851:6854   */\n      dup3\n        /* \"#utility.yul\":6844:6880   */\n      mstore\n        /* \"#utility.yul\":6771:6886   */\n      pop\n      pop\n      jump\t// out\n        /* \"#utility.yul\":6892:7256   */\n    tag_570:\n        /* \"#utility.yul\":6980:6983   */\n      0x00\n        /* \"#utility.yul\":7008:7047   */\n      tag_572\n        /* \"#utility.yul\":7041:7046   */\n      dup3\n        /* \"#utility.yul\":7008:7047   */\n      tag_573\n      jump\t// in\n    tag_572:\n        /* \"#utility.yul\":7063:7134   */\n      tag_574\n        /* \"#utility.yul\":7127:7133   */\n      dup2\n        /* \"#utility.yul\":7122:7125   */\n      dup6\n        /* \"#utility.yul\":7063:7134   */\n      tag_575\n      jump\t// in\n    tag_574:\n        /* \"#utility.yul\":7056:7134   */\n      swap4\n      pop\n        /* \"#utility.yul\":7143:7195   */\n      tag_576\n        /* \"#utility.yul\":7188:7194   */\n      dup2\n        /* \"#utility.yul\":7183:7186   */\n      dup6\n        /* \"#utility.yul\":7176:7180   */\n      0x20\n        /* \"#utility.yul\":7169:7174   */\n      dup7\n        /* \"#utility.yul\":7165:7181   */\n      add\n        /* \"#utility.yul\":7143:7195   */\n      tag_565\n      jump\t// in\n    tag_576:\n        /* \"#utility.yul\":7220:7249   */\n      tag_577\n        /* \"#utility.yul\":7242:7248   */\n      dup2\n        /* \"#utility.yul\":7220:7249   */\n      tag_578\n      jump\t// in\n    tag_577:\n        /* \"#utility.yul\":7215:7218   */\n      dup5\n        /* \"#utility.yul\":7211:7250   */\n      add\n        /* \"#utility.yul\":7204:7250   */\n      swap2\n      pop\n        /* \"#utility.yul\":6984:7256   */\n      pop\n        /* \"#utility.yul\":6892:7256   */\n      swap3\n      swap2\n      pop\n      pop\n      jump\t// out\n        /* \"#utility.yul\":7262:7628   */\n    tag_579:\n        /* \"#utility.yul\":7404:7407   */\n      0x00\n        /* \"#utility.yul\":7425:7492   */\n      tag_581\n        /* \"#utility.yul\":7489:7491   */\n      0x11\n        /* \"#utility.yul\":7484:7487   */\n      dup4\n        /* \"#utility.yul\":7425:7492   */\n      tag_575\n      jump\t// in\n    tag_581:\n        /* \"#utility.yul\":7418:7492   */\n      swap2\n      pop\n        /* \"#utility.yul\":7501:7594   */\n      tag_582\n        /* \"#utility.yul\":7590:7593   */\n      dup3\n        /* \"#utility.yul\":7501:7594   */\n      tag_583\n      jump\t// in\n    tag_582:\n        /* \"#utility.yul\":7619:7621   */\n      0x20\n        /* \"#utility.yul\":7614:7617   */\n      dup3\n        /* \"#utility.yul\":7610:7622   */\n      add\n        /* \"#utility.yul\":7603:7622   */\n      swap1\n      pop\n        /* \"#utility.yul\":7262:7628   */\n      swap2\n      swap1\n      pop\n      jump\t// out\n        /* \"#utility.yul\":7634:8000   */\n    tag_584:\n        /* \"#utility.yul\":7776:7779   */\n      0x00\n        /* \"#utility.yul\":7797:7864   */\n      tag_586\n        /* \"#utility.yul\":7861:7863   */\n      0x16\n        /* \"#utility.yul\":7856:7859   */\n      dup4\n        /* \"#utility.yul\":7797:7864   */\n      tag_575\n      jump\t// in\n    tag_586:\n        /* \"#utility.yul\":7790:7864   */\n      swap2\n      pop\n        /* \"#utility.yul\":7873:7966   */\n      tag_587\n        /* \"#utility.yul\":7962:7965   */\n      dup3\n        /* \"#utility.yul\":7873:7966   */\n      tag_588\n      jump\t// in\n    tag_587:\n        /* \"#utility.yul\":7991:7993   */\n      0x20\n        /* \"#utility.yul\":7986:7989   */\n      dup3\n        /* \"#utility.yul\":7982:7994   */\n      add\n        /* \"#utility.yul\":7975:7994   */\n      swap1\n      pop\n        /* \"#utility.yul\":7634:8000   */\n      swap2\n      swap1\n      pop\n      jump\t// out\n        /* \"#utility.yul\":8006:8372   */\n    tag_589:\n        /* \"#utility.yul\":8148:8151   */\n      0x00\n        /* \"#utility.yul\":8169:8236   */\n      tag_591\n        /* \"#utility.yul\":8233:8235   */\n      0x12\n        /* \"#utility.yul\":8228:8231   */\n      dup4\n        /* \"#utility.yul\":8169:8236   */\n      tag_575\n      jump\t// in\n    tag_591:\n        /* \"#utility.yul\":8162:8236   */\n      swap2\n      pop\n        /* \"#utility.yul\":8245:8338   */\n      tag_592\n        /* \"#utility.yul\":8334:8337   */\n      dup3\n        /* \"#utility.yul\":8245:8338   */\n      tag_593\n      jump\t// in\n    tag_592:\n        /* \"#utility.yul\":8363:8365   */\n      0x20\n        /* \"#utility.yul\":8358:8361   */\n      dup3\n        /* \"#utility.yul\":8354:8366   */\n      add\n        /* \"#utility.yul\":8347:8366   */\n      swap1\n      pop\n        /* \"#utility.yul\":8006:8372   */\n      swap2\n      swap1\n      pop\n      jump\t// out\n        /* \"#utility.yul\":8378:8744   */\n    tag_594:\n        /* \"#utility.yul\":8520:8523   */\n      0x00\n        /* \"#utility.yul\":8541:8608   */\n      tag_596\n        /* \"#utility.yul\":8605:8607   */\n      0x16\n        /* \"#utility.yul\":8600:8603   */\n      dup4\n        /* \"#utility.yul\":8541:8608   */\n      tag_575\n      jump\t// in\n    tag_596:\n        /* \"#utility.yul\":8534:8608   */\n      swap2\n      pop\n        /* \"#utility.yul\":8617:8710   */\n      tag_597\n        /* \"#utility.yul\":8706:8709   */\n      dup3\n        /* \"#utility.yul\":8617:8710   */\n      tag_598\n      jump\t// in\n    tag_597:\n        /* \"#utility.yul\":8735:8737   */\n      0x20\n        /* \"#utility.yul\":8730:8733   */\n      dup3\n        /* \"#utility.yul\":8726:8738   */\n      add\n        /* \"#utility.yul\":8719:8738   */\n      swap1\n      pop\n        /* \"#utility.yul\":8378:8744   */\n      swap2\n      swap1\n      pop\n      jump\t// out\n        /* \"#utility.yul\":8750:9116   */\n    tag_599:\n        /* \"#utility.yul\":8892:8895   */\n      0x00\n        /* \"#utility.yul\":8913:8980   */\n      tag_601\n        /* \"#utility.yul\":8977:8979   */\n      0x26\n        /* \"#utility.yul\":8972:8975   */\n      dup4\n        /* \"#utility.yul\":8913:8980   */\n      tag_575\n      jump\t// in\n    tag_601:\n        /* \"#utility.yul\":8906:8980   */\n      swap2\n      pop\n        /* \"#utility.yul\":8989:9082   */\n      tag_602\n        /* \"#utility.yul\":9078:9081   */\n      dup3\n        /* \"#utility.yul\":8989:9082   */\n      tag_603\n      jump\t// in\n    tag_602:\n        /* \"#utility.yul\":9107:9109   */\n      0x40\n        /* \"#utility.yul\":9102:9105   */\n      dup3\n        /* \"#utility.yul\":9098:9110   */\n      add\n        /* \"#utility.yul\":9091:9110   */\n      swap1\n      pop\n        /* \"#utility.yul\":8750:9116   */\n      swap2\n      swap1\n      pop\n      jump\t// out\n        /* \"#utility.yul\":9122:9488   */\n    tag_604:\n        /* \"#utility.yul\":9264:9267   */\n      0x00\n        /* \"#utility.yul\":9285:9352   */\n      tag_606\n        /* \"#utility.yul\":9349:9351   */\n      0x12\n        /* \"#utility.yul\":9344:9347   */\n      dup4\n        /* \"#utility.yul\":9285:9352   */\n      tag_575\n      jump\t// in\n    tag_606:\n        /* \"#utility.yul\":9278:9352   */\n      swap2\n      pop\n        /* \"#utility.yul\":9361:9454   */\n      tag_607\n        /* \"#utility.yul\":9450:9453   */\n      dup3\n        /* \"#utility.yul\":9361:9454   */\n      tag_608\n      jump\t// in\n    tag_607:\n        /* \"#utility.yul\":9479:9481   */\n      0x20\n        /* \"#utility.yul\":9474:9477   */\n      dup3\n        /* \"#utility.yul\":9470:9482   */\n      add\n        /* \"#utility.yul\":9463:9482   */\n      swap1\n      pop\n        /* \"#utility.yul\":9122:9488   */\n      swap2\n      swap1\n      pop\n      jump\t// out\n        /* \"#utility.yul\":9494:9860   */\n    tag_609:\n        /* \"#utility.yul\":9636:9639   */\n      0x00\n        /* \"#utility.yul\":9657:9724   */\n      tag_611\n        /* \"#utility.yul\":9721:9723   */\n      0x18\n        /* \"#utility.yul\":9716:9719   */\n      dup4\n        /* \"#utility.yul\":9657:9724   */\n      tag_575\n      jump\t// in\n    tag_611:\n        /* \"#utility.yul\":9650:9724   */\n      swap2\n      pop\n        /* \"#utility.yul\":9733:9826   */\n      tag_612\n        /* \"#utility.yul\":9822:9825   */\n      dup3\n        /* \"#utility.yul\":9733:9826   */\n      tag_613\n      jump\t// in\n    tag_612:\n        /* \"#utility.yul\":9851:9853   */\n      0x20\n        /* \"#utility.yul\":9846:9849   */\n      dup3\n        /* \"#utility.yul\":9842:9854   */\n      add\n        /* \"#utility.yul\":9835:9854   */\n      swap1\n      pop\n        /* \"#utility.yul\":9494:9860   */\n      swap2\n      swap1\n      pop\n      jump\t// out\n        /* \"#utility.yul\":9866:10232   */\n    tag_614:\n        /* \"#utility.yul\":10008:10011   */\n      0x00\n        /* \"#utility.yul\":10029:10096   */\n      tag_616\n        /* \"#utility.yul\":10093:10095   */\n      0x1d\n        /* \"#utility.yul\":10088:10091   */\n      dup4\n        /* \"#utility.yul\":10029:10096   */\n      tag_575\n      jump\t// in\n    tag_616:\n        /* \"#utility.yul\":10022:10096   */\n      swap2\n      pop\n        /* \"#utility.yul\":10105:10198   */\n      tag_617\n        /* \"#utility.yul\":10194:10197   */\n      dup3\n        /* \"#utility.yul\":10105:10198   */\n      tag_618\n      jump\t// in\n    tag_617:\n        /* \"#utility.yul\":10223:10225   */\n      0x20\n        /* \"#utility.yul\":10218:10221   */\n      dup3\n        /* \"#utility.yul\":10214:10226   */\n      add\n        /* \"#utility.yul\":10207:10226   */\n      swap1\n      pop\n        /* \"#utility.yul\":9866:10232   */\n      swap2\n      swap1\n      pop\n      jump\t// out\n        /* \"#utility.yul\":10238:10604   */\n    tag_619:\n        /* \"#utility.yul\":10380:10383   */\n      0x00\n        /* \"#utility.yul\":10401:10468   */\n      tag_621\n        /* \"#utility.yul\":10465:10467   */\n      0x16\n        /* \"#utility.yul\":10460:10463   */\n      dup4\n        /* \"#utility.yul\":10401:10468   */\n      tag_575\n      jump\t// in\n    tag_621:\n        /* \"#utility.yul\":10394:10468   */\n      swap2\n      pop\n        /* \"#utility.yul\":10477:10570   */\n      tag_622\n        /* \"#utility.yul\":10566:10569   */\n      dup3\n        /* \"#utility.yul\":10477:10570   */\n      tag_623\n      jump\t// in\n    tag_622:\n        /* \"#utility.yul\":10595:10597   */\n      0x20\n        /* \"#utility.yul\":10590:10593   */\n      dup3\n        /* \"#utility.yul\":10586:10598   */\n      add\n        /* \"#utility.yul\":10579:10598   */\n      swap1\n      pop\n        /* \"#utility.yul\":10238:10604   */\n      swap2\n      swap1\n      pop\n      jump\t// out\n        /* \"#utility.yul\":10610:10976   */\n    tag_624:\n        /* \"#utility.yul\":10752:10755   */\n      0x00\n        /* \"#utility.yul\":10773:10840   */\n      tag_626\n        /* \"#utility.yul\":10837:10839   */\n      0x13\n        /* \"#utility.yul\":10832:10835   */\n      dup4\n        /* \"#utility.yul\":10773:10840   */\n      tag_575\n      jump\t// in\n    tag_626:\n        /* \"#utility.yul\":10766:10840   */\n      swap2\n      pop\n        /* \"#utility.yul\":10849:10942   */\n      tag_627\n        /* \"#utility.yul\":10938:10941   */\n      dup3\n        /* \"#utility.yul\":10849:10942   */\n      tag_628\n      jump\t// in\n    tag_627:\n        /* \"#utility.yul\":10967:10969   */\n      0x20\n        /* \"#utility.yul\":10962:10965   */\n      dup3\n        /* \"#utility.yul\":10958:10970   */\n      add\n        /* \"#utility.yul\":10951:10970   */\n      swap1\n      pop\n        /* \"#utility.yul\":10610:10976   */\n      swap2\n      swap1\n      pop\n      jump\t// out\n        /* \"#utility.yul\":10982:11348   */\n    tag_629:\n        /* \"#utility.yul\":11124:11127   */\n      0x00\n        /* \"#utility.yul\":11145:11212   */\n      tag_631\n        /* \"#utility.yul\":11209:11211   */\n      0x1d\n        /* \"#utility.yul\":11204:11207   */\n      dup4\n        /* \"#utility.yul\":11145:11212   */\n      tag_575\n      jump\t// in\n    tag_631:\n        /* \"#utility.yul\":11138:11212   */\n      swap2\n      pop\n        /* \"#utility.yul\":11221:11314   */\n      tag_632\n        /* \"#utility.yul\":11310:11313   */\n      dup3\n        /* \"#utility.yul\":11221:11314   */\n      tag_633\n      jump\t// in\n    tag_632:\n        /* \"#utility.yul\":11339:11341   */\n      0x20\n        /* \"#utility.yul\":11334:11337   */\n      dup3\n        /* \"#utility.yul\":11330:11342   */\n      add\n        /* \"#utility.yul\":11323:11342   */\n      swap1\n      pop\n        /* \"#utility.yul\":10982:11348   */\n      swap2\n      swap1\n      pop\n      jump\t// out\n        /* \"#utility.yul\":11354:11720   */\n    tag_634:\n        /* \"#utility.yul\":11496:11499   */\n      0x00\n        /* \"#utility.yul\":11517:11584   */\n      tag_636\n        /* \"#utility.yul\":11581:11583   */\n      0x17\n        /* \"#utility.yul\":11576:11579   */\n      dup4\n        /* \"#utility.yul\":11517:11584   */\n      tag_575\n      jump\t// in\n    tag_636:\n        /* \"#utility.yul\":11510:11584   */\n      swap2\n      pop\n        /* \"#utility.yul\":11593:11686   */\n      tag_637\n        /* \"#utility.yul\":11682:11685   */\n      dup3\n        /* \"#utility.yul\":11593:11686   */\n      tag_638\n      jump\t// in\n    tag_637:\n        /* \"#utility.yul\":11711:11713   */\n      0x20\n        /* \"#utility.yul\":11706:11709   */\n      dup3\n        /* \"#utility.yul\":11702:11714   */\n      add\n        /* \"#utility.yul\":11695:11714   */\n      swap1\n      pop\n        /* \"#utility.yul\":11354:11720   */\n      swap2\n      swap1\n      pop\n      jump\t// out\n        /* \"#utility.yul\":11726:12092   */\n    tag_639:\n        /* \"#utility.yul\":11868:11871   */\n      0x00\n        /* \"#utility.yul\":11889:11956   */\n      tag_641\n        /* \"#utility.yul\":11953:11955   */\n      0x2a\n        /* \"#utility.yul\":11948:11951   */\n      dup4\n        /* \"#utility.yul\":11889:11956   */\n      tag_575\n      jump\t// in\n    tag_641:\n        /* \"#utility.yul\":11882:11956   */\n      swap2\n      pop\n        /* \"#utility.yul\":11965:12058   */\n      tag_642\n        /* \"#utility.yul\":12054:12057   */\n      dup3\n        /* \"#utility.yul\":11965:12058   */\n      tag_643\n      jump\t// in\n    tag_642:\n        /* \"#utility.yul\":12083:12085   */\n      0x40\n        /* \"#utility.yul\":12078:12081   */\n      dup3\n        /* \"#utility.yul\":12074:12086   */\n      add\n        /* \"#utility.yul\":12067:12086   */\n      swap1\n      pop\n        /* \"#utility.yul\":11726:12092   */\n      swap2\n      swap1\n      pop\n      jump\t// out\n        /* \"#utility.yul\":12098:12464   */\n    tag_644:\n        /* \"#utility.yul\":12240:12243   */\n      0x00\n        /* \"#utility.yul\":12261:12328   */\n      tag_646\n        /* \"#utility.yul\":12325:12327   */\n      0x1f\n        /* \"#utility.yul\":12320:12323   */\n      dup4\n        /* \"#utility.yul\":12261:12328   */\n      tag_575\n      jump\t// in\n    tag_646:\n        /* \"#utility.yul\":12254:12328   */\n      swap2\n      pop\n        /* \"#utility.yul\":12337:12430   */\n      tag_647\n        /* \"#utility.yul\":12426:12429   */\n      dup3\n        /* \"#utility.yul\":12337:12430   */\n      tag_648\n      jump\t// in\n    tag_647:\n        /* \"#utility.yul\":12455:12457   */\n      0x20\n        /* \"#utility.yul\":12450:12453   */\n      dup3\n        /* \"#utility.yul\":12446:12458   */\n      add\n        /* \"#utility.yul\":12439:12458   */\n      swap1\n      pop\n        /* \"#utility.yul\":12098:12464   */\n      swap2\n      swap1\n      pop\n      jump\t// out\n        /* \"#utility.yul\":12470:12585   */\n    tag_649:\n        /* \"#utility.yul\":12555:12578   */\n      tag_651\n        /* \"#utility.yul\":12572:12577   */\n      dup2\n        /* \"#utility.yul\":12555:12578   */\n      tag_652\n      jump\t// in\n    tag_651:\n        /* \"#utility.yul\":12550:12553   */\n      dup3\n        /* \"#utility.yul\":12543:12579   */\n      mstore\n        /* \"#utility.yul\":12470:12585   */\n      pop\n      pop\n      jump\t// out\n        /* \"#utility.yul\":12591:12699   */\n    tag_527:\n        /* \"#utility.yul\":12668:12692   */\n      tag_654\n        /* \"#utility.yul\":12686:12691   */\n      dup2\n        /* \"#utility.yul\":12668:12692   */\n      tag_655\n      jump\t// in\n    tag_654:\n        /* \"#utility.yul\":12663:12666   */\n      dup3\n        /* \"#utility.yul\":12656:12693   */\n      mstore\n        /* \"#utility.yul\":12591:12699   */\n      pop\n      pop\n      jump\t// out\n        /* \"#utility.yul\":12705:12823   */\n    tag_656:\n        /* \"#utility.yul\":12792:12816   */\n      tag_658\n        /* \"#utility.yul\":12810:12815   */\n      dup2\n        /* \"#utility.yul\":12792:12816   */\n      tag_655\n      jump\t// in\n    tag_658:\n        /* \"#utility.yul\":12787:12790   */\n      dup3\n        /* \"#utility.yul\":12780:12817   */\n      mstore\n        /* \"#utility.yul\":12705:12823   */\n      pop\n      pop\n      jump\t// out\n        /* \"#utility.yul\":12829:12944   */\n    tag_659:\n        /* \"#utility.yul\":12914:12937   */\n      tag_661\n        /* \"#utility.yul\":12931:12936   */\n      dup2\n        /* \"#utility.yul\":12914:12937   */\n      tag_662\n      jump\t// in\n    tag_661:\n        /* \"#utility.yul\":12909:12912   */\n      dup3\n        /* \"#utility.yul\":12902:12938   */\n      mstore\n        /* \"#utility.yul\":12829:12944   */\n      pop\n      pop\n      jump\t// out\n        /* \"#utility.yul\":12950:13065   */\n    tag_663:\n        /* \"#utility.yul\":13035:13058   */\n      tag_665\n        /* \"#utility.yul\":13052:13057   */\n      dup2\n        /* \"#utility.yul\":13035:13058   */\n      tag_666\n      jump\t// in\n    tag_665:\n        /* \"#utility.yul\":13030:13033   */\n      dup3\n        /* \"#utility.yul\":13023:13059   */\n      mstore\n        /* \"#utility.yul\":12950:13065   */\n      pop\n      pop\n      jump\t// out\n        /* \"#utility.yul\":13071:13342   */\n    tag_417:\n        /* \"#utility.yul\":13201:13204   */\n      0x00\n        /* \"#utility.yul\":13223:13316   */\n      tag_668\n        /* \"#utility.yul\":13312:13315   */\n      dup3\n        /* \"#utility.yul\":13303:13309   */\n      dup5\n        /* \"#utility.yul\":13223:13316   */\n      tag_558\n      jump\t// in\n    tag_668:\n        /* \"#utility.yul\":13216:13316   */\n      swap2\n      pop\n        /* \"#utility.yul\":13333:13336   */\n      dup2\n        /* \"#utility.yul\":13326:13336   */\n      swap1\n      pop\n        /* \"#utility.yul\":13071:13342   */\n      swap3\n      swap2\n      pop\n      pop\n      jump\t// out\n        /* \"#utility.yul\":13348:13570   */\n    tag_124:\n        /* \"#utility.yul\":13441:13445   */\n      0x00\n        /* \"#utility.yul\":13479:13481   */\n      0x20\n        /* \"#utility.yul\":13468:13477   */\n      dup3\n        /* \"#utility.yul\":13464:13482   */\n      add\n        /* \"#utility.yul\":13456:13482   */\n      swap1\n      pop\n        /* \"#utility.yul\":13492:13563   */\n      tag_670\n        /* \"#utility.yul\":13560:13561   */\n      0x00\n        /* \"#utility.yul\":13549:13558   */\n      dup4\n        /* \"#utility.yul\":13545:13562   */\n      add\n        /* \"#utility.yul\":13536:13542   */\n      dup5\n        /* \"#utility.yul\":13492:13563   */\n      tag_532\n      jump\t// in\n    tag_670:\n        /* \"#utility.yul\":13348:13570   */\n      swap3\n      swap2\n      pop\n      pop\n      jump\t// out\n        /* \"#utility.yul\":13576:13908   */\n    tag_207:\n        /* \"#utility.yul\":13697:13701   */\n      0x00\n        /* \"#utility.yul\":13735:13737   */\n      0x40\n        /* \"#utility.yul\":13724:13733   */\n      dup3\n        /* \"#utility.yul\":13720:13738   */\n      add\n        /* \"#utility.yul\":13712:13738   */\n      swap1\n      pop\n        /* \"#utility.yul\":13748:13819   */\n      tag_672\n        /* \"#utility.yul\":13816:13817   */\n      0x00\n        /* \"#utility.yul\":13805:13814   */\n      dup4\n        /* \"#utility.yul\":13801:13818   */\n      add\n        /* \"#utility.yul\":13792:13798   */\n      dup6\n        /* \"#utility.yul\":13748:13819   */\n      tag_532\n      jump\t// in\n    tag_672:\n        /* \"#utility.yul\":13829:13901   */\n      tag_673\n        /* \"#utility.yul\":13897:13899   */\n      0x20\n        /* \"#utility.yul\":13886:13895   */\n      dup4\n        /* \"#utility.yul\":13882:13900   */\n      add\n        /* \"#utility.yul\":13873:13879   */\n      dup5\n        /* \"#utility.yul\":13829:13901   */\n      tag_532\n      jump\t// in\n    tag_673:\n        /* \"#utility.yul\":13576:13908   */\n      swap4\n      swap3\n      pop\n      pop\n      pop\n      jump\t// out\n        /* \"#utility.yul\":13914:14246   */\n    tag_357:\n        /* \"#utility.yul\":14035:14039   */\n      0x00\n        /* \"#utility.yul\":14073:14075   */\n      0x40\n        /* \"#utility.yul\":14062:14071   */\n      dup3\n        /* \"#utility.yul\":14058:14076   */\n      add\n        /* \"#utility.yul\":14050:14076   */\n      swap1\n      pop\n        /* \"#utility.yul\":14086:14157   */\n      tag_675\n        /* \"#utility.yul\":14154:14155   */\n      0x00\n        /* \"#utility.yul\":14143:14152   */\n      dup4\n        /* \"#utility.yul\":14139:14156   */\n      add\n        /* \"#utility.yul\":14130:14136   */\n      dup6\n        /* \"#utility.yul\":14086:14157   */\n      tag_532\n      jump\t// in\n    tag_675:\n        /* \"#utility.yul\":14167:14239   */\n      tag_676\n        /* \"#utility.yul\":14235:14237   */\n      0x20\n        /* \"#utility.yul\":14224:14233   */\n      dup4\n        /* \"#utility.yul\":14220:14238   */\n      add\n        /* \"#utility.yul\":14211:14217   */\n      dup5\n        /* \"#utility.yul\":14167:14239   */\n      tag_656\n      jump\t// in\n    tag_676:\n        /* \"#utility.yul\":13914:14246   */\n      swap4\n      swap3\n      pop\n      pop\n      pop\n      jump\t// out\n        /* \"#utility.yul\":14252:14670   */\n    tag_130:\n        /* \"#utility.yul\":14389:14393   */\n      0x00\n        /* \"#utility.yul\":14427:14429   */\n      0x60\n        /* \"#utility.yul\":14416:14425   */\n      dup3\n        /* \"#utility.yul\":14412:14430   */\n      add\n        /* \"#utility.yul\":14404:14430   */\n      swap1\n      pop\n        /* \"#utility.yul\":14440:14505   */\n      tag_678\n        /* \"#utility.yul\":14502:14503   */\n      0x00\n        /* \"#utility.yul\":14491:14500   */\n      dup4\n        /* \"#utility.yul\":14487:14504   */\n      add\n        /* \"#utility.yul\":14478:14484   */\n      dup7\n        /* \"#utility.yul\":14440:14505   */\n      tag_550\n      jump\t// in\n    tag_678:\n        /* \"#utility.yul\":14515:14581   */\n      tag_679\n        /* \"#utility.yul\":14577:14579   */\n      0x20\n        /* \"#utility.yul\":14566:14575   */\n      dup4\n        /* \"#utility.yul\":14562:14580   */\n      add\n        /* \"#utility.yul\":14553:14559   */\n      dup6\n        /* \"#utility.yul\":14515:14581   */\n      tag_550\n      jump\t// in\n    tag_679:\n        /* \"#utility.yul\":14591:14663   */\n      tag_680\n        /* \"#utility.yul\":14659:14661   */\n      0x40\n        /* \"#utility.yul\":14648:14657   */\n      dup4\n        /* \"#utility.yul\":14644:14662   */\n      add\n        /* \"#utility.yul\":14635:14641   */\n      dup5\n        /* \"#utility.yul\":14591:14663   */\n      tag_656\n      jump\t// in\n    tag_680:\n        /* \"#utility.yul\":14252:14670   */\n      swap5\n      swap4\n      pop\n      pop\n      pop\n      pop\n      jump\t// out\n        /* \"#utility.yul\":14676:15257   */\n    tag_166:\n        /* \"#utility.yul\":14869:14873   */\n      0x00\n        /* \"#utility.yul\":14907:14909   */\n      0x60\n        /* \"#utility.yul\":14896:14905   */\n      dup3\n        /* \"#utility.yul\":14892:14910   */\n      add\n        /* \"#utility.yul\":14884:14910   */\n      swap1\n      pop\n        /* \"#utility.yul\":14920:14985   */\n      tag_682\n        /* \"#utility.yul\":14982:14983   */\n      0x00\n        /* \"#utility.yul\":14971:14980   */\n      dup4\n        /* \"#utility.yul\":14967:14984   */\n      add\n        /* \"#utility.yul\":14958:14964   */\n      dup7\n        /* \"#utility.yul\":14920:14985   */\n      tag_550\n      jump\t// in\n    tag_682:\n        /* \"#utility.yul\":14995:15067   */\n      tag_683\n        /* \"#utility.yul\":15063:15065   */\n      0x20\n        /* \"#utility.yul\":15052:15061   */\n      dup4\n        /* \"#utility.yul\":15048:15066   */\n      add\n        /* \"#utility.yul\":15039:15045   */\n      dup6\n        /* \"#utility.yul\":14995:15067   */\n      tag_656\n      jump\t// in\n    tag_683:\n        /* \"#utility.yul\":15114:15123   */\n      dup2\n        /* \"#utility.yul\":15108:15112   */\n      dup2\n        /* \"#utility.yul\":15104:15124   */\n      sub\n        /* \"#utility.yul\":15099:15101   */\n      0x40\n        /* \"#utility.yul\":15088:15097   */\n      dup4\n        /* \"#utility.yul\":15084:15102   */\n      add\n        /* \"#utility.yul\":15077:15125   */\n      mstore\n        /* \"#utility.yul\":15142:15250   */\n      tag_684\n        /* \"#utility.yul\":15245:15249   */\n      dup2\n        /* \"#utility.yul\":15236:15242   */\n      dup5\n        /* \"#utility.yul\":15142:15250   */\n      tag_536\n      jump\t// in\n    tag_684:\n        /* \"#utility.yul\":15134:15250   */\n      swap1\n      pop\n        /* \"#utility.yul\":14676:15257   */\n      swap5\n      swap4\n      pop\n      pop\n      pop\n      pop\n      jump\t// out\n        /* \"#utility.yul\":15263:15911   */\n    tag_270:\n        /* \"#utility.yul\":15460:15464   */\n      0x00\n        /* \"#utility.yul\":15498:15501   */\n      0xa0\n        /* \"#utility.yul\":15487:15496   */\n      dup3\n        /* \"#utility.yul\":15483:15502   */\n      add\n        /* \"#utility.yul\":15475:15502   */\n      swap1\n      pop\n        /* \"#utility.yul\":15512:15583   */\n      tag_686\n        /* \"#utility.yul\":15580:15581   */\n      0x00\n        /* \"#utility.yul\":15569:15578   */\n      dup4\n        /* \"#utility.yul\":15565:15582   */\n      add\n        /* \"#utility.yul\":15556:15562   */\n      dup9\n        /* \"#utility.yul\":15512:15583   */\n      tag_554\n      jump\t// in\n    tag_686:\n        /* \"#utility.yul\":15593:15663   */\n      tag_687\n        /* \"#utility.yul\":15659:15661   */\n      0x20\n        /* \"#utility.yul\":15648:15657   */\n      dup4\n        /* \"#utility.yul\":15644:15662   */\n      add\n        /* \"#utility.yul\":15635:15641   */\n      dup8\n        /* \"#utility.yul\":15593:15663   */\n      tag_663\n      jump\t// in\n    tag_687:\n        /* \"#utility.yul\":15673:15743   */\n      tag_688\n        /* \"#utility.yul\":15739:15741   */\n      0x40\n        /* \"#utility.yul\":15728:15737   */\n      dup4\n        /* \"#utility.yul\":15724:15742   */\n      add\n        /* \"#utility.yul\":15715:15721   */\n      dup7\n        /* \"#utility.yul\":15673:15743   */\n      tag_649\n      jump\t// in\n    tag_688:\n        /* \"#utility.yul\":15753:15823   */\n      tag_689\n        /* \"#utility.yul\":15819:15821   */\n      0x60\n        /* \"#utility.yul\":15808:15817   */\n      dup4\n        /* \"#utility.yul\":15804:15822   */\n      add\n        /* \"#utility.yul\":15795:15801   */\n      dup6\n        /* \"#utility.yul\":15753:15823   */\n      tag_659\n      jump\t// in\n    tag_689:\n        /* \"#utility.yul\":15833:15904   */\n      tag_690\n        /* \"#utility.yul\":15899:15902   */\n      0x80\n        /* \"#utility.yul\":15888:15897   */\n      dup4\n        /* \"#utility.yul\":15884:15903   */\n      add\n        /* \"#utility.yul\":15875:15881   */\n      dup5\n        /* \"#utility.yul\":15833:15904   */\n      tag_659\n      jump\t// in\n    tag_690:\n        /* \"#utility.yul\":15263:15911   */\n      swap7\n      swap6\n      pop\n      pop\n      pop\n      pop\n      pop\n      pop\n      jump\t// out\n        /* \"#utility.yul\":15917:16135   */\n    tag_115:\n        /* \"#utility.yul\":16008:16012   */\n      0x00\n        /* \"#utility.yul\":16046:16048   */\n      0x20\n        /* \"#utility.yul\":16035:16044   */\n      dup3\n        /* \"#utility.yul\":16031:16049   */\n      add\n        /* \"#utility.yul\":16023:16049   */\n      swap1\n      pop\n        /* \"#utility.yul\":16059:16128   */\n      tag_692\n        /* \"#utility.yul\":16125:16126   */\n      0x00\n        /* \"#utility.yul\":16114:16123   */\n      dup4\n        /* \"#utility.yul\":16110:16127   */\n      add\n        /* \"#utility.yul\":16101:16107   */\n      dup5\n        /* \"#utility.yul\":16059:16128   */\n      tag_566\n      jump\t// in\n    tag_692:\n        /* \"#utility.yul\":15917:16135   */\n      swap3\n      swap2\n      pop\n      pop\n      jump\t// out\n        /* \"#utility.yul\":16141:16454   */\n    tag_439:\n        /* \"#utility.yul\":16254:16258   */\n      0x00\n        /* \"#utility.yul\":16292:16294   */\n      0x20\n        /* \"#utility.yul\":16281:16290   */\n      dup3\n        /* \"#utility.yul\":16277:16295   */\n      add\n        /* \"#utility.yul\":16269:16295   */\n      swap1\n      pop\n        /* \"#utility.yul\":16341:16350   */\n      dup2\n        /* \"#utility.yul\":16335:16339   */\n      dup2\n        /* \"#utility.yul\":16331:16351   */\n      sub\n        /* \"#utility.yul\":16327:16328   */\n      0x00\n        /* \"#utility.yul\":16316:16325   */\n      dup4\n        /* \"#utility.yul\":16312:16329   */\n      add\n        /* \"#utility.yul\":16305:16352   */\n      mstore\n        /* \"#utility.yul\":16369:16447   */\n      tag_694\n        /* \"#utility.yul\":16442:16446   */\n      dup2\n        /* \"#utility.yul\":16433:16439   */\n      dup5\n        /* \"#utility.yul\":16369:16447   */\n      tag_570\n      jump\t// in\n    tag_694:\n        /* \"#utility.yul\":16361:16447   */\n      swap1\n      pop\n        /* \"#utility.yul\":16141:16454   */\n      swap3\n      swap2\n      pop\n      pop\n      jump\t// out\n        /* \"#utility.yul\":16460:16879   */\n    tag_263:\n        /* \"#utility.yul\":16626:16630   */\n      0x00\n        /* \"#utility.yul\":16664:16666   */\n      0x20\n        /* \"#utility.yul\":16653:16662   */\n      dup3\n        /* \"#utility.yul\":16649:16667   */\n      add\n        /* \"#utility.yul\":16641:16667   */\n      swap1\n      pop\n        /* \"#utility.yul\":16713:16722   */\n      dup2\n        /* \"#utility.yul\":16707:16711   */\n      dup2\n        /* \"#utility.yul\":16703:16723   */\n      sub\n        /* \"#utility.yul\":16699:16700   */\n      0x00\n        /* \"#utility.yul\":16688:16697   */\n      dup4\n        /* \"#utility.yul\":16684:16701   */\n      add\n        /* \"#utility.yul\":16677:16724   */\n      mstore\n        /* \"#utility.yul\":16741:16872   */\n      tag_696\n        /* \"#utility.yul\":16867:16871   */\n      dup2\n        /* \"#utility.yul\":16741:16872   */\n      tag_579\n      jump\t// in\n    tag_696:\n        /* \"#utility.yul\":16733:16872   */\n      swap1\n      pop\n        /* \"#utility.yul\":16460:16879   */\n      swap2\n      swap1\n      pop\n      jump\t// out\n        /* \"#utility.yul\":16885:17304   */\n    tag_221:\n        /* \"#utility.yul\":17051:17055   */\n      0x00\n        /* \"#utility.yul\":17089:17091   */\n      0x20\n        /* \"#utility.yul\":17078:17087   */\n      dup3\n        /* \"#utility.yul\":17074:17092   */\n      add\n        /* \"#utility.yul\":17066:17092   */\n      swap1\n      pop\n        /* \"#utility.yul\":17138:17147   */\n      dup2\n        /* \"#utility.yul\":17132:17136   */\n      dup2\n        /* \"#utility.yul\":17128:17148   */\n      sub\n        /* \"#utility.yul\":17124:17125   */\n      0x00\n        /* \"#utility.yul\":17113:17122   */\n      dup4\n        /* \"#utility.yul\":17109:17126   */\n      add\n        /* \"#utility.yul\":17102:17149   */\n      mstore\n        /* \"#utility.yul\":17166:17297   */\n      tag_698\n        /* \"#utility.yul\":17292:17296   */\n      dup2\n        /* \"#utility.yul\":17166:17297   */\n      tag_584\n      jump\t// in\n    tag_698:\n        /* \"#utility.yul\":17158:17297   */\n      swap1\n      pop\n        /* \"#utility.yul\":16885:17304   */\n      swap2\n      swap1\n      pop\n      jump\t// out\n        /* \"#utility.yul\":17310:17729   */\n    tag_294:\n        /* \"#utility.yul\":17476:17480   */\n      0x00\n        /* \"#utility.yul\":17514:17516   */\n      0x20\n        /* \"#utility.yul\":17503:17512   */\n      dup3\n        /* \"#utility.yul\":17499:17517   */\n      add\n        /* \"#utility.yul\":17491:17517   */\n      swap1\n      pop\n        /* \"#utility.yul\":17563:17572   */\n      dup2\n        /* \"#utility.yul\":17557:17561   */\n      dup2\n        /* \"#utility.yul\":17553:17573   */\n      sub\n        /* \"#utility.yul\":17549:17550   */\n      0x00\n        /* \"#utility.yul\":17538:17547   */\n      dup4\n        /* \"#utility.yul\":17534:17551   */\n      add\n        /* \"#utility.yul\":17527:17574   */\n      mstore\n        /* \"#utility.yul\":17591:17722   */\n      tag_700\n        /* \"#utility.yul\":17717:17721   */\n      dup2\n        /* \"#utility.yul\":17591:17722   */\n      tag_589\n      jump\t// in\n    tag_700:\n        /* \"#utility.yul\":17583:17722   */\n      swap1\n      pop\n        /* \"#utility.yul\":17310:17729   */\n      swap2\n      swap1\n      pop\n      jump\t// out\n        /* \"#utility.yul\":17735:18154   */\n    tag_340:\n        /* \"#utility.yul\":17901:17905   */\n      0x00\n        /* \"#utility.yul\":17939:17941   */\n      0x20\n        /* \"#utility.yul\":17928:17937   */\n      dup3\n        /* \"#utility.yul\":17924:17942   */\n      add\n        /* \"#utility.yul\":17916:17942   */\n      swap1\n      pop\n        /* \"#utility.yul\":17988:17997   */\n      dup2\n        /* \"#utility.yul\":17982:17986   */\n      dup2\n        /* \"#utility.yul\":17978:17998   */\n      sub\n        /* \"#utility.yul\":17974:17975   */\n      0x00\n        /* \"#utility.yul\":17963:17972   */\n      dup4\n        /* \"#utility.yul\":17959:17976   */\n      add\n        /* \"#utility.yul\":17952:17999   */\n      mstore\n        /* \"#utility.yul\":18016:18147   */\n      tag_702\n        /* \"#utility.yul\":18142:18146   */\n      dup2\n        /* \"#utility.yul\":18016:18147   */\n      tag_594\n      jump\t// in\n    tag_702:\n        /* \"#utility.yul\":18008:18147   */\n      swap1\n      pop\n        /* \"#utility.yul\":17735:18154   */\n      swap2\n      swap1\n      pop\n      jump\t// out\n        /* \"#utility.yul\":18160:18579   */\n    tag_415:\n        /* \"#utility.yul\":18326:18330   */\n      0x00\n        /* \"#utility.yul\":18364:18366   */\n      0x20\n        /* \"#utility.yul\":18353:18362   */\n      dup3\n        /* \"#utility.yul\":18349:18367   */\n      add\n        /* \"#utility.yul\":18341:18367   */\n      swap1\n      pop\n        /* \"#utility.yul\":18413:18422   */\n      dup2\n        /* \"#utility.yul\":18407:18411   */\n      dup2\n        /* \"#utility.yul\":18403:18423   */\n      sub\n        /* \"#utility.yul\":18399:18400   */\n      0x00\n        /* \"#utility.yul\":18388:18397   */\n      dup4\n        /* \"#utility.yul\":18384:18401   */\n      add\n        /* \"#utility.yul\":18377:18424   */\n      mstore\n        /* \"#utility.yul\":18441:18572   */\n      tag_704\n        /* \"#utility.yul\":18567:18571   */\n      dup2\n        /* \"#utility.yul\":18441:18572   */\n      tag_599\n      jump\t// in\n    tag_704:\n        /* \"#utility.yul\":18433:18572   */\n      swap1\n      pop\n        /* \"#utility.yul\":18160:18579   */\n      swap2\n      swap1\n      pop\n      jump\t// out\n        /* \"#utility.yul\":18585:19004   */\n    tag_331:\n        /* \"#utility.yul\":18751:18755   */\n      0x00\n        /* \"#utility.yul\":18789:18791   */\n      0x20\n        /* \"#utility.yul\":18778:18787   */\n      dup3\n        /* \"#utility.yul\":18774:18792   */\n      add\n        /* \"#utility.yul\":18766:18792   */\n      swap1\n      pop\n        /* \"#utility.yul\":18838:18847   */\n      dup2\n        /* \"#utility.yul\":18832:18836   */\n      dup2\n        /* \"#utility.yul\":18828:18848   */\n      sub\n        /* \"#utility.yul\":18824:18825   */\n      0x00\n        /* \"#utility.yul\":18813:18822   */\n      dup4\n        /* \"#utility.yul\":18809:18826   */\n      add\n        /* \"#utility.yul\":18802:18849   */\n      mstore\n        /* \"#utility.yul\":18866:18997   */\n      tag_706\n        /* \"#utility.yul\":18992:18996   */\n      dup2\n        /* \"#utility.yul\":18866:18997   */\n      tag_604\n      jump\t// in\n    tag_706:\n        /* \"#utility.yul\":18858:18997   */\n      swap1\n      pop\n        /* \"#utility.yul\":18585:19004   */\n      swap2\n      swap1\n      pop\n      jump\t// out\n        /* \"#utility.yul\":19010:19429   */\n    tag_257:\n        /* \"#utility.yul\":19176:19180   */\n      0x00\n        /* \"#utility.yul\":19214:19216   */\n      0x20\n        /* \"#utility.yul\":19203:19212   */\n      dup3\n        /* \"#utility.yul\":19199:19217   */\n      add\n        /* \"#utility.yul\":19191:19217   */\n      swap1\n      pop\n        /* \"#utility.yul\":19263:19272   */\n      dup2\n        /* \"#utility.yul\":19257:19261   */\n      dup2\n        /* \"#utility.yul\":19253:19273   */\n      sub\n        /* \"#utility.yul\":19249:19250   */\n      0x00\n        /* \"#utility.yul\":19238:19247   */\n      dup4\n        /* \"#utility.yul\":19234:19251   */\n      add\n        /* \"#utility.yul\":19227:19274   */\n      mstore\n        /* \"#utility.yul\":19291:19422   */\n      tag_708\n        /* \"#utility.yul\":19417:19421   */\n      dup2\n        /* \"#utility.yul\":19291:19422   */\n      tag_609\n      jump\t// in\n    tag_708:\n        /* \"#utility.yul\":19283:19422   */\n      swap1\n      pop\n        /* \"#utility.yul\":19010:19429   */\n      swap2\n      swap1\n      pop\n      jump\t// out\n        /* \"#utility.yul\":19435:19854   */\n    tag_302:\n        /* \"#utility.yul\":19601:19605   */\n      0x00\n        /* \"#utility.yul\":19639:19641   */\n      0x20\n        /* \"#utility.yul\":19628:19637   */\n      dup3\n        /* \"#utility.yul\":19624:19642   */\n      add\n        /* \"#utility.yul\":19616:19642   */\n      swap1\n      pop\n        /* \"#utility.yul\":19688:19697   */\n      dup2\n        /* \"#utility.yul\":19682:19686   */\n      dup2\n        /* \"#utility.yul\":19678:19698   */\n      sub\n        /* \"#utility.yul\":19674:19675   */\n      0x00\n        /* \"#utility.yul\":19663:19672   */\n      dup4\n        /* \"#utility.yul\":19659:19676   */\n      add\n        /* \"#utility.yul\":19652:19699   */\n      mstore\n        /* \"#utility.yul\":19716:19847   */\n      tag_710\n        /* \"#utility.yul\":19842:19846   */\n      dup2\n        /* \"#utility.yul\":19716:19847   */\n      tag_614\n      jump\t// in\n    tag_710:\n        /* \"#utility.yul\":19708:19847   */\n      swap1\n      pop\n        /* \"#utility.yul\":19435:19854   */\n      swap2\n      swap1\n      pop\n      jump\t// out\n        /* \"#utility.yul\":19860:20279   */\n    tag_297:\n        /* \"#utility.yul\":20026:20030   */\n      0x00\n        /* \"#utility.yul\":20064:20066   */\n      0x20\n        /* \"#utility.yul\":20053:20062   */\n      dup3\n        /* \"#utility.yul\":20049:20067   */\n      add\n        /* \"#utility.yul\":20041:20067   */\n      swap1\n      pop\n        /* \"#utility.yul\":20113:20122   */\n      dup2\n        /* \"#utility.yul\":20107:20111   */\n      dup2\n        /* \"#utility.yul\":20103:20123   */\n      sub\n        /* \"#utility.yul\":20099:20100   */\n      0x00\n        /* \"#utility.yul\":20088:20097   */\n      dup4\n        /* \"#utility.yul\":20084:20101   */\n      add\n        /* \"#utility.yul\":20077:20124   */\n      mstore\n        /* \"#utility.yul\":20141:20272   */\n      tag_712\n        /* \"#utility.yul\":20267:20271   */\n      dup2\n        /* \"#utility.yul\":20141:20272   */\n      tag_619\n      jump\t// in\n    tag_712:\n        /* \"#utility.yul\":20133:20272   */\n      swap1\n      pop\n        /* \"#utility.yul\":19860:20279   */\n      swap2\n      swap1\n      pop\n      jump\t// out\n        /* \"#utility.yul\":20285:20704   */\n    tag_327:\n        /* \"#utility.yul\":20451:20455   */\n      0x00\n        /* \"#utility.yul\":20489:20491   */\n      0x20\n        /* \"#utility.yul\":20478:20487   */\n      dup3\n        /* \"#utility.yul\":20474:20492   */\n      add\n        /* \"#utility.yul\":20466:20492   */\n      swap1\n      pop\n        /* \"#utility.yul\":20538:20547   */\n      dup2\n        /* \"#utility.yul\":20532:20536   */\n      dup2\n        /* \"#utility.yul\":20528:20548   */\n      sub\n        /* \"#utility.yul\":20524:20525   */\n      0x00\n        /* \"#utility.yul\":20513:20522   */\n      dup4\n        /* \"#utility.yul\":20509:20526   */\n      add\n        /* \"#utility.yul\":20502:20549   */\n      mstore\n        /* \"#utility.yul\":20566:20697   */\n      tag_714\n        /* \"#utility.yul\":20692:20696   */\n      dup2\n        /* \"#utility.yul\":20566:20697   */\n      tag_624\n      jump\t// in\n    tag_714:\n        /* \"#utility.yul\":20558:20697   */\n      swap1\n      pop\n        /* \"#utility.yul\":20285:20704   */\n      swap2\n      swap1\n      pop\n      jump\t// out\n        /* \"#utility.yul\":20710:21129   */\n    tag_430:\n        /* \"#utility.yul\":20876:20880   */\n      0x00\n        /* \"#utility.yul\":20914:20916   */\n      0x20\n        /* \"#utility.yul\":20903:20912   */\n      dup3\n        /* \"#utility.yul\":20899:20917   */\n      add\n        /* \"#utility.yul\":20891:20917   */\n      swap1\n      pop\n        /* \"#utility.yul\":20963:20972   */\n      dup2\n        /* \"#utility.yul\":20957:20961   */\n      dup2\n        /* \"#utility.yul\":20953:20973   */\n      sub\n        /* \"#utility.yul\":20949:20950   */\n      0x00\n        /* \"#utility.yul\":20938:20947   */\n      dup4\n        /* \"#utility.yul\":20934:20951   */\n      add\n        /* \"#utility.yul\":20927:20974   */\n      mstore\n        /* \"#utility.yul\":20991:21122   */\n      tag_716\n        /* \"#utility.yul\":21117:21121   */\n      dup2\n        /* \"#utility.yul\":20991:21122   */\n      tag_629\n      jump\t// in\n    tag_716:\n        /* \"#utility.yul\":20983:21122   */\n      swap1\n      pop\n        /* \"#utility.yul\":20710:21129   */\n      swap2\n      swap1\n      pop\n      jump\t// out\n        /* \"#utility.yul\":21135:21554   */\n    tag_371:\n        /* \"#utility.yul\":21301:21305   */\n      0x00\n        /* \"#utility.yul\":21339:21341   */\n      0x20\n        /* \"#utility.yul\":21328:21337   */\n      dup3\n        /* \"#utility.yul\":21324:21342   */\n      add\n        /* \"#utility.yul\":21316:21342   */\n      swap1\n      pop\n        /* \"#utility.yul\":21388:21397   */\n      dup2\n        /* \"#utility.yul\":21382:21386   */\n      dup2\n        /* \"#utility.yul\":21378:21398   */\n      sub\n        /* \"#utility.yul\":21374:21375   */\n      0x00\n        /* \"#utility.yul\":21363:21372   */\n      dup4\n        /* \"#utility.yul\":21359:21376   */\n      add\n        /* \"#utility.yul\":21352:21399   */\n      mstore\n        /* \"#utility.yul\":21416:21547   */\n      tag_718\n        /* \"#utility.yul\":21542:21546   */\n      dup2\n        /* \"#utility.yul\":21416:21547   */\n      tag_634\n      jump\t// in\n    tag_718:\n        /* \"#utility.yul\":21408:21547   */\n      swap1\n      pop\n        /* \"#utility.yul\":21135:21554   */\n      swap2\n      swap1\n      pop\n      jump\t// out\n        /* \"#utility.yul\":21560:21979   */\n    tag_408:\n        /* \"#utility.yul\":21726:21730   */\n      0x00\n        /* \"#utility.yul\":21764:21766   */\n      0x20\n        /* \"#utility.yul\":21753:21762   */\n      dup3\n        /* \"#utility.yul\":21749:21767   */\n      add\n        /* \"#utility.yul\":21741:21767   */\n      swap1\n      pop\n        /* \"#utility.yul\":21813:21822   */\n      dup2\n        /* \"#utility.yul\":21807:21811   */\n      dup2\n        /* \"#utility.yul\":21803:21823   */\n      sub\n        /* \"#utility.yul\":21799:21800   */\n      0x00\n        /* \"#utility.yul\":21788:21797   */\n      dup4\n        /* \"#utility.yul\":21784:21801   */\n      add\n        /* \"#utility.yul\":21777:21824   */\n      mstore\n        /* \"#utility.yul\":21841:21972   */\n      tag_720\n        /* \"#utility.yul\":21967:21971   */\n      dup2\n        /* \"#utility.yul\":21841:21972   */\n      tag_639\n      jump\t// in\n    tag_720:\n        /* \"#utility.yul\":21833:21972   */\n      swap1\n      pop\n        /* \"#utility.yul\":21560:21979   */\n      swap2\n      swap1\n      pop\n      jump\t// out\n        /* \"#utility.yul\":21985:22404   */\n    tag_362:\n        /* \"#utility.yul\":22151:22155   */\n      0x00\n        /* \"#utility.yul\":22189:22191   */\n      0x20\n        /* \"#utility.yul\":22178:22187   */\n      dup3\n        /* \"#utility.yul\":22174:22192   */\n      add\n        /* \"#utility.yul\":22166:22192   */\n      swap1\n      pop\n        /* \"#utility.yul\":22238:22247   */\n      dup2\n        /* \"#utility.yul\":22232:22236   */\n      dup2\n        /* \"#utility.yul\":22228:22248   */\n      sub\n        /* \"#utility.yul\":22224:22225   */\n      0x00\n        /* \"#utility.yul\":22213:22222   */\n      dup4\n        /* \"#utility.yul\":22209:22226   */\n      add\n        /* \"#utility.yul\":22202:22249   */\n      mstore\n        /* \"#utility.yul\":22266:22397   */\n      tag_722\n        /* \"#utility.yul\":22392:22396   */\n      dup2\n        /* \"#utility.yul\":22266:22397   */\n      tag_644\n      jump\t// in\n    tag_722:\n        /* \"#utility.yul\":22258:22397   */\n      swap1\n      pop\n        /* \"#utility.yul\":21985:22404   */\n      swap2\n      swap1\n      pop\n      jump\t// out\n        /* \"#utility.yul\":22410:22632   */\n    tag_53:\n        /* \"#utility.yul\":22503:22507   */\n      0x00\n        /* \"#utility.yul\":22541:22543   */\n      0x20\n        /* \"#utility.yul\":22530:22539   */\n      dup3\n        /* \"#utility.yul\":22526:22544   */\n      add\n        /* \"#utility.yul\":22518:22544   */\n      swap1\n      pop\n        /* \"#utility.yul\":22554:22625   */\n      tag_724\n        /* \"#utility.yul\":22622:22623   */\n      0x00\n        /* \"#utility.yul\":22611:22620   */\n      dup4\n        /* \"#utility.yul\":22607:22624   */\n      add\n        /* \"#utility.yul\":22598:22604   */\n      dup5\n        /* \"#utility.yul\":22554:22625   */\n      tag_656\n      jump\t// in\n    tag_724:\n        /* \"#utility.yul\":22410:22632   */\n      swap3\n      swap2\n      pop\n      pop\n      jump\t// out\n        /* \"#utility.yul\":22638:23433   */\n    tag_73:\n        /* \"#utility.yul\":22881:22885   */\n      0x00\n        /* \"#utility.yul\":22919:22922   */\n      0xc0\n        /* \"#utility.yul\":22908:22917   */\n      dup3\n        /* \"#utility.yul\":22904:22923   */\n      add\n        /* \"#utility.yul\":22896:22923   */\n      swap1\n      pop\n        /* \"#utility.yul\":22933:23004   */\n      tag_726\n        /* \"#utility.yul\":23001:23002   */\n      0x00\n        /* \"#utility.yul\":22990:22999   */\n      dup4\n        /* \"#utility.yul\":22986:23003   */\n      add\n        /* \"#utility.yul\":22977:22983   */\n      dup10\n        /* \"#utility.yul\":22933:23004   */\n      tag_656\n      jump\t// in\n    tag_726:\n        /* \"#utility.yul\":23014:23086   */\n      tag_727\n        /* \"#utility.yul\":23082:23084   */\n      0x20\n        /* \"#utility.yul\":23071:23080   */\n      dup4\n        /* \"#utility.yul\":23067:23085   */\n      add\n        /* \"#utility.yul\":23058:23064   */\n      dup9\n        /* \"#utility.yul\":23014:23086   */\n      tag_656\n      jump\t// in\n    tag_727:\n        /* \"#utility.yul\":23096:23184   */\n      tag_728\n        /* \"#utility.yul\":23180:23182   */\n      0x40\n        /* \"#utility.yul\":23169:23178   */\n      dup4\n        /* \"#utility.yul\":23165:23183   */\n      add\n        /* \"#utility.yul\":23156:23162   */\n      dup8\n        /* \"#utility.yul\":23096:23184   */\n      tag_528\n      jump\t// in\n    tag_728:\n        /* \"#utility.yul\":23194:23260   */\n      tag_729\n        /* \"#utility.yul\":23256:23258   */\n      0x60\n        /* \"#utility.yul\":23245:23254   */\n      dup4\n        /* \"#utility.yul\":23241:23259   */\n      add\n        /* \"#utility.yul\":23232:23238   */\n      dup7\n        /* \"#utility.yul\":23194:23260   */\n      tag_550\n      jump\t// in\n    tag_729:\n        /* \"#utility.yul\":23270:23343   */\n      tag_730\n        /* \"#utility.yul\":23338:23341   */\n      0x80\n        /* \"#utility.yul\":23327:23336   */\n      dup4\n        /* \"#utility.yul\":23323:23342   */\n      add\n        /* \"#utility.yul\":23314:23320   */\n      dup6\n        /* \"#utility.yul\":23270:23343   */\n      tag_656\n      jump\t// in\n    tag_730:\n        /* \"#utility.yul\":23353:23426   */\n      tag_731\n        /* \"#utility.yul\":23421:23424   */\n      0xa0\n        /* \"#utility.yul\":23410:23419   */\n      dup4\n        /* \"#utility.yul\":23406:23425   */\n      add\n        /* \"#utility.yul\":23397:23403   */\n      dup5\n        /* \"#utility.yul\":23353:23426   */\n      tag_656\n      jump\t// in\n    tag_731:\n        /* \"#utility.yul\":22638:23433   */\n      swap8\n      swap7\n      pop\n      pop\n      pop\n      pop\n      pop\n      pop\n      pop\n      jump\t// out\n        /* \"#utility.yul\":23439:23881   */\n    tag_398:\n        /* \"#utility.yul\":23588:23592   */\n      0x00\n        /* \"#utility.yul\":23626:23628   */\n      0x60\n        /* \"#utility.yul\":23615:23624   */\n      dup3\n        /* \"#utility.yul\":23611:23629   */\n      add\n        /* \"#utility.yul\":23603:23629   */\n      swap1\n      pop\n        /* \"#utility.yul\":23639:23710   */\n      tag_733\n        /* \"#utility.yul\":23707:23708   */\n      0x00\n        /* \"#utility.yul\":23696:23705   */\n      dup4\n        /* \"#utility.yul\":23692:23709   */\n      add\n        /* \"#utility.yul\":23683:23689   */\n      dup7\n        /* \"#utility.yul\":23639:23710   */\n      tag_656\n      jump\t// in\n    tag_733:\n        /* \"#utility.yul\":23720:23792   */\n      tag_734\n        /* \"#utility.yul\":23788:23790   */\n      0x20\n        /* \"#utility.yul\":23777:23786   */\n      dup4\n        /* \"#utility.yul\":23773:23791   */\n      add\n        /* \"#utility.yul\":23764:23770   */\n      dup6\n        /* \"#utility.yul\":23720:23792   */\n      tag_656\n      jump\t// in\n    tag_734:\n        /* \"#utility.yul\":23802:23874   */\n      tag_735\n        /* \"#utility.yul\":23870:23872   */\n      0x40\n        /* \"#utility.yul\":23859:23868   */\n      dup4\n        /* \"#utility.yul\":23855:23873   */\n      add\n        /* \"#utility.yul\":23846:23852   */\n      dup5\n        /* \"#utility.yul\":23802:23874   */\n      tag_656\n      jump\t// in\n    tag_735:\n        /* \"#utility.yul\":23439:23881   */\n      swap5\n      swap4\n      pop\n      pop\n      pop\n      pop\n      jump\t// out\n        /* \"#utility.yul\":23887:24215   */\n    tag_283:\n        /* \"#utility.yul\":24006:24010   */\n      0x00\n        /* \"#utility.yul\":24044:24046   */\n      0x40\n        /* \"#utility.yul\":24033:24042   */\n      dup3\n        /* \"#utility.yul\":24029:24047   */\n      add\n        /* \"#utility.yul\":24021:24047   */\n      swap1\n      pop\n        /* \"#utility.yul\":24057:24128   */\n      tag_737\n        /* \"#utility.yul\":24125:24126   */\n      0x00\n        /* \"#utility.yul\":24114:24123   */\n      dup4\n        /* \"#utility.yul\":24110:24127   */\n      add\n        /* \"#utility.yul\":24101:24107   */\n      dup6\n        /* \"#utility.yul\":24057:24128   */\n      tag_656\n      jump\t// in\n    tag_737:\n        /* \"#utility.yul\":24138:24208   */\n      tag_738\n        /* \"#utility.yul\":24204:24206   */\n      0x20\n        /* \"#utility.yul\":24193:24202   */\n      dup4\n        /* \"#utility.yul\":24189:24207   */\n      add\n        /* \"#utility.yul\":24180:24186   */\n      dup5\n        /* \"#utility.yul\":24138:24208   */\n      tag_659\n      jump\t// in\n    tag_738:\n        /* \"#utility.yul\":23887:24215   */\n      swap4\n      swap3\n      pop\n      pop\n      pop\n      jump\t// out\n        /* \"#utility.yul\":24221:24439   */\n    tag_78:\n        /* \"#utility.yul\":24312:24316   */\n      0x00\n        /* \"#utility.yul\":24350:24352   */\n      0x20\n        /* \"#utility.yul\":24339:24348   */\n      dup3\n        /* \"#utility.yul\":24335:24353   */\n      add\n        /* \"#utility.yul\":24327:24353   */\n      swap1\n      pop\n        /* \"#utility.yul\":24363:24432   */\n      tag_740\n        /* \"#utility.yul\":24429:24430   */\n      0x00\n        /* \"#utility.yul\":24418:24427   */\n      dup4\n        /* \"#utility.yul\":24414:24431   */\n      add\n        /* \"#utility.yul\":24405:24411   */\n      dup5\n        /* \"#utility.yul\":24363:24432   */\n      tag_659\n      jump\t// in\n    tag_740:\n        /* \"#utility.yul\":24221:24439   */\n      swap3\n      swap2\n      pop\n      pop\n      jump\t// out\n        /* \"#utility.yul\":24445:24574   */\n    tag_453:\n        /* \"#utility.yul\":24479:24485   */\n      0x00\n        /* \"#utility.yul\":24506:24526   */\n      tag_742\n      tag_743\n      jump\t// in\n    tag_742:\n        /* \"#utility.yul\":24496:24526   */\n      swap1\n      pop\n        /* \"#utility.yul\":24535:24568   */\n      tag_744\n        /* \"#utility.yul\":24563:24567   */\n      dup3\n        /* \"#utility.yul\":24555:24561   */\n      dup3\n        /* \"#utility.yul\":24535:24568   */\n      tag_745\n      jump\t// in\n    tag_744:\n        /* \"#utility.yul\":24445:24574   */\n      swap2\n      swap1\n      pop\n      jump\t// out\n        /* \"#utility.yul\":24580:24655   */\n    tag_743:\n        /* \"#utility.yul\":24613:24619   */\n      0x00\n        /* \"#utility.yul\":24646:24648   */\n      0x40\n        /* \"#utility.yul\":24640:24649   */\n      mload\n        /* \"#utility.yul\":24630:24649   */\n      swap1\n      pop\n        /* \"#utility.yul\":24580:24655   */\n      swap1\n      jump\t// out\n        /* \"#utility.yul\":24661:24972   */\n    tag_452:\n        /* \"#utility.yul\":24738:24742   */\n      0x00\n        /* \"#utility.yul\":24828:24846   */\n      0xffffffffffffffff\n        /* \"#utility.yul\":24820:24826   */\n      dup3\n        /* \"#utility.yul\":24817:24847   */\n      gt\n        /* \"#utility.yul\":24814:24870   */\n      iszero\n      tag_748\n      jumpi\n        /* \"#utility.yul\":24850:24868   */\n      tag_749\n      tag_277\n      jump\t// in\n    tag_749:\n        /* \"#utility.yul\":24814:24870   */\n    tag_748:\n        /* \"#utility.yul\":24900:24904   */\n      0x20\n        /* \"#utility.yul\":24892:24898   */\n      dup3\n        /* \"#utility.yul\":24888:24905   */\n      mul\n        /* \"#utility.yul\":24880:24905   */\n      swap1\n      pop\n        /* \"#utility.yul\":24960:24964   */\n      0x20\n        /* \"#utility.yul\":24954:24958   */\n      dup2\n        /* \"#utility.yul\":24950:24965   */\n      add\n        /* \"#utility.yul\":24942:24965   */\n      swap1\n      pop\n        /* \"#utility.yul\":24661:24972   */\n      swap2\n      swap1\n      pop\n      jump\t// out\n        /* \"#utility.yul\":24978:25110   */\n    tag_543:\n        /* \"#utility.yul\":25045:25049   */\n      0x00\n        /* \"#utility.yul\":25068:25071   */\n      dup2\n        /* \"#utility.yul\":25060:25071   */\n      swap1\n      pop\n        /* \"#utility.yul\":25098:25102   */\n      0x20\n        /* \"#utility.yul\":25093:25096   */\n      dup3\n        /* \"#utility.yul\":25089:25103   */\n      add\n        /* \"#utility.yul\":25081:25103   */\n      swap1\n      pop\n        /* \"#utility.yul\":24978:25110   */\n      swap2\n      swap1\n      pop\n      jump\t// out\n        /* \"#utility.yul\":25116:25230   */\n    tag_539:\n        /* \"#utility.yul\":25183:25189   */\n      0x00\n        /* \"#utility.yul\":25217:25222   */\n      dup2\n        /* \"#utility.yul\":25211:25223   */\n      mload\n        /* \"#utility.yul\":25201:25223   */\n      swap1\n      pop\n        /* \"#utility.yul\":25116:25230   */\n      swap2\n      swap1\n      pop\n      jump\t// out\n        /* \"#utility.yul\":25236:25334   */\n    tag_561:\n        /* \"#utility.yul\":25287:25293   */\n      0x00\n        /* \"#utility.yul\":25321:25326   */\n      dup2\n        /* \"#utility.yul\":25315:25327   */\n      mload\n        /* \"#utility.yul\":25305:25327   */\n      swap1\n      pop\n        /* \"#utility.yul\":25236:25334   */\n      swap2\n      swap1\n      pop\n      jump\t// out\n        /* \"#utility.yul\":25340:25439   */\n    tag_573:\n        /* \"#utility.yul\":25392:25398   */\n      0x00\n        /* \"#utility.yul\":25426:25431   */\n      dup2\n        /* \"#utility.yul\":25420:25432   */\n      mload\n        /* \"#utility.yul\":25410:25432   */\n      swap1\n      pop\n        /* \"#utility.yul\":25340:25439   */\n      swap2\n      swap1\n      pop\n      jump\t// out\n        /* \"#utility.yul\":25445:25558   */\n    tag_549:\n        /* \"#utility.yul\":25515:25519   */\n      0x00\n        /* \"#utility.yul\":25547:25551   */\n      0x20\n        /* \"#utility.yul\":25542:25545   */\n      dup3\n        /* \"#utility.yul\":25538:25552   */\n      add\n        /* \"#utility.yul\":25530:25552   */\n      swap1\n      pop\n        /* \"#utility.yul\":25445:25558   */\n      swap2\n      swap1\n      pop\n      jump\t// out\n        /* \"#utility.yul\":25564:25748   */\n    tag_541:\n        /* \"#utility.yul\":25663:25674   */\n      0x00\n        /* \"#utility.yul\":25697:25703   */\n      dup3\n        /* \"#utility.yul\":25692:25695   */\n      dup3\n        /* \"#utility.yul\":25685:25704   */\n      mstore\n        /* \"#utility.yul\":25737:25741   */\n      0x20\n        /* \"#utility.yul\":25732:25735   */\n      dup3\n        /* \"#utility.yul\":25728:25742   */\n      add\n        /* \"#utility.yul\":25713:25742   */\n      swap1\n      pop\n        /* \"#utility.yul\":25564:25748   */\n      swap3\n      swap2\n      pop\n      pop\n      jump\t// out\n        /* \"#utility.yul\":25754:25901   */\n    tag_563:\n        /* \"#utility.yul\":25855:25866   */\n      0x00\n        /* \"#utility.yul\":25892:25895   */\n      dup2\n        /* \"#utility.yul\":25877:25895   */\n      swap1\n      pop\n        /* \"#utility.yul\":25754:25901   */\n      swap3\n      swap2\n      pop\n      pop\n      jump\t// out\n        /* \"#utility.yul\":25907:26076   */\n    tag_575:\n        /* \"#utility.yul\":25991:26002   */\n      0x00\n        /* \"#utility.yul\":26025:26031   */\n      dup3\n        /* \"#utility.yul\":26020:26023   */\n      dup3\n        /* \"#utility.yul\":26013:26032   */\n      mstore\n        /* \"#utility.yul\":26065:26069   */\n      0x20\n        /* \"#utility.yul\":26060:26063   */\n      dup3\n        /* \"#utility.yul\":26056:26070   */\n      add\n        /* \"#utility.yul\":26041:26070   */\n      swap1\n      pop\n        /* \"#utility.yul\":25907:26076   */\n      swap3\n      swap2\n      pop\n      pop\n      jump\t// out\n        /* \"#utility.yul\":26082:26607   */\n    tag_396:\n        /* \"#utility.yul\":26121:26124   */\n      0x00\n        /* \"#utility.yul\":26140:26159   */\n      tag_759\n        /* \"#utility.yul\":26157:26158   */\n      dup3\n        /* \"#utility.yul\":26140:26159   */\n      tag_569\n      jump\t// in\n    tag_759:\n        /* \"#utility.yul\":26135:26159   */\n      swap2\n      pop\n        /* \"#utility.yul\":26173:26192   */\n      tag_760\n        /* \"#utility.yul\":26190:26191   */\n      dup4\n        /* \"#utility.yul\":26173:26192   */\n      tag_569\n      jump\t// in\n    tag_760:\n        /* \"#utility.yul\":26168:26192   */\n      swap3\n      pop\n        /* \"#utility.yul\":26361:26362   */\n      dup2\n        /* \"#utility.yul\":26293:26359   */\n      0x7fffffffffffffffffffffffffffffffffffffffffffffffffffffffffffffff\n        /* \"#utility.yul\":26289:26363   */\n      sub\n        /* \"#utility.yul\":26286:26287   */\n      dup4\n        /* \"#utility.yul\":26282:26364   */\n      sgt\n        /* \"#utility.yul\":26277:26278   */\n      0x00\n        /* \"#utility.yul\":26274:26275   */\n      dup4\n        /* \"#utility.yul\":26270:26279   */\n      slt\n        /* \"#utility.yul\":26263:26280   */\n      iszero\n        /* \"#utility.yul\":26259:26365   */\n      and\n        /* \"#utility.yul\":26256:26388   */\n      iszero\n      tag_761\n      jumpi\n        /* \"#utility.yul\":26368:26386   */\n      tag_762\n      tag_763\n      jump\t// in\n    tag_762:\n        /* \"#utility.yul\":26256:26388   */\n    tag_761:\n        /* \"#utility.yul\":26548:26549   */\n      dup2\n        /* \"#utility.yul\":26480:26546   */\n      0x8000000000000000000000000000000000000000000000000000000000000000\n        /* \"#utility.yul\":26476:26550   */\n      sub\n        /* \"#utility.yul\":26473:26474   */\n      dup4\n        /* \"#utility.yul\":26469:26551   */\n      slt\n        /* \"#utility.yul\":26465:26466   */\n      0x00\n        /* \"#utility.yul\":26462:26463   */\n      dup4\n        /* \"#utility.yul\":26458:26467   */\n      slt\n        /* \"#utility.yul\":26454:26552   */\n      and\n        /* \"#utility.yul\":26451:26575   */\n      iszero\n      tag_764\n      jumpi\n        /* \"#utility.yul\":26555:26573   */\n      tag_765\n      tag_763\n      jump\t// in\n    tag_765:\n        /* \"#utility.yul\":26451:26575   */\n    tag_764:\n        /* \"#utility.yul\":26599:26600   */\n      dup3\n        /* \"#utility.yul\":26596:26597   */\n      dup3\n        /* \"#utility.yul\":26592:26601   */\n      add\n        /* \"#utility.yul\":26585:26601   */\n      swap1\n      pop\n        /* \"#utility.yul\":26082:26607   */\n      swap3\n      swap2\n      pop\n      pop\n      jump\t// out\n        /* \"#utility.yul\":26613:26918   */\n    tag_299:\n        /* \"#utility.yul\":26653:26656   */\n      0x00\n        /* \"#utility.yul\":26672:26692   */\n      tag_767\n        /* \"#utility.yul\":26690:26691   */\n      dup3\n        /* \"#utility.yul\":26672:26692   */\n      tag_655\n      jump\t// in\n    tag_767:\n        /* \"#utility.yul\":26667:26692   */\n      swap2\n      pop\n        /* \"#utility.yul\":26706:26726   */\n      tag_768\n        /* \"#utility.yul\":26724:26725   */\n      dup4\n        /* \"#utility.yul\":26706:26726   */\n      tag_655\n      jump\t// in\n    tag_768:\n        /* \"#utility.yul\":26701:26726   */\n      swap3\n      pop\n        /* \"#utility.yul\":26860:26861   */\n      dup3\n        /* \"#utility.yul\":26792:26858   */\n      0xffffffffffffffffffffffffffffffffffffffffffffffffffffffffffffffff\n        /* \"#utility.yul\":26788:26862   */\n      sub\n        /* \"#utility.yul\":26785:26786   */\n      dup3\n        /* \"#utility.yul\":26782:26863   */\n      gt\n        /* \"#utility.yul\":26779:26886   */\n      iszero\n      tag_769\n      jumpi\n        /* \"#utility.yul\":26866:26884   */\n      tag_770\n      tag_763\n      jump\t// in\n    tag_770:\n        /* \"#utility.yul\":26779:26886   */\n    tag_769:\n        /* \"#utility.yul\":26910:26911   */\n      dup3\n        /* \"#utility.yul\":26907:26908   */\n      dup3\n        /* \"#utility.yul\":26903:26912   */\n      add\n        /* \"#utility.yul\":26896:26912   */\n      swap1\n      pop\n        /* \"#utility.yul\":26613:26918   */\n      swap3\n      swap2\n      pop\n      pop\n      jump\t// out\n        /* \"#utility.yul\":26924:27109   */\n    tag_244:\n        /* \"#utility.yul\":26964:26965   */\n      0x00\n        /* \"#utility.yul\":26981:27001   */\n      tag_772\n        /* \"#utility.yul\":26999:27000   */\n      dup3\n        /* \"#utility.yul\":26981:27001   */\n      tag_655\n      jump\t// in\n    tag_772:\n        /* \"#utility.yul\":26976:27001   */\n      swap2\n      pop\n        /* \"#utility.yul\":27015:27035   */\n      tag_773\n        /* \"#utility.yul\":27033:27034   */\n      dup4\n        /* \"#utility.yul\":27015:27035   */\n      tag_655\n      jump\t// in\n    tag_773:\n        /* \"#utility.yul\":27010:27035   */\n      swap3\n      pop\n        /* \"#utility.yul\":27054:27055   */\n      dup3\n        /* \"#utility.yul\":27044:27079   */\n      tag_774\n      jumpi\n        /* \"#utility.yul\":27059:27077   */\n      tag_775\n      tag_776\n      jump\t// in\n    tag_775:\n        /* \"#utility.yul\":27044:27079   */\n    tag_774:\n        /* \"#utility.yul\":27101:27102   */\n      dup3\n        /* \"#utility.yul\":27098:27099   */\n      dup3\n        /* \"#utility.yul\":27094:27103   */\n      div\n        /* \"#utility.yul\":27089:27103   */\n      swap1\n      pop\n        /* \"#utility.yul\":26924:27109   */\n      swap3\n      swap2\n      pop\n      pop\n      jump\t// out\n        /* \"#utility.yul\":27115:27463   */\n    tag_365:\n        /* \"#utility.yul\":27155:27162   */\n      0x00\n        /* \"#utility.yul\":27178:27198   */\n      tag_778\n        /* \"#utility.yul\":27196:27197   */\n      dup3\n        /* \"#utility.yul\":27178:27198   */\n      tag_655\n      jump\t// in\n    tag_778:\n        /* \"#utility.yul\":27173:27198   */\n      swap2\n      pop\n        /* \"#utility.yul\":27212:27232   */\n      tag_779\n        /* \"#utility.yul\":27230:27231   */\n      dup4\n        /* \"#utility.yul\":27212:27232   */\n      tag_655\n      jump\t// in\n    tag_779:\n        /* \"#utility.yul\":27207:27232   */\n      swap3\n      pop\n        /* \"#utility.yul\":27400:27401   */\n      dup2\n        /* \"#utility.yul\":27332:27398   */\n      0xffffffffffffffffffffffffffffffffffffffffffffffffffffffffffffffff\n        /* \"#utility.yul\":27328:27402   */\n      div\n        /* \"#utility.yul\":27325:27326   */\n      dup4\n        /* \"#utility.yul\":27322:27403   */\n      gt\n        /* \"#utility.yul\":27317:27318   */\n      dup3\n        /* \"#utility.yul\":27310:27319   */\n      iszero\n        /* \"#utility.yul\":27303:27320   */\n      iszero\n        /* \"#utility.yul\":27299:27404   */\n      and\n        /* \"#utility.yul\":27296:27427   */\n      iszero\n      tag_780\n      jumpi\n        /* \"#utility.yul\":27407:27425   */\n      tag_781\n      tag_763\n      jump\t// in\n    tag_781:\n        /* \"#utility.yul\":27296:27427   */\n    tag_780:\n        /* \"#utility.yul\":27455:27456   */\n      dup3\n        /* \"#utility.yul\":27452:27453   */\n      dup3\n        /* \"#utility.yul\":27448:27457   */\n      mul\n        /* \"#utility.yul\":27437:27457   */\n      swap1\n      pop\n        /* \"#utility.yul\":27115:27463   */\n      swap3\n      swap2\n      pop\n      pop\n      jump\t// out\n        /* \"#utility.yul\":27469:27996   */\n    tag_391:\n        /* \"#utility.yul\":27508:27512   */\n      0x00\n        /* \"#utility.yul\":27528:27547   */\n      tag_783\n        /* \"#utility.yul\":27545:27546   */\n      dup3\n        /* \"#utility.yul\":27528:27547   */\n      tag_569\n      jump\t// in\n    tag_783:\n        /* \"#utility.yul\":27523:27547   */\n      swap2\n      pop\n        /* \"#utility.yul\":27561:27580   */\n      tag_784\n        /* \"#utility.yul\":27578:27579   */\n      dup4\n        /* \"#utility.yul\":27561:27580   */\n      tag_569\n      jump\t// in\n    tag_784:\n        /* \"#utility.yul\":27556:27580   */\n      swap3\n      pop\n        /* \"#utility.yul\":27750:27751   */\n      dup3\n        /* \"#utility.yul\":27682:27748   */\n      0x8000000000000000000000000000000000000000000000000000000000000000\n        /* \"#utility.yul\":27678:27752   */\n      add\n        /* \"#utility.yul\":27675:27676   */\n      dup3\n        /* \"#utility.yul\":27671:27753   */\n      slt\n        /* \"#utility.yul\":27666:27667   */\n      0x00\n        /* \"#utility.yul\":27663:27664   */\n      dup5\n        /* \"#utility.yul\":27659:27668   */\n      slt\n        /* \"#utility.yul\":27652:27669   */\n      iszero\n        /* \"#utility.yul\":27648:27754   */\n      and\n        /* \"#utility.yul\":27645:27777   */\n      iszero\n      tag_785\n      jumpi\n        /* \"#utility.yul\":27757:27775   */\n      tag_786\n      tag_763\n      jump\t// in\n    tag_786:\n        /* \"#utility.yul\":27645:27777   */\n    tag_785:\n        /* \"#utility.yul\":27936:27937   */\n      dup3\n        /* \"#utility.yul\":27868:27934   */\n      0x7fffffffffffffffffffffffffffffffffffffffffffffffffffffffffffffff\n        /* \"#utility.yul\":27864:27938   */\n      add\n        /* \"#utility.yul\":27861:27862   */\n      dup3\n        /* \"#utility.yul\":27857:27939   */\n      sgt\n        /* \"#utility.yul\":27853:27854   */\n      0x00\n        /* \"#utility.yul\":27850:27851   */\n      dup5\n        /* \"#utility.yul\":27846:27855   */\n      slt\n        /* \"#utility.yul\":27842:27940   */\n      and\n        /* \"#utility.yul\":27839:27963   */\n      iszero\n      tag_787\n      jumpi\n        /* \"#utility.yul\":27943:27961   */\n      tag_788\n      tag_763\n      jump\t// in\n    tag_788:\n        /* \"#utility.yul\":27839:27963   */\n    tag_787:\n        /* \"#utility.yul\":27988:27989   */\n      dup3\n        /* \"#utility.yul\":27985:27986   */\n      dup3\n        /* \"#utility.yul\":27981:27990   */\n      sub\n        /* \"#utility.yul\":27973:27990   */\n      swap1\n      pop\n        /* \"#utility.yul\":27469:27996   */\n      swap3\n      swap2\n      pop\n      pop\n      jump\t// out\n        /* \"#utility.yul\":28002:28193   */\n    tag_254:\n        /* \"#utility.yul\":28042:28046   */\n      0x00\n        /* \"#utility.yul\":28062:28082   */\n      tag_790\n        /* \"#utility.yul\":28080:28081   */\n      dup3\n        /* \"#utility.yul\":28062:28082   */\n      tag_655\n      jump\t// in\n    tag_790:\n        /* \"#utility.yul\":28057:28082   */\n      swap2\n      pop\n        /* \"#utility.yul\":28096:28116   */\n      tag_791\n        /* \"#utility.yul\":28114:28115   */\n      dup4\n        /* \"#utility.yul\":28096:28116   */\n      tag_655\n      jump\t// in\n    tag_791:\n        /* \"#utility.yul\":28091:28116   */\n      swap3\n      pop\n        /* \"#utility.yul\":28135:28136   */\n      dup3\n        /* \"#utility.yul\":28132:28133   */\n      dup3\n        /* \"#utility.yul\":28129:28137   */\n      lt\n        /* \"#utility.yul\":28126:28160   */\n      iszero\n      tag_792\n      jumpi\n        /* \"#utility.yul\":28140:28158   */\n      tag_793\n      tag_763\n      jump\t// in\n    tag_793:\n        /* \"#utility.yul\":28126:28160   */\n    tag_792:\n        /* \"#utility.yul\":28185:28186   */\n      dup3\n        /* \"#utility.yul\":28182:28183   */\n      dup3\n        /* \"#utility.yul\":28178:28187   */\n      sub\n        /* \"#utility.yul\":28170:28187   */\n      swap1\n      pop\n        /* \"#utility.yul\":28002:28193   */\n      swap3\n      swap2\n      pop\n      pop\n      jump\t// out\n        /* \"#utility.yul\":28199:28295   */\n    tag_535:\n        /* \"#utility.yul\":28236:28243   */\n      0x00\n        /* \"#utility.yul\":28265:28289   */\n      tag_795\n        /* \"#utility.yul\":28283:28288   */\n      dup3\n        /* \"#utility.yul\":28265:28289   */\n      tag_796\n      jump\t// in\n    tag_795:\n        /* \"#utility.yul\":28254:28289   */\n      swap1\n      pop\n        /* \"#utility.yul\":28199:28295   */\n      swap2\n      swap1\n      pop\n      jump\t// out\n        /* \"#utility.yul\":28301:28405   */\n    tag_531:\n        /* \"#utility.yul\":28346:28353   */\n      0x00\n        /* \"#utility.yul\":28375:28399   */\n      tag_798\n        /* \"#utility.yul\":28393:28398   */\n      dup3\n        /* \"#utility.yul\":28375:28399   */\n      tag_796\n      jump\t// in\n    tag_798:\n        /* \"#utility.yul\":28364:28399   */\n      swap1\n      pop\n        /* \"#utility.yul\":28301:28405   */\n      swap2\n      swap1\n      pop\n      jump\t// out\n        /* \"#utility.yul\":28411:28501   */\n    tag_553:\n        /* \"#utility.yul\":28445:28452   */\n      0x00\n        /* \"#utility.yul\":28488:28493   */\n      dup2\n        /* \"#utility.yul\":28481:28494   */\n      iszero\n        /* \"#utility.yul\":28474:28495   */\n      iszero\n        /* \"#utility.yul\":28463:28495   */\n      swap1\n      pop\n        /* \"#utility.yul\":28411:28501   */\n      swap2\n      swap1\n      pop\n      jump\t// out\n        /* \"#utility.yul\":28507:28584   */\n    tag_557:\n        /* \"#utility.yul\":28544:28551   */\n      0x00\n        /* \"#utility.yul\":28573:28578   */\n      dup2\n        /* \"#utility.yul\":28562:28578   */\n      swap1\n      pop\n        /* \"#utility.yul\":28507:28584   */\n      swap2\n      swap1\n      pop\n      jump\t// out\n        /* \"#utility.yul\":28590:28666   */\n    tag_569:\n        /* \"#utility.yul\":28626:28633   */\n      0x00\n        /* \"#utility.yul\":28655:28660   */\n      dup2\n        /* \"#utility.yul\":28644:28660   */\n      swap1\n      pop\n        /* \"#utility.yul\":28590:28666   */\n      swap2\n      swap1\n      pop\n      jump\t// out\n        /* \"#utility.yul\":28672:28761   */\n    tag_652:\n        /* \"#utility.yul\":28708:28715   */\n      0x00\n        /* \"#utility.yul\":28748:28754   */\n      0xffff\n        /* \"#utility.yul\":28741:28746   */\n      dup3\n        /* \"#utility.yul\":28737:28755   */\n      and\n        /* \"#utility.yul\":28726:28755   */\n      swap1\n      pop\n        /* \"#utility.yul\":28672:28761   */\n      swap2\n      swap1\n      pop\n      jump\t// out\n        /* \"#utility.yul\":28767:28893   */\n    tag_796:\n        /* \"#utility.yul\":28804:28811   */\n      0x00\n        /* \"#utility.yul\":28844:28886   */\n      0xffffffffffffffffffffffffffffffffffffffff\n        /* \"#utility.yul\":28837:28842   */\n      dup3\n        /* \"#utility.yul\":28833:28887   */\n      and\n        /* \"#utility.yul\":28822:28887   */\n      swap1\n      pop\n        /* \"#utility.yul\":28767:28893   */\n      swap2\n      swap1\n      pop\n      jump\t// out\n        /* \"#utility.yul\":28899:28976   */\n    tag_655:\n        /* \"#utility.yul\":28936:28943   */\n      0x00\n        /* \"#utility.yul\":28965:28970   */\n      dup2\n        /* \"#utility.yul\":28954:28970   */\n      swap1\n      pop\n        /* \"#utility.yul\":28899:28976   */\n      swap2\n      swap1\n      pop\n      jump\t// out\n        /* \"#utility.yul\":28982:29075   */\n    tag_662:\n        /* \"#utility.yul\":29018:29025   */\n      0x00\n        /* \"#utility.yul\":29058:29068   */\n      0xffffffff\n        /* \"#utility.yul\":29051:29056   */\n      dup3\n        /* \"#utility.yul\":29047:29069   */\n      and\n        /* \"#utility.yul\":29036:29069   */\n      swap1\n      pop\n        /* \"#utility.yul\":28982:29075   */\n      swap2\n      swap1\n      pop\n      jump\t// out\n        /* \"#utility.yul\":29081:29182   */\n    tag_666:\n        /* \"#utility.yul\":29117:29124   */\n      0x00\n        /* \"#utility.yul\":29157:29175   */\n      0xffffffffffffffff\n        /* \"#utility.yul\":29150:29155   */\n      dup3\n        /* \"#utility.yul\":29146:29176   */\n      and\n        /* \"#utility.yul\":29135:29176   */\n      swap1\n      pop\n        /* \"#utility.yul\":29081:29182   */\n      swap2\n      swap1\n      pop\n      jump\t// out\n        /* \"#utility.yul\":29188:29495   */\n    tag_565:\n        /* \"#utility.yul\":29256:29257   */\n      0x00\n        /* \"#utility.yul\":29266:29379   */\n    tag_808:\n        /* \"#utility.yul\":29280:29286   */\n      dup4\n        /* \"#utility.yul\":29277:29278   */\n      dup2\n        /* \"#utility.yul\":29274:29287   */\n      lt\n        /* \"#utility.yul\":29266:29379   */\n      iszero\n      tag_810\n      jumpi\n        /* \"#utility.yul\":29365:29366   */\n      dup1\n        /* \"#utility.yul\":29360:29363   */\n      dup3\n        /* \"#utility.yul\":29356:29367   */\n      add\n        /* \"#utility.yul\":29350:29368   */\n      mload\n        /* \"#utility.yul\":29346:29347   */\n      dup2\n        /* \"#utility.yul\":29341:29344   */\n      dup5\n        /* \"#utility.yul\":29337:29348   */\n      add\n        /* \"#utility.yul\":29330:29369   */\n      mstore\n        /* \"#utility.yul\":29302:29304   */\n      0x20\n        /* \"#utility.yul\":29299:29300   */\n      dup2\n        /* \"#utility.yul\":29295:29305   */\n      add\n        /* \"#utility.yul\":29290:29305   */\n      swap1\n      pop\n        /* \"#utility.yul\":29266:29379   */\n      jump(tag_808)\n    tag_810:\n        /* \"#utility.yul\":29397:29403   */\n      dup4\n        /* \"#utility.yul\":29394:29395   */\n      dup2\n        /* \"#utility.yul\":29391:29404   */\n      gt\n        /* \"#utility.yul\":29388:29489   */\n      iszero\n      tag_811\n      jumpi\n        /* \"#utility.yul\":29477:29478   */\n      0x00\n        /* \"#utility.yul\":29468:29474   */\n      dup5\n        /* \"#utility.yul\":29463:29466   */\n      dup5\n        /* \"#utility.yul\":29459:29475   */\n      add\n        /* \"#utility.yul\":29452:29479   */\n      mstore\n        /* \"#utility.yul\":29388:29489   */\n    tag_811:\n        /* \"#utility.yul\":29237:29495   */\n      pop\n        /* \"#utility.yul\":29188:29495   */\n      pop\n      pop\n      pop\n      jump\t// out\n        /* \"#utility.yul\":29501:29782   */\n    tag_745:\n        /* \"#utility.yul\":29584:29611   */\n      tag_813\n        /* \"#utility.yul\":29606:29610   */\n      dup3\n        /* \"#utility.yul\":29584:29611   */\n      tag_578\n      jump\t// in\n    tag_813:\n        /* \"#utility.yul\":29576:29582   */\n      dup2\n        /* \"#utility.yul\":29572:29612   */\n      add\n        /* \"#utility.yul\":29714:29720   */\n      dup2\n        /* \"#utility.yul\":29702:29712   */\n      dup2\n        /* \"#utility.yul\":29699:29721   */\n      lt\n        /* \"#utility.yul\":29678:29696   */\n      0xffffffffffffffff\n        /* \"#utility.yul\":29666:29676   */\n      dup3\n        /* \"#utility.yul\":29663:29697   */\n      gt\n        /* \"#utility.yul\":29660:29722   */\n      or\n        /* \"#utility.yul\":29657:29745   */\n      iszero\n      tag_814\n      jumpi\n        /* \"#utility.yul\":29725:29743   */\n      tag_815\n      tag_277\n      jump\t// in\n    tag_815:\n        /* \"#utility.yul\":29657:29745   */\n    tag_814:\n        /* \"#utility.yul\":29765:29775   */\n      dup1\n        /* \"#utility.yul\":29761:29763   */\n      0x40\n        /* \"#utility.yul\":29754:29776   */\n      mstore\n        /* \"#utility.yul\":29544:29782   */\n      pop\n        /* \"#utility.yul\":29501:29782   */\n      pop\n      pop\n      jump\t// out\n        /* \"#utility.yul\":29788:29964   */\n    tag_348:\n        /* \"#utility.yul\":29820:29821   */\n      0x00\n        /* \"#utility.yul\":29837:29857   */\n      tag_817\n        /* \"#utility.yul\":29855:29856   */\n      dup3\n        /* \"#utility.yul\":29837:29857   */\n      tag_655\n      jump\t// in\n    tag_817:\n        /* \"#utility.yul\":29832:29857   */\n      swap2\n      pop\n        /* \"#utility.yul\":29871:29891   */\n      tag_818\n        /* \"#utility.yul\":29889:29890   */\n      dup4\n        /* \"#utility.yul\":29871:29891   */\n      tag_655\n      jump\t// in\n    tag_818:\n        /* \"#utility.yul\":29866:29891   */\n      swap3\n      pop\n        /* \"#utility.yul\":29910:29911   */\n      dup3\n        /* \"#utility.yul\":29900:29935   */\n      tag_819\n      jumpi\n        /* \"#utility.yul\":29915:29933   */\n      tag_820\n      tag_776\n      jump\t// in\n    tag_820:\n        /* \"#utility.yul\":29900:29935   */\n    tag_819:\n        /* \"#utility.yul\":29956:29957   */\n      dup3\n        /* \"#utility.yul\":29953:29954   */\n      dup3\n        /* \"#utility.yul\":29949:29958   */\n      mod\n        /* \"#utility.yul\":29944:29958   */\n      swap1\n      pop\n        /* \"#utility.yul\":29788:29964   */\n      swap3\n      swap2\n      pop\n      pop\n      jump\t// out\n        /* \"#utility.yul\":29970:30150   */\n    tag_763:\n        /* \"#utility.yul\":30018:30095   */\n      0x4e487b7100000000000000000000000000000000000000000000000000000000\n        /* \"#utility.yul\":30015:30016   */\n      0x00\n        /* \"#utility.yul\":30008:30096   */\n      mstore\n        /* \"#utility.yul\":30115:30119   */\n      0x11\n        /* \"#utility.yul\":30112:30113   */\n      0x04\n        /* \"#utility.yul\":30105:30120   */\n      mstore\n        /* \"#utility.yul\":30139:30143   */\n      0x24\n        /* \"#utility.yul\":30136:30137   */\n      0x00\n        /* \"#utility.yul\":30129:30144   */\n      revert\n        /* \"#utility.yul\":30156:30336   */\n    tag_776:\n        /* \"#utility.yul\":30204:30281   */\n      0x4e487b7100000000000000000000000000000000000000000000000000000000\n        /* \"#utility.yul\":30201:30202   */\n      0x00\n        /* \"#utility.yul\":30194:30282   */\n      mstore\n        /* \"#utility.yul\":30301:30305   */\n      0x12\n        /* \"#utility.yul\":30298:30299   */\n      0x04\n        /* \"#utility.yul\":30291:30306   */\n      mstore\n        /* \"#utility.yul\":30325:30329   */\n      0x24\n        /* \"#utility.yul\":30322:30323   */\n      0x00\n        /* \"#utility.yul\":30315:30330   */\n      revert\n        /* \"#utility.yul\":30342:30522   */\n    tag_290:\n        /* \"#utility.yul\":30390:30467   */\n      0x4e487b7100000000000000000000000000000000000000000000000000000000\n        /* \"#utility.yul\":30387:30388   */\n      0x00\n        /* \"#utility.yul\":30380:30468   */\n      mstore\n        /* \"#utility.yul\":30487:30491   */\n      0x32\n        /* \"#utility.yul\":30484:30485   */\n      0x04\n        /* \"#utility.yul\":30477:30492   */\n      mstore\n        /* \"#utility.yul\":30511:30515   */\n      0x24\n        /* \"#utility.yul\":30508:30509   */\n      0x00\n        /* \"#utility.yul\":30501:30516   */\n      revert\n        /* \"#utility.yul\":30528:30708   */\n    tag_277:\n        /* \"#utility.yul\":30576:30653   */\n      0x4e487b7100000000000000000000000000000000000000000000000000000000\n        /* \"#utility.yul\":30573:30574   */\n      0x00\n        /* \"#utility.yul\":30566:30654   */\n      mstore\n        /* \"#utility.yul\":30673:30677   */\n      0x41\n        /* \"#utility.yul\":30670:30671   */\n      0x04\n        /* \"#utility.yul\":30663:30678   */\n      mstore\n        /* \"#utility.yul\":30697:30701   */\n      0x24\n        /* \"#utility.yul\":30694:30695   */\n      0x00\n        /* \"#utility.yul\":30687:30702   */\n      revert\n        /* \"#utility.yul\":30714:30831   */\n    tag_474:\n        /* \"#utility.yul\":30823:30824   */\n      0x00\n        /* \"#utility.yul\":30820:30821   */\n      dup1\n        /* \"#utility.yul\":30813:30825   */\n      revert\n        /* \"#utility.yul\":30837:30954   */\n    tag_456:\n        /* \"#utility.yul\":30946:30947   */\n      0x00\n        /* \"#utility.yul\":30943:30944   */\n      dup1\n        /* \"#utility.yul\":30936:30948   */\n      revert\n        /* \"#utility.yul\":30960:31077   */\n    tag_518:\n        /* \"#utility.yul\":31069:31070   */\n      0x00\n        /* \"#utility.yul\":31066:31067   */\n      dup1\n        /* \"#utility.yul\":31059:31071   */\n      revert\n        /* \"#utility.yul\":31083:31200   */\n    tag_493:\n        /* \"#utility.yul\":31192:31193   */\n      0x00\n        /* \"#utility.yul\":31189:31190   */\n      dup1\n        /* \"#utility.yul\":31182:31194   */\n      revert\n        /* \"#utility.yul\":31206:31308   */\n    tag_578:\n        /* \"#utility.yul\":31247:31253   */\n      0x00\n        /* \"#utility.yul\":31298:31300   */\n      0x1f\n        /* \"#utility.yul\":31294:31301   */\n      not\n        /* \"#utility.yul\":31289:31291   */\n      0x1f\n        /* \"#utility.yul\":31282:31287   */\n      dup4\n        /* \"#utility.yul\":31278:31292   */\n      add\n        /* \"#utility.yul\":31274:31302   */\n      and\n        /* \"#utility.yul\":31264:31302   */\n      swap1\n      pop\n        /* \"#utility.yul\":31206:31308   */\n      swap2\n      swap1\n      pop\n      jump\t// out\n        /* \"#utility.yul\":31314:31481   */\n    tag_583:\n        /* \"#utility.yul\":31454:31473   */\n      0x72657175657374206e6f7420666f756e64000000000000000000000000000000\n        /* \"#utility.yul\":31450:31451   */\n      0x00\n        /* \"#utility.yul\":31442:31448   */\n      dup3\n        /* \"#utility.yul\":31438:31452   */\n      add\n        /* \"#utility.yul\":31431:31474   */\n      mstore\n        /* \"#utility.yul\":31314:31481   */\n      pop\n      jump\t// out\n        /* \"#utility.yul\":31487:31659   */\n    tag_588:\n        /* \"#utility.yul\":31627:31651   */\n      0x4d7573742062652070726f706f736564206f776e657200000000000000000000\n        /* \"#utility.yul\":31623:31624   */\n      0x00\n        /* \"#utility.yul\":31615:31621   */\n      dup3\n        /* \"#utility.yul\":31611:31625   */\n      add\n        /* \"#utility.yul\":31604:31652   */\n      mstore\n        /* \"#utility.yul\":31487:31659   */\n      pop\n      jump\t// out\n        /* \"#utility.yul\":31665:31833   */\n    tag_593:\n        /* \"#utility.yul\":31805:31825   */\n      0x42657420646f6573206e6f742065786973740000000000000000000000000000\n        /* \"#utility.yul\":31801:31802   */\n      0x00\n        /* \"#utility.yul\":31793:31799   */\n      dup3\n        /* \"#utility.yul\":31789:31803   */\n      add\n        /* \"#utility.yul\":31782:31826   */\n      mstore\n        /* \"#utility.yul\":31665:31833   */\n      pop\n      jump\t// out\n        /* \"#utility.yul\":31839:32011   */\n    tag_598:\n        /* \"#utility.yul\":31979:32003   */\n      0x4f6e6c792063616c6c61626c65206279206f776e657200000000000000000000\n        /* \"#utility.yul\":31975:31976   */\n      0x00\n        /* \"#utility.yul\":31967:31973   */\n      dup3\n        /* \"#utility.yul\":31963:31977   */\n      add\n        /* \"#utility.yul\":31956:32004   */\n      mstore\n        /* \"#utility.yul\":31839:32011   */\n      pop\n      jump\t// out\n        /* \"#utility.yul\":32017:32242   */\n    tag_603:\n        /* \"#utility.yul\":32157:32191   */\n      0x416464726573733a20696e73756666696369656e742062616c616e636520666f\n        /* \"#utility.yul\":32153:32154   */\n      0x00\n        /* \"#utility.yul\":32145:32151   */\n      dup3\n        /* \"#utility.yul\":32141:32155   */\n      add\n        /* \"#utility.yul\":32134:32192   */\n      mstore\n        /* \"#utility.yul\":32226:32234   */\n      0x722063616c6c0000000000000000000000000000000000000000000000000000\n        /* \"#utility.yul\":32221:32223   */\n      0x20\n        /* \"#utility.yul\":32213:32219   */\n      dup3\n        /* \"#utility.yul\":32209:32224   */\n      add\n        /* \"#utility.yul\":32202:32235   */\n      mstore\n        /* \"#utility.yul\":32017:32242   */\n      pop\n      jump\t// out\n        /* \"#utility.yul\":32248:32416   */\n    tag_608:\n        /* \"#utility.yul\":32388:32408   */\n      0x496e73756666696369656e742066756e64730000000000000000000000000000\n        /* \"#utility.yul\":32384:32385   */\n      0x00\n        /* \"#utility.yul\":32376:32382   */\n      dup3\n        /* \"#utility.yul\":32372:32386   */\n      add\n        /* \"#utility.yul\":32365:32409   */\n      mstore\n        /* \"#utility.yul\":32248:32416   */\n      pop\n      jump\t// out\n        /* \"#utility.yul\":32422:32596   */\n    tag_613:\n        /* \"#utility.yul\":32562:32588   */\n      0x5769746864726177616c2065786365656473206c696d69740000000000000000\n        /* \"#utility.yul\":32558:32559   */\n      0x00\n        /* \"#utility.yul\":32550:32556   */\n      dup3\n        /* \"#utility.yul\":32546:32560   */\n      add\n        /* \"#utility.yul\":32539:32589   */\n      mstore\n        /* \"#utility.yul\":32422:32596   */\n      pop\n      jump\t// out\n        /* \"#utility.yul\":32602:32781   */\n    tag_618:\n        /* \"#utility.yul\":32742:32773   */\n      0x57616974206265666f72652072657175657374696e6720726566756e64000000\n        /* \"#utility.yul\":32738:32739   */\n      0x00\n        /* \"#utility.yul\":32730:32736   */\n      dup3\n        /* \"#utility.yul\":32726:32740   */\n      add\n        /* \"#utility.yul\":32719:32774   */\n      mstore\n        /* \"#utility.yul\":32602:32781   */\n      pop\n      jump\t// out\n        /* \"#utility.yul\":32787:32959   */\n    tag_623:\n        /* \"#utility.yul\":32927:32951   */\n      0x42657420697320736574746c656420616c726561647900000000000000000000\n        /* \"#utility.yul\":32923:32924   */\n      0x00\n        /* \"#utility.yul\":32915:32921   */\n      dup3\n        /* \"#utility.yul\":32911:32925   */\n      add\n        /* \"#utility.yul\":32904:32952   */\n      mstore\n        /* \"#utility.yul\":32787:32959   */\n      pop\n      jump\t// out\n        /* \"#utility.yul\":32965:33134   */\n    tag_628:\n        /* \"#utility.yul\":33105:33126   */\n      0x6d617850726f6669742076696f6c6174696f6e00000000000000000000000000\n        /* \"#utility.yul\":33101:33102   */\n      0x00\n        /* \"#utility.yul\":33093:33099   */\n      dup3\n        /* \"#utility.yul\":33089:33103   */\n      add\n        /* \"#utility.yul\":33082:33127   */\n      mstore\n        /* \"#utility.yul\":32965:33134   */\n      pop\n      jump\t// out\n        /* \"#utility.yul\":33140:33319   */\n    tag_633:\n        /* \"#utility.yul\":33280:33311   */\n      0x416464726573733a2063616c6c20746f206e6f6e2d636f6e7472616374000000\n        /* \"#utility.yul\":33276:33277   */\n      0x00\n        /* \"#utility.yul\":33268:33274   */\n      dup3\n        /* \"#utility.yul\":33264:33278   */\n      add\n        /* \"#utility.yul\":33257:33312   */\n      mstore\n        /* \"#utility.yul\":33140:33319   */\n      pop\n      jump\t// out\n        /* \"#utility.yul\":33325:33498   */\n    tag_638:\n        /* \"#utility.yul\":33465:33490   */\n      0x43616e6e6f74207472616e7366657220746f2073656c66000000000000000000\n        /* \"#utility.yul\":33461:33462   */\n      0x00\n        /* \"#utility.yul\":33453:33459   */\n      dup3\n        /* \"#utility.yul\":33449:33463   */\n      add\n        /* \"#utility.yul\":33442:33491   */\n      mstore\n        /* \"#utility.yul\":33325:33498   */\n      pop\n      jump\t// out\n        /* \"#utility.yul\":33504:33733   */\n    tag_643:\n        /* \"#utility.yul\":33644:33678   */\n      0x5361666545524332303a204552433230206f7065726174696f6e20646964206e\n        /* \"#utility.yul\":33640:33641   */\n      0x00\n        /* \"#utility.yul\":33632:33638   */\n      dup3\n        /* \"#utility.yul\":33628:33642   */\n      add\n        /* \"#utility.yul\":33621:33679   */\n      mstore\n        /* \"#utility.yul\":33713:33725   */\n      0x6f74207375636365656400000000000000000000000000000000000000000000\n        /* \"#utility.yul\":33708:33710   */\n      0x20\n        /* \"#utility.yul\":33700:33706   */\n      dup3\n        /* \"#utility.yul\":33696:33711   */\n      add\n        /* \"#utility.yul\":33689:33726   */\n      mstore\n        /* \"#utility.yul\":33504:33733   */\n      pop\n      jump\t// out\n        /* \"#utility.yul\":33739:33920   */\n    tag_648:\n        /* \"#utility.yul\":33879:33912   */\n      0x5265656e7472616e637947756172643a207265656e7472616e742063616c6c00\n        /* \"#utility.yul\":33875:33876   */\n      0x00\n        /* \"#utility.yul\":33867:33873   */\n      dup3\n        /* \"#utility.yul\":33863:33877   */\n      add\n        /* \"#utility.yul\":33856:33913   */\n      mstore\n        /* \"#utility.yul\":33739:33920   */\n      pop\n      jump\t// out\n        /* \"#utility.yul\":33926:34048   */\n    tag_465:\n        /* \"#utility.yul\":33999:34023   */\n      tag_845\n        /* \"#utility.yul\":34017:34022   */\n      dup2\n        /* \"#utility.yul\":33999:34023   */\n      tag_535\n      jump\t// in\n    tag_845:\n        /* \"#utility.yul\":33992:33997   */\n      dup2\n        /* \"#utility.yul\":33989:34024   */\n      eq\n        /* \"#utility.yul\":33979:34042   */\n      tag_846\n      jumpi\n        /* \"#utility.yul\":34038:34039   */\n      0x00\n        /* \"#utility.yul\":34035:34036   */\n      dup1\n        /* \"#utility.yul\":34028:34040   */\n      revert\n        /* \"#utility.yul\":33979:34042   */\n    tag_846:\n        /* \"#utility.yul\":33926:34048   */\n      pop\n      jump\t// out\n        /* \"#utility.yul\":34054:34192   */\n    tag_469:\n        /* \"#utility.yul\":34135:34167   */\n      tag_848\n        /* \"#utility.yul\":34161:34166   */\n      dup2\n        /* \"#utility.yul\":34135:34167   */\n      tag_531\n      jump\t// in\n    tag_848:\n        /* \"#utility.yul\":34128:34133   */\n      dup2\n        /* \"#utility.yul\":34125:34168   */\n      eq\n        /* \"#utility.yul\":34115:34186   */\n      tag_849\n      jumpi\n        /* \"#utility.yul\":34182:34183   */\n      0x00\n        /* \"#utility.yul\":34179:34180   */\n      dup1\n        /* \"#utility.yul\":34172:34184   */\n      revert\n        /* \"#utility.yul\":34115:34186   */\n    tag_849:\n        /* \"#utility.yul\":34054:34192   */\n      pop\n      jump\t// out\n        /* \"#utility.yul\":34198:34314   */\n    tag_479:\n        /* \"#utility.yul\":34268:34289   */\n      tag_851\n        /* \"#utility.yul\":34283:34288   */\n      dup2\n        /* \"#utility.yul\":34268:34289   */\n      tag_553\n      jump\t// in\n    tag_851:\n        /* \"#utility.yul\":34261:34266   */\n      dup2\n        /* \"#utility.yul\":34258:34290   */\n      eq\n        /* \"#utility.yul\":34248:34308   */\n      tag_852\n      jumpi\n        /* \"#utility.yul\":34304:34305   */\n      0x00\n        /* \"#utility.yul\":34301:34302   */\n      dup1\n        /* \"#utility.yul\":34294:34306   */\n      revert\n        /* \"#utility.yul\":34248:34308   */\n    tag_852:\n        /* \"#utility.yul\":34198:34314   */\n      pop\n      jump\t// out\n        /* \"#utility.yul\":34320:34442   */\n    tag_482:\n        /* \"#utility.yul\":34393:34417   */\n      tag_854\n        /* \"#utility.yul\":34411:34416   */\n      dup2\n        /* \"#utility.yul\":34393:34417   */\n      tag_655\n      jump\t// in\n    tag_854:\n        /* \"#utility.yul\":34386:34391   */\n      dup2\n        /* \"#utility.yul\":34383:34418   */\n      eq\n        /* \"#utility.yul\":34373:34436   */\n      tag_855\n      jumpi\n        /* \"#utility.yul\":34432:34433   */\n      0x00\n        /* \"#utility.yul\":34429:34430   */\n      dup1\n        /* \"#utility.yul\":34422:34434   */\n      revert\n        /* \"#utility.yul\":34373:34436   */\n    tag_855:\n        /* \"#utility.yul\":34320:34442   */\n      pop\n      jump\t// out\n        /* \"#utility.yul\":34448:34568   */\n    tag_489:\n        /* \"#utility.yul\":34520:34543   */\n      tag_857\n        /* \"#utility.yul\":34537:34542   */\n      dup2\n        /* \"#utility.yul\":34520:34543   */\n      tag_662\n      jump\t// in\n    tag_857:\n        /* \"#utility.yul\":34513:34518   */\n      dup2\n        /* \"#utility.yul\":34510:34544   */\n      eq\n        /* \"#utility.yul\":34500:34562   */\n      tag_858\n      jumpi\n        /* \"#utility.yul\":34558:34559   */\n      0x00\n        /* \"#utility.yul\":34555:34556   */\n      dup1\n        /* \"#utility.yul\":34548:34560   */\n      revert\n        /* \"#utility.yul\":34500:34562   */\n    tag_858:\n        /* \"#utility.yul\":34448:34568   */\n      pop\n      jump\t// out\n\n    auxdata: 0xa26469706673582212202ff29dc57379cdc643e7747dc235a7a765f237952f5516eca1a950df2ba011d264736f6c63430008070033\n}\n",
				"bytecode": {
					"linkReferences": {},
					"object": "60a06040527f79d3d8832d904592c0bf9818b621522c988bb8b0c05cdc3b15aea1b6e8db0c1560001b60065562030d40600760006101000a81548163ffffffff021916908363ffffffff1602179055506003600760046101000a81548161ffff021916908361ffff1602179055506001600760066101000a81548163ffffffff021916908363ffffffff16021790555060be600855600160095568056bc75e2d63100000600a556018600b556014600d5533806000732ca8e0c643bde4c2e08ab1fa0da3401adad7734d8073ffffffffffffffffffffffffffffffffffffffff1660808173ffffffffffffffffffffffffffffffffffffffff1660601b8152505050600073ffffffffffffffffffffffffffffffffffffffff168273ffffffffffffffffffffffffffffffffffffffff16141562000174576040517f08c379a00000000000000000000000000000000000000000000000000000000081526004016200016b906200040a565b60405180910390fd5b816000806101000a81548173ffffffffffffffffffffffffffffffffffffffff021916908373ffffffffffffffffffffffffffffffffffffffff160217905550600073ffffffffffffffffffffffffffffffffffffffff168173ffffffffffffffffffffffffffffffffffffffff1614620001fb57620001fa816200028c60201b60201c565b5b5050506001600281905550732ca8e0c643bde4c2e08ab1fa0da3401adad7734d600460006101000a81548173ffffffffffffffffffffffffffffffffffffffff021916908373ffffffffffffffffffffffffffffffffffffffff1602179055506122a8600460146101000a81548167ffffffffffffffff021916908367ffffffffffffffff160217905550620004b1565b3373ffffffffffffffffffffffffffffffffffffffff168173ffffffffffffffffffffffffffffffffffffffff161415620002fe576040517f08c379a0000000000000000000000000000000000000000000000000000000008152600401620002f5906200042c565b60405180910390fd5b80600160006101000a81548173ffffffffffffffffffffffffffffffffffffffff021916908373ffffffffffffffffffffffffffffffffffffffff1602179055508073ffffffffffffffffffffffffffffffffffffffff1660008054906101000a900473ffffffffffffffffffffffffffffffffffffffff1673ffffffffffffffffffffffffffffffffffffffff167fed8889f560326eb138920d842192f0eb3dd22b4f139c87a2c57538e05bae127860405160405180910390a350565b6000620003cb6018836200044e565b9150620003d8826200045f565b602082019050919050565b6000620003f26017836200044e565b9150620003ff8262000488565b602082019050919050565b600060208201905081810360008301526200042581620003bc565b9050919050565b600060208201905081810360008301526200044781620003e3565b9050919050565b600082825260208201905092915050565b7f43616e6e6f7420736574206f776e657220746f207a65726f0000000000000000600082015250565b7f43616e6e6f74207472616e7366657220746f2073656c66000000000000000000600082015250565b60805160601c6132ac620004d76000396000818161086901526108bd01526132ac6000f3fe6080604052600436106101f25760003560e01c80638da5cb5b1161010d578063cab11d5d116100a0578063e1fdb4b41161006f578063e1fdb4b4146106ec578063f2fde38b14610715578063f50083241461073e578063f90f456014610767578063fa968eea14610771576101f9565b8063cab11d5d1461062c578063d8a4676f14610657578063df88126f14610696578063e0c86289146106c1576101f9565b8063b68eee2a116100dc578063b68eee2a14610584578063b69ef8a8146105ad578063bbd2e01e146105d8578063c107532914610603576101f9565b80638da5cb5b146104c6578063a168fa89146104f1578063a4eb718c14610530578063b539cd5514610559576101f9565b80636c1885931161018557806381d769051161015457806381d769051461040a5780638796ba8c1461043557806388fedd0414610472578063894760691461049d576101f9565b80636c1885931461037657806379ba50971461039f5780637cfbc7a5146103b65780637d14bca5146103df576101f9565b806322af00fa116101c157806322af00fa146102b557806324f74697146102f757806327b54889146103225780635d1837b81461034d576101f9565b806304599012146101fb57806305b2598014610238578063162595ff146102755780631fe543e31461028c576101f9565b366101f957005b005b34801561020757600080fd5b50610222600480360381019061021d919061214d565b61079c565b60405161022f9190612973565b60405180910390f35b34801561024457600080fd5b5061025f600480360381019061025a91906121e7565b61082e565b60405161026c9190612973565b60405180910390f35b34801561028157600080fd5b5061028a610846565b005b34801561029857600080fd5b506102b360048036038101906102ae9190612241565b610867565b005b3480156102c157600080fd5b506102dc60048036038101906102d791906121e7565b610927565b6040516102ee9695949392919061298e565b60405180910390f35b34801561030357600080fd5b5061030c6109a0565b6040516103199190612a4f565b60405180910390f35b34801561032e57600080fd5b506103376109b6565b6040516103449190612973565b60405180910390f35b34801561035957600080fd5b50610374600480360381019061036f91906121e7565b6109bc565b005b34801561038257600080fd5b5061039d600480360381019061039891906121e7565b6109ce565b005b3480156103ab57600080fd5b506103b46109e0565b005b3480156103c257600080fd5b506103dd60048036038101906103d891906121e7565b610b75565b005b3480156103eb57600080fd5b506103f4610b87565b6040516104019190612973565b60405180910390f35b34801561041657600080fd5b5061041f610b8d565b60405161042c9190612973565b60405180910390f35b34801561044157600080fd5b5061045c600480360381019061045791906121e7565b610b93565b6040516104699190612973565b60405180910390f35b34801561047e57600080fd5b50610487610bb7565b6040516104949190612776565b60405180910390f35b3480156104a957600080fd5b506104c460048036038101906104bf919061214d565b610bbd565b005b3480156104d257600080fd5b506104db610c82565b6040516104e89190612641565b60405180910390f35b3480156104fd57600080fd5b50610518600480360381019061051391906121e7565b610cab565b604051610527939291906126ae565b60405180910390f35b34801561053c57600080fd5b506105576004803603810190610552919061229d565b610cef565b005b34801561056557600080fd5b5061056e610d1b565b60405161057b9190612973565b60405180910390f35b34801561059057600080fd5b506105ab60048036038101906105a691906121e7565b610d30565b005b3480156105b957600080fd5b506105c2610d42565b6040516105cf9190612973565b60405180910390f35b3480156105e457600080fd5b506105ed610d4a565b6040516105fa9190612973565b60405180910390f35b34801561060f57600080fd5b5061062a6004803603810190610625919061217a565b610d57565b005b34801561063857600080fd5b50610641610dfa565b60405161064e9190612973565b60405180910390f35b34801561066357600080fd5b5061067e600480360381019061067991906121e7565b610e00565b60405161068d939291906126e5565b60405180910390f35b3480156106a257600080fd5b506106ab610f3f565b6040516106b89190612973565b60405180910390f35b3480156106cd57600080fd5b506106d6610f45565b6040516106e39190612973565b60405180910390f35b3480156106f857600080fd5b50610713600480360381019061070e91906121e7565b6111b7565b005b34801561072157600080fd5b5061073c6004803603810190610737919061214d565b611414565b005b34801561074a57600080fd5b50610765600480360381019061076091906121e7565b611428565b005b61076f61143a565b005b34801561077d57600080fd5b506107866116a0565b6040516107939190612973565b60405180910390f35b60008173ffffffffffffffffffffffffffffffffffffffff166370a08231306040518263ffffffff1660e01b81526004016107d79190612641565b60206040518083038186803b1580156107ef57600080fd5b505afa158015610803573d6000803e3d6000fd5b505050506040513d601f19601f820116820180604052508101906108279190612214565b9050919050565b600f6020528060005260406000206000915090505481565b61084e6116a6565b3373ffffffffffffffffffffffffffffffffffffffff16ff5b7f000000000000000000000000000000000000000000000000000000000000000073ffffffffffffffffffffffffffffffffffffffff163373ffffffffffffffffffffffffffffffffffffffff161461091957337f00000000000000000000000000000000000000000000000000000000000000006040517f1cf993f400000000000000000000000000000000000000000000000000000000815260040161091092919061265c565b60405180910390fd5b6109238282611736565b5050565b600e818154811061093757600080fd5b90600052602060002090600502016000915090508060000154908060010154908060020160009054906101000a900473ffffffffffffffffffffffffffffffffffffffff16908060020160149054906101000a900460ff16908060030154908060040154905086565b600760009054906101000a900463ffffffff1681565b600b5481565b6109c46116a6565b80600b8190555050565b6109d66116a6565b8060098190555050565b600160009054906101000a900473ffffffffffffffffffffffffffffffffffffffff1673ffffffffffffffffffffffffffffffffffffffff163373ffffffffffffffffffffffffffffffffffffffff1614610a70576040517f08c379a0000000000000000000000000000000000000000000000000000000008152600401610a67906127d3565b60405180910390fd5b60008060009054906101000a900473ffffffffffffffffffffffffffffffffffffffff169050336000806101000a81548173ffffffffffffffffffffffffffffffffffffffff021916908373ffffffffffffffffffffffffffffffffffffffff1602179055506000600160006101000a81548173ffffffffffffffffffffffffffffffffffffffff021916908373ffffffffffffffffffffffffffffffffffffffff1602179055503373ffffffffffffffffffffffffffffffffffffffff168173ffffffffffffffffffffffffffffffffffffffff167f8be0079c531659141344cd1fd0a4f28419497f9722a3daafe3b4186f6b6457e060405160405180910390a350565b610b7d6116a6565b80600a8190555050565b60085481565b600d5481565b60058181548110610ba357600080fd5b906000526020600020016000915090505481565b60105481565b610bc56116a6565b610c7f610bd0610c82565b8273ffffffffffffffffffffffffffffffffffffffff166370a08231306040518263ffffffff1660e01b8152600401610c099190612641565b60206040518083038186803b158015610c2157600080fd5b505afa158015610c35573d6000803e3d6000fd5b505050506040513d601f19601f82011682018060405250810190610c599190612214565b8373ffffffffffffffffffffffffffffffffffffffff1661186a9092919063ffffffff16565b50565b60008060009054906101000a900473ffffffffffffffffffffffffffffffffffffffff16905090565b60036020528060005260406000206000915090508060000160009054906101000a900460ff16908060000160019054906101000a900460ff16908060010154905083565b610cf76116a6565b80600760006101000a81548163ffffffff021916908363ffffffff16021790555050565b6000600b5447610d2b9190612c10565b905090565b610d386116a6565b8060088190555050565b600047905090565b6000600e80549050905090565b610d5f6116a6565b600c5447610d6d9190612d2f565b811115610daf576040517f08c379a0000000000000000000000000000000000000000000000000000000008152600401610da690612873565b60405180910390fd5b8173ffffffffffffffffffffffffffffffffffffffff166108fc829081150290604051600060405180830381858888f19350505050158015610df5573d6000803e3d6000fd5b505050565b600a5481565b60008060606003600085815260200190815260200160002060000160019054906101000a900460ff16610e68576040517f08c379a0000000000000000000000000000000000000000000000000000000008152600401610e5f906127b3565b60405180910390fd5b6000600360008681526020019081526020016000206040518060800160405290816000820160009054906101000a900460ff161515151581526020016000820160019054906101000a900460ff161515151581526020016001820154815260200160028201805480602002602001604051908101604052809291908181526020018280548015610f1757602002820191906000526020600020905b815481526020019060010190808311610f03575b5050505050815250509050806000015181604001518260600151935093509350509193909250565b600c5481565b6000610f4f6116a6565b600460009054906101000a900473ffffffffffffffffffffffffffffffffffffffff1673ffffffffffffffffffffffffffffffffffffffff16635d3b1d30600654600460149054906101000a900467ffffffffffffffff16600760049054906101000a900461ffff16600760009054906101000a900463ffffffff16600760069054906101000a900463ffffffff166040518663ffffffff1660e01b8152600401610ffe959493929190612723565b602060405180830381600087803b15801561101857600080fd5b505af115801561102c573d6000803e3d6000fd5b505050506040513d601f19601f820116820180604052508101906110509190612214565b9050604051806080016040528060001515815260200160011515815260200160008152602001600067ffffffffffffffff81111561109157611090612f25565b5b6040519080825280602002602001820160405280156110bf5781602001602082028036833780820191505090505b508152506003600083815260200190815260200160002060008201518160000160006101000a81548160ff02191690831515021790555060208201518160000160016101000a81548160ff02191690831515021790555060408201518160010155606082015181600201908051906020019061113c929190611fc7565b5090505060058190806001815401808255809150506001900390600052602060002001600090919091909150557fcc58b13ad3eab50626c6a6300b1d139cd6ebb1688a7cced9461c2f7e762665ee81600760069054906101000a900463ffffffff166040516111ac929190612a26565b60405180910390a190565b6111bf6118f0565b6000600e82815481106111d5576111d4612ef6565b5b9060005260206000209060050201905060008160000154905060008111611231576040517f08c379a0000000000000000000000000000000000000000000000000000000008152600401611228906127f3565b60405180910390fd5b600015158260020160149054906101000a900460ff16151514611289576040517f08c379a0000000000000000000000000000000000000000000000000000000008152600401611280906128b3565b60405180910390fd5b600d54826001015461129b9190612bba565b43116112dc576040517f08c379a00000000000000000000000000000000000000000000000000000000081526004016112d390612893565b60405180910390fd5b60006112e78261193e565b905080600c60008282546112fb9190612d2f565b9250508190555060018360020160146101000a81548160ff0219169083151502179055508183600401819055508260020160009054906101000a900473ffffffffffffffffffffffffffffffffffffffff1673ffffffffffffffffffffffffffffffffffffffff166108fc839081150290604051600060405180830381858888f19350505050158015611392573d6000803e3d6000fd5b508260020160009054906101000a900473ffffffffffffffffffffffffffffffffffffffff1673ffffffffffffffffffffffffffffffffffffffff16847ff22517a5eae9f54be712c3150eca5ba925d233687b223c2ebf89272f12ee0865846040516113fe9190612973565b60405180910390a3505050611411611966565b50565b61141c6116a6565b61142581611970565b50565b6114306116a6565b80600d8190555050565b6114426118f0565b600034905060006114528261193e565b905061145c610d1b565b826114679190612bba565b8111156114a9576040517f08c379a00000000000000000000000000000000000000000000000000000000081526004016114a0906128d3565b60405180910390fd5b4781600c546114b89190612bba565b11156114f9576040517f08c379a00000000000000000000000000000000000000000000000000000000081526004016114f090612853565b60405180910390fd5b80600c600082825461150b9190612bba565b92505081905550600061151c610f45565b9050600e80549050600f6000838152602001908152602001600020819055503373ffffffffffffffffffffffffffffffffffffffff16600e805490507f87b9df6fa7123c2e6044c3a3a37b4b0662c188d7a58ef86ee55067c46e4613ad856040516115879190612973565b60405180910390a3600e6040518060c001604052808581526020014381526020013373ffffffffffffffffffffffffffffffffffffffff1681526020016000151581526020016000815260200160008152509080600181540180825580915050600190039060005260206000209060050201600090919091909150600082015181600001556020820151816001015560408201518160020160006101000a81548173ffffffffffffffffffffffffffffffffffffffff021916908373ffffffffffffffffffffffffffffffffffffffff16021790555060608201518160020160146101000a81548160ff0219169083151502179055506080820151816003015560a08201518160040155505050505061169e611966565b565b60095481565b60008054906101000a900473ffffffffffffffffffffffffffffffffffffffff1673ffffffffffffffffffffffffffffffffffffffff163373ffffffffffffffffffffffffffffffffffffffff1614611734576040517f08c379a000000000000000000000000000000000000000000000000000000000815260040161172b90612813565b60405180910390fd5b565b6003600083815260200190815260200160002060000160019054906101000a900460ff16611799576040517f08c379a0000000000000000000000000000000000000000000000000000000008152600401611790906127b3565b60405180910390fd5b806003600084815260200190815260200160002060020190805190602001906117c3929190611fc7565b5060016003600084815260200190815260200160002060000160006101000a81548160ff021916908315150217905550600160028260008151811061180b5761180a612ef6565b5b602002602001015161181d9190612e67565b6118279190612bba565b6003600084815260200190815260200160002060010181905550611866828260008151811061185957611858612ef6565b5b6020026020010151611a9d565b5050565b6118eb8363a9059cbb60e01b8484604051602401611889929190612685565b604051602081830303815290604052907bffffffffffffffffffffffffffffffffffffffffffffffffffffffff19166020820180517bffffffffffffffffffffffffffffffffffffffffffffffffffffffff8381831617835250505050611d32565b505050565b600280541415611935576040517f08c379a000000000000000000000000000000000000000000000000000000000815260040161192c90612953565b60405180910390fd5b60028081905550565b6000806064600854846119519190612c41565b61195b9190612c10565b905080915050919050565b6001600281905550565b3373ffffffffffffffffffffffffffffffffffffffff168173ffffffffffffffffffffffffffffffffffffffff1614156119df576040517f08c379a00000000000000000000000000000000000000000000000000000000081526004016119d690612913565b60405180910390fd5b80600160006101000a81548173ffffffffffffffffffffffffffffffffffffffff021916908373ffffffffffffffffffffffffffffffffffffffff1602179055508073ffffffffffffffffffffffffffffffffffffffff1660008054906101000a900473ffffffffffffffffffffffffffffffffffffffff1673ffffffffffffffffffffffffffffffffffffffff167fed8889f560326eb138920d842192f0eb3dd22b4f139c87a2c57538e05bae127860405160405180910390a350565b611aa56118f0565b6000600f60008481526020019081526020016000205490506000600e8281548110611ad357611ad2612ef6565b5b9060005260206000209060050201905060008160000154905060008111611b2f576040517f08c379a0000000000000000000000000000000000000000000000000000000008152600401611b26906127f3565b60405180910390fd5b600015158260020160149054906101000a900460ff16151514611b87576040517f08c379a0000000000000000000000000000000000000000000000000000000008152600401611b7e906128b3565b60405180910390fd5b60008260020160009054906101000a900473ffffffffffffffffffffffffffffffffffffffff16905060006001600287611bc19190612e67565b611bcb9190612bba565b90506000611bd88461193e565b905060006001831415611bed57819050611bee565b5b81905081600c6000828254611c039190612d2f565b9250508190555060018660020160146101000a81548160ff0219169083151502179055508086600401819055508286600301819055506000811115611cb2578481611c4e9190612d2f565b60106000828254611c5f9190612c9b565b925050819055508373ffffffffffffffffffffffffffffffffffffffff166108fc829081150290604051600060405180830381858888f19350505050158015611cac573d6000803e3d6000fd5b50611ccc565b8460106000828254611cc49190612b26565b925050819055505b8373ffffffffffffffffffffffffffffffffffffffff16877fe6ebe32872ac4efcc1a2941e37098f5291c49bead807c24cba8acbd32af8e765878685604051611d17939291906129ef565b60405180910390a350505050505050611d2e611966565b5050565b6000611d94826040518060400160405280602081526020017f5361666545524332303a206c6f772d6c6576656c2063616c6c206661696c65648152508573ffffffffffffffffffffffffffffffffffffffff16611df99092919063ffffffff16565b9050600081511115611df45780806020019051810190611db491906121ba565b611df3576040517f08c379a0000000000000000000000000000000000000000000000000000000008152600401611dea90612933565b60405180910390fd5b5b505050565b6060611e088484600085611e11565b90509392505050565b606082471015611e56576040517f08c379a0000000000000000000000000000000000000000000000000000000008152600401611e4d90612833565b60405180910390fd5b6000808673ffffffffffffffffffffffffffffffffffffffff168587604051611e7f919061262a565b60006040518083038185875af1925050503d8060008114611ebc576040519150601f19603f3d011682016040523d82523d6000602084013e611ec1565b606091505b5091509150611ed287838387611ede565b92505050949350505050565b60608315611f4157600083511415611f3957611ef985611f54565b611f38576040517f08c379a0000000000000000000000000000000000000000000000000000000008152600401611f2f906128f3565b60405180910390fd5b5b829050611f4c565b611f4b8383611f77565b5b949350505050565b6000808273ffffffffffffffffffffffffffffffffffffffff163b119050919050565b600082511115611f8a5781518083602001fd5b806040517f08c379a0000000000000000000000000000000000000000000000000000000008152600401611fbe9190612791565b60405180910390fd5b828054828255906000526020600020908101928215612003579160200282015b82811115612002578251825591602001919060010190611fe7565b5b5090506120109190612014565b5090565b5b8082111561202d576000816000905550600101612015565b5090565b600061204461203f84612a8f565b612a6a565b9050808382526020820190508285602086028201111561206757612066612f59565b5b60005b85811015612097578161207d888261210e565b84526020840193506020830192505060018101905061206a565b5050509392505050565b6000813590506120b081613203565b92915050565b6000813590506120c58161321a565b92915050565b600082601f8301126120e0576120df612f54565b5b81356120f0848260208601612031565b91505092915050565b60008151905061210881613231565b92915050565b60008135905061211d81613248565b92915050565b60008151905061213281613248565b92915050565b6000813590506121478161325f565b92915050565b60006020828403121561216357612162612f63565b5b6000612171848285016120a1565b91505092915050565b6000806040838503121561219157612190612f63565b5b600061219f858286016120b6565b92505060206121b08582860161210e565b9150509250929050565b6000602082840312156121d0576121cf612f63565b5b60006121de848285016120f9565b91505092915050565b6000602082840312156121fd576121fc612f63565b5b600061220b8482850161210e565b91505092915050565b60006020828403121561222a57612229612f63565b5b600061223884828501612123565b91505092915050565b6000806040838503121561225857612257612f63565b5b60006122668582860161210e565b925050602083013567ffffffffffffffff81111561228757612286612f5e565b5b612293858286016120cb565b9150509250929050565b6000602082840312156122b3576122b2612f63565b5b60006122c184828501612138565b91505092915050565b60006122d683836125ee565b60208301905092915050565b6122eb81612d75565b82525050565b6122fa81612d63565b82525050565b600061230b82612acb565b6123158185612af9565b935061232083612abb565b8060005b8381101561235157815161233888826122ca565b975061234383612aec565b925050600181019050612324565b5085935050505092915050565b61236781612d87565b82525050565b61237681612d93565b82525050565b600061238782612ad6565b6123918185612b0a565b93506123a1818560208601612e03565b80840191505092915050565b6123b681612d9d565b82525050565b60006123c782612ae1565b6123d18185612b15565b93506123e1818560208601612e03565b6123ea81612f68565b840191505092915050565b6000612402601183612b15565b915061240d82612f79565b602082019050919050565b6000612425601683612b15565b915061243082612fa2565b602082019050919050565b6000612448601283612b15565b915061245382612fcb565b602082019050919050565b600061246b601683612b15565b915061247682612ff4565b602082019050919050565b600061248e602683612b15565b91506124998261301d565b604082019050919050565b60006124b1601283612b15565b91506124bc8261306c565b602082019050919050565b60006124d4601883612b15565b91506124df82613095565b602082019050919050565b60006124f7601d83612b15565b9150612502826130be565b602082019050919050565b600061251a601683612b15565b9150612525826130e7565b602082019050919050565b600061253d601383612b15565b915061254882613110565b602082019050919050565b6000612560601d83612b15565b915061256b82613139565b602082019050919050565b6000612583601783612b15565b915061258e82613162565b602082019050919050565b60006125a6602a83612b15565b91506125b18261318b565b604082019050919050565b60006125c9601f83612b15565b91506125d4826131da565b602082019050919050565b6125e881612da7565b82525050565b6125f781612dd5565b82525050565b61260681612dd5565b82525050565b61261581612ddf565b82525050565b61262481612def565b82525050565b6000612636828461237c565b915081905092915050565b600060208201905061265660008301846122f1565b92915050565b600060408201905061267160008301856122f1565b61267e60208301846122f1565b9392505050565b600060408201905061269a60008301856122f1565b6126a760208301846125fd565b9392505050565b60006060820190506126c3600083018661235e565b6126d0602083018561235e565b6126dd60408301846125fd565b949350505050565b60006060820190506126fa600083018661235e565b61270760208301856125fd565b81810360408301526127198184612300565b9050949350505050565b600060a082019050612738600083018861236d565b612745602083018761261b565b61275260408301866125df565b61275f606083018561260c565b61276c608083018461260c565b9695505050505050565b600060208201905061278b60008301846123ad565b92915050565b600060208201905081810360008301526127ab81846123bc565b905092915050565b600060208201905081810360008301526127cc816123f5565b9050919050565b600060208201905081810360008301526127ec81612418565b9050919050565b6000602082019050818103600083015261280c8161243b565b9050919050565b6000602082019050818103600083015261282c8161245e565b9050919050565b6000602082019050818103600083015261284c81612481565b9050919050565b6000602082019050818103600083015261286c816124a4565b9050919050565b6000602082019050818103600083015261288c816124c7565b9050919050565b600060208201905081810360008301526128ac816124ea565b9050919050565b600060208201905081810360008301526128cc8161250d565b9050919050565b600060208201905081810360008301526128ec81612530565b9050919050565b6000602082019050818103600083015261290c81612553565b9050919050565b6000602082019050818103600083015261292c81612576565b9050919050565b6000602082019050818103600083015261294c81612599565b9050919050565b6000602082019050818103600083015261296c816125bc565b9050919050565b600060208201905061298860008301846125fd565b92915050565b600060c0820190506129a360008301896125fd565b6129b060208301886125fd565b6129bd60408301876122e2565b6129ca606083018661235e565b6129d760808301856125fd565b6129e460a08301846125fd565b979650505050505050565b6000606082019050612a0460008301866125fd565b612a1160208301856125fd565b612a1e60408301846125fd565b949350505050565b6000604082019050612a3b60008301856125fd565b612a48602083018461260c565b9392505050565b6000602082019050612a64600083018461260c565b92915050565b6000612a74612a85565b9050612a808282612e36565b919050565b6000604051905090565b600067ffffffffffffffff821115612aaa57612aa9612f25565b5b602082029050602081019050919050565b6000819050602082019050919050565b600081519050919050565b600081519050919050565b600081519050919050565b6000602082019050919050565b600082825260208201905092915050565b600081905092915050565b600082825260208201905092915050565b6000612b3182612d9d565b9150612b3c83612d9d565b9250817f7fffffffffffffffffffffffffffffffffffffffffffffffffffffffffffffff03831360008312151615612b7757612b76612e98565b5b817f8000000000000000000000000000000000000000000000000000000000000000038312600083121615612baf57612bae612e98565b5b828201905092915050565b6000612bc582612dd5565b9150612bd083612dd5565b9250827fffffffffffffffffffffffffffffffffffffffffffffffffffffffffffffffff03821115612c0557612c04612e98565b5b828201905092915050565b6000612c1b82612dd5565b9150612c2683612dd5565b925082612c3657612c35612ec7565b5b828204905092915050565b6000612c4c82612dd5565b9150612c5783612dd5565b9250817fffffffffffffffffffffffffffffffffffffffffffffffffffffffffffffffff0483118215151615612c9057612c8f612e98565b5b828202905092915050565b6000612ca682612d9d565b9150612cb183612d9d565b9250827f800000000000000000000000000000000000000000000000000000000000000001821260008412151615612cec57612ceb612e98565b5b827f7fffffffffffffffffffffffffffffffffffffffffffffffffffffffffffffff018213600084121615612d2457612d23612e98565b5b828203905092915050565b6000612d3a82612dd5565b9150612d4583612dd5565b925082821015612d5857612d57612e98565b5b828203905092915050565b6000612d6e82612db5565b9050919050565b6000612d8082612db5565b9050919050565b60008115159050919050565b6000819050919050565b6000819050919050565b600061ffff82169050919050565b600073ffffffffffffffffffffffffffffffffffffffff82169050919050565b6000819050919050565b600063ffffffff82169050919050565b600067ffffffffffffffff82169050919050565b60005b83811015612e21578082015181840152602081019050612e06565b83811115612e30576000848401525b50505050565b612e3f82612f68565b810181811067ffffffffffffffff82111715612e5e57612e5d612f25565b5b80604052505050565b6000612e7282612dd5565b9150612e7d83612dd5565b925082612e8d57612e8c612ec7565b5b828206905092915050565b7f4e487b7100000000000000000000000000000000000000000000000000000000600052601160045260246000fd5b7f4e487b7100000000000000000000000000000000000000000000000000000000600052601260045260246000fd5b7f4e487b7100000000000000000000000000000000000000000000000000000000600052603260045260246000fd5b7f4e487b7100000000000000000000000000000000000000000000000000000000600052604160045260246000fd5b600080fd5b600080fd5b600080fd5b600080fd5b6000601f19601f8301169050919050565b7f72657175657374206e6f7420666f756e64000000000000000000000000000000600082015250565b7f4d7573742062652070726f706f736564206f776e657200000000000000000000600082015250565b7f42657420646f6573206e6f742065786973740000000000000000000000000000600082015250565b7f4f6e6c792063616c6c61626c65206279206f776e657200000000000000000000600082015250565b7f416464726573733a20696e73756666696369656e742062616c616e636520666f60008201527f722063616c6c0000000000000000000000000000000000000000000000000000602082015250565b7f496e73756666696369656e742066756e64730000000000000000000000000000600082015250565b7f5769746864726177616c2065786365656473206c696d69740000000000000000600082015250565b7f57616974206265666f72652072657175657374696e6720726566756e64000000600082015250565b7f42657420697320736574746c656420616c726561647900000000000000000000600082015250565b7f6d617850726f6669742076696f6c6174696f6e00000000000000000000000000600082015250565b7f416464726573733a2063616c6c20746f206e6f6e2d636f6e7472616374000000600082015250565b7f43616e6e6f74207472616e7366657220746f2073656c66000000000000000000600082015250565b7f5361666545524332303a204552433230206f7065726174696f6e20646964206e60008201527f6f74207375636365656400000000000000000000000000000000000000000000602082015250565b7f5265656e7472616e637947756172643a207265656e7472616e742063616c6c00600082015250565b61320c81612d63565b811461321757600080fd5b50565b61322381612d75565b811461322e57600080fd5b50565b61323a81612d87565b811461324557600080fd5b50565b61325181612dd5565b811461325c57600080fd5b50565b61326881612ddf565b811461327357600080fd5b5056fea26469706673582212202ff29dc57379cdc643e7747dc235a7a765f237952f5516eca1a950df2ba011d264736f6c63430008070033",
					"opcodes": "PUSH1 0xA0 PUSH1 0x40 MSTORE PUSH32 0x79D3D8832D904592C0BF9818B621522C988BB8B0C05CDC3B15AEA1B6E8DB0C15 PUSH1 0x0 SHL PUSH1 0x6 SSTORE PUSH3 0x30D40 PUSH1 0x7 PUSH1 0x0 PUSH2 0x100 EXP DUP2 SLOAD DUP2 PUSH4 0xFFFFFFFF MUL NOT AND SWAP1 DUP4 PUSH4 0xFFFFFFFF AND MUL OR SWAP1 SSTORE POP PUSH1 0x3 PUSH1 0x7 PUSH1 0x4 PUSH2 0x100 EXP DUP2 SLOAD DUP2 PUSH2 0xFFFF MUL NOT AND SWAP1 DUP4 PUSH2 0xFFFF AND MUL OR SWAP1 SSTORE POP PUSH1 0x1 PUSH1 0x7 PUSH1 0x6 PUSH2 0x100 EXP DUP2 SLOAD DUP2 PUSH4 0xFFFFFFFF MUL NOT AND SWAP1 DUP4 PUSH4 0xFFFFFFFF AND MUL OR SWAP1 SSTORE POP PUSH1 0xBE PUSH1 0x8 SSTORE PUSH1 0x1 PUSH1 0x9 SSTORE PUSH9 0x56BC75E2D63100000 PUSH1 0xA SSTORE PUSH1 0x18 PUSH1 0xB SSTORE PUSH1 0x14 PUSH1 0xD SSTORE CALLER DUP1 PUSH1 0x0 PUSH20 0x2CA8E0C643BDE4C2E08AB1FA0DA3401ADAD7734D DUP1 PUSH20 0xFFFFFFFFFFFFFFFFFFFFFFFFFFFFFFFFFFFFFFFF AND PUSH1 0x80 DUP2 PUSH20 0xFFFFFFFFFFFFFFFFFFFFFFFFFFFFFFFFFFFFFFFF AND PUSH1 0x60 SHL DUP2 MSTORE POP POP POP PUSH1 0x0 PUSH20 0xFFFFFFFFFFFFFFFFFFFFFFFFFFFFFFFFFFFFFFFF AND DUP3 PUSH20 0xFFFFFFFFFFFFFFFFFFFFFFFFFFFFFFFFFFFFFFFF AND EQ ISZERO PUSH3 0x174 JUMPI PUSH1 0x40 MLOAD PUSH32 0x8C379A000000000000000000000000000000000000000000000000000000000 DUP2 MSTORE PUSH1 0x4 ADD PUSH3 0x16B SWAP1 PUSH3 0x40A JUMP JUMPDEST PUSH1 0x40 MLOAD DUP1 SWAP2 SUB SWAP1 REVERT JUMPDEST DUP2 PUSH1 0x0 DUP1 PUSH2 0x100 EXP DUP2 SLOAD DUP2 PUSH20 0xFFFFFFFFFFFFFFFFFFFFFFFFFFFFFFFFFFFFFFFF MUL NOT AND SWAP1 DUP4 PUSH20 0xFFFFFFFFFFFFFFFFFFFFFFFFFFFFFFFFFFFFFFFF AND MUL OR SWAP1 SSTORE POP PUSH1 0x0 PUSH20 0xFFFFFFFFFFFFFFFFFFFFFFFFFFFFFFFFFFFFFFFF AND DUP2 PUSH20 0xFFFFFFFFFFFFFFFFFFFFFFFFFFFFFFFFFFFFFFFF AND EQ PUSH3 0x1FB JUMPI PUSH3 0x1FA DUP2 PUSH3 0x28C PUSH1 0x20 SHL PUSH1 0x20 SHR JUMP JUMPDEST JUMPDEST POP POP POP PUSH1 0x1 PUSH1 0x2 DUP2 SWAP1 SSTORE POP PUSH20 0x2CA8E0C643BDE4C2E08AB1FA0DA3401ADAD7734D PUSH1 0x4 PUSH1 0x0 PUSH2 0x100 EXP DUP2 SLOAD DUP2 PUSH20 0xFFFFFFFFFFFFFFFFFFFFFFFFFFFFFFFFFFFFFFFF MUL NOT AND SWAP1 DUP4 PUSH20 0xFFFFFFFFFFFFFFFFFFFFFFFFFFFFFFFFFFFFFFFF AND MUL OR SWAP1 SSTORE POP PUSH2 0x22A8 PUSH1 0x4 PUSH1 0x14 PUSH2 0x100 EXP DUP2 SLOAD DUP2 PUSH8 0xFFFFFFFFFFFFFFFF MUL NOT AND SWAP1 DUP4 PUSH8 0xFFFFFFFFFFFFFFFF AND MUL OR SWAP1 SSTORE POP PUSH3 0x4B1 JUMP JUMPDEST CALLER PUSH20 0xFFFFFFFFFFFFFFFFFFFFFFFFFFFFFFFFFFFFFFFF AND DUP2 PUSH20 0xFFFFFFFFFFFFFFFFFFFFFFFFFFFFFFFFFFFFFFFF AND EQ ISZERO PUSH3 0x2FE JUMPI PUSH1 0x40 MLOAD PUSH32 0x8C379A000000000000000000000000000000000000000000000000000000000 DUP2 MSTORE PUSH1 0x4 ADD PUSH3 0x2F5 SWAP1 PUSH3 0x42C JUMP JUMPDEST PUSH1 0x40 MLOAD DUP1 SWAP2 SUB SWAP1 REVERT JUMPDEST DUP1 PUSH1 0x1 PUSH1 0x0 PUSH2 0x100 EXP DUP2 SLOAD DUP2 PUSH20 0xFFFFFFFFFFFFFFFFFFFFFFFFFFFFFFFFFFFFFFFF MUL NOT AND SWAP1 DUP4 PUSH20 0xFFFFFFFFFFFFFFFFFFFFFFFFFFFFFFFFFFFFFFFF AND MUL OR SWAP1 SSTORE POP DUP1 PUSH20 0xFFFFFFFFFFFFFFFFFFFFFFFFFFFFFFFFFFFFFFFF AND PUSH1 0x0 DUP1 SLOAD SWAP1 PUSH2 0x100 EXP SWAP1 DIV PUSH20 0xFFFFFFFFFFFFFFFFFFFFFFFFFFFFFFFFFFFFFFFF AND PUSH20 0xFFFFFFFFFFFFFFFFFFFFFFFFFFFFFFFFFFFFFFFF AND PUSH32 0xED8889F560326EB138920D842192F0EB3DD22B4F139C87A2C57538E05BAE1278 PUSH1 0x40 MLOAD PUSH1 0x40 MLOAD DUP1 SWAP2 SUB SWAP1 LOG3 POP JUMP JUMPDEST PUSH1 0x0 PUSH3 0x3CB PUSH1 0x18 DUP4 PUSH3 0x44E JUMP JUMPDEST SWAP2 POP PUSH3 0x3D8 DUP3 PUSH3 0x45F JUMP JUMPDEST PUSH1 0x20 DUP3 ADD SWAP1 POP SWAP2 SWAP1 POP JUMP JUMPDEST PUSH1 0x0 PUSH3 0x3F2 PUSH1 0x17 DUP4 PUSH3 0x44E JUMP JUMPDEST SWAP2 POP PUSH3 0x3FF DUP3 PUSH3 0x488 JUMP JUMPDEST PUSH1 0x20 DUP3 ADD SWAP1 POP SWAP2 SWAP1 POP JUMP JUMPDEST PUSH1 0x0 PUSH1 0x20 DUP3 ADD SWAP1 POP DUP2 DUP2 SUB PUSH1 0x0 DUP4 ADD MSTORE PUSH3 0x425 DUP2 PUSH3 0x3BC JUMP JUMPDEST SWAP1 POP SWAP2 SWAP1 POP JUMP JUMPDEST PUSH1 0x0 PUSH1 0x20 DUP3 ADD SWAP1 POP DUP2 DUP2 SUB PUSH1 0x0 DUP4 ADD MSTORE PUSH3 0x447 DUP2 PUSH3 0x3E3 JUMP JUMPDEST SWAP1 POP SWAP2 SWAP1 POP JUMP JUMPDEST PUSH1 0x0 DUP3 DUP3 MSTORE PUSH1 0x20 DUP3 ADD SWAP1 POP SWAP3 SWAP2 POP POP JUMP JUMPDEST PUSH32 0x43616E6E6F7420736574206F776E657220746F207A65726F0000000000000000 PUSH1 0x0 DUP3 ADD MSTORE POP JUMP JUMPDEST PUSH32 0x43616E6E6F74207472616E7366657220746F2073656C66000000000000000000 PUSH1 0x0 DUP3 ADD MSTORE POP JUMP JUMPDEST PUSH1 0x80 MLOAD PUSH1 0x60 SHR PUSH2 0x32AC PUSH3 0x4D7 PUSH1 0x0 CODECOPY PUSH1 0x0 DUP2 DUP2 PUSH2 0x869 ADD MSTORE PUSH2 0x8BD ADD MSTORE PUSH2 0x32AC PUSH1 0x0 RETURN INVALID PUSH1 0x80 PUSH1 0x40 MSTORE PUSH1 0x4 CALLDATASIZE LT PUSH2 0x1F2 JUMPI PUSH1 0x0 CALLDATALOAD PUSH1 0xE0 SHR DUP1 PUSH4 0x8DA5CB5B GT PUSH2 0x10D JUMPI DUP1 PUSH4 0xCAB11D5D GT PUSH2 0xA0 JUMPI DUP1 PUSH4 0xE1FDB4B4 GT PUSH2 0x6F JUMPI DUP1 PUSH4 0xE1FDB4B4 EQ PUSH2 0x6EC JUMPI DUP1 PUSH4 0xF2FDE38B EQ PUSH2 0x715 JUMPI DUP1 PUSH4 0xF5008324 EQ PUSH2 0x73E JUMPI DUP1 PUSH4 0xF90F4560 EQ PUSH2 0x767 JUMPI DUP1 PUSH4 0xFA968EEA EQ PUSH2 0x771 JUMPI PUSH2 0x1F9 JUMP JUMPDEST DUP1 PUSH4 0xCAB11D5D EQ PUSH2 0x62C JUMPI DUP1 PUSH4 0xD8A4676F EQ PUSH2 0x657 JUMPI DUP1 PUSH4 0xDF88126F EQ PUSH2 0x696 JUMPI DUP1 PUSH4 0xE0C86289 EQ PUSH2 0x6C1 JUMPI PUSH2 0x1F9 JUMP JUMPDEST DUP1 PUSH4 0xB68EEE2A GT PUSH2 0xDC JUMPI DUP1 PUSH4 0xB68EEE2A EQ PUSH2 0x584 JUMPI DUP1 PUSH4 0xB69EF8A8 EQ PUSH2 0x5AD JUMPI DUP1 PUSH4 0xBBD2E01E EQ PUSH2 0x5D8 JUMPI DUP1 PUSH4 0xC1075329 EQ PUSH2 0x603 JUMPI PUSH2 0x1F9 JUMP JUMPDEST DUP1 PUSH4 0x8DA5CB5B EQ PUSH2 0x4C6 JUMPI DUP1 PUSH4 0xA168FA89 EQ PUSH2 0x4F1 JUMPI DUP1 PUSH4 0xA4EB718C EQ PUSH2 0x530 JUMPI DUP1 PUSH4 0xB539CD55 EQ PUSH2 0x559 JUMPI PUSH2 0x1F9 JUMP JUMPDEST DUP1 PUSH4 0x6C188593 GT PUSH2 0x185 JUMPI DUP1 PUSH4 0x81D76905 GT PUSH2 0x154 JUMPI DUP1 PUSH4 0x81D76905 EQ PUSH2 0x40A JUMPI DUP1 PUSH4 0x8796BA8C EQ PUSH2 0x435 JUMPI DUP1 PUSH4 0x88FEDD04 EQ PUSH2 0x472 JUMPI DUP1 PUSH4 0x89476069 EQ PUSH2 0x49D JUMPI PUSH2 0x1F9 JUMP JUMPDEST DUP1 PUSH4 0x6C188593 EQ PUSH2 0x376 JUMPI DUP1 PUSH4 0x79BA5097 EQ PUSH2 0x39F JUMPI DUP1 PUSH4 0x7CFBC7A5 EQ PUSH2 0x3B6 JUMPI DUP1 PUSH4 0x7D14BCA5 EQ PUSH2 0x3DF JUMPI PUSH2 0x1F9 JUMP JUMPDEST DUP1 PUSH4 0x22AF00FA GT PUSH2 0x1C1 JUMPI DUP1 PUSH4 0x22AF00FA EQ PUSH2 0x2B5 JUMPI DUP1 PUSH4 0x24F74697 EQ PUSH2 0x2F7 JUMPI DUP1 PUSH4 0x27B54889 EQ PUSH2 0x322 JUMPI DUP1 PUSH4 0x5D1837B8 EQ PUSH2 0x34D JUMPI PUSH2 0x1F9 JUMP JUMPDEST DUP1 PUSH4 0x4599012 EQ PUSH2 0x1FB JUMPI DUP1 PUSH4 0x5B25980 EQ PUSH2 0x238 JUMPI DUP1 PUSH4 0x162595FF EQ PUSH2 0x275 JUMPI DUP1 PUSH4 0x1FE543E3 EQ PUSH2 0x28C JUMPI PUSH2 0x1F9 JUMP JUMPDEST CALLDATASIZE PUSH2 0x1F9 JUMPI STOP JUMPDEST STOP JUMPDEST CALLVALUE DUP1 ISZERO PUSH2 0x207 JUMPI PUSH1 0x0 DUP1 REVERT JUMPDEST POP PUSH2 0x222 PUSH1 0x4 DUP1 CALLDATASIZE SUB DUP2 ADD SWAP1 PUSH2 0x21D SWAP2 SWAP1 PUSH2 0x214D JUMP JUMPDEST PUSH2 0x79C JUMP JUMPDEST PUSH1 0x40 MLOAD PUSH2 0x22F SWAP2 SWAP1 PUSH2 0x2973 JUMP JUMPDEST PUSH1 0x40 MLOAD DUP1 SWAP2 SUB SWAP1 RETURN JUMPDEST CALLVALUE DUP1 ISZERO PUSH2 0x244 JUMPI PUSH1 0x0 DUP1 REVERT JUMPDEST POP PUSH2 0x25F PUSH1 0x4 DUP1 CALLDATASIZE SUB DUP2 ADD SWAP1 PUSH2 0x25A SWAP2 SWAP1 PUSH2 0x21E7 JUMP JUMPDEST PUSH2 0x82E JUMP JUMPDEST PUSH1 0x40 MLOAD PUSH2 0x26C SWAP2 SWAP1 PUSH2 0x2973 JUMP JUMPDEST PUSH1 0x40 MLOAD DUP1 SWAP2 SUB SWAP1 RETURN JUMPDEST CALLVALUE DUP1 ISZERO PUSH2 0x281 JUMPI PUSH1 0x0 DUP1 REVERT JUMPDEST POP PUSH2 0x28A PUSH2 0x846 JUMP JUMPDEST STOP JUMPDEST CALLVALUE DUP1 ISZERO PUSH2 0x298 JUMPI PUSH1 0x0 DUP1 REVERT JUMPDEST POP PUSH2 0x2B3 PUSH1 0x4 DUP1 CALLDATASIZE SUB DUP2 ADD SWAP1 PUSH2 0x2AE SWAP2 SWAP1 PUSH2 0x2241 JUMP JUMPDEST PUSH2 0x867 JUMP JUMPDEST STOP JUMPDEST CALLVALUE DUP1 ISZERO PUSH2 0x2C1 JUMPI PUSH1 0x0 DUP1 REVERT JUMPDEST POP PUSH2 0x2DC PUSH1 0x4 DUP1 CALLDATASIZE SUB DUP2 ADD SWAP1 PUSH2 0x2D7 SWAP2 SWAP1 PUSH2 0x21E7 JUMP JUMPDEST PUSH2 0x927 JUMP JUMPDEST PUSH1 0x40 MLOAD PUSH2 0x2EE SWAP7 SWAP6 SWAP5 SWAP4 SWAP3 SWAP2 SWAP1 PUSH2 0x298E JUMP JUMPDEST PUSH1 0x40 MLOAD DUP1 SWAP2 SUB SWAP1 RETURN JUMPDEST CALLVALUE DUP1 ISZERO PUSH2 0x303 JUMPI PUSH1 0x0 DUP1 REVERT JUMPDEST POP PUSH2 0x30C PUSH2 0x9A0 JUMP JUMPDEST PUSH1 0x40 MLOAD PUSH2 0x319 SWAP2 SWAP1 PUSH2 0x2A4F JUMP JUMPDEST PUSH1 0x40 MLOAD DUP1 SWAP2 SUB SWAP1 RETURN JUMPDEST CALLVALUE DUP1 ISZERO PUSH2 0x32E JUMPI PUSH1 0x0 DUP1 REVERT JUMPDEST POP PUSH2 0x337 PUSH2 0x9B6 JUMP JUMPDEST PUSH1 0x40 MLOAD PUSH2 0x344 SWAP2 SWAP1 PUSH2 0x2973 JUMP JUMPDEST PUSH1 0x40 MLOAD DUP1 SWAP2 SUB SWAP1 RETURN JUMPDEST CALLVALUE DUP1 ISZERO PUSH2 0x359 JUMPI PUSH1 0x0 DUP1 REVERT JUMPDEST POP PUSH2 0x374 PUSH1 0x4 DUP1 CALLDATASIZE SUB DUP2 ADD SWAP1 PUSH2 0x36F SWAP2 SWAP1 PUSH2 0x21E7 JUMP JUMPDEST PUSH2 0x9BC JUMP JUMPDEST STOP JUMPDEST CALLVALUE DUP1 ISZERO PUSH2 0x382 JUMPI PUSH1 0x0 DUP1 REVERT JUMPDEST POP PUSH2 0x39D PUSH1 0x4 DUP1 CALLDATASIZE SUB DUP2 ADD SWAP1 PUSH2 0x398 SWAP2 SWAP1 PUSH2 0x21E7 JUMP JUMPDEST PUSH2 0x9CE JUMP JUMPDEST STOP JUMPDEST CALLVALUE DUP1 ISZERO PUSH2 0x3AB JUMPI PUSH1 0x0 DUP1 REVERT JUMPDEST POP PUSH2 0x3B4 PUSH2 0x9E0 JUMP JUMPDEST STOP JUMPDEST CALLVALUE DUP1 ISZERO PUSH2 0x3C2 JUMPI PUSH1 0x0 DUP1 REVERT JUMPDEST POP PUSH2 0x3DD PUSH1 0x4 DUP1 CALLDATASIZE SUB DUP2 ADD SWAP1 PUSH2 0x3D8 SWAP2 SWAP1 PUSH2 0x21E7 JUMP JUMPDEST PUSH2 0xB75 JUMP JUMPDEST STOP JUMPDEST CALLVALUE DUP1 ISZERO PUSH2 0x3EB JUMPI PUSH1 0x0 DUP1 REVERT JUMPDEST POP PUSH2 0x3F4 PUSH2 0xB87 JUMP JUMPDEST PUSH1 0x40 MLOAD PUSH2 0x401 SWAP2 SWAP1 PUSH2 0x2973 JUMP JUMPDEST PUSH1 0x40 MLOAD DUP1 SWAP2 SUB SWAP1 RETURN JUMPDEST CALLVALUE DUP1 ISZERO PUSH2 0x416 JUMPI PUSH1 0x0 DUP1 REVERT JUMPDEST POP PUSH2 0x41F PUSH2 0xB8D JUMP JUMPDEST PUSH1 0x40 MLOAD PUSH2 0x42C SWAP2 SWAP1 PUSH2 0x2973 JUMP JUMPDEST PUSH1 0x40 MLOAD DUP1 SWAP2 SUB SWAP1 RETURN JUMPDEST CALLVALUE DUP1 ISZERO PUSH2 0x441 JUMPI PUSH1 0x0 DUP1 REVERT JUMPDEST POP PUSH2 0x45C PUSH1 0x4 DUP1 CALLDATASIZE SUB DUP2 ADD SWAP1 PUSH2 0x457 SWAP2 SWAP1 PUSH2 0x21E7 JUMP JUMPDEST PUSH2 0xB93 JUMP JUMPDEST PUSH1 0x40 MLOAD PUSH2 0x469 SWAP2 SWAP1 PUSH2 0x2973 JUMP JUMPDEST PUSH1 0x40 MLOAD DUP1 SWAP2 SUB SWAP1 RETURN JUMPDEST CALLVALUE DUP1 ISZERO PUSH2 0x47E JUMPI PUSH1 0x0 DUP1 REVERT JUMPDEST POP PUSH2 0x487 PUSH2 0xBB7 JUMP JUMPDEST PUSH1 0x40 MLOAD PUSH2 0x494 SWAP2 SWAP1 PUSH2 0x2776 JUMP JUMPDEST PUSH1 0x40 MLOAD DUP1 SWAP2 SUB SWAP1 RETURN JUMPDEST CALLVALUE DUP1 ISZERO PUSH2 0x4A9 JUMPI PUSH1 0x0 DUP1 REVERT JUMPDEST POP PUSH2 0x4C4 PUSH1 0x4 DUP1 CALLDATASIZE SUB DUP2 ADD SWAP1 PUSH2 0x4BF SWAP2 SWAP1 PUSH2 0x214D JUMP JUMPDEST PUSH2 0xBBD JUMP JUMPDEST STOP JUMPDEST CALLVALUE DUP1 ISZERO PUSH2 0x4D2 JUMPI PUSH1 0x0 DUP1 REVERT JUMPDEST POP PUSH2 0x4DB PUSH2 0xC82 JUMP JUMPDEST PUSH1 0x40 MLOAD PUSH2 0x4E8 SWAP2 SWAP1 PUSH2 0x2641 JUMP JUMPDEST PUSH1 0x40 MLOAD DUP1 SWAP2 SUB SWAP1 RETURN JUMPDEST CALLVALUE DUP1 ISZERO PUSH2 0x4FD JUMPI PUSH1 0x0 DUP1 REVERT JUMPDEST POP PUSH2 0x518 PUSH1 0x4 DUP1 CALLDATASIZE SUB DUP2 ADD SWAP1 PUSH2 0x513 SWAP2 SWAP1 PUSH2 0x21E7 JUMP JUMPDEST PUSH2 0xCAB JUMP JUMPDEST PUSH1 0x40 MLOAD PUSH2 0x527 SWAP4 SWAP3 SWAP2 SWAP1 PUSH2 0x26AE JUMP JUMPDEST PUSH1 0x40 MLOAD DUP1 SWAP2 SUB SWAP1 RETURN JUMPDEST CALLVALUE DUP1 ISZERO PUSH2 0x53C JUMPI PUSH1 0x0 DUP1 REVERT JUMPDEST POP PUSH2 0x557 PUSH1 0x4 DUP1 CALLDATASIZE SUB DUP2 ADD SWAP1 PUSH2 0x552 SWAP2 SWAP1 PUSH2 0x229D JUMP JUMPDEST PUSH2 0xCEF JUMP JUMPDEST STOP JUMPDEST CALLVALUE DUP1 ISZERO PUSH2 0x565 JUMPI PUSH1 0x0 DUP1 REVERT JUMPDEST POP PUSH2 0x56E PUSH2 0xD1B JUMP JUMPDEST PUSH1 0x40 MLOAD PUSH2 0x57B SWAP2 SWAP1 PUSH2 0x2973 JUMP JUMPDEST PUSH1 0x40 MLOAD DUP1 SWAP2 SUB SWAP1 RETURN JUMPDEST CALLVALUE DUP1 ISZERO PUSH2 0x590 JUMPI PUSH1 0x0 DUP1 REVERT JUMPDEST POP PUSH2 0x5AB PUSH1 0x4 DUP1 CALLDATASIZE SUB DUP2 ADD SWAP1 PUSH2 0x5A6 SWAP2 SWAP1 PUSH2 0x21E7 JUMP JUMPDEST PUSH2 0xD30 JUMP JUMPDEST STOP JUMPDEST CALLVALUE DUP1 ISZERO PUSH2 0x5B9 JUMPI PUSH1 0x0 DUP1 REVERT JUMPDEST POP PUSH2 0x5C2 PUSH2 0xD42 JUMP JUMPDEST PUSH1 0x40 MLOAD PUSH2 0x5CF SWAP2 SWAP1 PUSH2 0x2973 JUMP JUMPDEST PUSH1 0x40 MLOAD DUP1 SWAP2 SUB SWAP1 RETURN JUMPDEST CALLVALUE DUP1 ISZERO PUSH2 0x5E4 JUMPI PUSH1 0x0 DUP1 REVERT JUMPDEST POP PUSH2 0x5ED PUSH2 0xD4A JUMP JUMPDEST PUSH1 0x40 MLOAD PUSH2 0x5FA SWAP2 SWAP1 PUSH2 0x2973 JUMP JUMPDEST PUSH1 0x40 MLOAD DUP1 SWAP2 SUB SWAP1 RETURN JUMPDEST CALLVALUE DUP1 ISZERO PUSH2 0x60F JUMPI PUSH1 0x0 DUP1 REVERT JUMPDEST POP PUSH2 0x62A PUSH1 0x4 DUP1 CALLDATASIZE SUB DUP2 ADD SWAP1 PUSH2 0x625 SWAP2 SWAP1 PUSH2 0x217A JUMP JUMPDEST PUSH2 0xD57 JUMP JUMPDEST STOP JUMPDEST CALLVALUE DUP1 ISZERO PUSH2 0x638 JUMPI PUSH1 0x0 DUP1 REVERT JUMPDEST POP PUSH2 0x641 PUSH2 0xDFA JUMP JUMPDEST PUSH1 0x40 MLOAD PUSH2 0x64E SWAP2 SWAP1 PUSH2 0x2973 JUMP JUMPDEST PUSH1 0x40 MLOAD DUP1 SWAP2 SUB SWAP1 RETURN JUMPDEST CALLVALUE DUP1 ISZERO PUSH2 0x663 JUMPI PUSH1 0x0 DUP1 REVERT JUMPDEST POP PUSH2 0x67E PUSH1 0x4 DUP1 CALLDATASIZE SUB DUP2 ADD SWAP1 PUSH2 0x679 SWAP2 SWAP1 PUSH2 0x21E7 JUMP JUMPDEST PUSH2 0xE00 JUMP JUMPDEST PUSH1 0x40 MLOAD PUSH2 0x68D SWAP4 SWAP3 SWAP2 SWAP1 PUSH2 0x26E5 JUMP JUMPDEST PUSH1 0x40 MLOAD DUP1 SWAP2 SUB SWAP1 RETURN JUMPDEST CALLVALUE DUP1 ISZERO PUSH2 0x6A2 JUMPI PUSH1 0x0 DUP1 REVERT JUMPDEST POP PUSH2 0x6AB PUSH2 0xF3F JUMP JUMPDEST PUSH1 0x40 MLOAD PUSH2 0x6B8 SWAP2 SWAP1 PUSH2 0x2973 JUMP JUMPDEST PUSH1 0x40 MLOAD DUP1 SWAP2 SUB SWAP1 RETURN JUMPDEST CALLVALUE DUP1 ISZERO PUSH2 0x6CD JUMPI PUSH1 0x0 DUP1 REVERT JUMPDEST POP PUSH2 0x6D6 PUSH2 0xF45 JUMP JUMPDEST PUSH1 0x40 MLOAD PUSH2 0x6E3 SWAP2 SWAP1 PUSH2 0x2973 JUMP JUMPDEST PUSH1 0x40 MLOAD DUP1 SWAP2 SUB SWAP1 RETURN JUMPDEST CALLVALUE DUP1 ISZERO PUSH2 0x6F8 JUMPI PUSH1 0x0 DUP1 REVERT JUMPDEST POP PUSH2 0x713 PUSH1 0x4 DUP1 CALLDATASIZE SUB DUP2 ADD SWAP1 PUSH2 0x70E SWAP2 SWAP1 PUSH2 0x21E7 JUMP JUMPDEST PUSH2 0x11B7 JUMP JUMPDEST STOP JUMPDEST CALLVALUE DUP1 ISZERO PUSH2 0x721 JUMPI PUSH1 0x0 DUP1 REVERT JUMPDEST POP PUSH2 0x73C PUSH1 0x4 DUP1 CALLDATASIZE SUB DUP2 ADD SWAP1 PUSH2 0x737 SWAP2 SWAP1 PUSH2 0x214D JUMP JUMPDEST PUSH2 0x1414 JUMP JUMPDEST STOP JUMPDEST CALLVALUE DUP1 ISZERO PUSH2 0x74A JUMPI PUSH1 0x0 DUP1 REVERT JUMPDEST POP PUSH2 0x765 PUSH1 0x4 DUP1 CALLDATASIZE SUB DUP2 ADD SWAP1 PUSH2 0x760 SWAP2 SWAP1 PUSH2 0x21E7 JUMP JUMPDEST PUSH2 0x1428 JUMP JUMPDEST STOP JUMPDEST PUSH2 0x76F PUSH2 0x143A JUMP JUMPDEST STOP JUMPDEST CALLVALUE DUP1 ISZERO PUSH2 0x77D JUMPI PUSH1 0x0 DUP1 REVERT JUMPDEST POP PUSH2 0x786 PUSH2 0x16A0 JUMP JUMPDEST PUSH1 0x40 MLOAD PUSH2 0x793 SWAP2 SWAP1 PUSH2 0x2973 JUMP JUMPDEST PUSH1 0x40 MLOAD DUP1 SWAP2 SUB SWAP1 RETURN JUMPDEST PUSH1 0x0 DUP2 PUSH20 0xFFFFFFFFFFFFFFFFFFFFFFFFFFFFFFFFFFFFFFFF AND PUSH4 0x70A08231 ADDRESS PUSH1 0x40 MLOAD DUP3 PUSH4 0xFFFFFFFF AND PUSH1 0xE0 SHL DUP2 MSTORE PUSH1 0x4 ADD PUSH2 0x7D7 SWAP2 SWAP1 PUSH2 0x2641 JUMP JUMPDEST PUSH1 0x20 PUSH1 0x40 MLOAD DUP1 DUP4 SUB DUP2 DUP7 DUP1 EXTCODESIZE ISZERO DUP1 ISZERO PUSH2 0x7EF JUMPI PUSH1 0x0 DUP1 REVERT JUMPDEST POP GAS STATICCALL ISZERO DUP1 ISZERO PUSH2 0x803 JUMPI RETURNDATASIZE PUSH1 0x0 DUP1 RETURNDATACOPY RETURNDATASIZE PUSH1 0x0 REVERT JUMPDEST POP POP POP POP PUSH1 0x40 MLOAD RETURNDATASIZE PUSH1 0x1F NOT PUSH1 0x1F DUP3 ADD AND DUP3 ADD DUP1 PUSH1 0x40 MSTORE POP DUP2 ADD SWAP1 PUSH2 0x827 SWAP2 SWAP1 PUSH2 0x2214 JUMP JUMPDEST SWAP1 POP SWAP2 SWAP1 POP JUMP JUMPDEST PUSH1 0xF PUSH1 0x20 MSTORE DUP1 PUSH1 0x0 MSTORE PUSH1 0x40 PUSH1 0x0 KECCAK256 PUSH1 0x0 SWAP2 POP SWAP1 POP SLOAD DUP2 JUMP JUMPDEST PUSH2 0x84E PUSH2 0x16A6 JUMP JUMPDEST CALLER PUSH20 0xFFFFFFFFFFFFFFFFFFFFFFFFFFFFFFFFFFFFFFFF AND SELFDESTRUCT JUMPDEST PUSH32 0x0 PUSH20 0xFFFFFFFFFFFFFFFFFFFFFFFFFFFFFFFFFFFFFFFF AND CALLER PUSH20 0xFFFFFFFFFFFFFFFFFFFFFFFFFFFFFFFFFFFFFFFF AND EQ PUSH2 0x919 JUMPI CALLER PUSH32 0x0 PUSH1 0x40 MLOAD PUSH32 0x1CF993F400000000000000000000000000000000000000000000000000000000 DUP2 MSTORE PUSH1 0x4 ADD PUSH2 0x910 SWAP3 SWAP2 SWAP1 PUSH2 0x265C JUMP JUMPDEST PUSH1 0x40 MLOAD DUP1 SWAP2 SUB SWAP1 REVERT JUMPDEST PUSH2 0x923 DUP3 DUP3 PUSH2 0x1736 JUMP JUMPDEST POP POP JUMP JUMPDEST PUSH1 0xE DUP2 DUP2 SLOAD DUP2 LT PUSH2 0x937 JUMPI PUSH1 0x0 DUP1 REVERT JUMPDEST SWAP1 PUSH1 0x0 MSTORE PUSH1 0x20 PUSH1 0x0 KECCAK256 SWAP1 PUSH1 0x5 MUL ADD PUSH1 0x0 SWAP2 POP SWAP1 POP DUP1 PUSH1 0x0 ADD SLOAD SWAP1 DUP1 PUSH1 0x1 ADD SLOAD SWAP1 DUP1 PUSH1 0x2 ADD PUSH1 0x0 SWAP1 SLOAD SWAP1 PUSH2 0x100 EXP SWAP1 DIV PUSH20 0xFFFFFFFFFFFFFFFFFFFFFFFFFFFFFFFFFFFFFFFF AND SWAP1 DUP1 PUSH1 0x2 ADD PUSH1 0x14 SWAP1 SLOAD SWAP1 PUSH2 0x100 EXP SWAP1 DIV PUSH1 0xFF AND SWAP1 DUP1 PUSH1 0x3 ADD SLOAD SWAP1 DUP1 PUSH1 0x4 ADD SLOAD SWAP1 POP DUP7 JUMP JUMPDEST PUSH1 0x7 PUSH1 0x0 SWAP1 SLOAD SWAP1 PUSH2 0x100 EXP SWAP1 DIV PUSH4 0xFFFFFFFF AND DUP2 JUMP JUMPDEST PUSH1 0xB SLOAD DUP2 JUMP JUMPDEST PUSH2 0x9C4 PUSH2 0x16A6 JUMP JUMPDEST DUP1 PUSH1 0xB DUP2 SWAP1 SSTORE POP POP JUMP JUMPDEST PUSH2 0x9D6 PUSH2 0x16A6 JUMP JUMPDEST DUP1 PUSH1 0x9 DUP2 SWAP1 SSTORE POP POP JUMP JUMPDEST PUSH1 0x1 PUSH1 0x0 SWAP1 SLOAD SWAP1 PUSH2 0x100 EXP SWAP1 DIV PUSH20 0xFFFFFFFFFFFFFFFFFFFFFFFFFFFFFFFFFFFFFFFF AND PUSH20 0xFFFFFFFFFFFFFFFFFFFFFFFFFFFFFFFFFFFFFFFF AND CALLER PUSH20 0xFFFFFFFFFFFFFFFFFFFFFFFFFFFFFFFFFFFFFFFF AND EQ PUSH2 0xA70 JUMPI PUSH1 0x40 MLOAD PUSH32 0x8C379A000000000000000000000000000000000000000000000000000000000 DUP2 MSTORE PUSH1 0x4 ADD PUSH2 0xA67 SWAP1 PUSH2 0x27D3 JUMP JUMPDEST PUSH1 0x40 MLOAD DUP1 SWAP2 SUB SWAP1 REVERT JUMPDEST PUSH1 0x0 DUP1 PUSH1 0x0 SWAP1 SLOAD SWAP1 PUSH2 0x100 EXP SWAP1 DIV PUSH20 0xFFFFFFFFFFFFFFFFFFFFFFFFFFFFFFFFFFFFFFFF AND SWAP1 POP CALLER PUSH1 0x0 DUP1 PUSH2 0x100 EXP DUP2 SLOAD DUP2 PUSH20 0xFFFFFFFFFFFFFFFFFFFFFFFFFFFFFFFFFFFFFFFF MUL NOT AND SWAP1 DUP4 PUSH20 0xFFFFFFFFFFFFFFFFFFFFFFFFFFFFFFFFFFFFFFFF AND MUL OR SWAP1 SSTORE POP PUSH1 0x0 PUSH1 0x1 PUSH1 0x0 PUSH2 0x100 EXP DUP2 SLOAD DUP2 PUSH20 0xFFFFFFFFFFFFFFFFFFFFFFFFFFFFFFFFFFFFFFFF MUL NOT AND SWAP1 DUP4 PUSH20 0xFFFFFFFFFFFFFFFFFFFFFFFFFFFFFFFFFFFFFFFF AND MUL OR SWAP1 SSTORE POP CALLER PUSH20 0xFFFFFFFFFFFFFFFFFFFFFFFFFFFFFFFFFFFFFFFF AND DUP2 PUSH20 0xFFFFFFFFFFFFFFFFFFFFFFFFFFFFFFFFFFFFFFFF AND PUSH32 0x8BE0079C531659141344CD1FD0A4F28419497F9722A3DAAFE3B4186F6B6457E0 PUSH1 0x40 MLOAD PUSH1 0x40 MLOAD DUP1 SWAP2 SUB SWAP1 LOG3 POP JUMP JUMPDEST PUSH2 0xB7D PUSH2 0x16A6 JUMP JUMPDEST DUP1 PUSH1 0xA DUP2 SWAP1 SSTORE POP POP JUMP JUMPDEST PUSH1 0x8 SLOAD DUP2 JUMP JUMPDEST PUSH1 0xD SLOAD DUP2 JUMP JUMPDEST PUSH1 0x5 DUP2 DUP2 SLOAD DUP2 LT PUSH2 0xBA3 JUMPI PUSH1 0x0 DUP1 REVERT JUMPDEST SWAP1 PUSH1 0x0 MSTORE PUSH1 0x20 PUSH1 0x0 KECCAK256 ADD PUSH1 0x0 SWAP2 POP SWAP1 POP SLOAD DUP2 JUMP JUMPDEST PUSH1 0x10 SLOAD DUP2 JUMP JUMPDEST PUSH2 0xBC5 PUSH2 0x16A6 JUMP JUMPDEST PUSH2 0xC7F PUSH2 0xBD0 PUSH2 0xC82 JUMP JUMPDEST DUP3 PUSH20 0xFFFFFFFFFFFFFFFFFFFFFFFFFFFFFFFFFFFFFFFF AND PUSH4 0x70A08231 ADDRESS PUSH1 0x40 MLOAD DUP3 PUSH4 0xFFFFFFFF AND PUSH1 0xE0 SHL DUP2 MSTORE PUSH1 0x4 ADD PUSH2 0xC09 SWAP2 SWAP1 PUSH2 0x2641 JUMP JUMPDEST PUSH1 0x20 PUSH1 0x40 MLOAD DUP1 DUP4 SUB DUP2 DUP7 DUP1 EXTCODESIZE ISZERO DUP1 ISZERO PUSH2 0xC21 JUMPI PUSH1 0x0 DUP1 REVERT JUMPDEST POP GAS STATICCALL ISZERO DUP1 ISZERO PUSH2 0xC35 JUMPI RETURNDATASIZE PUSH1 0x0 DUP1 RETURNDATACOPY RETURNDATASIZE PUSH1 0x0 REVERT JUMPDEST POP POP POP POP PUSH1 0x40 MLOAD RETURNDATASIZE PUSH1 0x1F NOT PUSH1 0x1F DUP3 ADD AND DUP3 ADD DUP1 PUSH1 0x40 MSTORE POP DUP2 ADD SWAP1 PUSH2 0xC59 SWAP2 SWAP1 PUSH2 0x2214 JUMP JUMPDEST DUP4 PUSH20 0xFFFFFFFFFFFFFFFFFFFFFFFFFFFFFFFFFFFFFFFF AND PUSH2 0x186A SWAP1 SWAP3 SWAP2 SWAP1 PUSH4 0xFFFFFFFF AND JUMP JUMPDEST POP JUMP JUMPDEST PUSH1 0x0 DUP1 PUSH1 0x0 SWAP1 SLOAD SWAP1 PUSH2 0x100 EXP SWAP1 DIV PUSH20 0xFFFFFFFFFFFFFFFFFFFFFFFFFFFFFFFFFFFFFFFF AND SWAP1 POP SWAP1 JUMP JUMPDEST PUSH1 0x3 PUSH1 0x20 MSTORE DUP1 PUSH1 0x0 MSTORE PUSH1 0x40 PUSH1 0x0 KECCAK256 PUSH1 0x0 SWAP2 POP SWAP1 POP DUP1 PUSH1 0x0 ADD PUSH1 0x0 SWAP1 SLOAD SWAP1 PUSH2 0x100 EXP SWAP1 DIV PUSH1 0xFF AND SWAP1 DUP1 PUSH1 0x0 ADD PUSH1 0x1 SWAP1 SLOAD SWAP1 PUSH2 0x100 EXP SWAP1 DIV PUSH1 0xFF AND SWAP1 DUP1 PUSH1 0x1 ADD SLOAD SWAP1 POP DUP4 JUMP JUMPDEST PUSH2 0xCF7 PUSH2 0x16A6 JUMP JUMPDEST DUP1 PUSH1 0x7 PUSH1 0x0 PUSH2 0x100 EXP DUP2 SLOAD DUP2 PUSH4 0xFFFFFFFF MUL NOT AND SWAP1 DUP4 PUSH4 0xFFFFFFFF AND MUL OR SWAP1 SSTORE POP POP JUMP JUMPDEST PUSH1 0x0 PUSH1 0xB SLOAD SELFBALANCE PUSH2 0xD2B SWAP2 SWAP1 PUSH2 0x2C10 JUMP JUMPDEST SWAP1 POP SWAP1 JUMP JUMPDEST PUSH2 0xD38 PUSH2 0x16A6 JUMP JUMPDEST DUP1 PUSH1 0x8 DUP2 SWAP1 SSTORE POP POP JUMP JUMPDEST PUSH1 0x0 SELFBALANCE SWAP1 POP SWAP1 JUMP JUMPDEST PUSH1 0x0 PUSH1 0xE DUP1 SLOAD SWAP1 POP SWAP1 POP SWAP1 JUMP JUMPDEST PUSH2 0xD5F PUSH2 0x16A6 JUMP JUMPDEST PUSH1 0xC SLOAD SELFBALANCE PUSH2 0xD6D SWAP2 SWAP1 PUSH2 0x2D2F JUMP JUMPDEST DUP2 GT ISZERO PUSH2 0xDAF JUMPI PUSH1 0x40 MLOAD PUSH32 0x8C379A000000000000000000000000000000000000000000000000000000000 DUP2 MSTORE PUSH1 0x4 ADD PUSH2 0xDA6 SWAP1 PUSH2 0x2873 JUMP JUMPDEST PUSH1 0x40 MLOAD DUP1 SWAP2 SUB SWAP1 REVERT JUMPDEST DUP2 PUSH20 0xFFFFFFFFFFFFFFFFFFFFFFFFFFFFFFFFFFFFFFFF AND PUSH2 0x8FC DUP3 SWAP1 DUP2 ISZERO MUL SWAP1 PUSH1 0x40 MLOAD PUSH1 0x0 PUSH1 0x40 MLOAD DUP1 DUP4 SUB DUP2 DUP6 DUP9 DUP9 CALL SWAP4 POP POP POP POP ISZERO DUP1 ISZERO PUSH2 0xDF5 JUMPI RETURNDATASIZE PUSH1 0x0 DUP1 RETURNDATACOPY RETURNDATASIZE PUSH1 0x0 REVERT JUMPDEST POP POP POP JUMP JUMPDEST PUSH1 0xA SLOAD DUP2 JUMP JUMPDEST PUSH1 0x0 DUP1 PUSH1 0x60 PUSH1 0x3 PUSH1 0x0 DUP6 DUP2 MSTORE PUSH1 0x20 ADD SWAP1 DUP2 MSTORE PUSH1 0x20 ADD PUSH1 0x0 KECCAK256 PUSH1 0x0 ADD PUSH1 0x1 SWAP1 SLOAD SWAP1 PUSH2 0x100 EXP SWAP1 DIV PUSH1 0xFF AND PUSH2 0xE68 JUMPI PUSH1 0x40 MLOAD PUSH32 0x8C379A000000000000000000000000000000000000000000000000000000000 DUP2 MSTORE PUSH1 0x4 ADD PUSH2 0xE5F SWAP1 PUSH2 0x27B3 JUMP JUMPDEST PUSH1 0x40 MLOAD DUP1 SWAP2 SUB SWAP1 REVERT JUMPDEST PUSH1 0x0 PUSH1 0x3 PUSH1 0x0 DUP7 DUP2 MSTORE PUSH1 0x20 ADD SWAP1 DUP2 MSTORE PUSH1 0x20 ADD PUSH1 0x0 KECCAK256 PUSH1 0x40 MLOAD DUP1 PUSH1 0x80 ADD PUSH1 0x40 MSTORE SWAP1 DUP2 PUSH1 0x0 DUP3 ADD PUSH1 0x0 SWAP1 SLOAD SWAP1 PUSH2 0x100 EXP SWAP1 DIV PUSH1 0xFF AND ISZERO ISZERO ISZERO ISZERO DUP2 MSTORE PUSH1 0x20 ADD PUSH1 0x0 DUP3 ADD PUSH1 0x1 SWAP1 SLOAD SWAP1 PUSH2 0x100 EXP SWAP1 DIV PUSH1 0xFF AND ISZERO ISZERO ISZERO ISZERO DUP2 MSTORE PUSH1 0x20 ADD PUSH1 0x1 DUP3 ADD SLOAD DUP2 MSTORE PUSH1 0x20 ADD PUSH1 0x2 DUP3 ADD DUP1 SLOAD DUP1 PUSH1 0x20 MUL PUSH1 0x20 ADD PUSH1 0x40 MLOAD SWAP1 DUP2 ADD PUSH1 0x40 MSTORE DUP1 SWAP3 SWAP2 SWAP1 DUP2 DUP2 MSTORE PUSH1 0x20 ADD DUP3 DUP1 SLOAD DUP1 ISZERO PUSH2 0xF17 JUMPI PUSH1 0x20 MUL DUP3 ADD SWAP2 SWAP1 PUSH1 0x0 MSTORE PUSH1 0x20 PUSH1 0x0 KECCAK256 SWAP1 JUMPDEST DUP2 SLOAD DUP2 MSTORE PUSH1 0x20 ADD SWAP1 PUSH1 0x1 ADD SWAP1 DUP1 DUP4 GT PUSH2 0xF03 JUMPI JUMPDEST POP POP POP POP POP DUP2 MSTORE POP POP SWAP1 POP DUP1 PUSH1 0x0 ADD MLOAD DUP2 PUSH1 0x40 ADD MLOAD DUP3 PUSH1 0x60 ADD MLOAD SWAP4 POP SWAP4 POP SWAP4 POP POP SWAP2 SWAP4 SWAP1 SWAP3 POP JUMP JUMPDEST PUSH1 0xC SLOAD DUP2 JUMP JUMPDEST PUSH1 0x0 PUSH2 0xF4F PUSH2 0x16A6 JUMP JUMPDEST PUSH1 0x4 PUSH1 0x0 SWAP1 SLOAD SWAP1 PUSH2 0x100 EXP SWAP1 DIV PUSH20 0xFFFFFFFFFFFFFFFFFFFFFFFFFFFFFFFFFFFFFFFF AND PUSH20 0xFFFFFFFFFFFFFFFFFFFFFFFFFFFFFFFFFFFFFFFF AND PUSH4 0x5D3B1D30 PUSH1 0x6 SLOAD PUSH1 0x4 PUSH1 0x14 SWAP1 SLOAD SWAP1 PUSH2 0x100 EXP SWAP1 DIV PUSH8 0xFFFFFFFFFFFFFFFF AND PUSH1 0x7 PUSH1 0x4 SWAP1 SLOAD SWAP1 PUSH2 0x100 EXP SWAP1 DIV PUSH2 0xFFFF AND PUSH1 0x7 PUSH1 0x0 SWAP1 SLOAD SWAP1 PUSH2 0x100 EXP SWAP1 DIV PUSH4 0xFFFFFFFF AND PUSH1 0x7 PUSH1 0x6 SWAP1 SLOAD SWAP1 PUSH2 0x100 EXP SWAP1 DIV PUSH4 0xFFFFFFFF AND PUSH1 0x40 MLOAD DUP7 PUSH4 0xFFFFFFFF AND PUSH1 0xE0 SHL DUP2 MSTORE PUSH1 0x4 ADD PUSH2 0xFFE SWAP6 SWAP5 SWAP4 SWAP3 SWAP2 SWAP1 PUSH2 0x2723 JUMP JUMPDEST PUSH1 0x20 PUSH1 0x40 MLOAD DUP1 DUP4 SUB DUP2 PUSH1 0x0 DUP8 DUP1 EXTCODESIZE ISZERO DUP1 ISZERO PUSH2 0x1018 JUMPI PUSH1 0x0 DUP1 REVERT JUMPDEST POP GAS CALL ISZERO DUP1 ISZERO PUSH2 0x102C JUMPI RETURNDATASIZE PUSH1 0x0 DUP1 RETURNDATACOPY RETURNDATASIZE PUSH1 0x0 REVERT JUMPDEST POP POP POP POP PUSH1 0x40 MLOAD RETURNDATASIZE PUSH1 0x1F NOT PUSH1 0x1F DUP3 ADD AND DUP3 ADD DUP1 PUSH1 0x40 MSTORE POP DUP2 ADD SWAP1 PUSH2 0x1050 SWAP2 SWAP1 PUSH2 0x2214 JUMP JUMPDEST SWAP1 POP PUSH1 0x40 MLOAD DUP1 PUSH1 0x80 ADD PUSH1 0x40 MSTORE DUP1 PUSH1 0x0 ISZERO ISZERO DUP2 MSTORE PUSH1 0x20 ADD PUSH1 0x1 ISZERO ISZERO DUP2 MSTORE PUSH1 0x20 ADD PUSH1 0x0 DUP2 MSTORE PUSH1 0x20 ADD PUSH1 0x0 PUSH8 0xFFFFFFFFFFFFFFFF DUP2 GT ISZERO PUSH2 0x1091 JUMPI PUSH2 0x1090 PUSH2 0x2F25 JUMP JUMPDEST JUMPDEST PUSH1 0x40 MLOAD SWAP1 DUP1 DUP3 MSTORE DUP1 PUSH1 0x20 MUL PUSH1 0x20 ADD DUP3 ADD PUSH1 0x40 MSTORE DUP1 ISZERO PUSH2 0x10BF JUMPI DUP2 PUSH1 0x20 ADD PUSH1 0x20 DUP3 MUL DUP1 CALLDATASIZE DUP4 CALLDATACOPY DUP1 DUP3 ADD SWAP2 POP POP SWAP1 POP JUMPDEST POP DUP2 MSTORE POP PUSH1 0x3 PUSH1 0x0 DUP4 DUP2 MSTORE PUSH1 0x20 ADD SWAP1 DUP2 MSTORE PUSH1 0x20 ADD PUSH1 0x0 KECCAK256 PUSH1 0x0 DUP3 ADD MLOAD DUP2 PUSH1 0x0 ADD PUSH1 0x0 PUSH2 0x100 EXP DUP2 SLOAD DUP2 PUSH1 0xFF MUL NOT AND SWAP1 DUP4 ISZERO ISZERO MUL OR SWAP1 SSTORE POP PUSH1 0x20 DUP3 ADD MLOAD DUP2 PUSH1 0x0 ADD PUSH1 0x1 PUSH2 0x100 EXP DUP2 SLOAD DUP2 PUSH1 0xFF MUL NOT AND SWAP1 DUP4 ISZERO ISZERO MUL OR SWAP1 SSTORE POP PUSH1 0x40 DUP3 ADD MLOAD DUP2 PUSH1 0x1 ADD SSTORE PUSH1 0x60 DUP3 ADD MLOAD DUP2 PUSH1 0x2 ADD SWAP1 DUP1 MLOAD SWAP1 PUSH1 0x20 ADD SWAP1 PUSH2 0x113C SWAP3 SWAP2 SWAP1 PUSH2 0x1FC7 JUMP JUMPDEST POP SWAP1 POP POP PUSH1 0x5 DUP2 SWAP1 DUP1 PUSH1 0x1 DUP2 SLOAD ADD DUP1 DUP3 SSTORE DUP1 SWAP2 POP POP PUSH1 0x1 SWAP1 SUB SWAP1 PUSH1 0x0 MSTORE PUSH1 0x20 PUSH1 0x0 KECCAK256 ADD PUSH1 0x0 SWAP1 SWAP2 SWAP1 SWAP2 SWAP1 SWAP2 POP SSTORE PUSH32 0xCC58B13AD3EAB50626C6A6300B1D139CD6EBB1688A7CCED9461C2F7E762665EE DUP2 PUSH1 0x7 PUSH1 0x6 SWAP1 SLOAD SWAP1 PUSH2 0x100 EXP SWAP1 DIV PUSH4 0xFFFFFFFF AND PUSH1 0x40 MLOAD PUSH2 0x11AC SWAP3 SWAP2 SWAP1 PUSH2 0x2A26 JUMP JUMPDEST PUSH1 0x40 MLOAD DUP1 SWAP2 SUB SWAP1 LOG1 SWAP1 JUMP JUMPDEST PUSH2 0x11BF PUSH2 0x18F0 JUMP JUMPDEST PUSH1 0x0 PUSH1 0xE DUP3 DUP2 SLOAD DUP2 LT PUSH2 0x11D5 JUMPI PUSH2 0x11D4 PUSH2 0x2EF6 JUMP JUMPDEST JUMPDEST SWAP1 PUSH1 0x0 MSTORE PUSH1 0x20 PUSH1 0x0 KECCAK256 SWAP1 PUSH1 0x5 MUL ADD SWAP1 POP PUSH1 0x0 DUP2 PUSH1 0x0 ADD SLOAD SWAP1 POP PUSH1 0x0 DUP2 GT PUSH2 0x1231 JUMPI PUSH1 0x40 MLOAD PUSH32 0x8C379A000000000000000000000000000000000000000000000000000000000 DUP2 MSTORE PUSH1 0x4 ADD PUSH2 0x1228 SWAP1 PUSH2 0x27F3 JUMP JUMPDEST PUSH1 0x40 MLOAD DUP1 SWAP2 SUB SWAP1 REVERT JUMPDEST PUSH1 0x0 ISZERO ISZERO DUP3 PUSH1 0x2 ADD PUSH1 0x14 SWAP1 SLOAD SWAP1 PUSH2 0x100 EXP SWAP1 DIV PUSH1 0xFF AND ISZERO ISZERO EQ PUSH2 0x1289 JUMPI PUSH1 0x40 MLOAD PUSH32 0x8C379A000000000000000000000000000000000000000000000000000000000 DUP2 MSTORE PUSH1 0x4 ADD PUSH2 0x1280 SWAP1 PUSH2 0x28B3 JUMP JUMPDEST PUSH1 0x40 MLOAD DUP1 SWAP2 SUB SWAP1 REVERT JUMPDEST PUSH1 0xD SLOAD DUP3 PUSH1 0x1 ADD SLOAD PUSH2 0x129B SWAP2 SWAP1 PUSH2 0x2BBA JUMP JUMPDEST NUMBER GT PUSH2 0x12DC JUMPI PUSH1 0x40 MLOAD PUSH32 0x8C379A000000000000000000000000000000000000000000000000000000000 DUP2 MSTORE PUSH1 0x4 ADD PUSH2 0x12D3 SWAP1 PUSH2 0x2893 JUMP JUMPDEST PUSH1 0x40 MLOAD DUP1 SWAP2 SUB SWAP1 REVERT JUMPDEST PUSH1 0x0 PUSH2 0x12E7 DUP3 PUSH2 0x193E JUMP JUMPDEST SWAP1 POP DUP1 PUSH1 0xC PUSH1 0x0 DUP3 DUP3 SLOAD PUSH2 0x12FB SWAP2 SWAP1 PUSH2 0x2D2F JUMP JUMPDEST SWAP3 POP POP DUP2 SWAP1 SSTORE POP PUSH1 0x1 DUP4 PUSH1 0x2 ADD PUSH1 0x14 PUSH2 0x100 EXP DUP2 SLOAD DUP2 PUSH1 0xFF MUL NOT AND SWAP1 DUP4 ISZERO ISZERO MUL OR SWAP1 SSTORE POP DUP2 DUP4 PUSH1 0x4 ADD DUP2 SWAP1 SSTORE POP DUP3 PUSH1 0x2 ADD PUSH1 0x0 SWAP1 SLOAD SWAP1 PUSH2 0x100 EXP SWAP1 DIV PUSH20 0xFFFFFFFFFFFFFFFFFFFFFFFFFFFFFFFFFFFFFFFF AND PUSH20 0xFFFFFFFFFFFFFFFFFFFFFFFFFFFFFFFFFFFFFFFF AND PUSH2 0x8FC DUP4 SWAP1 DUP2 ISZERO MUL SWAP1 PUSH1 0x40 MLOAD PUSH1 0x0 PUSH1 0x40 MLOAD DUP1 DUP4 SUB DUP2 DUP6 DUP9 DUP9 CALL SWAP4 POP POP POP POP ISZERO DUP1 ISZERO PUSH2 0x1392 JUMPI RETURNDATASIZE PUSH1 0x0 DUP1 RETURNDATACOPY RETURNDATASIZE PUSH1 0x0 REVERT JUMPDEST POP DUP3 PUSH1 0x2 ADD PUSH1 0x0 SWAP1 SLOAD SWAP1 PUSH2 0x100 EXP SWAP1 DIV PUSH20 0xFFFFFFFFFFFFFFFFFFFFFFFFFFFFFFFFFFFFFFFF AND PUSH20 0xFFFFFFFFFFFFFFFFFFFFFFFFFFFFFFFFFFFFFFFF AND DUP5 PUSH32 0xF22517A5EAE9F54BE712C3150ECA5BA925D233687B223C2EBF89272F12EE0865 DUP5 PUSH1 0x40 MLOAD PUSH2 0x13FE SWAP2 SWAP1 PUSH2 0x2973 JUMP JUMPDEST PUSH1 0x40 MLOAD DUP1 SWAP2 SUB SWAP1 LOG3 POP POP POP PUSH2 0x1411 PUSH2 0x1966 JUMP JUMPDEST POP JUMP JUMPDEST PUSH2 0x141C PUSH2 0x16A6 JUMP JUMPDEST PUSH2 0x1425 DUP2 PUSH2 0x1970 JUMP JUMPDEST POP JUMP JUMPDEST PUSH2 0x1430 PUSH2 0x16A6 JUMP JUMPDEST DUP1 PUSH1 0xD DUP2 SWAP1 SSTORE POP POP JUMP JUMPDEST PUSH2 0x1442 PUSH2 0x18F0 JUMP JUMPDEST PUSH1 0x0 CALLVALUE SWAP1 POP PUSH1 0x0 PUSH2 0x1452 DUP3 PUSH2 0x193E JUMP JUMPDEST SWAP1 POP PUSH2 0x145C PUSH2 0xD1B JUMP JUMPDEST DUP3 PUSH2 0x1467 SWAP2 SWAP1 PUSH2 0x2BBA JUMP JUMPDEST DUP2 GT ISZERO PUSH2 0x14A9 JUMPI PUSH1 0x40 MLOAD PUSH32 0x8C379A000000000000000000000000000000000000000000000000000000000 DUP2 MSTORE PUSH1 0x4 ADD PUSH2 0x14A0 SWAP1 PUSH2 0x28D3 JUMP JUMPDEST PUSH1 0x40 MLOAD DUP1 SWAP2 SUB SWAP1 REVERT JUMPDEST SELFBALANCE DUP2 PUSH1 0xC SLOAD PUSH2 0x14B8 SWAP2 SWAP1 PUSH2 0x2BBA JUMP JUMPDEST GT ISZERO PUSH2 0x14F9 JUMPI PUSH1 0x40 MLOAD PUSH32 0x8C379A000000000000000000000000000000000000000000000000000000000 DUP2 MSTORE PUSH1 0x4 ADD PUSH2 0x14F0 SWAP1 PUSH2 0x2853 JUMP JUMPDEST PUSH1 0x40 MLOAD DUP1 SWAP2 SUB SWAP1 REVERT JUMPDEST DUP1 PUSH1 0xC PUSH1 0x0 DUP3 DUP3 SLOAD PUSH2 0x150B SWAP2 SWAP1 PUSH2 0x2BBA JUMP JUMPDEST SWAP3 POP POP DUP2 SWAP1 SSTORE POP PUSH1 0x0 PUSH2 0x151C PUSH2 0xF45 JUMP JUMPDEST SWAP1 POP PUSH1 0xE DUP1 SLOAD SWAP1 POP PUSH1 0xF PUSH1 0x0 DUP4 DUP2 MSTORE PUSH1 0x20 ADD SWAP1 DUP2 MSTORE PUSH1 0x20 ADD PUSH1 0x0 KECCAK256 DUP2 SWAP1 SSTORE POP CALLER PUSH20 0xFFFFFFFFFFFFFFFFFFFFFFFFFFFFFFFFFFFFFFFF AND PUSH1 0xE DUP1 SLOAD SWAP1 POP PUSH32 0x87B9DF6FA7123C2E6044C3A3A37B4B0662C188D7A58EF86EE55067C46E4613AD DUP6 PUSH1 0x40 MLOAD PUSH2 0x1587 SWAP2 SWAP1 PUSH2 0x2973 JUMP JUMPDEST PUSH1 0x40 MLOAD DUP1 SWAP2 SUB SWAP1 LOG3 PUSH1 0xE PUSH1 0x40 MLOAD DUP1 PUSH1 0xC0 ADD PUSH1 0x40 MSTORE DUP1 DUP6 DUP2 MSTORE PUSH1 0x20 ADD NUMBER DUP2 MSTORE PUSH1 0x20 ADD CALLER PUSH20 0xFFFFFFFFFFFFFFFFFFFFFFFFFFFFFFFFFFFFFFFF AND DUP2 MSTORE PUSH1 0x20 ADD PUSH1 0x0 ISZERO ISZERO DUP2 MSTORE PUSH1 0x20 ADD PUSH1 0x0 DUP2 MSTORE PUSH1 0x20 ADD PUSH1 0x0 DUP2 MSTORE POP SWAP1 DUP1 PUSH1 0x1 DUP2 SLOAD ADD DUP1 DUP3 SSTORE DUP1 SWAP2 POP POP PUSH1 0x1 SWAP1 SUB SWAP1 PUSH1 0x0 MSTORE PUSH1 0x20 PUSH1 0x0 KECCAK256 SWAP1 PUSH1 0x5 MUL ADD PUSH1 0x0 SWAP1 SWAP2 SWAP1 SWAP2 SWAP1 SWAP2 POP PUSH1 0x0 DUP3 ADD MLOAD DUP2 PUSH1 0x0 ADD SSTORE PUSH1 0x20 DUP3 ADD MLOAD DUP2 PUSH1 0x1 ADD SSTORE PUSH1 0x40 DUP3 ADD MLOAD DUP2 PUSH1 0x2 ADD PUSH1 0x0 PUSH2 0x100 EXP DUP2 SLOAD DUP2 PUSH20 0xFFFFFFFFFFFFFFFFFFFFFFFFFFFFFFFFFFFFFFFF MUL NOT AND SWAP1 DUP4 PUSH20 0xFFFFFFFFFFFFFFFFFFFFFFFFFFFFFFFFFFFFFFFF AND MUL OR SWAP1 SSTORE POP PUSH1 0x60 DUP3 ADD MLOAD DUP2 PUSH1 0x2 ADD PUSH1 0x14 PUSH2 0x100 EXP DUP2 SLOAD DUP2 PUSH1 0xFF MUL NOT AND SWAP1 DUP4 ISZERO ISZERO MUL OR SWAP1 SSTORE POP PUSH1 0x80 DUP3 ADD MLOAD DUP2 PUSH1 0x3 ADD SSTORE PUSH1 0xA0 DUP3 ADD MLOAD DUP2 PUSH1 0x4 ADD SSTORE POP POP POP POP POP PUSH2 0x169E PUSH2 0x1966 JUMP JUMPDEST JUMP JUMPDEST PUSH1 0x9 SLOAD DUP2 JUMP JUMPDEST PUSH1 0x0 DUP1 SLOAD SWAP1 PUSH2 0x100 EXP SWAP1 DIV PUSH20 0xFFFFFFFFFFFFFFFFFFFFFFFFFFFFFFFFFFFFFFFF AND PUSH20 0xFFFFFFFFFFFFFFFFFFFFFFFFFFFFFFFFFFFFFFFF AND CALLER PUSH20 0xFFFFFFFFFFFFFFFFFFFFFFFFFFFFFFFFFFFFFFFF AND EQ PUSH2 0x1734 JUMPI PUSH1 0x40 MLOAD PUSH32 0x8C379A000000000000000000000000000000000000000000000000000000000 DUP2 MSTORE PUSH1 0x4 ADD PUSH2 0x172B SWAP1 PUSH2 0x2813 JUMP JUMPDEST PUSH1 0x40 MLOAD DUP1 SWAP2 SUB SWAP1 REVERT JUMPDEST JUMP JUMPDEST PUSH1 0x3 PUSH1 0x0 DUP4 DUP2 MSTORE PUSH1 0x20 ADD SWAP1 DUP2 MSTORE PUSH1 0x20 ADD PUSH1 0x0 KECCAK256 PUSH1 0x0 ADD PUSH1 0x1 SWAP1 SLOAD SWAP1 PUSH2 0x100 EXP SWAP1 DIV PUSH1 0xFF AND PUSH2 0x1799 JUMPI PUSH1 0x40 MLOAD PUSH32 0x8C379A000000000000000000000000000000000000000000000000000000000 DUP2 MSTORE PUSH1 0x4 ADD PUSH2 0x1790 SWAP1 PUSH2 0x27B3 JUMP JUMPDEST PUSH1 0x40 MLOAD DUP1 SWAP2 SUB SWAP1 REVERT JUMPDEST DUP1 PUSH1 0x3 PUSH1 0x0 DUP5 DUP2 MSTORE PUSH1 0x20 ADD SWAP1 DUP2 MSTORE PUSH1 0x20 ADD PUSH1 0x0 KECCAK256 PUSH1 0x2 ADD SWAP1 DUP1 MLOAD SWAP1 PUSH1 0x20 ADD SWAP1 PUSH2 0x17C3 SWAP3 SWAP2 SWAP1 PUSH2 0x1FC7 JUMP JUMPDEST POP PUSH1 0x1 PUSH1 0x3 PUSH1 0x0 DUP5 DUP2 MSTORE PUSH1 0x20 ADD SWAP1 DUP2 MSTORE PUSH1 0x20 ADD PUSH1 0x0 KECCAK256 PUSH1 0x0 ADD PUSH1 0x0 PUSH2 0x100 EXP DUP2 SLOAD DUP2 PUSH1 0xFF MUL NOT AND SWAP1 DUP4 ISZERO ISZERO MUL OR SWAP1 SSTORE POP PUSH1 0x1 PUSH1 0x2 DUP3 PUSH1 0x0 DUP2 MLOAD DUP2 LT PUSH2 0x180B JUMPI PUSH2 0x180A PUSH2 0x2EF6 JUMP JUMPDEST JUMPDEST PUSH1 0x20 MUL PUSH1 0x20 ADD ADD MLOAD PUSH2 0x181D SWAP2 SWAP1 PUSH2 0x2E67 JUMP JUMPDEST PUSH2 0x1827 SWAP2 SWAP1 PUSH2 0x2BBA JUMP JUMPDEST PUSH1 0x3 PUSH1 0x0 DUP5 DUP2 MSTORE PUSH1 0x20 ADD SWAP1 DUP2 MSTORE PUSH1 0x20 ADD PUSH1 0x0 KECCAK256 PUSH1 0x1 ADD DUP2 SWAP1 SSTORE POP PUSH2 0x1866 DUP3 DUP3 PUSH1 0x0 DUP2 MLOAD DUP2 LT PUSH2 0x1859 JUMPI PUSH2 0x1858 PUSH2 0x2EF6 JUMP JUMPDEST JUMPDEST PUSH1 0x20 MUL PUSH1 0x20 ADD ADD MLOAD PUSH2 0x1A9D JUMP JUMPDEST POP POP JUMP JUMPDEST PUSH2 0x18EB DUP4 PUSH4 0xA9059CBB PUSH1 0xE0 SHL DUP5 DUP5 PUSH1 0x40 MLOAD PUSH1 0x24 ADD PUSH2 0x1889 SWAP3 SWAP2 SWAP1 PUSH2 0x2685 JUMP JUMPDEST PUSH1 0x40 MLOAD PUSH1 0x20 DUP2 DUP4 SUB SUB DUP2 MSTORE SWAP1 PUSH1 0x40 MSTORE SWAP1 PUSH28 0xFFFFFFFFFFFFFFFFFFFFFFFFFFFFFFFFFFFFFFFFFFFFFFFFFFFFFFFF NOT AND PUSH1 0x20 DUP3 ADD DUP1 MLOAD PUSH28 0xFFFFFFFFFFFFFFFFFFFFFFFFFFFFFFFFFFFFFFFFFFFFFFFFFFFFFFFF DUP4 DUP2 DUP4 AND OR DUP4 MSTORE POP POP POP POP PUSH2 0x1D32 JUMP JUMPDEST POP POP POP JUMP JUMPDEST PUSH1 0x2 DUP1 SLOAD EQ ISZERO PUSH2 0x1935 JUMPI PUSH1 0x40 MLOAD PUSH32 0x8C379A000000000000000000000000000000000000000000000000000000000 DUP2 MSTORE PUSH1 0x4 ADD PUSH2 0x192C SWAP1 PUSH2 0x2953 JUMP JUMPDEST PUSH1 0x40 MLOAD DUP1 SWAP2 SUB SWAP1 REVERT JUMPDEST PUSH1 0x2 DUP1 DUP2 SWAP1 SSTORE POP JUMP JUMPDEST PUSH1 0x0 DUP1 PUSH1 0x64 PUSH1 0x8 SLOAD DUP5 PUSH2 0x1951 SWAP2 SWAP1 PUSH2 0x2C41 JUMP JUMPDEST PUSH2 0x195B SWAP2 SWAP1 PUSH2 0x2C10 JUMP JUMPDEST SWAP1 POP DUP1 SWAP2 POP POP SWAP2 SWAP1 POP JUMP JUMPDEST PUSH1 0x1 PUSH1 0x2 DUP2 SWAP1 SSTORE POP JUMP JUMPDEST CALLER PUSH20 0xFFFFFFFFFFFFFFFFFFFFFFFFFFFFFFFFFFFFFFFF AND DUP2 PUSH20 0xFFFFFFFFFFFFFFFFFFFFFFFFFFFFFFFFFFFFFFFF AND EQ ISZERO PUSH2 0x19DF JUMPI PUSH1 0x40 MLOAD PUSH32 0x8C379A000000000000000000000000000000000000000000000000000000000 DUP2 MSTORE PUSH1 0x4 ADD PUSH2 0x19D6 SWAP1 PUSH2 0x2913 JUMP JUMPDEST PUSH1 0x40 MLOAD DUP1 SWAP2 SUB SWAP1 REVERT JUMPDEST DUP1 PUSH1 0x1 PUSH1 0x0 PUSH2 0x100 EXP DUP2 SLOAD DUP2 PUSH20 0xFFFFFFFFFFFFFFFFFFFFFFFFFFFFFFFFFFFFFFFF MUL NOT AND SWAP1 DUP4 PUSH20 0xFFFFFFFFFFFFFFFFFFFFFFFFFFFFFFFFFFFFFFFF AND MUL OR SWAP1 SSTORE POP DUP1 PUSH20 0xFFFFFFFFFFFFFFFFFFFFFFFFFFFFFFFFFFFFFFFF AND PUSH1 0x0 DUP1 SLOAD SWAP1 PUSH2 0x100 EXP SWAP1 DIV PUSH20 0xFFFFFFFFFFFFFFFFFFFFFFFFFFFFFFFFFFFFFFFF AND PUSH20 0xFFFFFFFFFFFFFFFFFFFFFFFFFFFFFFFFFFFFFFFF AND PUSH32 0xED8889F560326EB138920D842192F0EB3DD22B4F139C87A2C57538E05BAE1278 PUSH1 0x40 MLOAD PUSH1 0x40 MLOAD DUP1 SWAP2 SUB SWAP1 LOG3 POP JUMP JUMPDEST PUSH2 0x1AA5 PUSH2 0x18F0 JUMP JUMPDEST PUSH1 0x0 PUSH1 0xF PUSH1 0x0 DUP5 DUP2 MSTORE PUSH1 0x20 ADD SWAP1 DUP2 MSTORE PUSH1 0x20 ADD PUSH1 0x0 KECCAK256 SLOAD SWAP1 POP PUSH1 0x0 PUSH1 0xE DUP3 DUP2 SLOAD DUP2 LT PUSH2 0x1AD3 JUMPI PUSH2 0x1AD2 PUSH2 0x2EF6 JUMP JUMPDEST JUMPDEST SWAP1 PUSH1 0x0 MSTORE PUSH1 0x20 PUSH1 0x0 KECCAK256 SWAP1 PUSH1 0x5 MUL ADD SWAP1 POP PUSH1 0x0 DUP2 PUSH1 0x0 ADD SLOAD SWAP1 POP PUSH1 0x0 DUP2 GT PUSH2 0x1B2F JUMPI PUSH1 0x40 MLOAD PUSH32 0x8C379A000000000000000000000000000000000000000000000000000000000 DUP2 MSTORE PUSH1 0x4 ADD PUSH2 0x1B26 SWAP1 PUSH2 0x27F3 JUMP JUMPDEST PUSH1 0x40 MLOAD DUP1 SWAP2 SUB SWAP1 REVERT JUMPDEST PUSH1 0x0 ISZERO ISZERO DUP3 PUSH1 0x2 ADD PUSH1 0x14 SWAP1 SLOAD SWAP1 PUSH2 0x100 EXP SWAP1 DIV PUSH1 0xFF AND ISZERO ISZERO EQ PUSH2 0x1B87 JUMPI PUSH1 0x40 MLOAD PUSH32 0x8C379A000000000000000000000000000000000000000000000000000000000 DUP2 MSTORE PUSH1 0x4 ADD PUSH2 0x1B7E SWAP1 PUSH2 0x28B3 JUMP JUMPDEST PUSH1 0x40 MLOAD DUP1 SWAP2 SUB SWAP1 REVERT JUMPDEST PUSH1 0x0 DUP3 PUSH1 0x2 ADD PUSH1 0x0 SWAP1 SLOAD SWAP1 PUSH2 0x100 EXP SWAP1 DIV PUSH20 0xFFFFFFFFFFFFFFFFFFFFFFFFFFFFFFFFFFFFFFFF AND SWAP1 POP PUSH1 0x0 PUSH1 0x1 PUSH1 0x2 DUP8 PUSH2 0x1BC1 SWAP2 SWAP1 PUSH2 0x2E67 JUMP JUMPDEST PUSH2 0x1BCB SWAP2 SWAP1 PUSH2 0x2BBA JUMP JUMPDEST SWAP1 POP PUSH1 0x0 PUSH2 0x1BD8 DUP5 PUSH2 0x193E JUMP JUMPDEST SWAP1 POP PUSH1 0x0 PUSH1 0x1 DUP4 EQ ISZERO PUSH2 0x1BED JUMPI DUP2 SWAP1 POP PUSH2 0x1BEE JUMP JUMPDEST JUMPDEST DUP2 SWAP1 POP DUP2 PUSH1 0xC PUSH1 0x0 DUP3 DUP3 SLOAD PUSH2 0x1C03 SWAP2 SWAP1 PUSH2 0x2D2F JUMP JUMPDEST SWAP3 POP POP DUP2 SWAP1 SSTORE POP PUSH1 0x1 DUP7 PUSH1 0x2 ADD PUSH1 0x14 PUSH2 0x100 EXP DUP2 SLOAD DUP2 PUSH1 0xFF MUL NOT AND SWAP1 DUP4 ISZERO ISZERO MUL OR SWAP1 SSTORE POP DUP1 DUP7 PUSH1 0x4 ADD DUP2 SWAP1 SSTORE POP DUP3 DUP7 PUSH1 0x3 ADD DUP2 SWAP1 SSTORE POP PUSH1 0x0 DUP2 GT ISZERO PUSH2 0x1CB2 JUMPI DUP5 DUP2 PUSH2 0x1C4E SWAP2 SWAP1 PUSH2 0x2D2F JUMP JUMPDEST PUSH1 0x10 PUSH1 0x0 DUP3 DUP3 SLOAD PUSH2 0x1C5F SWAP2 SWAP1 PUSH2 0x2C9B JUMP JUMPDEST SWAP3 POP POP DUP2 SWAP1 SSTORE POP DUP4 PUSH20 0xFFFFFFFFFFFFFFFFFFFFFFFFFFFFFFFFFFFFFFFF AND PUSH2 0x8FC DUP3 SWAP1 DUP2 ISZERO MUL SWAP1 PUSH1 0x40 MLOAD PUSH1 0x0 PUSH1 0x40 MLOAD DUP1 DUP4 SUB DUP2 DUP6 DUP9 DUP9 CALL SWAP4 POP POP POP POP ISZERO DUP1 ISZERO PUSH2 0x1CAC JUMPI RETURNDATASIZE PUSH1 0x0 DUP1 RETURNDATACOPY RETURNDATASIZE PUSH1 0x0 REVERT JUMPDEST POP PUSH2 0x1CCC JUMP JUMPDEST DUP5 PUSH1 0x10 PUSH1 0x0 DUP3 DUP3 SLOAD PUSH2 0x1CC4 SWAP2 SWAP1 PUSH2 0x2B26 JUMP JUMPDEST SWAP3 POP POP DUP2 SWAP1 SSTORE POP JUMPDEST DUP4 PUSH20 0xFFFFFFFFFFFFFFFFFFFFFFFFFFFFFFFFFFFFFFFF AND DUP8 PUSH32 0xE6EBE32872AC4EFCC1A2941E37098F5291C49BEAD807C24CBA8ACBD32AF8E765 DUP8 DUP7 DUP6 PUSH1 0x40 MLOAD PUSH2 0x1D17 SWAP4 SWAP3 SWAP2 SWAP1 PUSH2 0x29EF JUMP JUMPDEST PUSH1 0x40 MLOAD DUP1 SWAP2 SUB SWAP1 LOG3 POP POP POP POP POP POP POP PUSH2 0x1D2E PUSH2 0x1966 JUMP JUMPDEST POP POP JUMP JUMPDEST PUSH1 0x0 PUSH2 0x1D94 DUP3 PUSH1 0x40 MLOAD DUP1 PUSH1 0x40 ADD PUSH1 0x40 MSTORE DUP1 PUSH1 0x20 DUP2 MSTORE PUSH1 0x20 ADD PUSH32 0x5361666545524332303A206C6F772D6C6576656C2063616C6C206661696C6564 DUP2 MSTORE POP DUP6 PUSH20 0xFFFFFFFFFFFFFFFFFFFFFFFFFFFFFFFFFFFFFFFF AND PUSH2 0x1DF9 SWAP1 SWAP3 SWAP2 SWAP1 PUSH4 0xFFFFFFFF AND JUMP JUMPDEST SWAP1 POP PUSH1 0x0 DUP2 MLOAD GT ISZERO PUSH2 0x1DF4 JUMPI DUP1 DUP1 PUSH1 0x20 ADD SWAP1 MLOAD DUP2 ADD SWAP1 PUSH2 0x1DB4 SWAP2 SWAP1 PUSH2 0x21BA JUMP JUMPDEST PUSH2 0x1DF3 JUMPI PUSH1 0x40 MLOAD PUSH32 0x8C379A000000000000000000000000000000000000000000000000000000000 DUP2 MSTORE PUSH1 0x4 ADD PUSH2 0x1DEA SWAP1 PUSH2 0x2933 JUMP JUMPDEST PUSH1 0x40 MLOAD DUP1 SWAP2 SUB SWAP1 REVERT JUMPDEST JUMPDEST POP POP POP JUMP JUMPDEST PUSH1 0x60 PUSH2 0x1E08 DUP5 DUP5 PUSH1 0x0 DUP6 PUSH2 0x1E11 JUMP JUMPDEST SWAP1 POP SWAP4 SWAP3 POP POP POP JUMP JUMPDEST PUSH1 0x60 DUP3 SELFBALANCE LT ISZERO PUSH2 0x1E56 JUMPI PUSH1 0x40 MLOAD PUSH32 0x8C379A000000000000000000000000000000000000000000000000000000000 DUP2 MSTORE PUSH1 0x4 ADD PUSH2 0x1E4D SWAP1 PUSH2 0x2833 JUMP JUMPDEST PUSH1 0x40 MLOAD DUP1 SWAP2 SUB SWAP1 REVERT JUMPDEST PUSH1 0x0 DUP1 DUP7 PUSH20 0xFFFFFFFFFFFFFFFFFFFFFFFFFFFFFFFFFFFFFFFF AND DUP6 DUP8 PUSH1 0x40 MLOAD PUSH2 0x1E7F SWAP2 SWAP1 PUSH2 0x262A JUMP JUMPDEST PUSH1 0x0 PUSH1 0x40 MLOAD DUP1 DUP4 SUB DUP2 DUP6 DUP8 GAS CALL SWAP3 POP POP POP RETURNDATASIZE DUP1 PUSH1 0x0 DUP2 EQ PUSH2 0x1EBC JUMPI PUSH1 0x40 MLOAD SWAP2 POP PUSH1 0x1F NOT PUSH1 0x3F RETURNDATASIZE ADD AND DUP3 ADD PUSH1 0x40 MSTORE RETURNDATASIZE DUP3 MSTORE RETURNDATASIZE PUSH1 0x0 PUSH1 0x20 DUP5 ADD RETURNDATACOPY PUSH2 0x1EC1 JUMP JUMPDEST PUSH1 0x60 SWAP2 POP JUMPDEST POP SWAP2 POP SWAP2 POP PUSH2 0x1ED2 DUP8 DUP4 DUP4 DUP8 PUSH2 0x1EDE JUMP JUMPDEST SWAP3 POP POP POP SWAP5 SWAP4 POP POP POP POP JUMP JUMPDEST PUSH1 0x60 DUP4 ISZERO PUSH2 0x1F41 JUMPI PUSH1 0x0 DUP4 MLOAD EQ ISZERO PUSH2 0x1F39 JUMPI PUSH2 0x1EF9 DUP6 PUSH2 0x1F54 JUMP JUMPDEST PUSH2 0x1F38 JUMPI PUSH1 0x40 MLOAD PUSH32 0x8C379A000000000000000000000000000000000000000000000000000000000 DUP2 MSTORE PUSH1 0x4 ADD PUSH2 0x1F2F SWAP1 PUSH2 0x28F3 JUMP JUMPDEST PUSH1 0x40 MLOAD DUP1 SWAP2 SUB SWAP1 REVERT JUMPDEST JUMPDEST DUP3 SWAP1 POP PUSH2 0x1F4C JUMP JUMPDEST PUSH2 0x1F4B DUP4 DUP4 PUSH2 0x1F77 JUMP JUMPDEST JUMPDEST SWAP5 SWAP4 POP POP POP POP JUMP JUMPDEST PUSH1 0x0 DUP1 DUP3 PUSH20 0xFFFFFFFFFFFFFFFFFFFFFFFFFFFFFFFFFFFFFFFF AND EXTCODESIZE GT SWAP1 POP SWAP2 SWAP1 POP JUMP JUMPDEST PUSH1 0x0 DUP3 MLOAD GT ISZERO PUSH2 0x1F8A JUMPI DUP2 MLOAD DUP1 DUP4 PUSH1 0x20 ADD REVERT JUMPDEST DUP1 PUSH1 0x40 MLOAD PUSH32 0x8C379A000000000000000000000000000000000000000000000000000000000 DUP2 MSTORE PUSH1 0x4 ADD PUSH2 0x1FBE SWAP2 SWAP1 PUSH2 0x2791 JUMP JUMPDEST PUSH1 0x40 MLOAD DUP1 SWAP2 SUB SWAP1 REVERT JUMPDEST DUP3 DUP1 SLOAD DUP3 DUP3 SSTORE SWAP1 PUSH1 0x0 MSTORE PUSH1 0x20 PUSH1 0x0 KECCAK256 SWAP1 DUP2 ADD SWAP3 DUP3 ISZERO PUSH2 0x2003 JUMPI SWAP2 PUSH1 0x20 MUL DUP3 ADD JUMPDEST DUP3 DUP2 GT ISZERO PUSH2 0x2002 JUMPI DUP3 MLOAD DUP3 SSTORE SWAP2 PUSH1 0x20 ADD SWAP2 SWAP1 PUSH1 0x1 ADD SWAP1 PUSH2 0x1FE7 JUMP JUMPDEST JUMPDEST POP SWAP1 POP PUSH2 0x2010 SWAP2 SWAP1 PUSH2 0x2014 JUMP JUMPDEST POP SWAP1 JUMP JUMPDEST JUMPDEST DUP1 DUP3 GT ISZERO PUSH2 0x202D JUMPI PUSH1 0x0 DUP2 PUSH1 0x0 SWAP1 SSTORE POP PUSH1 0x1 ADD PUSH2 0x2015 JUMP JUMPDEST POP SWAP1 JUMP JUMPDEST PUSH1 0x0 PUSH2 0x2044 PUSH2 0x203F DUP5 PUSH2 0x2A8F JUMP JUMPDEST PUSH2 0x2A6A JUMP JUMPDEST SWAP1 POP DUP1 DUP4 DUP3 MSTORE PUSH1 0x20 DUP3 ADD SWAP1 POP DUP3 DUP6 PUSH1 0x20 DUP7 MUL DUP3 ADD GT ISZERO PUSH2 0x2067 JUMPI PUSH2 0x2066 PUSH2 0x2F59 JUMP JUMPDEST JUMPDEST PUSH1 0x0 JUMPDEST DUP6 DUP2 LT ISZERO PUSH2 0x2097 JUMPI DUP2 PUSH2 0x207D DUP9 DUP3 PUSH2 0x210E JUMP JUMPDEST DUP5 MSTORE PUSH1 0x20 DUP5 ADD SWAP4 POP PUSH1 0x20 DUP4 ADD SWAP3 POP POP PUSH1 0x1 DUP2 ADD SWAP1 POP PUSH2 0x206A JUMP JUMPDEST POP POP POP SWAP4 SWAP3 POP POP POP JUMP JUMPDEST PUSH1 0x0 DUP2 CALLDATALOAD SWAP1 POP PUSH2 0x20B0 DUP2 PUSH2 0x3203 JUMP JUMPDEST SWAP3 SWAP2 POP POP JUMP JUMPDEST PUSH1 0x0 DUP2 CALLDATALOAD SWAP1 POP PUSH2 0x20C5 DUP2 PUSH2 0x321A JUMP JUMPDEST SWAP3 SWAP2 POP POP JUMP JUMPDEST PUSH1 0x0 DUP3 PUSH1 0x1F DUP4 ADD SLT PUSH2 0x20E0 JUMPI PUSH2 0x20DF PUSH2 0x2F54 JUMP JUMPDEST JUMPDEST DUP2 CALLDATALOAD PUSH2 0x20F0 DUP5 DUP3 PUSH1 0x20 DUP7 ADD PUSH2 0x2031 JUMP JUMPDEST SWAP2 POP POP SWAP3 SWAP2 POP POP JUMP JUMPDEST PUSH1 0x0 DUP2 MLOAD SWAP1 POP PUSH2 0x2108 DUP2 PUSH2 0x3231 JUMP JUMPDEST SWAP3 SWAP2 POP POP JUMP JUMPDEST PUSH1 0x0 DUP2 CALLDATALOAD SWAP1 POP PUSH2 0x211D DUP2 PUSH2 0x3248 JUMP JUMPDEST SWAP3 SWAP2 POP POP JUMP JUMPDEST PUSH1 0x0 DUP2 MLOAD SWAP1 POP PUSH2 0x2132 DUP2 PUSH2 0x3248 JUMP JUMPDEST SWAP3 SWAP2 POP POP JUMP JUMPDEST PUSH1 0x0 DUP2 CALLDATALOAD SWAP1 POP PUSH2 0x2147 DUP2 PUSH2 0x325F JUMP JUMPDEST SWAP3 SWAP2 POP POP JUMP JUMPDEST PUSH1 0x0 PUSH1 0x20 DUP3 DUP5 SUB SLT ISZERO PUSH2 0x2163 JUMPI PUSH2 0x2162 PUSH2 0x2F63 JUMP JUMPDEST JUMPDEST PUSH1 0x0 PUSH2 0x2171 DUP5 DUP3 DUP6 ADD PUSH2 0x20A1 JUMP JUMPDEST SWAP2 POP POP SWAP3 SWAP2 POP POP JUMP JUMPDEST PUSH1 0x0 DUP1 PUSH1 0x40 DUP4 DUP6 SUB SLT ISZERO PUSH2 0x2191 JUMPI PUSH2 0x2190 PUSH2 0x2F63 JUMP JUMPDEST JUMPDEST PUSH1 0x0 PUSH2 0x219F DUP6 DUP3 DUP7 ADD PUSH2 0x20B6 JUMP JUMPDEST SWAP3 POP POP PUSH1 0x20 PUSH2 0x21B0 DUP6 DUP3 DUP7 ADD PUSH2 0x210E JUMP JUMPDEST SWAP2 POP POP SWAP3 POP SWAP3 SWAP1 POP JUMP JUMPDEST PUSH1 0x0 PUSH1 0x20 DUP3 DUP5 SUB SLT ISZERO PUSH2 0x21D0 JUMPI PUSH2 0x21CF PUSH2 0x2F63 JUMP JUMPDEST JUMPDEST PUSH1 0x0 PUSH2 0x21DE DUP5 DUP3 DUP6 ADD PUSH2 0x20F9 JUMP JUMPDEST SWAP2 POP POP SWAP3 SWAP2 POP POP JUMP JUMPDEST PUSH1 0x0 PUSH1 0x20 DUP3 DUP5 SUB SLT ISZERO PUSH2 0x21FD JUMPI PUSH2 0x21FC PUSH2 0x2F63 JUMP JUMPDEST JUMPDEST PUSH1 0x0 PUSH2 0x220B DUP5 DUP3 DUP6 ADD PUSH2 0x210E JUMP JUMPDEST SWAP2 POP POP SWAP3 SWAP2 POP POP JUMP JUMPDEST PUSH1 0x0 PUSH1 0x20 DUP3 DUP5 SUB SLT ISZERO PUSH2 0x222A JUMPI PUSH2 0x2229 PUSH2 0x2F63 JUMP JUMPDEST JUMPDEST PUSH1 0x0 PUSH2 0x2238 DUP5 DUP3 DUP6 ADD PUSH2 0x2123 JUMP JUMPDEST SWAP2 POP POP SWAP3 SWAP2 POP POP JUMP JUMPDEST PUSH1 0x0 DUP1 PUSH1 0x40 DUP4 DUP6 SUB SLT ISZERO PUSH2 0x2258 JUMPI PUSH2 0x2257 PUSH2 0x2F63 JUMP JUMPDEST JUMPDEST PUSH1 0x0 PUSH2 0x2266 DUP6 DUP3 DUP7 ADD PUSH2 0x210E JUMP JUMPDEST SWAP3 POP POP PUSH1 0x20 DUP4 ADD CALLDATALOAD PUSH8 0xFFFFFFFFFFFFFFFF DUP2 GT ISZERO PUSH2 0x2287 JUMPI PUSH2 0x2286 PUSH2 0x2F5E JUMP JUMPDEST JUMPDEST PUSH2 0x2293 DUP6 DUP3 DUP7 ADD PUSH2 0x20CB JUMP JUMPDEST SWAP2 POP POP SWAP3 POP SWAP3 SWAP1 POP JUMP JUMPDEST PUSH1 0x0 PUSH1 0x20 DUP3 DUP5 SUB SLT ISZERO PUSH2 0x22B3 JUMPI PUSH2 0x22B2 PUSH2 0x2F63 JUMP JUMPDEST JUMPDEST PUSH1 0x0 PUSH2 0x22C1 DUP5 DUP3 DUP6 ADD PUSH2 0x2138 JUMP JUMPDEST SWAP2 POP POP SWAP3 SWAP2 POP POP JUMP JUMPDEST PUSH1 0x0 PUSH2 0x22D6 DUP4 DUP4 PUSH2 0x25EE JUMP JUMPDEST PUSH1 0x20 DUP4 ADD SWAP1 POP SWAP3 SWAP2 POP POP JUMP JUMPDEST PUSH2 0x22EB DUP2 PUSH2 0x2D75 JUMP JUMPDEST DUP3 MSTORE POP POP JUMP JUMPDEST PUSH2 0x22FA DUP2 PUSH2 0x2D63 JUMP JUMPDEST DUP3 MSTORE POP POP JUMP JUMPDEST PUSH1 0x0 PUSH2 0x230B DUP3 PUSH2 0x2ACB JUMP JUMPDEST PUSH2 0x2315 DUP2 DUP6 PUSH2 0x2AF9 JUMP JUMPDEST SWAP4 POP PUSH2 0x2320 DUP4 PUSH2 0x2ABB JUMP JUMPDEST DUP1 PUSH1 0x0 JUMPDEST DUP4 DUP2 LT ISZERO PUSH2 0x2351 JUMPI DUP2 MLOAD PUSH2 0x2338 DUP9 DUP3 PUSH2 0x22CA JUMP JUMPDEST SWAP8 POP PUSH2 0x2343 DUP4 PUSH2 0x2AEC JUMP JUMPDEST SWAP3 POP POP PUSH1 0x1 DUP2 ADD SWAP1 POP PUSH2 0x2324 JUMP JUMPDEST POP DUP6 SWAP4 POP POP POP POP SWAP3 SWAP2 POP POP JUMP JUMPDEST PUSH2 0x2367 DUP2 PUSH2 0x2D87 JUMP JUMPDEST DUP3 MSTORE POP POP JUMP JUMPDEST PUSH2 0x2376 DUP2 PUSH2 0x2D93 JUMP JUMPDEST DUP3 MSTORE POP POP JUMP JUMPDEST PUSH1 0x0 PUSH2 0x2387 DUP3 PUSH2 0x2AD6 JUMP JUMPDEST PUSH2 0x2391 DUP2 DUP6 PUSH2 0x2B0A JUMP JUMPDEST SWAP4 POP PUSH2 0x23A1 DUP2 DUP6 PUSH1 0x20 DUP7 ADD PUSH2 0x2E03 JUMP JUMPDEST DUP1 DUP5 ADD SWAP2 POP POP SWAP3 SWAP2 POP POP JUMP JUMPDEST PUSH2 0x23B6 DUP2 PUSH2 0x2D9D JUMP JUMPDEST DUP3 MSTORE POP POP JUMP JUMPDEST PUSH1 0x0 PUSH2 0x23C7 DUP3 PUSH2 0x2AE1 JUMP JUMPDEST PUSH2 0x23D1 DUP2 DUP6 PUSH2 0x2B15 JUMP JUMPDEST SWAP4 POP PUSH2 0x23E1 DUP2 DUP6 PUSH1 0x20 DUP7 ADD PUSH2 0x2E03 JUMP JUMPDEST PUSH2 0x23EA DUP2 PUSH2 0x2F68 JUMP JUMPDEST DUP5 ADD SWAP2 POP POP SWAP3 SWAP2 POP POP JUMP JUMPDEST PUSH1 0x0 PUSH2 0x2402 PUSH1 0x11 DUP4 PUSH2 0x2B15 JUMP JUMPDEST SWAP2 POP PUSH2 0x240D DUP3 PUSH2 0x2F79 JUMP JUMPDEST PUSH1 0x20 DUP3 ADD SWAP1 POP SWAP2 SWAP1 POP JUMP JUMPDEST PUSH1 0x0 PUSH2 0x2425 PUSH1 0x16 DUP4 PUSH2 0x2B15 JUMP JUMPDEST SWAP2 POP PUSH2 0x2430 DUP3 PUSH2 0x2FA2 JUMP JUMPDEST PUSH1 0x20 DUP3 ADD SWAP1 POP SWAP2 SWAP1 POP JUMP JUMPDEST PUSH1 0x0 PUSH2 0x2448 PUSH1 0x12 DUP4 PUSH2 0x2B15 JUMP JUMPDEST SWAP2 POP PUSH2 0x2453 DUP3 PUSH2 0x2FCB JUMP JUMPDEST PUSH1 0x20 DUP3 ADD SWAP1 POP SWAP2 SWAP1 POP JUMP JUMPDEST PUSH1 0x0 PUSH2 0x246B PUSH1 0x16 DUP4 PUSH2 0x2B15 JUMP JUMPDEST SWAP2 POP PUSH2 0x2476 DUP3 PUSH2 0x2FF4 JUMP JUMPDEST PUSH1 0x20 DUP3 ADD SWAP1 POP SWAP2 SWAP1 POP JUMP JUMPDEST PUSH1 0x0 PUSH2 0x248E PUSH1 0x26 DUP4 PUSH2 0x2B15 JUMP JUMPDEST SWAP2 POP PUSH2 0x2499 DUP3 PUSH2 0x301D JUMP JUMPDEST PUSH1 0x40 DUP3 ADD SWAP1 POP SWAP2 SWAP1 POP JUMP JUMPDEST PUSH1 0x0 PUSH2 0x24B1 PUSH1 0x12 DUP4 PUSH2 0x2B15 JUMP JUMPDEST SWAP2 POP PUSH2 0x24BC DUP3 PUSH2 0x306C JUMP JUMPDEST PUSH1 0x20 DUP3 ADD SWAP1 POP SWAP2 SWAP1 POP JUMP JUMPDEST PUSH1 0x0 PUSH2 0x24D4 PUSH1 0x18 DUP4 PUSH2 0x2B15 JUMP JUMPDEST SWAP2 POP PUSH2 0x24DF DUP3 PUSH2 0x3095 JUMP JUMPDEST PUSH1 0x20 DUP3 ADD SWAP1 POP SWAP2 SWAP1 POP JUMP JUMPDEST PUSH1 0x0 PUSH2 0x24F7 PUSH1 0x1D DUP4 PUSH2 0x2B15 JUMP JUMPDEST SWAP2 POP PUSH2 0x2502 DUP3 PUSH2 0x30BE JUMP JUMPDEST PUSH1 0x20 DUP3 ADD SWAP1 POP SWAP2 SWAP1 POP JUMP JUMPDEST PUSH1 0x0 PUSH2 0x251A PUSH1 0x16 DUP4 PUSH2 0x2B15 JUMP JUMPDEST SWAP2 POP PUSH2 0x2525 DUP3 PUSH2 0x30E7 JUMP JUMPDEST PUSH1 0x20 DUP3 ADD SWAP1 POP SWAP2 SWAP1 POP JUMP JUMPDEST PUSH1 0x0 PUSH2 0x253D PUSH1 0x13 DUP4 PUSH2 0x2B15 JUMP JUMPDEST SWAP2 POP PUSH2 0x2548 DUP3 PUSH2 0x3110 JUMP JUMPDEST PUSH1 0x20 DUP3 ADD SWAP1 POP SWAP2 SWAP1 POP JUMP JUMPDEST PUSH1 0x0 PUSH2 0x2560 PUSH1 0x1D DUP4 PUSH2 0x2B15 JUMP JUMPDEST SWAP2 POP PUSH2 0x256B DUP3 PUSH2 0x3139 JUMP JUMPDEST PUSH1 0x20 DUP3 ADD SWAP1 POP SWAP2 SWAP1 POP JUMP JUMPDEST PUSH1 0x0 PUSH2 0x2583 PUSH1 0x17 DUP4 PUSH2 0x2B15 JUMP JUMPDEST SWAP2 POP PUSH2 0x258E DUP3 PUSH2 0x3162 JUMP JUMPDEST PUSH1 0x20 DUP3 ADD SWAP1 POP SWAP2 SWAP1 POP JUMP JUMPDEST PUSH1 0x0 PUSH2 0x25A6 PUSH1 0x2A DUP4 PUSH2 0x2B15 JUMP JUMPDEST SWAP2 POP PUSH2 0x25B1 DUP3 PUSH2 0x318B JUMP JUMPDEST PUSH1 0x40 DUP3 ADD SWAP1 POP SWAP2 SWAP1 POP JUMP JUMPDEST PUSH1 0x0 PUSH2 0x25C9 PUSH1 0x1F DUP4 PUSH2 0x2B15 JUMP JUMPDEST SWAP2 POP PUSH2 0x25D4 DUP3 PUSH2 0x31DA JUMP JUMPDEST PUSH1 0x20 DUP3 ADD SWAP1 POP SWAP2 SWAP1 POP JUMP JUMPDEST PUSH2 0x25E8 DUP2 PUSH2 0x2DA7 JUMP JUMPDEST DUP3 MSTORE POP POP JUMP JUMPDEST PUSH2 0x25F7 DUP2 PUSH2 0x2DD5 JUMP JUMPDEST DUP3 MSTORE POP POP JUMP JUMPDEST PUSH2 0x2606 DUP2 PUSH2 0x2DD5 JUMP JUMPDEST DUP3 MSTORE POP POP JUMP JUMPDEST PUSH2 0x2615 DUP2 PUSH2 0x2DDF JUMP JUMPDEST DUP3 MSTORE POP POP JUMP JUMPDEST PUSH2 0x2624 DUP2 PUSH2 0x2DEF JUMP JUMPDEST DUP3 MSTORE POP POP JUMP JUMPDEST PUSH1 0x0 PUSH2 0x2636 DUP3 DUP5 PUSH2 0x237C JUMP JUMPDEST SWAP2 POP DUP2 SWAP1 POP SWAP3 SWAP2 POP POP JUMP JUMPDEST PUSH1 0x0 PUSH1 0x20 DUP3 ADD SWAP1 POP PUSH2 0x2656 PUSH1 0x0 DUP4 ADD DUP5 PUSH2 0x22F1 JUMP JUMPDEST SWAP3 SWAP2 POP POP JUMP JUMPDEST PUSH1 0x0 PUSH1 0x40 DUP3 ADD SWAP1 POP PUSH2 0x2671 PUSH1 0x0 DUP4 ADD DUP6 PUSH2 0x22F1 JUMP JUMPDEST PUSH2 0x267E PUSH1 0x20 DUP4 ADD DUP5 PUSH2 0x22F1 JUMP JUMPDEST SWAP4 SWAP3 POP POP POP JUMP JUMPDEST PUSH1 0x0 PUSH1 0x40 DUP3 ADD SWAP1 POP PUSH2 0x269A PUSH1 0x0 DUP4 ADD DUP6 PUSH2 0x22F1 JUMP JUMPDEST PUSH2 0x26A7 PUSH1 0x20 DUP4 ADD DUP5 PUSH2 0x25FD JUMP JUMPDEST SWAP4 SWAP3 POP POP POP JUMP JUMPDEST PUSH1 0x0 PUSH1 0x60 DUP3 ADD SWAP1 POP PUSH2 0x26C3 PUSH1 0x0 DUP4 ADD DUP7 PUSH2 0x235E JUMP JUMPDEST PUSH2 0x26D0 PUSH1 0x20 DUP4 ADD DUP6 PUSH2 0x235E JUMP JUMPDEST PUSH2 0x26DD PUSH1 0x40 DUP4 ADD DUP5 PUSH2 0x25FD JUMP JUMPDEST SWAP5 SWAP4 POP POP POP POP JUMP JUMPDEST PUSH1 0x0 PUSH1 0x60 DUP3 ADD SWAP1 POP PUSH2 0x26FA PUSH1 0x0 DUP4 ADD DUP7 PUSH2 0x235E JUMP JUMPDEST PUSH2 0x2707 PUSH1 0x20 DUP4 ADD DUP6 PUSH2 0x25FD JUMP JUMPDEST DUP2 DUP2 SUB PUSH1 0x40 DUP4 ADD MSTORE PUSH2 0x2719 DUP2 DUP5 PUSH2 0x2300 JUMP JUMPDEST SWAP1 POP SWAP5 SWAP4 POP POP POP POP JUMP JUMPDEST PUSH1 0x0 PUSH1 0xA0 DUP3 ADD SWAP1 POP PUSH2 0x2738 PUSH1 0x0 DUP4 ADD DUP9 PUSH2 0x236D JUMP JUMPDEST PUSH2 0x2745 PUSH1 0x20 DUP4 ADD DUP8 PUSH2 0x261B JUMP JUMPDEST PUSH2 0x2752 PUSH1 0x40 DUP4 ADD DUP7 PUSH2 0x25DF JUMP JUMPDEST PUSH2 0x275F PUSH1 0x60 DUP4 ADD DUP6 PUSH2 0x260C JUMP JUMPDEST PUSH2 0x276C PUSH1 0x80 DUP4 ADD DUP5 PUSH2 0x260C JUMP JUMPDEST SWAP7 SWAP6 POP POP POP POP POP POP JUMP JUMPDEST PUSH1 0x0 PUSH1 0x20 DUP3 ADD SWAP1 POP PUSH2 0x278B PUSH1 0x0 DUP4 ADD DUP5 PUSH2 0x23AD JUMP JUMPDEST SWAP3 SWAP2 POP POP JUMP JUMPDEST PUSH1 0x0 PUSH1 0x20 DUP3 ADD SWAP1 POP DUP2 DUP2 SUB PUSH1 0x0 DUP4 ADD MSTORE PUSH2 0x27AB DUP2 DUP5 PUSH2 0x23BC JUMP JUMPDEST SWAP1 POP SWAP3 SWAP2 POP POP JUMP JUMPDEST PUSH1 0x0 PUSH1 0x20 DUP3 ADD SWAP1 POP DUP2 DUP2 SUB PUSH1 0x0 DUP4 ADD MSTORE PUSH2 0x27CC DUP2 PUSH2 0x23F5 JUMP JUMPDEST SWAP1 POP SWAP2 SWAP1 POP JUMP JUMPDEST PUSH1 0x0 PUSH1 0x20 DUP3 ADD SWAP1 POP DUP2 DUP2 SUB PUSH1 0x0 DUP4 ADD MSTORE PUSH2 0x27EC DUP2 PUSH2 0x2418 JUMP JUMPDEST SWAP1 POP SWAP2 SWAP1 POP JUMP JUMPDEST PUSH1 0x0 PUSH1 0x20 DUP3 ADD SWAP1 POP DUP2 DUP2 SUB PUSH1 0x0 DUP4 ADD MSTORE PUSH2 0x280C DUP2 PUSH2 0x243B JUMP JUMPDEST SWAP1 POP SWAP2 SWAP1 POP JUMP JUMPDEST PUSH1 0x0 PUSH1 0x20 DUP3 ADD SWAP1 POP DUP2 DUP2 SUB PUSH1 0x0 DUP4 ADD MSTORE PUSH2 0x282C DUP2 PUSH2 0x245E JUMP JUMPDEST SWAP1 POP SWAP2 SWAP1 POP JUMP JUMPDEST PUSH1 0x0 PUSH1 0x20 DUP3 ADD SWAP1 POP DUP2 DUP2 SUB PUSH1 0x0 DUP4 ADD MSTORE PUSH2 0x284C DUP2 PUSH2 0x2481 JUMP JUMPDEST SWAP1 POP SWAP2 SWAP1 POP JUMP JUMPDEST PUSH1 0x0 PUSH1 0x20 DUP3 ADD SWAP1 POP DUP2 DUP2 SUB PUSH1 0x0 DUP4 ADD MSTORE PUSH2 0x286C DUP2 PUSH2 0x24A4 JUMP JUMPDEST SWAP1 POP SWAP2 SWAP1 POP JUMP JUMPDEST PUSH1 0x0 PUSH1 0x20 DUP3 ADD SWAP1 POP DUP2 DUP2 SUB PUSH1 0x0 DUP4 ADD MSTORE PUSH2 0x288C DUP2 PUSH2 0x24C7 JUMP JUMPDEST SWAP1 POP SWAP2 SWAP1 POP JUMP JUMPDEST PUSH1 0x0 PUSH1 0x20 DUP3 ADD SWAP1 POP DUP2 DUP2 SUB PUSH1 0x0 DUP4 ADD MSTORE PUSH2 0x28AC DUP2 PUSH2 0x24EA JUMP JUMPDEST SWAP1 POP SWAP2 SWAP1 POP JUMP JUMPDEST PUSH1 0x0 PUSH1 0x20 DUP3 ADD SWAP1 POP DUP2 DUP2 SUB PUSH1 0x0 DUP4 ADD MSTORE PUSH2 0x28CC DUP2 PUSH2 0x250D JUMP JUMPDEST SWAP1 POP SWAP2 SWAP1 POP JUMP JUMPDEST PUSH1 0x0 PUSH1 0x20 DUP3 ADD SWAP1 POP DUP2 DUP2 SUB PUSH1 0x0 DUP4 ADD MSTORE PUSH2 0x28EC DUP2 PUSH2 0x2530 JUMP JUMPDEST SWAP1 POP SWAP2 SWAP1 POP JUMP JUMPDEST PUSH1 0x0 PUSH1 0x20 DUP3 ADD SWAP1 POP DUP2 DUP2 SUB PUSH1 0x0 DUP4 ADD MSTORE PUSH2 0x290C DUP2 PUSH2 0x2553 JUMP JUMPDEST SWAP1 POP SWAP2 SWAP1 POP JUMP JUMPDEST PUSH1 0x0 PUSH1 0x20 DUP3 ADD SWAP1 POP DUP2 DUP2 SUB PUSH1 0x0 DUP4 ADD MSTORE PUSH2 0x292C DUP2 PUSH2 0x2576 JUMP JUMPDEST SWAP1 POP SWAP2 SWAP1 POP JUMP JUMPDEST PUSH1 0x0 PUSH1 0x20 DUP3 ADD SWAP1 POP DUP2 DUP2 SUB PUSH1 0x0 DUP4 ADD MSTORE PUSH2 0x294C DUP2 PUSH2 0x2599 JUMP JUMPDEST SWAP1 POP SWAP2 SWAP1 POP JUMP JUMPDEST PUSH1 0x0 PUSH1 0x20 DUP3 ADD SWAP1 POP DUP2 DUP2 SUB PUSH1 0x0 DUP4 ADD MSTORE PUSH2 0x296C DUP2 PUSH2 0x25BC JUMP JUMPDEST SWAP1 POP SWAP2 SWAP1 POP JUMP JUMPDEST PUSH1 0x0 PUSH1 0x20 DUP3 ADD SWAP1 POP PUSH2 0x2988 PUSH1 0x0 DUP4 ADD DUP5 PUSH2 0x25FD JUMP JUMPDEST SWAP3 SWAP2 POP POP JUMP JUMPDEST PUSH1 0x0 PUSH1 0xC0 DUP3 ADD SWAP1 POP PUSH2 0x29A3 PUSH1 0x0 DUP4 ADD DUP10 PUSH2 0x25FD JUMP JUMPDEST PUSH2 0x29B0 PUSH1 0x20 DUP4 ADD DUP9 PUSH2 0x25FD JUMP JUMPDEST PUSH2 0x29BD PUSH1 0x40 DUP4 ADD DUP8 PUSH2 0x22E2 JUMP JUMPDEST PUSH2 0x29CA PUSH1 0x60 DUP4 ADD DUP7 PUSH2 0x235E JUMP JUMPDEST PUSH2 0x29D7 PUSH1 0x80 DUP4 ADD DUP6 PUSH2 0x25FD JUMP JUMPDEST PUSH2 0x29E4 PUSH1 0xA0 DUP4 ADD DUP5 PUSH2 0x25FD JUMP JUMPDEST SWAP8 SWAP7 POP POP POP POP POP POP POP JUMP JUMPDEST PUSH1 0x0 PUSH1 0x60 DUP3 ADD SWAP1 POP PUSH2 0x2A04 PUSH1 0x0 DUP4 ADD DUP7 PUSH2 0x25FD JUMP JUMPDEST PUSH2 0x2A11 PUSH1 0x20 DUP4 ADD DUP6 PUSH2 0x25FD JUMP JUMPDEST PUSH2 0x2A1E PUSH1 0x40 DUP4 ADD DUP5 PUSH2 0x25FD JUMP JUMPDEST SWAP5 SWAP4 POP POP POP POP JUMP JUMPDEST PUSH1 0x0 PUSH1 0x40 DUP3 ADD SWAP1 POP PUSH2 0x2A3B PUSH1 0x0 DUP4 ADD DUP6 PUSH2 0x25FD JUMP JUMPDEST PUSH2 0x2A48 PUSH1 0x20 DUP4 ADD DUP5 PUSH2 0x260C JUMP JUMPDEST SWAP4 SWAP3 POP POP POP JUMP JUMPDEST PUSH1 0x0 PUSH1 0x20 DUP3 ADD SWAP1 POP PUSH2 0x2A64 PUSH1 0x0 DUP4 ADD DUP5 PUSH2 0x260C JUMP JUMPDEST SWAP3 SWAP2 POP POP JUMP JUMPDEST PUSH1 0x0 PUSH2 0x2A74 PUSH2 0x2A85 JUMP JUMPDEST SWAP1 POP PUSH2 0x2A80 DUP3 DUP3 PUSH2 0x2E36 JUMP JUMPDEST SWAP2 SWAP1 POP JUMP JUMPDEST PUSH1 0x0 PUSH1 0x40 MLOAD SWAP1 POP SWAP1 JUMP JUMPDEST PUSH1 0x0 PUSH8 0xFFFFFFFFFFFFFFFF DUP3 GT ISZERO PUSH2 0x2AAA JUMPI PUSH2 0x2AA9 PUSH2 0x2F25 JUMP JUMPDEST JUMPDEST PUSH1 0x20 DUP3 MUL SWAP1 POP PUSH1 0x20 DUP2 ADD SWAP1 POP SWAP2 SWAP1 POP JUMP JUMPDEST PUSH1 0x0 DUP2 SWAP1 POP PUSH1 0x20 DUP3 ADD SWAP1 POP SWAP2 SWAP1 POP JUMP JUMPDEST PUSH1 0x0 DUP2 MLOAD SWAP1 POP SWAP2 SWAP1 POP JUMP JUMPDEST PUSH1 0x0 DUP2 MLOAD SWAP1 POP SWAP2 SWAP1 POP JUMP JUMPDEST PUSH1 0x0 DUP2 MLOAD SWAP1 POP SWAP2 SWAP1 POP JUMP JUMPDEST PUSH1 0x0 PUSH1 0x20 DUP3 ADD SWAP1 POP SWAP2 SWAP1 POP JUMP JUMPDEST PUSH1 0x0 DUP3 DUP3 MSTORE PUSH1 0x20 DUP3 ADD SWAP1 POP SWAP3 SWAP2 POP POP JUMP JUMPDEST PUSH1 0x0 DUP2 SWAP1 POP SWAP3 SWAP2 POP POP JUMP JUMPDEST PUSH1 0x0 DUP3 DUP3 MSTORE PUSH1 0x20 DUP3 ADD SWAP1 POP SWAP3 SWAP2 POP POP JUMP JUMPDEST PUSH1 0x0 PUSH2 0x2B31 DUP3 PUSH2 0x2D9D JUMP JUMPDEST SWAP2 POP PUSH2 0x2B3C DUP4 PUSH2 0x2D9D JUMP JUMPDEST SWAP3 POP DUP2 PUSH32 0x7FFFFFFFFFFFFFFFFFFFFFFFFFFFFFFFFFFFFFFFFFFFFFFFFFFFFFFFFFFFFFFF SUB DUP4 SGT PUSH1 0x0 DUP4 SLT ISZERO AND ISZERO PUSH2 0x2B77 JUMPI PUSH2 0x2B76 PUSH2 0x2E98 JUMP JUMPDEST JUMPDEST DUP2 PUSH32 0x8000000000000000000000000000000000000000000000000000000000000000 SUB DUP4 SLT PUSH1 0x0 DUP4 SLT AND ISZERO PUSH2 0x2BAF JUMPI PUSH2 0x2BAE PUSH2 0x2E98 JUMP JUMPDEST JUMPDEST DUP3 DUP3 ADD SWAP1 POP SWAP3 SWAP2 POP POP JUMP JUMPDEST PUSH1 0x0 PUSH2 0x2BC5 DUP3 PUSH2 0x2DD5 JUMP JUMPDEST SWAP2 POP PUSH2 0x2BD0 DUP4 PUSH2 0x2DD5 JUMP JUMPDEST SWAP3 POP DUP3 PUSH32 0xFFFFFFFFFFFFFFFFFFFFFFFFFFFFFFFFFFFFFFFFFFFFFFFFFFFFFFFFFFFFFFFF SUB DUP3 GT ISZERO PUSH2 0x2C05 JUMPI PUSH2 0x2C04 PUSH2 0x2E98 JUMP JUMPDEST JUMPDEST DUP3 DUP3 ADD SWAP1 POP SWAP3 SWAP2 POP POP JUMP JUMPDEST PUSH1 0x0 PUSH2 0x2C1B DUP3 PUSH2 0x2DD5 JUMP JUMPDEST SWAP2 POP PUSH2 0x2C26 DUP4 PUSH2 0x2DD5 JUMP JUMPDEST SWAP3 POP DUP3 PUSH2 0x2C36 JUMPI PUSH2 0x2C35 PUSH2 0x2EC7 JUMP JUMPDEST JUMPDEST DUP3 DUP3 DIV SWAP1 POP SWAP3 SWAP2 POP POP JUMP JUMPDEST PUSH1 0x0 PUSH2 0x2C4C DUP3 PUSH2 0x2DD5 JUMP JUMPDEST SWAP2 POP PUSH2 0x2C57 DUP4 PUSH2 0x2DD5 JUMP JUMPDEST SWAP3 POP DUP2 PUSH32 0xFFFFFFFFFFFFFFFFFFFFFFFFFFFFFFFFFFFFFFFFFFFFFFFFFFFFFFFFFFFFFFFF DIV DUP4 GT DUP3 ISZERO ISZERO AND ISZERO PUSH2 0x2C90 JUMPI PUSH2 0x2C8F PUSH2 0x2E98 JUMP JUMPDEST JUMPDEST DUP3 DUP3 MUL SWAP1 POP SWAP3 SWAP2 POP POP JUMP JUMPDEST PUSH1 0x0 PUSH2 0x2CA6 DUP3 PUSH2 0x2D9D JUMP JUMPDEST SWAP2 POP PUSH2 0x2CB1 DUP4 PUSH2 0x2D9D JUMP JUMPDEST SWAP3 POP DUP3 PUSH32 0x8000000000000000000000000000000000000000000000000000000000000000 ADD DUP3 SLT PUSH1 0x0 DUP5 SLT ISZERO AND ISZERO PUSH2 0x2CEC JUMPI PUSH2 0x2CEB PUSH2 0x2E98 JUMP JUMPDEST JUMPDEST DUP3 PUSH32 0x7FFFFFFFFFFFFFFFFFFFFFFFFFFFFFFFFFFFFFFFFFFFFFFFFFFFFFFFFFFFFFFF ADD DUP3 SGT PUSH1 0x0 DUP5 SLT AND ISZERO PUSH2 0x2D24 JUMPI PUSH2 0x2D23 PUSH2 0x2E98 JUMP JUMPDEST JUMPDEST DUP3 DUP3 SUB SWAP1 POP SWAP3 SWAP2 POP POP JUMP JUMPDEST PUSH1 0x0 PUSH2 0x2D3A DUP3 PUSH2 0x2DD5 JUMP JUMPDEST SWAP2 POP PUSH2 0x2D45 DUP4 PUSH2 0x2DD5 JUMP JUMPDEST SWAP3 POP DUP3 DUP3 LT ISZERO PUSH2 0x2D58 JUMPI PUSH2 0x2D57 PUSH2 0x2E98 JUMP JUMPDEST JUMPDEST DUP3 DUP3 SUB SWAP1 POP SWAP3 SWAP2 POP POP JUMP JUMPDEST PUSH1 0x0 PUSH2 0x2D6E DUP3 PUSH2 0x2DB5 JUMP JUMPDEST SWAP1 POP SWAP2 SWAP1 POP JUMP JUMPDEST PUSH1 0x0 PUSH2 0x2D80 DUP3 PUSH2 0x2DB5 JUMP JUMPDEST SWAP1 POP SWAP2 SWAP1 POP JUMP JUMPDEST PUSH1 0x0 DUP2 ISZERO ISZERO SWAP1 POP SWAP2 SWAP1 POP JUMP JUMPDEST PUSH1 0x0 DUP2 SWAP1 POP SWAP2 SWAP1 POP JUMP JUMPDEST PUSH1 0x0 DUP2 SWAP1 POP SWAP2 SWAP1 POP JUMP JUMPDEST PUSH1 0x0 PUSH2 0xFFFF DUP3 AND SWAP1 POP SWAP2 SWAP1 POP JUMP JUMPDEST PUSH1 0x0 PUSH20 0xFFFFFFFFFFFFFFFFFFFFFFFFFFFFFFFFFFFFFFFF DUP3 AND SWAP1 POP SWAP2 SWAP1 POP JUMP JUMPDEST PUSH1 0x0 DUP2 SWAP1 POP SWAP2 SWAP1 POP JUMP JUMPDEST PUSH1 0x0 PUSH4 0xFFFFFFFF DUP3 AND SWAP1 POP SWAP2 SWAP1 POP JUMP JUMPDEST PUSH1 0x0 PUSH8 0xFFFFFFFFFFFFFFFF DUP3 AND SWAP1 POP SWAP2 SWAP1 POP JUMP JUMPDEST PUSH1 0x0 JUMPDEST DUP4 DUP2 LT ISZERO PUSH2 0x2E21 JUMPI DUP1 DUP3 ADD MLOAD DUP2 DUP5 ADD MSTORE PUSH1 0x20 DUP2 ADD SWAP1 POP PUSH2 0x2E06 JUMP JUMPDEST DUP4 DUP2 GT ISZERO PUSH2 0x2E30 JUMPI PUSH1 0x0 DUP5 DUP5 ADD MSTORE JUMPDEST POP POP POP POP JUMP JUMPDEST PUSH2 0x2E3F DUP3 PUSH2 0x2F68 JUMP JUMPDEST DUP2 ADD DUP2 DUP2 LT PUSH8 0xFFFFFFFFFFFFFFFF DUP3 GT OR ISZERO PUSH2 0x2E5E JUMPI PUSH2 0x2E5D PUSH2 0x2F25 JUMP JUMPDEST JUMPDEST DUP1 PUSH1 0x40 MSTORE POP POP POP JUMP JUMPDEST PUSH1 0x0 PUSH2 0x2E72 DUP3 PUSH2 0x2DD5 JUMP JUMPDEST SWAP2 POP PUSH2 0x2E7D DUP4 PUSH2 0x2DD5 JUMP JUMPDEST SWAP3 POP DUP3 PUSH2 0x2E8D JUMPI PUSH2 0x2E8C PUSH2 0x2EC7 JUMP JUMPDEST JUMPDEST DUP3 DUP3 MOD SWAP1 POP SWAP3 SWAP2 POP POP JUMP JUMPDEST PUSH32 0x4E487B7100000000000000000000000000000000000000000000000000000000 PUSH1 0x0 MSTORE PUSH1 0x11 PUSH1 0x4 MSTORE PUSH1 0x24 PUSH1 0x0 REVERT JUMPDEST PUSH32 0x4E487B7100000000000000000000000000000000000000000000000000000000 PUSH1 0x0 MSTORE PUSH1 0x12 PUSH1 0x4 MSTORE PUSH1 0x24 PUSH1 0x0 REVERT JUMPDEST PUSH32 0x4E487B7100000000000000000000000000000000000000000000000000000000 PUSH1 0x0 MSTORE PUSH1 0x32 PUSH1 0x4 MSTORE PUSH1 0x24 PUSH1 0x0 REVERT JUMPDEST PUSH32 0x4E487B7100000000000000000000000000000000000000000000000000000000 PUSH1 0x0 MSTORE PUSH1 0x41 PUSH1 0x4 MSTORE PUSH1 0x24 PUSH1 0x0 REVERT JUMPDEST PUSH1 0x0 DUP1 REVERT JUMPDEST PUSH1 0x0 DUP1 REVERT JUMPDEST PUSH1 0x0 DUP1 REVERT JUMPDEST PUSH1 0x0 DUP1 REVERT JUMPDEST PUSH1 0x0 PUSH1 0x1F NOT PUSH1 0x1F DUP4 ADD AND SWAP1 POP SWAP2 SWAP1 POP JUMP JUMPDEST PUSH32 0x72657175657374206E6F7420666F756E64000000000000000000000000000000 PUSH1 0x0 DUP3 ADD MSTORE POP JUMP JUMPDEST PUSH32 0x4D7573742062652070726F706F736564206F776E657200000000000000000000 PUSH1 0x0 DUP3 ADD MSTORE POP JUMP JUMPDEST PUSH32 0x42657420646F6573206E6F742065786973740000000000000000000000000000 PUSH1 0x0 DUP3 ADD MSTORE POP JUMP JUMPDEST PUSH32 0x4F6E6C792063616C6C61626C65206279206F776E657200000000000000000000 PUSH1 0x0 DUP3 ADD MSTORE POP JUMP JUMPDEST PUSH32 0x416464726573733A20696E73756666696369656E742062616C616E636520666F PUSH1 0x0 DUP3 ADD MSTORE PUSH32 0x722063616C6C0000000000000000000000000000000000000000000000000000 PUSH1 0x20 DUP3 ADD MSTORE POP JUMP JUMPDEST PUSH32 0x496E73756666696369656E742066756E64730000000000000000000000000000 PUSH1 0x0 DUP3 ADD MSTORE POP JUMP JUMPDEST PUSH32 0x5769746864726177616C2065786365656473206C696D69740000000000000000 PUSH1 0x0 DUP3 ADD MSTORE POP JUMP JUMPDEST PUSH32 0x57616974206265666F72652072657175657374696E6720726566756E64000000 PUSH1 0x0 DUP3 ADD MSTORE POP JUMP JUMPDEST PUSH32 0x42657420697320736574746C656420616C726561647900000000000000000000 PUSH1 0x0 DUP3 ADD MSTORE POP JUMP JUMPDEST PUSH32 0x6D617850726F6669742076696F6C6174696F6E00000000000000000000000000 PUSH1 0x0 DUP3 ADD MSTORE POP JUMP JUMPDEST PUSH32 0x416464726573733A2063616C6C20746F206E6F6E2D636F6E7472616374000000 PUSH1 0x0 DUP3 ADD MSTORE POP JUMP JUMPDEST PUSH32 0x43616E6E6F74207472616E7366657220746F2073656C66000000000000000000 PUSH1 0x0 DUP3 ADD MSTORE POP JUMP JUMPDEST PUSH32 0x5361666545524332303A204552433230206F7065726174696F6E20646964206E PUSH1 0x0 DUP3 ADD MSTORE PUSH32 0x6F74207375636365656400000000000000000000000000000000000000000000 PUSH1 0x20 DUP3 ADD MSTORE POP JUMP JUMPDEST PUSH32 0x5265656E7472616E637947756172643A207265656E7472616E742063616C6C00 PUSH1 0x0 DUP3 ADD MSTORE POP JUMP JUMPDEST PUSH2 0x320C DUP2 PUSH2 0x2D63 JUMP JUMPDEST DUP2 EQ PUSH2 0x3217 JUMPI PUSH1 0x0 DUP1 REVERT JUMPDEST POP JUMP JUMPDEST PUSH2 0x3223 DUP2 PUSH2 0x2D75 JUMP JUMPDEST DUP2 EQ PUSH2 0x322E JUMPI PUSH1 0x0 DUP1 REVERT JUMPDEST POP JUMP JUMPDEST PUSH2 0x323A DUP2 PUSH2 0x2D87 JUMP JUMPDEST DUP2 EQ PUSH2 0x3245 JUMPI PUSH1 0x0 DUP1 REVERT JUMPDEST POP JUMP JUMPDEST PUSH2 0x3251 DUP2 PUSH2 0x2DD5 JUMP JUMPDEST DUP2 EQ PUSH2 0x325C JUMPI PUSH1 0x0 DUP1 REVERT JUMPDEST POP JUMP JUMPDEST PUSH2 0x3268 DUP2 PUSH2 0x2DDF JUMP JUMPDEST DUP2 EQ PUSH2 0x3273 JUMPI PUSH1 0x0 DUP1 REVERT JUMPDEST POP JUMP INVALID LOG2 PUSH5 0x6970667358 0x22 SLT KECCAK256 0x2F CALLCODE SWAP14 0xC5 PUSH20 0x79CDC643E7747DC235A7A765F237952F5516ECA1 0xA9 POP 0xDF 0x2B LOG0 GT 0xD2 PUSH5 0x736F6C6343 STOP ADDMOD SMOD STOP CALLER "
				},
				"gasEstimates": {
					"creation": {
						"codeDepositCost": "2594400",
						"executionCost": "infinite",
						"totalCost": "infinite"
					},
					"external": {
						"": "220",
						"acceptOwnership()": "54608",
						"balance()": "406",
						"balanceMaxProfitRatio()": "2519",
						"balanceToken(address)": "infinite",
						"betMap(uint256)": "infinite",
						"bets(uint256)": "infinite",
						"betsLength()": "2534",
						"callbackGasLimit()": "2539",
						"getRequestStatus(uint256)": "infinite",
						"houseEdgeBP()": "2541",
						"houseProfit()": "2518",
						"lockedInBets()": "2518",
						"maxBetAmount()": "2474",
						"maxProfit()": "infinite",
						"minBetAmount()": "2561",
						"owner()": "2568",
						"placeBet()": "infinite",
						"rawFulfillRandomWords(uint256,uint256[])": "infinite",
						"refundBet(uint256)": "infinite",
						"requestIds(uint256)": "infinite",
						"requestRandomWords()": "infinite",
						"s_requests(uint256)": "infinite",
						"setBalanceMaxProfitRatio(uint256)": "24823",
						"setCallbackGasLimit(uint32)": "26960",
						"setHouseEdgeBP(uint256)": "24756",
						"setMaxBetAmount(uint256)": "24801",
						"setMinBetAmount(uint256)": "24757",
						"setwaitBlockRequest(uint256)": "24799",
						"transferOwnership(address)": "30723",
						"waitBlockRequest()": "2474",
						"withdrawFunds(address,uint256)": "infinite",
						"withdrawToken(address)": "infinite",
						"zSelfDestruct()": "30025"
					},
					"internal": {
						"fulfillRandomWords(uint256,uint256[] memory)": "infinite",
						"getWinAmount(uint256)": "infinite",
						"settleBet(uint256,uint256)": "infinite"
					}
				},
				"methodIdentifiers": {
					"acceptOwnership()": "79ba5097",
					"balance()": "b69ef8a8",
					"balanceMaxProfitRatio()": "27b54889",
					"balanceToken(address)": "04599012",
					"betMap(uint256)": "05b25980",
					"bets(uint256)": "22af00fa",
					"betsLength()": "bbd2e01e",
					"callbackGasLimit()": "24f74697",
					"getRequestStatus(uint256)": "d8a4676f",
					"houseEdgeBP()": "7d14bca5",
					"houseProfit()": "88fedd04",
					"lockedInBets()": "df88126f",
					"maxBetAmount()": "cab11d5d",
					"maxProfit()": "b539cd55",
					"minBetAmount()": "fa968eea",
					"owner()": "8da5cb5b",
					"placeBet()": "f90f4560",
					"rawFulfillRandomWords(uint256,uint256[])": "1fe543e3",
					"refundBet(uint256)": "e1fdb4b4",
					"requestIds(uint256)": "8796ba8c",
					"requestRandomWords()": "e0c86289",
					"s_requests(uint256)": "a168fa89",
					"setBalanceMaxProfitRatio(uint256)": "5d1837b8",
					"setCallbackGasLimit(uint32)": "a4eb718c",
					"setHouseEdgeBP(uint256)": "b68eee2a",
					"setMaxBetAmount(uint256)": "7cfbc7a5",
					"setMinBetAmount(uint256)": "6c188593",
					"setwaitBlockRequest(uint256)": "f5008324",
					"transferOwnership(address)": "f2fde38b",
					"waitBlockRequest()": "81d76905",
					"withdrawFunds(address,uint256)": "c1075329",
					"withdrawToken(address)": "89476069",
					"zSelfDestruct()": "162595ff"
				}
			},
			"storageLayout": {
				"storage": [
					{
						"astId": 21,
						"contract": "1_TrueCoinflipETH_flat.sol:TrueCoinflip",
						"label": "s_owner",
						"offset": 0,
						"slot": "0",
						"type": "t_address"
					},
					{
						"astId": 23,
						"contract": "1_TrueCoinflipETH_flat.sol:TrueCoinflip",
						"label": "s_pendingOwner",
						"offset": 0,
						"slot": "1",
						"type": "t_address"
					},
					{
						"astId": 1073,
						"contract": "1_TrueCoinflipETH_flat.sol:TrueCoinflip",
						"label": "_status",
						"offset": 0,
						"slot": "2",
						"type": "t_uint256"
					},
					{
						"astId": 1166,
						"contract": "1_TrueCoinflipETH_flat.sol:TrueCoinflip",
						"label": "s_requests",
						"offset": 0,
						"slot": "3",
						"type": "t_mapping(t_uint256,t_struct(RequestStatus)1161_storage)"
					},
					{
						"astId": 1169,
						"contract": "1_TrueCoinflipETH_flat.sol:TrueCoinflip",
						"label": "COORDINATOR",
						"offset": 0,
						"slot": "4",
						"type": "t_contract(VRFCoordinatorV2Interface)345"
					},
					{
						"astId": 1171,
						"contract": "1_TrueCoinflipETH_flat.sol:TrueCoinflip",
						"label": "s_subscriptionId",
						"offset": 20,
						"slot": "4",
						"type": "t_uint64"
					},
					{
						"astId": 1174,
						"contract": "1_TrueCoinflipETH_flat.sol:TrueCoinflip",
						"label": "requestIds",
						"offset": 0,
						"slot": "5",
						"type": "t_array(t_uint256)dyn_storage"
					},
					{
						"astId": 1177,
						"contract": "1_TrueCoinflipETH_flat.sol:TrueCoinflip",
						"label": "keyHash",
						"offset": 0,
						"slot": "6",
						"type": "t_bytes32"
					},
					{
						"astId": 1182,
						"contract": "1_TrueCoinflipETH_flat.sol:TrueCoinflip",
						"label": "callbackGasLimit",
						"offset": 0,
						"slot": "7",
						"type": "t_uint32"
					},
					{
						"astId": 1185,
						"contract": "1_TrueCoinflipETH_flat.sol:TrueCoinflip",
						"label": "requestConfirmations",
						"offset": 4,
						"slot": "7",
						"type": "t_uint16"
					},
					{
						"astId": 1188,
						"contract": "1_TrueCoinflipETH_flat.sol:TrueCoinflip",
						"label": "numWords",
						"offset": 6,
						"slot": "7",
						"type": "t_uint32"
					},
					{
						"astId": 1191,
						"contract": "1_TrueCoinflipETH_flat.sol:TrueCoinflip",
						"label": "houseEdgeBP",
						"offset": 0,
						"slot": "8",
						"type": "t_uint256"
					},
					{
						"astId": 1194,
						"contract": "1_TrueCoinflipETH_flat.sol:TrueCoinflip",
						"label": "minBetAmount",
						"offset": 0,
						"slot": "9",
						"type": "t_uint256"
					},
					{
						"astId": 1197,
						"contract": "1_TrueCoinflipETH_flat.sol:TrueCoinflip",
						"label": "maxBetAmount",
						"offset": 0,
						"slot": "10",
						"type": "t_uint256"
					},
					{
						"astId": 1200,
						"contract": "1_TrueCoinflipETH_flat.sol:TrueCoinflip",
						"label": "balanceMaxProfitRatio",
						"offset": 0,
						"slot": "11",
						"type": "t_uint256"
					},
					{
						"astId": 1202,
						"contract": "1_TrueCoinflipETH_flat.sol:TrueCoinflip",
						"label": "lockedInBets",
						"offset": 0,
						"slot": "12",
						"type": "t_uint256"
					},
					{
						"astId": 1205,
						"contract": "1_TrueCoinflipETH_flat.sol:TrueCoinflip",
						"label": "waitBlockRequest",
						"offset": 0,
						"slot": "13",
						"type": "t_uint256"
					},
					{
						"astId": 1222,
						"contract": "1_TrueCoinflipETH_flat.sol:TrueCoinflip",
						"label": "bets",
						"offset": 0,
						"slot": "14",
						"type": "t_array(t_struct(Bet)1218_storage)dyn_storage"
					},
					{
						"astId": 1226,
						"contract": "1_TrueCoinflipETH_flat.sol:TrueCoinflip",
						"label": "betMap",
						"offset": 0,
						"slot": "15",
						"type": "t_mapping(t_uint256,t_uint256)"
					},
					{
						"astId": 1228,
						"contract": "1_TrueCoinflipETH_flat.sol:TrueCoinflip",
						"label": "houseProfit",
						"offset": 0,
						"slot": "16",
						"type": "t_int256"
					}
				],
				"types": {
					"t_address": {
						"encoding": "inplace",
						"label": "address",
						"numberOfBytes": "20"
					},
					"t_address_payable": {
						"encoding": "inplace",
						"label": "address payable",
						"numberOfBytes": "20"
					},
					"t_array(t_struct(Bet)1218_storage)dyn_storage": {
						"base": "t_struct(Bet)1218_storage",
						"encoding": "dynamic_array",
						"label": "struct TrueCoinflip.Bet[]",
						"numberOfBytes": "32"
					},
					"t_array(t_uint256)dyn_storage": {
						"base": "t_uint256",
						"encoding": "dynamic_array",
						"label": "uint256[]",
						"numberOfBytes": "32"
					},
					"t_bool": {
						"encoding": "inplace",
						"label": "bool",
						"numberOfBytes": "1"
					},
					"t_bytes32": {
						"encoding": "inplace",
						"label": "bytes32",
						"numberOfBytes": "32"
					},
					"t_contract(VRFCoordinatorV2Interface)345": {
						"encoding": "inplace",
						"label": "contract VRFCoordinatorV2Interface",
						"numberOfBytes": "20"
					},
					"t_int256": {
						"encoding": "inplace",
						"label": "int256",
						"numberOfBytes": "32"
					},
					"t_mapping(t_uint256,t_struct(RequestStatus)1161_storage)": {
						"encoding": "mapping",
						"key": "t_uint256",
						"label": "mapping(uint256 => struct TrueCoinflip.RequestStatus)",
						"numberOfBytes": "32",
						"value": "t_struct(RequestStatus)1161_storage"
					},
					"t_mapping(t_uint256,t_uint256)": {
						"encoding": "mapping",
						"key": "t_uint256",
						"label": "mapping(uint256 => uint256)",
						"numberOfBytes": "32",
						"value": "t_uint256"
					},
					"t_struct(Bet)1218_storage": {
						"encoding": "inplace",
						"label": "struct TrueCoinflip.Bet",
						"members": [
							{
								"astId": 1207,
								"contract": "1_TrueCoinflipETH_flat.sol:TrueCoinflip",
								"label": "amount",
								"offset": 0,
								"slot": "0",
								"type": "t_uint256"
							},
							{
								"astId": 1209,
								"contract": "1_TrueCoinflipETH_flat.sol:TrueCoinflip",
								"label": "placeBlockNumber",
								"offset": 0,
								"slot": "1",
								"type": "t_uint256"
							},
							{
								"astId": 1211,
								"contract": "1_TrueCoinflipETH_flat.sol:TrueCoinflip",
								"label": "gambler",
								"offset": 0,
								"slot": "2",
								"type": "t_address_payable"
							},
							{
								"astId": 1213,
								"contract": "1_TrueCoinflipETH_flat.sol:TrueCoinflip",
								"label": "isSettled",
								"offset": 20,
								"slot": "2",
								"type": "t_bool"
							},
							{
								"astId": 1215,
								"contract": "1_TrueCoinflipETH_flat.sol:TrueCoinflip",
								"label": "outcome",
								"offset": 0,
								"slot": "3",
								"type": "t_uint256"
							},
							{
								"astId": 1217,
								"contract": "1_TrueCoinflipETH_flat.sol:TrueCoinflip",
								"label": "winAmount",
								"offset": 0,
								"slot": "4",
								"type": "t_uint256"
							}
						],
						"numberOfBytes": "160"
					},
					"t_struct(RequestStatus)1161_storage": {
						"encoding": "inplace",
						"label": "struct TrueCoinflip.RequestStatus",
						"members": [
							{
								"astId": 1153,
								"contract": "1_TrueCoinflipETH_flat.sol:TrueCoinflip",
								"label": "fulfilled",
								"offset": 0,
								"slot": "0",
								"type": "t_bool"
							},
							{
								"astId": 1155,
								"contract": "1_TrueCoinflipETH_flat.sol:TrueCoinflip",
								"label": "exists",
								"offset": 1,
								"slot": "0",
								"type": "t_bool"
							},
							{
								"astId": 1157,
								"contract": "1_TrueCoinflipETH_flat.sol:TrueCoinflip",
								"label": "randomness",
								"offset": 0,
								"slot": "1",
								"type": "t_uint256"
							},
							{
								"astId": 1160,
								"contract": "1_TrueCoinflipETH_flat.sol:TrueCoinflip",
								"label": "randomWords",
								"offset": 0,
								"slot": "2",
								"type": "t_array(t_uint256)dyn_storage"
							}
						],
						"numberOfBytes": "96"
					},
					"t_uint16": {
						"encoding": "inplace",
						"label": "uint16",
						"numberOfBytes": "2"
					},
					"t_uint256": {
						"encoding": "inplace",
						"label": "uint256",
						"numberOfBytes": "32"
					},
					"t_uint32": {
						"encoding": "inplace",
						"label": "uint32",
						"numberOfBytes": "4"
					},
					"t_uint64": {
						"encoding": "inplace",
						"label": "uint64",
						"numberOfBytes": "8"
					}
				}
			},
			"userdoc": {
				"kind": "user",
				"methods": {
					"acceptOwnership()": {
						"notice": "Allows an ownership transfer to be completed by the recipient."
					},
					"owner()": {
						"notice": "Get the current owner"
					},
					"transferOwnership(address)": {
						"notice": "Allows an owner to begin transferring ownership to a new address, pending."
					}
				},
				"version": 1
			}
		}
	}
}