{
	"data": {
		"bytecode": {
			"linkReferences": {},
			"object": "60a06040527f79d3d8832d904592c0bf9818b621522c988bb8b0c05cdc3b15aea1b6e8db0c1560001b60065562030d40600760006101000a81548163ffffffff021916908363ffffffff1602179055506003600760046101000a81548161ffff021916908361ffff1602179055506001600760066101000a81548163ffffffff021916908363ffffffff16021790555060be600855600160095568056bc75e2d63100000600a556018600b556014600d5533806000732ca8e0c643bde4c2e08ab1fa0da3401adad7734d8073ffffffffffffffffffffffffffffffffffffffff1660808173ffffffffffffffffffffffffffffffffffffffff1660601b8152505050600073ffffffffffffffffffffffffffffffffffffffff168273ffffffffffffffffffffffffffffffffffffffff16141562000174576040517f08c379a00000000000000000000000000000000000000000000000000000000081526004016200016b906200040a565b60405180910390fd5b816000806101000a81548173ffffffffffffffffffffffffffffffffffffffff021916908373ffffffffffffffffffffffffffffffffffffffff160217905550600073ffffffffffffffffffffffffffffffffffffffff168173ffffffffffffffffffffffffffffffffffffffff1614620001fb57620001fa816200028c60201b60201c565b5b5050506001600281905550732ca8e0c643bde4c2e08ab1fa0da3401adad7734d600460006101000a81548173ffffffffffffffffffffffffffffffffffffffff021916908373ffffffffffffffffffffffffffffffffffffffff1602179055506122a8600460146101000a81548167ffffffffffffffff021916908367ffffffffffffffff160217905550620004b1565b3373ffffffffffffffffffffffffffffffffffffffff168173ffffffffffffffffffffffffffffffffffffffff161415620002fe576040517f08c379a0000000000000000000000000000000000000000000000000000000008152600401620002f5906200042c565b60405180910390fd5b80600160006101000a81548173ffffffffffffffffffffffffffffffffffffffff021916908373ffffffffffffffffffffffffffffffffffffffff1602179055508073ffffffffffffffffffffffffffffffffffffffff1660008054906101000a900473ffffffffffffffffffffffffffffffffffffffff1673ffffffffffffffffffffffffffffffffffffffff167fed8889f560326eb138920d842192f0eb3dd22b4f139c87a2c57538e05bae127860405160405180910390a350565b6000620003cb6018836200044e565b9150620003d8826200045f565b602082019050919050565b6000620003f26017836200044e565b9150620003ff8262000488565b602082019050919050565b600060208201905081810360008301526200042581620003bc565b9050919050565b600060208201905081810360008301526200044781620003e3565b9050919050565b600082825260208201905092915050565b7f43616e6e6f7420736574206f776e657220746f207a65726f0000000000000000600082015250565b7f43616e6e6f74207472616e7366657220746f2073656c66000000000000000000600082015250565b60805160601c6132ac620004d76000396000818161086901526108bd01526132ac6000f3fe6080604052600436106101f25760003560e01c80638da5cb5b1161010d578063cab11d5d116100a0578063e1fdb4b41161006f578063e1fdb4b4146106ec578063f2fde38b14610715578063f50083241461073e578063f90f456014610767578063fa968eea14610771576101f9565b8063cab11d5d1461062c578063d8a4676f14610657578063df88126f14610696578063e0c86289146106c1576101f9565b8063b68eee2a116100dc578063b68eee2a14610584578063b69ef8a8146105ad578063bbd2e01e146105d8578063c107532914610603576101f9565b80638da5cb5b146104c6578063a168fa89146104f1578063a4eb718c14610530578063b539cd5514610559576101f9565b80636c1885931161018557806381d769051161015457806381d769051461040a5780638796ba8c1461043557806388fedd0414610472578063894760691461049d576101f9565b80636c1885931461037657806379ba50971461039f5780637cfbc7a5146103b65780637d14bca5146103df576101f9565b806322af00fa116101c157806322af00fa146102b557806324f74697146102f757806327b54889146103225780635d1837b81461034d576101f9565b806304599012146101fb57806305b2598014610238578063162595ff146102755780631fe543e31461028c576101f9565b366101f957005b005b34801561020757600080fd5b50610222600480360381019061021d919061214d565b61079c565b60405161022f9190612973565b60405180910390f35b34801561024457600080fd5b5061025f600480360381019061025a91906121e7565b61082e565b60405161026c9190612973565b60405180910390f35b34801561028157600080fd5b5061028a610846565b005b34801561029857600080fd5b506102b360048036038101906102ae9190612241565b610867565b005b3480156102c157600080fd5b506102dc60048036038101906102d791906121e7565b610927565b6040516102ee9695949392919061298e565b60405180910390f35b34801561030357600080fd5b5061030c6109a0565b6040516103199190612a4f565b60405180910390f35b34801561032e57600080fd5b506103376109b6565b6040516103449190612973565b60405180910390f35b34801561035957600080fd5b50610374600480360381019061036f91906121e7565b6109bc565b005b34801561038257600080fd5b5061039d600480360381019061039891906121e7565b6109ce565b005b3480156103ab57600080fd5b506103b46109e0565b005b3480156103c257600080fd5b506103dd60048036038101906103d891906121e7565b610b75565b005b3480156103eb57600080fd5b506103f4610b87565b6040516104019190612973565b60405180910390f35b34801561041657600080fd5b5061041f610b8d565b60405161042c9190612973565b60405180910390f35b34801561044157600080fd5b5061045c600480360381019061045791906121e7565b610b93565b6040516104699190612973565b60405180910390f35b34801561047e57600080fd5b50610487610bb7565b6040516104949190612776565b60405180910390f35b3480156104a957600080fd5b506104c460048036038101906104bf919061214d565b610bbd565b005b3480156104d257600080fd5b506104db610c82565b6040516104e89190612641565b60405180910390f35b3480156104fd57600080fd5b50610518600480360381019061051391906121e7565b610cab565b604051610527939291906126ae565b60405180910390f35b34801561053c57600080fd5b506105576004803603810190610552919061229d565b610cef565b005b34801561056557600080fd5b5061056e610d1b565b60405161057b9190612973565b60405180910390f35b34801561059057600080fd5b506105ab60048036038101906105a691906121e7565b610d30565b005b3480156105b957600080fd5b506105c2610d42565b6040516105cf9190612973565b60405180910390f35b3480156105e457600080fd5b506105ed610d4a565b6040516105fa9190612973565b60405180910390f35b34801561060f57600080fd5b5061062a6004803603810190610625919061217a565b610d57565b005b34801561063857600080fd5b50610641610dfa565b60405161064e9190612973565b60405180910390f35b34801561066357600080fd5b5061067e600480360381019061067991906121e7565b610e00565b60405161068d939291906126e5565b60405180910390f35b3480156106a257600080fd5b506106ab610f3f565b6040516106b89190612973565b60405180910390f35b3480156106cd57600080fd5b506106d6610f45565b6040516106e39190612973565b60405180910390f35b3480156106f857600080fd5b50610713600480360381019061070e91906121e7565b6111b7565b005b34801561072157600080fd5b5061073c6004803603810190610737919061214d565b611414565b005b34801561074a57600080fd5b50610765600480360381019061076091906121e7565b611428565b005b61076f61143a565b005b34801561077d57600080fd5b506107866116a0565b6040516107939190612973565b60405180910390f35b60008173ffffffffffffffffffffffffffffffffffffffff166370a08231306040518263ffffffff1660e01b81526004016107d79190612641565b60206040518083038186803b1580156107ef57600080fd5b505afa158015610803573d6000803e3d6000fd5b505050506040513d601f19601f820116820180604052508101906108279190612214565b9050919050565b600f6020528060005260406000206000915090505481565b61084e6116a6565b3373ffffffffffffffffffffffffffffffffffffffff16ff5b7f000000000000000000000000000000000000000000000000000000000000000073ffffffffffffffffffffffffffffffffffffffff163373ffffffffffffffffffffffffffffffffffffffff161461091957337f00000000000000000000000000000000000000000000000000000000000000006040517f1cf993f400000000000000000000000000000000000000000000000000000000815260040161091092919061265c565b60405180910390fd5b6109238282611736565b5050565b600e818154811061093757600080fd5b90600052602060002090600502016000915090508060000154908060010154908060020160009054906101000a900473ffffffffffffffffffffffffffffffffffffffff16908060020160149054906101000a900460ff16908060030154908060040154905086565b600760009054906101000a900463ffffffff1681565b600b5481565b6109c46116a6565b80600b8190555050565b6109d66116a6565b8060098190555050565b600160009054906101000a900473ffffffffffffffffffffffffffffffffffffffff1673ffffffffffffffffffffffffffffffffffffffff163373ffffffffffffffffffffffffffffffffffffffff1614610a70576040517f08c379a0000000000000000000000000000000000000000000000000000000008152600401610a67906127d3565b60405180910390fd5b60008060009054906101000a900473ffffffffffffffffffffffffffffffffffffffff169050336000806101000a81548173ffffffffffffffffffffffffffffffffffffffff021916908373ffffffffffffffffffffffffffffffffffffffff1602179055506000600160006101000a81548173ffffffffffffffffffffffffffffffffffffffff021916908373ffffffffffffffffffffffffffffffffffffffff1602179055503373ffffffffffffffffffffffffffffffffffffffff168173ffffffffffffffffffffffffffffffffffffffff167f8be0079c531659141344cd1fd0a4f28419497f9722a3daafe3b4186f6b6457e060405160405180910390a350565b610b7d6116a6565b80600a8190555050565b60085481565b600d5481565b60058181548110610ba357600080fd5b906000526020600020016000915090505481565b60105481565b610bc56116a6565b610c7f610bd0610c82565b8273ffffffffffffffffffffffffffffffffffffffff166370a08231306040518263ffffffff1660e01b8152600401610c099190612641565b60206040518083038186803b158015610c2157600080fd5b505afa158015610c35573d6000803e3d6000fd5b505050506040513d601f19601f82011682018060405250810190610c599190612214565b8373ffffffffffffffffffffffffffffffffffffffff1661186a9092919063ffffffff16565b50565b60008060009054906101000a900473ffffffffffffffffffffffffffffffffffffffff16905090565b60036020528060005260406000206000915090508060000160009054906101000a900460ff16908060000160019054906101000a900460ff16908060010154905083565b610cf76116a6565b80600760006101000a81548163ffffffff021916908363ffffffff16021790555050565b6000600b5447610d2b9190612c10565b905090565b610d386116a6565b8060088190555050565b600047905090565b6000600e80549050905090565b610d5f6116a6565b600c5447610d6d9190612d2f565b811115610daf576040517f08c379a0000000000000000000000000000000000000000000000000000000008152600401610da690612873565b60405180910390fd5b8173ffffffffffffffffffffffffffffffffffffffff166108fc829081150290604051600060405180830381858888f19350505050158015610df5573d6000803e3d6000fd5b505050565b600a5481565b60008060606003600085815260200190815260200160002060000160019054906101000a900460ff16610e68576040517f08c379a0000000000000000000000000000000000000000000000000000000008152600401610e5f906127b3565b60405180910390fd5b6000600360008681526020019081526020016000206040518060800160405290816000820160009054906101000a900460ff161515151581526020016000820160019054906101000a900460ff161515151581526020016001820154815260200160028201805480602002602001604051908101604052809291908181526020018280548015610f1757602002820191906000526020600020905b815481526020019060010190808311610f03575b5050505050815250509050806000015181604001518260600151935093509350509193909250565b600c5481565b6000610f4f6116a6565b600460009054906101000a900473ffffffffffffffffffffffffffffffffffffffff1673ffffffffffffffffffffffffffffffffffffffff16635d3b1d30600654600460149054906101000a900467ffffffffffffffff16600760049054906101000a900461ffff16600760009054906101000a900463ffffffff16600760069054906101000a900463ffffffff166040518663ffffffff1660e01b8152600401610ffe959493929190612723565b602060405180830381600087803b15801561101857600080fd5b505af115801561102c573d6000803e3d6000fd5b505050506040513d601f19601f820116820180604052508101906110509190612214565b9050604051806080016040528060001515815260200160011515815260200160008152602001600067ffffffffffffffff81111561109157611090612f25565b5b6040519080825280602002602001820160405280156110bf5781602001602082028036833780820191505090505b508152506003600083815260200190815260200160002060008201518160000160006101000a81548160ff02191690831515021790555060208201518160000160016101000a81548160ff02191690831515021790555060408201518160010155606082015181600201908051906020019061113c929190611fc7565b5090505060058190806001815401808255809150506001900390600052602060002001600090919091909150557fcc58b13ad3eab50626c6a6300b1d139cd6ebb1688a7cced9461c2f7e762665ee81600760069054906101000a900463ffffffff166040516111ac929190612a26565b60405180910390a190565b6111bf6118f0565b6000600e82815481106111d5576111d4612ef6565b5b9060005260206000209060050201905060008160000154905060008111611231576040517f08c379a0000000000000000000000000000000000000000000000000000000008152600401611228906127f3565b60405180910390fd5b600015158260020160149054906101000a900460ff16151514611289576040517f08c379a0000000000000000000000000000000000000000000000000000000008152600401611280906128b3565b60405180910390fd5b600d54826001015461129b9190612bba565b43116112dc576040517f08c379a00000000000000000000000000000000000000000000000000000000081526004016112d390612893565b60405180910390fd5b60006112e78261193e565b905080600c60008282546112fb9190612d2f565b9250508190555060018360020160146101000a81548160ff0219169083151502179055508183600401819055508260020160009054906101000a900473ffffffffffffffffffffffffffffffffffffffff1673ffffffffffffffffffffffffffffffffffffffff166108fc839081150290604051600060405180830381858888f19350505050158015611392573d6000803e3d6000fd5b508260020160009054906101000a900473ffffffffffffffffffffffffffffffffffffffff1673ffffffffffffffffffffffffffffffffffffffff16847ff22517a5eae9f54be712c3150eca5ba925d233687b223c2ebf89272f12ee0865846040516113fe9190612973565b60405180910390a3505050611411611966565b50565b61141c6116a6565b61142581611970565b50565b6114306116a6565b80600d8190555050565b6114426118f0565b600034905060006114528261193e565b905061145c610d1b565b826114679190612bba565b8111156114a9576040517f08c379a00000000000000000000000000000000000000000000000000000000081526004016114a0906128d3565b60405180910390fd5b4781600c546114b89190612bba565b11156114f9576040517f08c379a00000000000000000000000000000000000000000000000000000000081526004016114f090612853565b60405180910390fd5b80600c600082825461150b9190612bba565b92505081905550600061151c610f45565b9050600e80549050600f6000838152602001908152602001600020819055503373ffffffffffffffffffffffffffffffffffffffff16600e805490507f87b9df6fa7123c2e6044c3a3a37b4b0662c188d7a58ef86ee55067c46e4613ad856040516115879190612973565b60405180910390a3600e6040518060c001604052808581526020014381526020013373ffffffffffffffffffffffffffffffffffffffff1681526020016000151581526020016000815260200160008152509080600181540180825580915050600190039060005260206000209060050201600090919091909150600082015181600001556020820151816001015560408201518160020160006101000a81548173ffffffffffffffffffffffffffffffffffffffff021916908373ffffffffffffffffffffffffffffffffffffffff16021790555060608201518160020160146101000a81548160ff0219169083151502179055506080820151816003015560a08201518160040155505050505061169e611966565b565b60095481565b60008054906101000a900473ffffffffffffffffffffffffffffffffffffffff1673ffffffffffffffffffffffffffffffffffffffff163373ffffffffffffffffffffffffffffffffffffffff1614611734576040517f08c379a000000000000000000000000000000000000000000000000000000000815260040161172b90612813565b60405180910390fd5b565b6003600083815260200190815260200160002060000160019054906101000a900460ff16611799576040517f08c379a0000000000000000000000000000000000000000000000000000000008152600401611790906127b3565b60405180910390fd5b806003600084815260200190815260200160002060020190805190602001906117c3929190611fc7565b5060016003600084815260200190815260200160002060000160006101000a81548160ff021916908315150217905550600160028260008151811061180b5761180a612ef6565b5b602002602001015161181d9190612e67565b6118279190612bba565b6003600084815260200190815260200160002060010181905550611866828260008151811061185957611858612ef6565b5b6020026020010151611a9d565b5050565b6118eb8363a9059cbb60e01b8484604051602401611889929190612685565b604051602081830303815290604052907bffffffffffffffffffffffffffffffffffffffffffffffffffffffff19166020820180517bffffffffffffffffffffffffffffffffffffffffffffffffffffffff8381831617835250505050611d32565b505050565b600280541415611935576040517f08c379a000000000000000000000000000000000000000000000000000000000815260040161192c90612953565b60405180910390fd5b60028081905550565b6000806064600854846119519190612c41565b61195b9190612c10565b905080915050919050565b6001600281905550565b3373ffffffffffffffffffffffffffffffffffffffff168173ffffffffffffffffffffffffffffffffffffffff1614156119df576040517f08c379a00000000000000000000000000000000000000000000000000000000081526004016119d690612913565b60405180910390fd5b80600160006101000a81548173ffffffffffffffffffffffffffffffffffffffff021916908373ffffffffffffffffffffffffffffffffffffffff1602179055508073ffffffffffffffffffffffffffffffffffffffff1660008054906101000a900473ffffffffffffffffffffffffffffffffffffffff1673ffffffffffffffffffffffffffffffffffffffff167fed8889f560326eb138920d842192f0eb3dd22b4f139c87a2c57538e05bae127860405160405180910390a350565b611aa56118f0565b6000600f60008481526020019081526020016000205490506000600e8281548110611ad357611ad2612ef6565b5b9060005260206000209060050201905060008160000154905060008111611b2f576040517f08c379a0000000000000000000000000000000000000000000000000000000008152600401611b26906127f3565b60405180910390fd5b600015158260020160149054906101000a900460ff16151514611b87576040517f08c379a0000000000000000000000000000000000000000000000000000000008152600401611b7e906128b3565b60405180910390fd5b60008260020160009054906101000a900473ffffffffffffffffffffffffffffffffffffffff16905060006001600287611bc19190612e67565b611bcb9190612bba565b90506000611bd88461193e565b905060006001831415611bed57819050611bee565b5b81905081600c6000828254611c039190612d2f565b9250508190555060018660020160146101000a81548160ff0219169083151502179055508086600401819055508286600301819055506000811115611cb2578481611c4e9190612d2f565b60106000828254611c5f9190612c9b565b925050819055508373ffffffffffffffffffffffffffffffffffffffff166108fc829081150290604051600060405180830381858888f19350505050158015611cac573d6000803e3d6000fd5b50611ccc565b8460106000828254611cc49190612b26565b925050819055505b8373ffffffffffffffffffffffffffffffffffffffff16877fe6ebe32872ac4efcc1a2941e37098f5291c49bead807c24cba8acbd32af8e765878685604051611d17939291906129ef565b60405180910390a350505050505050611d2e611966565b5050565b6000611d94826040518060400160405280602081526020017f5361666545524332303a206c6f772d6c6576656c2063616c6c206661696c65648152508573ffffffffffffffffffffffffffffffffffffffff16611df99092919063ffffffff16565b9050600081511115611df45780806020019051810190611db491906121ba565b611df3576040517f08c379a0000000000000000000000000000000000000000000000000000000008152600401611dea90612933565b60405180910390fd5b5b505050565b6060611e088484600085611e11565b90509392505050565b606082471015611e56576040517f08c379a0000000000000000000000000000000000000000000000000000000008152600401611e4d90612833565b60405180910390fd5b6000808673ffffffffffffffffffffffffffffffffffffffff168587604051611e7f919061262a565b60006040518083038185875af1925050503d8060008114611ebc576040519150601f19603f3d011682016040523d82523d6000602084013e611ec1565b606091505b5091509150611ed287838387611ede565b92505050949350505050565b60608315611f4157600083511415611f3957611ef985611f54565b611f38576040517f08c379a0000000000000000000000000000000000000000000000000000000008152600401611f2f906128f3565b60405180910390fd5b5b829050611f4c565b611f4b8383611f77565b5b949350505050565b6000808273ffffffffffffffffffffffffffffffffffffffff163b119050919050565b600082511115611f8a5781518083602001fd5b806040517f08c379a0000000000000000000000000000000000000000000000000000000008152600401611fbe9190612791565b60405180910390fd5b828054828255906000526020600020908101928215612003579160200282015b82811115612002578251825591602001919060010190611fe7565b5b5090506120109190612014565b5090565b5b8082111561202d576000816000905550600101612015565b5090565b600061204461203f84612a8f565b612a6a565b9050808382526020820190508285602086028201111561206757612066612f59565b5b60005b85811015612097578161207d888261210e565b84526020840193506020830192505060018101905061206a565b5050509392505050565b6000813590506120b081613203565b92915050565b6000813590506120c58161321a565b92915050565b600082601f8301126120e0576120df612f54565b5b81356120f0848260208601612031565b91505092915050565b60008151905061210881613231565b92915050565b60008135905061211d81613248565b92915050565b60008151905061213281613248565b92915050565b6000813590506121478161325f565b92915050565b60006020828403121561216357612162612f63565b5b6000612171848285016120a1565b91505092915050565b6000806040838503121561219157612190612f63565b5b600061219f858286016120b6565b92505060206121b08582860161210e565b9150509250929050565b6000602082840312156121d0576121cf612f63565b5b60006121de848285016120f9565b91505092915050565b6000602082840312156121fd576121fc612f63565b5b600061220b8482850161210e565b91505092915050565b60006020828403121561222a57612229612f63565b5b600061223884828501612123565b91505092915050565b6000806040838503121561225857612257612f63565b5b60006122668582860161210e565b925050602083013567ffffffffffffffff81111561228757612286612f5e565b5b612293858286016120cb565b9150509250929050565b6000602082840312156122b3576122b2612f63565b5b60006122c184828501612138565b91505092915050565b60006122d683836125ee565b60208301905092915050565b6122eb81612d75565b82525050565b6122fa81612d63565b82525050565b600061230b82612acb565b6123158185612af9565b935061232083612abb565b8060005b8381101561235157815161233888826122ca565b975061234383612aec565b925050600181019050612324565b5085935050505092915050565b61236781612d87565b82525050565b61237681612d93565b82525050565b600061238782612ad6565b6123918185612b0a565b93506123a1818560208601612e03565b80840191505092915050565b6123b681612d9d565b82525050565b60006123c782612ae1565b6123d18185612b15565b93506123e1818560208601612e03565b6123ea81612f68565b840191505092915050565b6000612402601183612b15565b915061240d82612f79565b602082019050919050565b6000612425601683612b15565b915061243082612fa2565b602082019050919050565b6000612448601283612b15565b915061245382612fcb565b602082019050919050565b600061246b601683612b15565b915061247682612ff4565b602082019050919050565b600061248e602683612b15565b91506124998261301d565b604082019050919050565b60006124b1601283612b15565b91506124bc8261306c565b602082019050919050565b60006124d4601883612b15565b91506124df82613095565b602082019050919050565b60006124f7601d83612b15565b9150612502826130be565b602082019050919050565b600061251a601683612b15565b9150612525826130e7565b602082019050919050565b600061253d601383612b15565b915061254882613110565b602082019050919050565b6000612560601d83612b15565b915061256b82613139565b602082019050919050565b6000612583601783612b15565b915061258e82613162565b602082019050919050565b60006125a6602a83612b15565b91506125b18261318b565b604082019050919050565b60006125c9601f83612b15565b91506125d4826131da565b602082019050919050565b6125e881612da7565b82525050565b6125f781612dd5565b82525050565b61260681612dd5565b82525050565b61261581612ddf565b82525050565b61262481612def565b82525050565b6000612636828461237c565b915081905092915050565b600060208201905061265660008301846122f1565b92915050565b600060408201905061267160008301856122f1565b61267e60208301846122f1565b9392505050565b600060408201905061269a60008301856122f1565b6126a760208301846125fd565b9392505050565b60006060820190506126c3600083018661235e565b6126d0602083018561235e565b6126dd60408301846125fd565b949350505050565b60006060820190506126fa600083018661235e565b61270760208301856125fd565b81810360408301526127198184612300565b9050949350505050565b600060a082019050612738600083018861236d565b612745602083018761261b565b61275260408301866125df565b61275f606083018561260c565b61276c608083018461260c565b9695505050505050565b600060208201905061278b60008301846123ad565b92915050565b600060208201905081810360008301526127ab81846123bc565b905092915050565b600060208201905081810360008301526127cc816123f5565b9050919050565b600060208201905081810360008301526127ec81612418565b9050919050565b6000602082019050818103600083015261280c8161243b565b9050919050565b6000602082019050818103600083015261282c8161245e565b9050919050565b6000602082019050818103600083015261284c81612481565b9050919050565b6000602082019050818103600083015261286c816124a4565b9050919050565b6000602082019050818103600083015261288c816124c7565b9050919050565b600060208201905081810360008301526128ac816124ea565b9050919050565b600060208201905081810360008301526128cc8161250d565b9050919050565b600060208201905081810360008301526128ec81612530565b9050919050565b6000602082019050818103600083015261290c81612553565b9050919050565b6000602082019050818103600083015261292c81612576565b9050919050565b6000602082019050818103600083015261294c81612599565b9050919050565b6000602082019050818103600083015261296c816125bc565b9050919050565b600060208201905061298860008301846125fd565b92915050565b600060c0820190506129a360008301896125fd565b6129b060208301886125fd565b6129bd60408301876122e2565b6129ca606083018661235e565b6129d760808301856125fd565b6129e460a08301846125fd565b979650505050505050565b6000606082019050612a0460008301866125fd565b612a1160208301856125fd565b612a1e60408301846125fd565b949350505050565b6000604082019050612a3b60008301856125fd565b612a48602083018461260c565b9392505050565b6000602082019050612a64600083018461260c565b92915050565b6000612a74612a85565b9050612a808282612e36565b919050565b6000604051905090565b600067ffffffffffffffff821115612aaa57612aa9612f25565b5b602082029050602081019050919050565b6000819050602082019050919050565b600081519050919050565b600081519050919050565b600081519050919050565b6000602082019050919050565b600082825260208201905092915050565b600081905092915050565b600082825260208201905092915050565b6000612b3182612d9d565b9150612b3c83612d9d565b9250817f7fffffffffffffffffffffffffffffffffffffffffffffffffffffffffffffff03831360008312151615612b7757612b76612e98565b5b817f8000000000000000000000000000000000000000000000000000000000000000038312600083121615612baf57612bae612e98565b5b828201905092915050565b6000612bc582612dd5565b9150612bd083612dd5565b9250827fffffffffffffffffffffffffffffffffffffffffffffffffffffffffffffffff03821115612c0557612c04612e98565b5b828201905092915050565b6000612c1b82612dd5565b9150612c2683612dd5565b925082612c3657612c35612ec7565b5b828204905092915050565b6000612c4c82612dd5565b9150612c5783612dd5565b9250817fffffffffffffffffffffffffffffffffffffffffffffffffffffffffffffffff0483118215151615612c9057612c8f612e98565b5b828202905092915050565b6000612ca682612d9d565b9150612cb183612d9d565b9250827f800000000000000000000000000000000000000000000000000000000000000001821260008412151615612cec57612ceb612e98565b5b827f7fffffffffffffffffffffffffffffffffffffffffffffffffffffffffffffff018213600084121615612d2457612d23612e98565b5b828203905092915050565b6000612d3a82612dd5565b9150612d4583612dd5565b925082821015612d5857612d57612e98565b5b828203905092915050565b6000612d6e82612db5565b9050919050565b6000612d8082612db5565b9050919050565b60008115159050919050565b6000819050919050565b6000819050919050565b600061ffff82169050919050565b600073ffffffffffffffffffffffffffffffffffffffff82169050919050565b6000819050919050565b600063ffffffff82169050919050565b600067ffffffffffffffff82169050919050565b60005b83811015612e21578082015181840152602081019050612e06565b83811115612e30576000848401525b50505050565b612e3f82612f68565b810181811067ffffffffffffffff82111715612e5e57612e5d612f25565b5b80604052505050565b6000612e7282612dd5565b9150612e7d83612dd5565b925082612e8d57612e8c612ec7565b5b828206905092915050565b7f4e487b7100000000000000000000000000000000000000000000000000000000600052601160045260246000fd5b7f4e487b7100000000000000000000000000000000000000000000000000000000600052601260045260246000fd5b7f4e487b7100000000000000000000000000000000000000000000000000000000600052603260045260246000fd5b7f4e487b7100000000000000000000000000000000000000000000000000000000600052604160045260246000fd5b600080fd5b600080fd5b600080fd5b600080fd5b6000601f19601f8301169050919050565b7f72657175657374206e6f7420666f756e64000000000000000000000000000000600082015250565b7f4d7573742062652070726f706f736564206f776e657200000000000000000000600082015250565b7f42657420646f6573206e6f742065786973740000000000000000000000000000600082015250565b7f4f6e6c792063616c6c61626c65206279206f776e657200000000000000000000600082015250565b7f416464726573733a20696e73756666696369656e742062616c616e636520666f60008201527f722063616c6c0000000000000000000000000000000000000000000000000000602082015250565b7f496e73756666696369656e742066756e64730000000000000000000000000000600082015250565b7f5769746864726177616c2065786365656473206c696d69740000000000000000600082015250565b7f57616974206265666f72652072657175657374696e6720726566756e64000000600082015250565b7f42657420697320736574746c656420616c726561647900000000000000000000600082015250565b7f6d617850726f6669742076696f6c6174696f6e00000000000000000000000000600082015250565b7f416464726573733a2063616c6c20746f206e6f6e2d636f6e7472616374000000600082015250565b7f43616e6e6f74207472616e7366657220746f2073656c66000000000000000000600082015250565b7f5361666545524332303a204552433230206f7065726174696f6e20646964206e60008201527f6f74207375636365656400000000000000000000000000000000000000000000602082015250565b7f5265656e7472616e637947756172643a207265656e7472616e742063616c6c00600082015250565b61320c81612d63565b811461321757600080fd5b50565b61322381612d75565b811461322e57600080fd5b50565b61323a81612d87565b811461324557600080fd5b50565b61325181612dd5565b811461325c57600080fd5b50565b61326881612ddf565b811461327357600080fd5b5056fea26469706673582212202ff29dc57379cdc643e7747dc235a7a765f237952f5516eca1a950df2ba011d264736f6c63430008070033",
			"opcodes": "PUSH1 0xA0 PUSH1 0x40 MSTORE PUSH32 0x79D3D8832D904592C0BF9818B621522C988BB8B0C05CDC3B15AEA1B6E8DB0C15 PUSH1 0x0 SHL PUSH1 0x6 SSTORE PUSH3 0x30D40 PUSH1 0x7 PUSH1 0x0 PUSH2 0x100 EXP DUP2 SLOAD DUP2 PUSH4 0xFFFFFFFF MUL NOT AND SWAP1 DUP4 PUSH4 0xFFFFFFFF AND MUL OR SWAP1 SSTORE POP PUSH1 0x3 PUSH1 0x7 PUSH1 0x4 PUSH2 0x100 EXP DUP2 SLOAD DUP2 PUSH2 0xFFFF MUL NOT AND SWAP1 DUP4 PUSH2 0xFFFF AND MUL OR SWAP1 SSTORE POP PUSH1 0x1 PUSH1 0x7 PUSH1 0x6 PUSH2 0x100 EXP DUP2 SLOAD DUP2 PUSH4 0xFFFFFFFF MUL NOT AND SWAP1 DUP4 PUSH4 0xFFFFFFFF AND MUL OR SWAP1 SSTORE POP PUSH1 0xBE PUSH1 0x8 SSTORE PUSH1 0x1 PUSH1 0x9 SSTORE PUSH9 0x56BC75E2D63100000 PUSH1 0xA SSTORE PUSH1 0x18 PUSH1 0xB SSTORE PUSH1 0x14 PUSH1 0xD SSTORE CALLER DUP1 PUSH1 0x0 PUSH20 0x2CA8E0C643BDE4C2E08AB1FA0DA3401ADAD7734D DUP1 PUSH20 0xFFFFFFFFFFFFFFFFFFFFFFFFFFFFFFFFFFFFFFFF AND PUSH1 0x80 DUP2 PUSH20 0xFFFFFFFFFFFFFFFFFFFFFFFFFFFFFFFFFFFFFFFF AND PUSH1 0x60 SHL DUP2 MSTORE POP POP POP PUSH1 0x0 PUSH20 0xFFFFFFFFFFFFFFFFFFFFFFFFFFFFFFFFFFFFFFFF AND DUP3 PUSH20 0xFFFFFFFFFFFFFFFFFFFFFFFFFFFFFFFFFFFFFFFF AND EQ ISZERO PUSH3 0x174 JUMPI PUSH1 0x40 MLOAD PUSH32 0x8C379A000000000000000000000000000000000000000000000000000000000 DUP2 MSTORE PUSH1 0x4 ADD PUSH3 0x16B SWAP1 PUSH3 0x40A JUMP JUMPDEST PUSH1 0x40 MLOAD DUP1 SWAP2 SUB SWAP1 REVERT JUMPDEST DUP2 PUSH1 0x0 DUP1 PUSH2 0x100 EXP DUP2 SLOAD DUP2 PUSH20 0xFFFFFFFFFFFFFFFFFFFFFFFFFFFFFFFFFFFFFFFF MUL NOT AND SWAP1 DUP4 PUSH20 0xFFFFFFFFFFFFFFFFFFFFFFFFFFFFFFFFFFFFFFFF AND MUL OR SWAP1 SSTORE POP PUSH1 0x0 PUSH20 0xFFFFFFFFFFFFFFFFFFFFFFFFFFFFFFFFFFFFFFFF AND DUP2 PUSH20 0xFFFFFFFFFFFFFFFFFFFFFFFFFFFFFFFFFFFFFFFF AND EQ PUSH3 0x1FB JUMPI PUSH3 0x1FA DUP2 PUSH3 0x28C PUSH1 0x20 SHL PUSH1 0x20 SHR JUMP JUMPDEST JUMPDEST POP POP POP PUSH1 0x1 PUSH1 0x2 DUP2 SWAP1 SSTORE POP PUSH20 0x2CA8E0C643BDE4C2E08AB1FA0DA3401ADAD7734D PUSH1 0x4 PUSH1 0x0 PUSH2 0x100 EXP DUP2 SLOAD DUP2 PUSH20 0xFFFFFFFFFFFFFFFFFFFFFFFFFFFFFFFFFFFFFFFF MUL NOT AND SWAP1 DUP4 PUSH20 0xFFFFFFFFFFFFFFFFFFFFFFFFFFFFFFFFFFFFFFFF AND MUL OR SWAP1 SSTORE POP PUSH2 0x22A8 PUSH1 0x4 PUSH1 0x14 PUSH2 0x100 EXP DUP2 SLOAD DUP2 PUSH8 0xFFFFFFFFFFFFFFFF MUL NOT AND SWAP1 DUP4 PUSH8 0xFFFFFFFFFFFFFFFF AND MUL OR SWAP1 SSTORE POP PUSH3 0x4B1 JUMP JUMPDEST CALLER PUSH20 0xFFFFFFFFFFFFFFFFFFFFFFFFFFFFFFFFFFFFFFFF AND DUP2 PUSH20 0xFFFFFFFFFFFFFFFFFFFFFFFFFFFFFFFFFFFFFFFF AND EQ ISZERO PUSH3 0x2FE JUMPI PUSH1 0x40 MLOAD PUSH32 0x8C379A000000000000000000000000000000000000000000000000000000000 DUP2 MSTORE PUSH1 0x4 ADD PUSH3 0x2F5 SWAP1 PUSH3 0x42C JUMP JUMPDEST PUSH1 0x40 MLOAD DUP1 SWAP2 SUB SWAP1 REVERT JUMPDEST DUP1 PUSH1 0x1 PUSH1 0x0 PUSH2 0x100 EXP DUP2 SLOAD DUP2 PUSH20 0xFFFFFFFFFFFFFFFFFFFFFFFFFFFFFFFFFFFFFFFF MUL NOT AND SWAP1 DUP4 PUSH20 0xFFFFFFFFFFFFFFFFFFFFFFFFFFFFFFFFFFFFFFFF AND MUL OR SWAP1 SSTORE POP DUP1 PUSH20 0xFFFFFFFFFFFFFFFFFFFFFFFFFFFFFFFFFFFFFFFF AND PUSH1 0x0 DUP1 SLOAD SWAP1 PUSH2 0x100 EXP SWAP1 DIV PUSH20 0xFFFFFFFFFFFFFFFFFFFFFFFFFFFFFFFFFFFFFFFF AND PUSH20 0xFFFFFFFFFFFFFFFFFFFFFFFFFFFFFFFFFFFFFFFF AND PUSH32 0xED8889F560326EB138920D842192F0EB3DD22B4F139C87A2C57538E05BAE1278 PUSH1 0x40 MLOAD PUSH1 0x40 MLOAD DUP1 SWAP2 SUB SWAP1 LOG3 POP JUMP JUMPDEST PUSH1 0x0 PUSH3 0x3CB PUSH1 0x18 DUP4 PUSH3 0x44E JUMP JUMPDEST SWAP2 POP PUSH3 0x3D8 DUP3 PUSH3 0x45F JUMP JUMPDEST PUSH1 0x20 DUP3 ADD SWAP1 POP SWAP2 SWAP1 POP JUMP JUMPDEST PUSH1 0x0 PUSH3 0x3F2 PUSH1 0x17 DUP4 PUSH3 0x44E JUMP JUMPDEST SWAP2 POP PUSH3 0x3FF DUP3 PUSH3 0x488 JUMP JUMPDEST PUSH1 0x20 DUP3 ADD SWAP1 POP SWAP2 SWAP1 POP JUMP JUMPDEST PUSH1 0x0 PUSH1 0x20 DUP3 ADD SWAP1 POP DUP2 DUP2 SUB PUSH1 0x0 DUP4 ADD MSTORE PUSH3 0x425 DUP2 PUSH3 0x3BC JUMP JUMPDEST SWAP1 POP SWAP2 SWAP1 POP JUMP JUMPDEST PUSH1 0x0 PUSH1 0x20 DUP3 ADD SWAP1 POP DUP2 DUP2 SUB PUSH1 0x0 DUP4 ADD MSTORE PUSH3 0x447 DUP2 PUSH3 0x3E3 JUMP JUMPDEST SWAP1 POP SWAP2 SWAP1 POP JUMP JUMPDEST PUSH1 0x0 DUP3 DUP3 MSTORE PUSH1 0x20 DUP3 ADD SWAP1 POP SWAP3 SWAP2 POP POP JUMP JUMPDEST PUSH32 0x43616E6E6F7420736574206F776E657220746F207A65726F0000000000000000 PUSH1 0x0 DUP3 ADD MSTORE POP JUMP JUMPDEST PUSH32 0x43616E6E6F74207472616E7366657220746F2073656C66000000000000000000 PUSH1 0x0 DUP3 ADD MSTORE POP JUMP JUMPDEST PUSH1 0x80 MLOAD PUSH1 0x60 SHR PUSH2 0x32AC PUSH3 0x4D7 PUSH1 0x0 CODECOPY PUSH1 0x0 DUP2 DUP2 PUSH2 0x869 ADD MSTORE PUSH2 0x8BD ADD MSTORE PUSH2 0x32AC PUSH1 0x0 RETURN INVALID PUSH1 0x80 PUSH1 0x40 MSTORE PUSH1 0x4 CALLDATASIZE LT PUSH2 0x1F2 JUMPI PUSH1 0x0 CALLDATALOAD PUSH1 0xE0 SHR DUP1 PUSH4 0x8DA5CB5B GT PUSH2 0x10D JUMPI DUP1 PUSH4 0xCAB11D5D GT PUSH2 0xA0 JUMPI DUP1 PUSH4 0xE1FDB4B4 GT PUSH2 0x6F JUMPI DUP1 PUSH4 0xE1FDB4B4 EQ PUSH2 0x6EC JUMPI DUP1 PUSH4 0xF2FDE38B EQ PUSH2 0x715 JUMPI DUP1 PUSH4 0xF5008324 EQ PUSH2 0x73E JUMPI DUP1 PUSH4 0xF90F4560 EQ PUSH2 0x767 JUMPI DUP1 PUSH4 0xFA968EEA EQ PUSH2 0x771 JUMPI PUSH2 0x1F9 JUMP JUMPDEST DUP1 PUSH4 0xCAB11D5D EQ PUSH2 0x62C JUMPI DUP1 PUSH4 0xD8A4676F EQ PUSH2 0x657 JUMPI DUP1 PUSH4 0xDF88126F EQ PUSH2 0x696 JUMPI DUP1 PUSH4 0xE0C86289 EQ PUSH2 0x6C1 JUMPI PUSH2 0x1F9 JUMP JUMPDEST DUP1 PUSH4 0xB68EEE2A GT PUSH2 0xDC JUMPI DUP1 PUSH4 0xB68EEE2A EQ PUSH2 0x584 JUMPI DUP1 PUSH4 0xB69EF8A8 EQ PUSH2 0x5AD JUMPI DUP1 PUSH4 0xBBD2E01E EQ PUSH2 0x5D8 JUMPI DUP1 PUSH4 0xC1075329 EQ PUSH2 0x603 JUMPI PUSH2 0x1F9 JUMP JUMPDEST DUP1 PUSH4 0x8DA5CB5B EQ PUSH2 0x4C6 JUMPI DUP1 PUSH4 0xA168FA89 EQ PUSH2 0x4F1 JUMPI DUP1 PUSH4 0xA4EB718C EQ PUSH2 0x530 JUMPI DUP1 PUSH4 0xB539CD55 EQ PUSH2 0x559 JUMPI PUSH2 0x1F9 JUMP JUMPDEST DUP1 PUSH4 0x6C188593 GT PUSH2 0x185 JUMPI DUP1 PUSH4 0x81D76905 GT PUSH2 0x154 JUMPI DUP1 PUSH4 0x81D76905 EQ PUSH2 0x40A JUMPI DUP1 PUSH4 0x8796BA8C EQ PUSH2 0x435 JUMPI DUP1 PUSH4 0x88FEDD04 EQ PUSH2 0x472 JUMPI DUP1 PUSH4 0x89476069 EQ PUSH2 0x49D JUMPI PUSH2 0x1F9 JUMP JUMPDEST DUP1 PUSH4 0x6C188593 EQ PUSH2 0x376 JUMPI DUP1 PUSH4 0x79BA5097 EQ PUSH2 0x39F JUMPI DUP1 PUSH4 0x7CFBC7A5 EQ PUSH2 0x3B6 JUMPI DUP1 PUSH4 0x7D14BCA5 EQ PUSH2 0x3DF JUMPI PUSH2 0x1F9 JUMP JUMPDEST DUP1 PUSH4 0x22AF00FA GT PUSH2 0x1C1 JUMPI DUP1 PUSH4 0x22AF00FA EQ PUSH2 0x2B5 JUMPI DUP1 PUSH4 0x24F74697 EQ PUSH2 0x2F7 JUMPI DUP1 PUSH4 0x27B54889 EQ PUSH2 0x322 JUMPI DUP1 PUSH4 0x5D1837B8 EQ PUSH2 0x34D JUMPI PUSH2 0x1F9 JUMP JUMPDEST DUP1 PUSH4 0x4599012 EQ PUSH2 0x1FB JUMPI DUP1 PUSH4 0x5B25980 EQ PUSH2 0x238 JUMPI DUP1 PUSH4 0x162595FF EQ PUSH2 0x275 JUMPI DUP1 PUSH4 0x1FE543E3 EQ PUSH2 0x28C JUMPI PUSH2 0x1F9 JUMP JUMPDEST CALLDATASIZE PUSH2 0x1F9 JUMPI STOP JUMPDEST STOP JUMPDEST CALLVALUE DUP1 ISZERO PUSH2 0x207 JUMPI PUSH1 0x0 DUP1 REVERT JUMPDEST POP PUSH2 0x222 PUSH1 0x4 DUP1 CALLDATASIZE SUB DUP2 ADD SWAP1 PUSH2 0x21D SWAP2 SWAP1 PUSH2 0x214D JUMP JUMPDEST PUSH2 0x79C JUMP JUMPDEST PUSH1 0x40 MLOAD PUSH2 0x22F SWAP2 SWAP1 PUSH2 0x2973 JUMP JUMPDEST PUSH1 0x40 MLOAD DUP1 SWAP2 SUB SWAP1 RETURN JUMPDEST CALLVALUE DUP1 ISZERO PUSH2 0x244 JUMPI PUSH1 0x0 DUP1 REVERT JUMPDEST POP PUSH2 0x25F PUSH1 0x4 DUP1 CALLDATASIZE SUB DUP2 ADD SWAP1 PUSH2 0x25A SWAP2 SWAP1 PUSH2 0x21E7 JUMP JUMPDEST PUSH2 0x82E JUMP JUMPDEST PUSH1 0x40 MLOAD PUSH2 0x26C SWAP2 SWAP1 PUSH2 0x2973 JUMP JUMPDEST PUSH1 0x40 MLOAD DUP1 SWAP2 SUB SWAP1 RETURN JUMPDEST CALLVALUE DUP1 ISZERO PUSH2 0x281 JUMPI PUSH1 0x0 DUP1 REVERT JUMPDEST POP PUSH2 0x28A PUSH2 0x846 JUMP JUMPDEST STOP JUMPDEST CALLVALUE DUP1 ISZERO PUSH2 0x298 JUMPI PUSH1 0x0 DUP1 REVERT JUMPDEST POP PUSH2 0x2B3 PUSH1 0x4 DUP1 CALLDATASIZE SUB DUP2 ADD SWAP1 PUSH2 0x2AE SWAP2 SWAP1 PUSH2 0x2241 JUMP JUMPDEST PUSH2 0x867 JUMP JUMPDEST STOP JUMPDEST CALLVALUE DUP1 ISZERO PUSH2 0x2C1 JUMPI PUSH1 0x0 DUP1 REVERT JUMPDEST POP PUSH2 0x2DC PUSH1 0x4 DUP1 CALLDATASIZE SUB DUP2 ADD SWAP1 PUSH2 0x2D7 SWAP2 SWAP1 PUSH2 0x21E7 JUMP JUMPDEST PUSH2 0x927 JUMP JUMPDEST PUSH1 0x40 MLOAD PUSH2 0x2EE SWAP7 SWAP6 SWAP5 SWAP4 SWAP3 SWAP2 SWAP1 PUSH2 0x298E JUMP JUMPDEST PUSH1 0x40 MLOAD DUP1 SWAP2 SUB SWAP1 RETURN JUMPDEST CALLVALUE DUP1 ISZERO PUSH2 0x303 JUMPI PUSH1 0x0 DUP1 REVERT JUMPDEST POP PUSH2 0x30C PUSH2 0x9A0 JUMP JUMPDEST PUSH1 0x40 MLOAD PUSH2 0x319 SWAP2 SWAP1 PUSH2 0x2A4F JUMP JUMPDEST PUSH1 0x40 MLOAD DUP1 SWAP2 SUB SWAP1 RETURN JUMPDEST CALLVALUE DUP1 ISZERO PUSH2 0x32E JUMPI PUSH1 0x0 DUP1 REVERT JUMPDEST POP PUSH2 0x337 PUSH2 0x9B6 JUMP JUMPDEST PUSH1 0x40 MLOAD PUSH2 0x344 SWAP2 SWAP1 PUSH2 0x2973 JUMP JUMPDEST PUSH1 0x40 MLOAD DUP1 SWAP2 SUB SWAP1 RETURN JUMPDEST CALLVALUE DUP1 ISZERO PUSH2 0x359 JUMPI PUSH1 0x0 DUP1 REVERT JUMPDEST POP PUSH2 0x374 PUSH1 0x4 DUP1 CALLDATASIZE SUB DUP2 ADD SWAP1 PUSH2 0x36F SWAP2 SWAP1 PUSH2 0x21E7 JUMP JUMPDEST PUSH2 0x9BC JUMP JUMPDEST STOP JUMPDEST CALLVALUE DUP1 ISZERO PUSH2 0x382 JUMPI PUSH1 0x0 DUP1 REVERT JUMPDEST POP PUSH2 0x39D PUSH1 0x4 DUP1 CALLDATASIZE SUB DUP2 ADD SWAP1 PUSH2 0x398 SWAP2 SWAP1 PUSH2 0x21E7 JUMP JUMPDEST PUSH2 0x9CE JUMP JUMPDEST STOP JUMPDEST CALLVALUE DUP1 ISZERO PUSH2 0x3AB JUMPI PUSH1 0x0 DUP1 REVERT JUMPDEST POP PUSH2 0x3B4 PUSH2 0x9E0 JUMP JUMPDEST STOP JUMPDEST CALLVALUE DUP1 ISZERO PUSH2 0x3C2 JUMPI PUSH1 0x0 DUP1 REVERT JUMPDEST POP PUSH2 0x3DD PUSH1 0x4 DUP1 CALLDATASIZE SUB DUP2 ADD SWAP1 PUSH2 0x3D8 SWAP2 SWAP1 PUSH2 0x21E7 JUMP JUMPDEST PUSH2 0xB75 JUMP JUMPDEST STOP JUMPDEST CALLVALUE DUP1 ISZERO PUSH2 0x3EB JUMPI PUSH1 0x0 DUP1 REVERT JUMPDEST POP PUSH2 0x3F4 PUSH2 0xB87 JUMP JUMPDEST PUSH1 0x40 MLOAD PUSH2 0x401 SWAP2 SWAP1 PUSH2 0x2973 JUMP JUMPDEST PUSH1 0x40 MLOAD DUP1 SWAP2 SUB SWAP1 RETURN JUMPDEST CALLVALUE DUP1 ISZERO PUSH2 0x416 JUMPI PUSH1 0x0 DUP1 REVERT JUMPDEST POP PUSH2 0x41F PUSH2 0xB8D JUMP JUMPDEST PUSH1 0x40 MLOAD PUSH2 0x42C SWAP2 SWAP1 PUSH2 0x2973 JUMP JUMPDEST PUSH1 0x40 MLOAD DUP1 SWAP2 SUB SWAP1 RETURN JUMPDEST CALLVALUE DUP1 ISZERO PUSH2 0x441 JUMPI PUSH1 0x0 DUP1 REVERT JUMPDEST POP PUSH2 0x45C PUSH1 0x4 DUP1 CALLDATASIZE SUB DUP2 ADD SWAP1 PUSH2 0x457 SWAP2 SWAP1 PUSH2 0x21E7 JUMP JUMPDEST PUSH2 0xB93 JUMP JUMPDEST PUSH1 0x40 MLOAD PUSH2 0x469 SWAP2 SWAP1 PUSH2 0x2973 JUMP JUMPDEST PUSH1 0x40 MLOAD DUP1 SWAP2 SUB SWAP1 RETURN JUMPDEST CALLVALUE DUP1 ISZERO PUSH2 0x47E JUMPI PUSH1 0x0 DUP1 REVERT JUMPDEST POP PUSH2 0x487 PUSH2 0xBB7 JUMP JUMPDEST PUSH1 0x40 MLOAD PUSH2 0x494 SWAP2 SWAP1 PUSH2 0x2776 JUMP JUMPDEST PUSH1 0x40 MLOAD DUP1 SWAP2 SUB SWAP1 RETURN JUMPDEST CALLVALUE DUP1 ISZERO PUSH2 0x4A9 JUMPI PUSH1 0x0 DUP1 REVERT JUMPDEST POP PUSH2 0x4C4 PUSH1 0x4 DUP1 CALLDATASIZE SUB DUP2 ADD SWAP1 PUSH2 0x4BF SWAP2 SWAP1 PUSH2 0x214D JUMP JUMPDEST PUSH2 0xBBD JUMP JUMPDEST STOP JUMPDEST CALLVALUE DUP1 ISZERO PUSH2 0x4D2 JUMPI PUSH1 0x0 DUP1 REVERT JUMPDEST POP PUSH2 0x4DB PUSH2 0xC82 JUMP JUMPDEST PUSH1 0x40 MLOAD PUSH2 0x4E8 SWAP2 SWAP1 PUSH2 0x2641 JUMP JUMPDEST PUSH1 0x40 MLOAD DUP1 SWAP2 SUB SWAP1 RETURN JUMPDEST CALLVALUE DUP1 ISZERO PUSH2 0x4FD JUMPI PUSH1 0x0 DUP1 REVERT JUMPDEST POP PUSH2 0x518 PUSH1 0x4 DUP1 CALLDATASIZE SUB DUP2 ADD SWAP1 PUSH2 0x513 SWAP2 SWAP1 PUSH2 0x21E7 JUMP JUMPDEST PUSH2 0xCAB JUMP JUMPDEST PUSH1 0x40 MLOAD PUSH2 0x527 SWAP4 SWAP3 SWAP2 SWAP1 PUSH2 0x26AE JUMP JUMPDEST PUSH1 0x40 MLOAD DUP1 SWAP2 SUB SWAP1 RETURN JUMPDEST CALLVALUE DUP1 ISZERO PUSH2 0x53C JUMPI PUSH1 0x0 DUP1 REVERT JUMPDEST POP PUSH2 0x557 PUSH1 0x4 DUP1 CALLDATASIZE SUB DUP2 ADD SWAP1 PUSH2 0x552 SWAP2 SWAP1 PUSH2 0x229D JUMP JUMPDEST PUSH2 0xCEF JUMP JUMPDEST STOP JUMPDEST CALLVALUE DUP1 ISZERO PUSH2 0x565 JUMPI PUSH1 0x0 DUP1 REVERT JUMPDEST POP PUSH2 0x56E PUSH2 0xD1B JUMP JUMPDEST PUSH1 0x40 MLOAD PUSH2 0x57B SWAP2 SWAP1 PUSH2 0x2973 JUMP JUMPDEST PUSH1 0x40 MLOAD DUP1 SWAP2 SUB SWAP1 RETURN JUMPDEST CALLVALUE DUP1 ISZERO PUSH2 0x590 JUMPI PUSH1 0x0 DUP1 REVERT JUMPDEST POP PUSH2 0x5AB PUSH1 0x4 DUP1 CALLDATASIZE SUB DUP2 ADD SWAP1 PUSH2 0x5A6 SWAP2 SWAP1 PUSH2 0x21E7 JUMP JUMPDEST PUSH2 0xD30 JUMP JUMPDEST STOP JUMPDEST CALLVALUE DUP1 ISZERO PUSH2 0x5B9 JUMPI PUSH1 0x0 DUP1 REVERT JUMPDEST POP PUSH2 0x5C2 PUSH2 0xD42 JUMP JUMPDEST PUSH1 0x40 MLOAD PUSH2 0x5CF SWAP2 SWAP1 PUSH2 0x2973 JUMP JUMPDEST PUSH1 0x40 MLOAD DUP1 SWAP2 SUB SWAP1 RETURN JUMPDEST CALLVALUE DUP1 ISZERO PUSH2 0x5E4 JUMPI PUSH1 0x0 DUP1 REVERT JUMPDEST POP PUSH2 0x5ED PUSH2 0xD4A JUMP JUMPDEST PUSH1 0x40 MLOAD PUSH2 0x5FA SWAP2 SWAP1 PUSH2 0x2973 JUMP JUMPDEST PUSH1 0x40 MLOAD DUP1 SWAP2 SUB SWAP1 RETURN JUMPDEST CALLVALUE DUP1 ISZERO PUSH2 0x60F JUMPI PUSH1 0x0 DUP1 REVERT JUMPDEST POP PUSH2 0x62A PUSH1 0x4 DUP1 CALLDATASIZE SUB DUP2 ADD SWAP1 PUSH2 0x625 SWAP2 SWAP1 PUSH2 0x217A JUMP JUMPDEST PUSH2 0xD57 JUMP JUMPDEST STOP JUMPDEST CALLVALUE DUP1 ISZERO PUSH2 0x638 JUMPI PUSH1 0x0 DUP1 REVERT JUMPDEST POP PUSH2 0x641 PUSH2 0xDFA JUMP JUMPDEST PUSH1 0x40 MLOAD PUSH2 0x64E SWAP2 SWAP1 PUSH2 0x2973 JUMP JUMPDEST PUSH1 0x40 MLOAD DUP1 SWAP2 SUB SWAP1 RETURN JUMPDEST CALLVALUE DUP1 ISZERO PUSH2 0x663 JUMPI PUSH1 0x0 DUP1 REVERT JUMPDEST POP PUSH2 0x67E PUSH1 0x4 DUP1 CALLDATASIZE SUB DUP2 ADD SWAP1 PUSH2 0x679 SWAP2 SWAP1 PUSH2 0x21E7 JUMP JUMPDEST PUSH2 0xE00 JUMP JUMPDEST PUSH1 0x40 MLOAD PUSH2 0x68D SWAP4 SWAP3 SWAP2 SWAP1 PUSH2 0x26E5 JUMP JUMPDEST PUSH1 0x40 MLOAD DUP1 SWAP2 SUB SWAP1 RETURN JUMPDEST CALLVALUE DUP1 ISZERO PUSH2 0x6A2 JUMPI PUSH1 0x0 DUP1 REVERT JUMPDEST POP PUSH2 0x6AB PUSH2 0xF3F JUMP JUMPDEST PUSH1 0x40 MLOAD PUSH2 0x6B8 SWAP2 SWAP1 PUSH2 0x2973 JUMP JUMPDEST PUSH1 0x40 MLOAD DUP1 SWAP2 SUB SWAP1 RETURN JUMPDEST CALLVALUE DUP1 ISZERO PUSH2 0x6CD JUMPI PUSH1 0x0 DUP1 REVERT JUMPDEST POP PUSH2 0x6D6 PUSH2 0xF45 JUMP JUMPDEST PUSH1 0x40 MLOAD PUSH2 0x6E3 SWAP2 SWAP1 PUSH2 0x2973 JUMP JUMPDEST PUSH1 0x40 MLOAD DUP1 SWAP2 SUB SWAP1 RETURN JUMPDEST CALLVALUE DUP1 ISZERO PUSH2 0x6F8 JUMPI PUSH1 0x0 DUP1 REVERT JUMPDEST POP PUSH2 0x713 PUSH1 0x4 DUP1 CALLDATASIZE SUB DUP2 ADD SWAP1 PUSH2 0x70E SWAP2 SWAP1 PUSH2 0x21E7 JUMP JUMPDEST PUSH2 0x11B7 JUMP JUMPDEST STOP JUMPDEST CALLVALUE DUP1 ISZERO PUSH2 0x721 JUMPI PUSH1 0x0 DUP1 REVERT JUMPDEST POP PUSH2 0x73C PUSH1 0x4 DUP1 CALLDATASIZE SUB DUP2 ADD SWAP1 PUSH2 0x737 SWAP2 SWAP1 PUSH2 0x214D JUMP JUMPDEST PUSH2 0x1414 JUMP JUMPDEST STOP JUMPDEST CALLVALUE DUP1 ISZERO PUSH2 0x74A JUMPI PUSH1 0x0 DUP1 REVERT JUMPDEST POP PUSH2 0x765 PUSH1 0x4 DUP1 CALLDATASIZE SUB DUP2 ADD SWAP1 PUSH2 0x760 SWAP2 SWAP1 PUSH2 0x21E7 JUMP JUMPDEST PUSH2 0x1428 JUMP JUMPDEST STOP JUMPDEST PUSH2 0x76F PUSH2 0x143A JUMP JUMPDEST STOP JUMPDEST CALLVALUE DUP1 ISZERO PUSH2 0x77D JUMPI PUSH1 0x0 DUP1 REVERT JUMPDEST POP PUSH2 0x786 PUSH2 0x16A0 JUMP JUMPDEST PUSH1 0x40 MLOAD PUSH2 0x793 SWAP2 SWAP1 PUSH2 0x2973 JUMP JUMPDEST PUSH1 0x40 MLOAD DUP1 SWAP2 SUB SWAP1 RETURN JUMPDEST PUSH1 0x0 DUP2 PUSH20 0xFFFFFFFFFFFFFFFFFFFFFFFFFFFFFFFFFFFFFFFF AND PUSH4 0x70A08231 ADDRESS PUSH1 0x40 MLOAD DUP3 PUSH4 0xFFFFFFFF AND PUSH1 0xE0 SHL DUP2 MSTORE PUSH1 0x4 ADD PUSH2 0x7D7 SWAP2 SWAP1 PUSH2 0x2641 JUMP JUMPDEST PUSH1 0x20 PUSH1 0x40 MLOAD DUP1 DUP4 SUB DUP2 DUP7 DUP1 EXTCODESIZE ISZERO DUP1 ISZERO PUSH2 0x7EF JUMPI PUSH1 0x0 DUP1 REVERT JUMPDEST POP GAS STATICCALL ISZERO DUP1 ISZERO PUSH2 0x803 JUMPI RETURNDATASIZE PUSH1 0x0 DUP1 RETURNDATACOPY RETURNDATASIZE PUSH1 0x0 REVERT JUMPDEST POP POP POP POP PUSH1 0x40 MLOAD RETURNDATASIZE PUSH1 0x1F NOT PUSH1 0x1F DUP3 ADD AND DUP3 ADD DUP1 PUSH1 0x40 MSTORE POP DUP2 ADD SWAP1 PUSH2 0x827 SWAP2 SWAP1 PUSH2 0x2214 JUMP JUMPDEST SWAP1 POP SWAP2 SWAP1 POP JUMP JUMPDEST PUSH1 0xF PUSH1 0x20 MSTORE DUP1 PUSH1 0x0 MSTORE PUSH1 0x40 PUSH1 0x0 KECCAK256 PUSH1 0x0 SWAP2 POP SWAP1 POP SLOAD DUP2 JUMP JUMPDEST PUSH2 0x84E PUSH2 0x16A6 JUMP JUMPDEST CALLER PUSH20 0xFFFFFFFFFFFFFFFFFFFFFFFFFFFFFFFFFFFFFFFF AND SELFDESTRUCT JUMPDEST PUSH32 0x0 PUSH20 0xFFFFFFFFFFFFFFFFFFFFFFFFFFFFFFFFFFFFFFFF AND CALLER PUSH20 0xFFFFFFFFFFFFFFFFFFFFFFFFFFFFFFFFFFFFFFFF AND EQ PUSH2 0x919 JUMPI CALLER PUSH32 0x0 PUSH1 0x40 MLOAD PUSH32 0x1CF993F400000000000000000000000000000000000000000000000000000000 DUP2 MSTORE PUSH1 0x4 ADD PUSH2 0x910 SWAP3 SWAP2 SWAP1 PUSH2 0x265C JUMP JUMPDEST PUSH1 0x40 MLOAD DUP1 SWAP2 SUB SWAP1 REVERT JUMPDEST PUSH2 0x923 DUP3 DUP3 PUSH2 0x1736 JUMP JUMPDEST POP POP JUMP JUMPDEST PUSH1 0xE DUP2 DUP2 SLOAD DUP2 LT PUSH2 0x937 JUMPI PUSH1 0x0 DUP1 REVERT JUMPDEST SWAP1 PUSH1 0x0 MSTORE PUSH1 0x20 PUSH1 0x0 KECCAK256 SWAP1 PUSH1 0x5 MUL ADD PUSH1 0x0 SWAP2 POP SWAP1 POP DUP1 PUSH1 0x0 ADD SLOAD SWAP1 DUP1 PUSH1 0x1 ADD SLOAD SWAP1 DUP1 PUSH1 0x2 ADD PUSH1 0x0 SWAP1 SLOAD SWAP1 PUSH2 0x100 EXP SWAP1 DIV PUSH20 0xFFFFFFFFFFFFFFFFFFFFFFFFFFFFFFFFFFFFFFFF AND SWAP1 DUP1 PUSH1 0x2 ADD PUSH1 0x14 SWAP1 SLOAD SWAP1 PUSH2 0x100 EXP SWAP1 DIV PUSH1 0xFF AND SWAP1 DUP1 PUSH1 0x3 ADD SLOAD SWAP1 DUP1 PUSH1 0x4 ADD SLOAD SWAP1 POP DUP7 JUMP JUMPDEST PUSH1 0x7 PUSH1 0x0 SWAP1 SLOAD SWAP1 PUSH2 0x100 EXP SWAP1 DIV PUSH4 0xFFFFFFFF AND DUP2 JUMP JUMPDEST PUSH1 0xB SLOAD DUP2 JUMP JUMPDEST PUSH2 0x9C4 PUSH2 0x16A6 JUMP JUMPDEST DUP1 PUSH1 0xB DUP2 SWAP1 SSTORE POP POP JUMP JUMPDEST PUSH2 0x9D6 PUSH2 0x16A6 JUMP JUMPDEST DUP1 PUSH1 0x9 DUP2 SWAP1 SSTORE POP POP JUMP JUMPDEST PUSH1 0x1 PUSH1 0x0 SWAP1 SLOAD SWAP1 PUSH2 0x100 EXP SWAP1 DIV PUSH20 0xFFFFFFFFFFFFFFFFFFFFFFFFFFFFFFFFFFFFFFFF AND PUSH20 0xFFFFFFFFFFFFFFFFFFFFFFFFFFFFFFFFFFFFFFFF AND CALLER PUSH20 0xFFFFFFFFFFFFFFFFFFFFFFFFFFFFFFFFFFFFFFFF AND EQ PUSH2 0xA70 JUMPI PUSH1 0x40 MLOAD PUSH32 0x8C379A000000000000000000000000000000000000000000000000000000000 DUP2 MSTORE PUSH1 0x4 ADD PUSH2 0xA67 SWAP1 PUSH2 0x27D3 JUMP JUMPDEST PUSH1 0x40 MLOAD DUP1 SWAP2 SUB SWAP1 REVERT JUMPDEST PUSH1 0x0 DUP1 PUSH1 0x0 SWAP1 SLOAD SWAP1 PUSH2 0x100 EXP SWAP1 DIV PUSH20 0xFFFFFFFFFFFFFFFFFFFFFFFFFFFFFFFFFFFFFFFF AND SWAP1 POP CALLER PUSH1 0x0 DUP1 PUSH2 0x100 EXP DUP2 SLOAD DUP2 PUSH20 0xFFFFFFFFFFFFFFFFFFFFFFFFFFFFFFFFFFFFFFFF MUL NOT AND SWAP1 DUP4 PUSH20 0xFFFFFFFFFFFFFFFFFFFFFFFFFFFFFFFFFFFFFFFF AND MUL OR SWAP1 SSTORE POP PUSH1 0x0 PUSH1 0x1 PUSH1 0x0 PUSH2 0x100 EXP DUP2 SLOAD DUP2 PUSH20 0xFFFFFFFFFFFFFFFFFFFFFFFFFFFFFFFFFFFFFFFF MUL NOT AND SWAP1 DUP4 PUSH20 0xFFFFFFFFFFFFFFFFFFFFFFFFFFFFFFFFFFFFFFFF AND MUL OR SWAP1 SSTORE POP CALLER PUSH20 0xFFFFFFFFFFFFFFFFFFFFFFFFFFFFFFFFFFFFFFFF AND DUP2 PUSH20 0xFFFFFFFFFFFFFFFFFFFFFFFFFFFFFFFFFFFFFFFF AND PUSH32 0x8BE0079C531659141344CD1FD0A4F28419497F9722A3DAAFE3B4186F6B6457E0 PUSH1 0x40 MLOAD PUSH1 0x40 MLOAD DUP1 SWAP2 SUB SWAP1 LOG3 POP JUMP JUMPDEST PUSH2 0xB7D PUSH2 0x16A6 JUMP JUMPDEST DUP1 PUSH1 0xA DUP2 SWAP1 SSTORE POP POP JUMP JUMPDEST PUSH1 0x8 SLOAD DUP2 JUMP JUMPDEST PUSH1 0xD SLOAD DUP2 JUMP JUMPDEST PUSH1 0x5 DUP2 DUP2 SLOAD DUP2 LT PUSH2 0xBA3 JUMPI PUSH1 0x0 DUP1 REVERT JUMPDEST SWAP1 PUSH1 0x0 MSTORE PUSH1 0x20 PUSH1 0x0 KECCAK256 ADD PUSH1 0x0 SWAP2 POP SWAP1 POP SLOAD DUP2 JUMP JUMPDEST PUSH1 0x10 SLOAD DUP2 JUMP JUMPDEST PUSH2 0xBC5 PUSH2 0x16A6 JUMP JUMPDEST PUSH2 0xC7F PUSH2 0xBD0 PUSH2 0xC82 JUMP JUMPDEST DUP3 PUSH20 0xFFFFFFFFFFFFFFFFFFFFFFFFFFFFFFFFFFFFFFFF AND PUSH4 0x70A08231 ADDRESS PUSH1 0x40 MLOAD DUP3 PUSH4 0xFFFFFFFF AND PUSH1 0xE0 SHL DUP2 MSTORE PUSH1 0x4 ADD PUSH2 0xC09 SWAP2 SWAP1 PUSH2 0x2641 JUMP JUMPDEST PUSH1 0x20 PUSH1 0x40 MLOAD DUP1 DUP4 SUB DUP2 DUP7 DUP1 EXTCODESIZE ISZERO DUP1 ISZERO PUSH2 0xC21 JUMPI PUSH1 0x0 DUP1 REVERT JUMPDEST POP GAS STATICCALL ISZERO DUP1 ISZERO PUSH2 0xC35 JUMPI RETURNDATASIZE PUSH1 0x0 DUP1 RETURNDATACOPY RETURNDATASIZE PUSH1 0x0 REVERT JUMPDEST POP POP POP POP PUSH1 0x40 MLOAD RETURNDATASIZE PUSH1 0x1F NOT PUSH1 0x1F DUP3 ADD AND DUP3 ADD DUP1 PUSH1 0x40 MSTORE POP DUP2 ADD SWAP1 PUSH2 0xC59 SWAP2 SWAP1 PUSH2 0x2214 JUMP JUMPDEST DUP4 PUSH20 0xFFFFFFFFFFFFFFFFFFFFFFFFFFFFFFFFFFFFFFFF AND PUSH2 0x186A SWAP1 SWAP3 SWAP2 SWAP1 PUSH4 0xFFFFFFFF AND JUMP JUMPDEST POP JUMP JUMPDEST PUSH1 0x0 DUP1 PUSH1 0x0 SWAP1 SLOAD SWAP1 PUSH2 0x100 EXP SWAP1 DIV PUSH20 0xFFFFFFFFFFFFFFFFFFFFFFFFFFFFFFFFFFFFFFFF AND SWAP1 POP SWAP1 JUMP JUMPDEST PUSH1 0x3 PUSH1 0x20 MSTORE DUP1 PUSH1 0x0 MSTORE PUSH1 0x40 PUSH1 0x0 KECCAK256 PUSH1 0x0 SWAP2 POP SWAP1 POP DUP1 PUSH1 0x0 ADD PUSH1 0x0 SWAP1 SLOAD SWAP1 PUSH2 0x100 EXP SWAP1 DIV PUSH1 0xFF AND SWAP1 DUP1 PUSH1 0x0 ADD PUSH1 0x1 SWAP1 SLOAD SWAP1 PUSH2 0x100 EXP SWAP1 DIV PUSH1 0xFF AND SWAP1 DUP1 PUSH1 0x1 ADD SLOAD SWAP1 POP DUP4 JUMP JUMPDEST PUSH2 0xCF7 PUSH2 0x16A6 JUMP JUMPDEST DUP1 PUSH1 0x7 PUSH1 0x0 PUSH2 0x100 EXP DUP2 SLOAD DUP2 PUSH4 0xFFFFFFFF MUL NOT AND SWAP1 DUP4 PUSH4 0xFFFFFFFF AND MUL OR SWAP1 SSTORE POP POP JUMP JUMPDEST PUSH1 0x0 PUSH1 0xB SLOAD SELFBALANCE PUSH2 0xD2B SWAP2 SWAP1 PUSH2 0x2C10 JUMP JUMPDEST SWAP1 POP SWAP1 JUMP JUMPDEST PUSH2 0xD38 PUSH2 0x16A6 JUMP JUMPDEST DUP1 PUSH1 0x8 DUP2 SWAP1 SSTORE POP POP JUMP JUMPDEST PUSH1 0x0 SELFBALANCE SWAP1 POP SWAP1 JUMP JUMPDEST PUSH1 0x0 PUSH1 0xE DUP1 SLOAD SWAP1 POP SWAP1 POP SWAP1 JUMP JUMPDEST PUSH2 0xD5F PUSH2 0x16A6 JUMP JUMPDEST PUSH1 0xC SLOAD SELFBALANCE PUSH2 0xD6D SWAP2 SWAP1 PUSH2 0x2D2F JUMP JUMPDEST DUP2 GT ISZERO PUSH2 0xDAF JUMPI PUSH1 0x40 MLOAD PUSH32 0x8C379A000000000000000000000000000000000000000000000000000000000 DUP2 MSTORE PUSH1 0x4 ADD PUSH2 0xDA6 SWAP1 PUSH2 0x2873 JUMP JUMPDEST PUSH1 0x40 MLOAD DUP1 SWAP2 SUB SWAP1 REVERT JUMPDEST DUP2 PUSH20 0xFFFFFFFFFFFFFFFFFFFFFFFFFFFFFFFFFFFFFFFF AND PUSH2 0x8FC DUP3 SWAP1 DUP2 ISZERO MUL SWAP1 PUSH1 0x40 MLOAD PUSH1 0x0 PUSH1 0x40 MLOAD DUP1 DUP4 SUB DUP2 DUP6 DUP9 DUP9 CALL SWAP4 POP POP POP POP ISZERO DUP1 ISZERO PUSH2 0xDF5 JUMPI RETURNDATASIZE PUSH1 0x0 DUP1 RETURNDATACOPY RETURNDATASIZE PUSH1 0x0 REVERT JUMPDEST POP POP POP JUMP JUMPDEST PUSH1 0xA SLOAD DUP2 JUMP JUMPDEST PUSH1 0x0 DUP1 PUSH1 0x60 PUSH1 0x3 PUSH1 0x0 DUP6 DUP2 MSTORE PUSH1 0x20 ADD SWAP1 DUP2 MSTORE PUSH1 0x20 ADD PUSH1 0x0 KECCAK256 PUSH1 0x0 ADD PUSH1 0x1 SWAP1 SLOAD SWAP1 PUSH2 0x100 EXP SWAP1 DIV PUSH1 0xFF AND PUSH2 0xE68 JUMPI PUSH1 0x40 MLOAD PUSH32 0x8C379A000000000000000000000000000000000000000000000000000000000 DUP2 MSTORE PUSH1 0x4 ADD PUSH2 0xE5F SWAP1 PUSH2 0x27B3 JUMP JUMPDEST PUSH1 0x40 MLOAD DUP1 SWAP2 SUB SWAP1 REVERT JUMPDEST PUSH1 0x0 PUSH1 0x3 PUSH1 0x0 DUP7 DUP2 MSTORE PUSH1 0x20 ADD SWAP1 DUP2 MSTORE PUSH1 0x20 ADD PUSH1 0x0 KECCAK256 PUSH1 0x40 MLOAD DUP1 PUSH1 0x80 ADD PUSH1 0x40 MSTORE SWAP1 DUP2 PUSH1 0x0 DUP3 ADD PUSH1 0x0 SWAP1 SLOAD SWAP1 PUSH2 0x100 EXP SWAP1 DIV PUSH1 0xFF AND ISZERO ISZERO ISZERO ISZERO DUP2 MSTORE PUSH1 0x20 ADD PUSH1 0x0 DUP3 ADD PUSH1 0x1 SWAP1 SLOAD SWAP1 PUSH2 0x100 EXP SWAP1 DIV PUSH1 0xFF AND ISZERO ISZERO ISZERO ISZERO DUP2 MSTORE PUSH1 0x20 ADD PUSH1 0x1 DUP3 ADD SLOAD DUP2 MSTORE PUSH1 0x20 ADD PUSH1 0x2 DUP3 ADD DUP1 SLOAD DUP1 PUSH1 0x20 MUL PUSH1 0x20 ADD PUSH1 0x40 MLOAD SWAP1 DUP2 ADD PUSH1 0x40 MSTORE DUP1 SWAP3 SWAP2 SWAP1 DUP2 DUP2 MSTORE PUSH1 0x20 ADD DUP3 DUP1 SLOAD DUP1 ISZERO PUSH2 0xF17 JUMPI PUSH1 0x20 MUL DUP3 ADD SWAP2 SWAP1 PUSH1 0x0 MSTORE PUSH1 0x20 PUSH1 0x0 KECCAK256 SWAP1 JUMPDEST DUP2 SLOAD DUP2 MSTORE PUSH1 0x20 ADD SWAP1 PUSH1 0x1 ADD SWAP1 DUP1 DUP4 GT PUSH2 0xF03 JUMPI JUMPDEST POP POP POP POP POP DUP2 MSTORE POP POP SWAP1 POP DUP1 PUSH1 0x0 ADD MLOAD DUP2 PUSH1 0x40 ADD MLOAD DUP3 PUSH1 0x60 ADD MLOAD SWAP4 POP SWAP4 POP SWAP4 POP POP SWAP2 SWAP4 SWAP1 SWAP3 POP JUMP JUMPDEST PUSH1 0xC SLOAD DUP2 JUMP JUMPDEST PUSH1 0x0 PUSH2 0xF4F PUSH2 0x16A6 JUMP JUMPDEST PUSH1 0x4 PUSH1 0x0 SWAP1 SLOAD SWAP1 PUSH2 0x100 EXP SWAP1 DIV PUSH20 0xFFFFFFFFFFFFFFFFFFFFFFFFFFFFFFFFFFFFFFFF AND PUSH20 0xFFFFFFFFFFFFFFFFFFFFFFFFFFFFFFFFFFFFFFFF AND PUSH4 0x5D3B1D30 PUSH1 0x6 SLOAD PUSH1 0x4 PUSH1 0x14 SWAP1 SLOAD SWAP1 PUSH2 0x100 EXP SWAP1 DIV PUSH8 0xFFFFFFFFFFFFFFFF AND PUSH1 0x7 PUSH1 0x4 SWAP1 SLOAD SWAP1 PUSH2 0x100 EXP SWAP1 DIV PUSH2 0xFFFF AND PUSH1 0x7 PUSH1 0x0 SWAP1 SLOAD SWAP1 PUSH2 0x100 EXP SWAP1 DIV PUSH4 0xFFFFFFFF AND PUSH1 0x7 PUSH1 0x6 SWAP1 SLOAD SWAP1 PUSH2 0x100 EXP SWAP1 DIV PUSH4 0xFFFFFFFF AND PUSH1 0x40 MLOAD DUP7 PUSH4 0xFFFFFFFF AND PUSH1 0xE0 SHL DUP2 MSTORE PUSH1 0x4 ADD PUSH2 0xFFE SWAP6 SWAP5 SWAP4 SWAP3 SWAP2 SWAP1 PUSH2 0x2723 JUMP JUMPDEST PUSH1 0x20 PUSH1 0x40 MLOAD DUP1 DUP4 SUB DUP2 PUSH1 0x0 DUP8 DUP1 EXTCODESIZE ISZERO DUP1 ISZERO PUSH2 0x1018 JUMPI PUSH1 0x0 DUP1 REVERT JUMPDEST POP GAS CALL ISZERO DUP1 ISZERO PUSH2 0x102C JUMPI RETURNDATASIZE PUSH1 0x0 DUP1 RETURNDATACOPY RETURNDATASIZE PUSH1 0x0 REVERT JUMPDEST POP POP POP POP PUSH1 0x40 MLOAD RETURNDATASIZE PUSH1 0x1F NOT PUSH1 0x1F DUP3 ADD AND DUP3 ADD DUP1 PUSH1 0x40 MSTORE POP DUP2 ADD SWAP1 PUSH2 0x1050 SWAP2 SWAP1 PUSH2 0x2214 JUMP JUMPDEST SWAP1 POP PUSH1 0x40 MLOAD DUP1 PUSH1 0x80 ADD PUSH1 0x40 MSTORE DUP1 PUSH1 0x0 ISZERO ISZERO DUP2 MSTORE PUSH1 0x20 ADD PUSH1 0x1 ISZERO ISZERO DUP2 MSTORE PUSH1 0x20 ADD PUSH1 0x0 DUP2 MSTORE PUSH1 0x20 ADD PUSH1 0x0 PUSH8 0xFFFFFFFFFFFFFFFF DUP2 GT ISZERO PUSH2 0x1091 JUMPI PUSH2 0x1090 PUSH2 0x2F25 JUMP JUMPDEST JUMPDEST PUSH1 0x40 MLOAD SWAP1 DUP1 DUP3 MSTORE DUP1 PUSH1 0x20 MUL PUSH1 0x20 ADD DUP3 ADD PUSH1 0x40 MSTORE DUP1 ISZERO PUSH2 0x10BF JUMPI DUP2 PUSH1 0x20 ADD PUSH1 0x20 DUP3 MUL DUP1 CALLDATASIZE DUP4 CALLDATACOPY DUP1 DUP3 ADD SWAP2 POP POP SWAP1 POP JUMPDEST POP DUP2 MSTORE POP PUSH1 0x3 PUSH1 0x0 DUP4 DUP2 MSTORE PUSH1 0x20 ADD SWAP1 DUP2 MSTORE PUSH1 0x20 ADD PUSH1 0x0 KECCAK256 PUSH1 0x0 DUP3 ADD MLOAD DUP2 PUSH1 0x0 ADD PUSH1 0x0 PUSH2 0x100 EXP DUP2 SLOAD DUP2 PUSH1 0xFF MUL NOT AND SWAP1 DUP4 ISZERO ISZERO MUL OR SWAP1 SSTORE POP PUSH1 0x20 DUP3 ADD MLOAD DUP2 PUSH1 0x0 ADD PUSH1 0x1 PUSH2 0x100 EXP DUP2 SLOAD DUP2 PUSH1 0xFF MUL NOT AND SWAP1 DUP4 ISZERO ISZERO MUL OR SWAP1 SSTORE POP PUSH1 0x40 DUP3 ADD MLOAD DUP2 PUSH1 0x1 ADD SSTORE PUSH1 0x60 DUP3 ADD MLOAD DUP2 PUSH1 0x2 ADD SWAP1 DUP1 MLOAD SWAP1 PUSH1 0x20 ADD SWAP1 PUSH2 0x113C SWAP3 SWAP2 SWAP1 PUSH2 0x1FC7 JUMP JUMPDEST POP SWAP1 POP POP PUSH1 0x5 DUP2 SWAP1 DUP1 PUSH1 0x1 DUP2 SLOAD ADD DUP1 DUP3 SSTORE DUP1 SWAP2 POP POP PUSH1 0x1 SWAP1 SUB SWAP1 PUSH1 0x0 MSTORE PUSH1 0x20 PUSH1 0x0 KECCAK256 ADD PUSH1 0x0 SWAP1 SWAP2 SWAP1 SWAP2 SWAP1 SWAP2 POP SSTORE PUSH32 0xCC58B13AD3EAB50626C6A6300B1D139CD6EBB1688A7CCED9461C2F7E762665EE DUP2 PUSH1 0x7 PUSH1 0x6 SWAP1 SLOAD SWAP1 PUSH2 0x100 EXP SWAP1 DIV PUSH4 0xFFFFFFFF AND PUSH1 0x40 MLOAD PUSH2 0x11AC SWAP3 SWAP2 SWAP1 PUSH2 0x2A26 JUMP JUMPDEST PUSH1 0x40 MLOAD DUP1 SWAP2 SUB SWAP1 LOG1 SWAP1 JUMP JUMPDEST PUSH2 0x11BF PUSH2 0x18F0 JUMP JUMPDEST PUSH1 0x0 PUSH1 0xE DUP3 DUP2 SLOAD DUP2 LT PUSH2 0x11D5 JUMPI PUSH2 0x11D4 PUSH2 0x2EF6 JUMP JUMPDEST JUMPDEST SWAP1 PUSH1 0x0 MSTORE PUSH1 0x20 PUSH1 0x0 KECCAK256 SWAP1 PUSH1 0x5 MUL ADD SWAP1 POP PUSH1 0x0 DUP2 PUSH1 0x0 ADD SLOAD SWAP1 POP PUSH1 0x0 DUP2 GT PUSH2 0x1231 JUMPI PUSH1 0x40 MLOAD PUSH32 0x8C379A000000000000000000000000000000000000000000000000000000000 DUP2 MSTORE PUSH1 0x4 ADD PUSH2 0x1228 SWAP1 PUSH2 0x27F3 JUMP JUMPDEST PUSH1 0x40 MLOAD DUP1 SWAP2 SUB SWAP1 REVERT JUMPDEST PUSH1 0x0 ISZERO ISZERO DUP3 PUSH1 0x2 ADD PUSH1 0x14 SWAP1 SLOAD SWAP1 PUSH2 0x100 EXP SWAP1 DIV PUSH1 0xFF AND ISZERO ISZERO EQ PUSH2 0x1289 JUMPI PUSH1 0x40 MLOAD PUSH32 0x8C379A000000000000000000000000000000000000000000000000000000000 DUP2 MSTORE PUSH1 0x4 ADD PUSH2 0x1280 SWAP1 PUSH2 0x28B3 JUMP JUMPDEST PUSH1 0x40 MLOAD DUP1 SWAP2 SUB SWAP1 REVERT JUMPDEST PUSH1 0xD SLOAD DUP3 PUSH1 0x1 ADD SLOAD PUSH2 0x129B SWAP2 SWAP1 PUSH2 0x2BBA JUMP JUMPDEST NUMBER GT PUSH2 0x12DC JUMPI PUSH1 0x40 MLOAD PUSH32 0x8C379A000000000000000000000000000000000000000000000000000000000 DUP2 MSTORE PUSH1 0x4 ADD PUSH2 0x12D3 SWAP1 PUSH2 0x2893 JUMP JUMPDEST PUSH1 0x40 MLOAD DUP1 SWAP2 SUB SWAP1 REVERT JUMPDEST PUSH1 0x0 PUSH2 0x12E7 DUP3 PUSH2 0x193E JUMP JUMPDEST SWAP1 POP DUP1 PUSH1 0xC PUSH1 0x0 DUP3 DUP3 SLOAD PUSH2 0x12FB SWAP2 SWAP1 PUSH2 0x2D2F JUMP JUMPDEST SWAP3 POP POP DUP2 SWAP1 SSTORE POP PUSH1 0x1 DUP4 PUSH1 0x2 ADD PUSH1 0x14 PUSH2 0x100 EXP DUP2 SLOAD DUP2 PUSH1 0xFF MUL NOT AND SWAP1 DUP4 ISZERO ISZERO MUL OR SWAP1 SSTORE POP DUP2 DUP4 PUSH1 0x4 ADD DUP2 SWAP1 SSTORE POP DUP3 PUSH1 0x2 ADD PUSH1 0x0 SWAP1 SLOAD SWAP1 PUSH2 0x100 EXP SWAP1 DIV PUSH20 0xFFFFFFFFFFFFFFFFFFFFFFFFFFFFFFFFFFFFFFFF AND PUSH20 0xFFFFFFFFFFFFFFFFFFFFFFFFFFFFFFFFFFFFFFFF AND PUSH2 0x8FC DUP4 SWAP1 DUP2 ISZERO MUL SWAP1 PUSH1 0x40 MLOAD PUSH1 0x0 PUSH1 0x40 MLOAD DUP1 DUP4 SUB DUP2 DUP6 DUP9 DUP9 CALL SWAP4 POP POP POP POP ISZERO DUP1 ISZERO PUSH2 0x1392 JUMPI RETURNDATASIZE PUSH1 0x0 DUP1 RETURNDATACOPY RETURNDATASIZE PUSH1 0x0 REVERT JUMPDEST POP DUP3 PUSH1 0x2 ADD PUSH1 0x0 SWAP1 SLOAD SWAP1 PUSH2 0x100 EXP SWAP1 DIV PUSH20 0xFFFFFFFFFFFFFFFFFFFFFFFFFFFFFFFFFFFFFFFF AND PUSH20 0xFFFFFFFFFFFFFFFFFFFFFFFFFFFFFFFFFFFFFFFF AND DUP5 PUSH32 0xF22517A5EAE9F54BE712C3150ECA5BA925D233687B223C2EBF89272F12EE0865 DUP5 PUSH1 0x40 MLOAD PUSH2 0x13FE SWAP2 SWAP1 PUSH2 0x2973 JUMP JUMPDEST PUSH1 0x40 MLOAD DUP1 SWAP2 SUB SWAP1 LOG3 POP POP POP PUSH2 0x1411 PUSH2 0x1966 JUMP JUMPDEST POP JUMP JUMPDEST PUSH2 0x141C PUSH2 0x16A6 JUMP JUMPDEST PUSH2 0x1425 DUP2 PUSH2 0x1970 JUMP JUMPDEST POP JUMP JUMPDEST PUSH2 0x1430 PUSH2 0x16A6 JUMP JUMPDEST DUP1 PUSH1 0xD DUP2 SWAP1 SSTORE POP POP JUMP JUMPDEST PUSH2 0x1442 PUSH2 0x18F0 JUMP JUMPDEST PUSH1 0x0 CALLVALUE SWAP1 POP PUSH1 0x0 PUSH2 0x1452 DUP3 PUSH2 0x193E JUMP JUMPDEST SWAP1 POP PUSH2 0x145C PUSH2 0xD1B JUMP JUMPDEST DUP3 PUSH2 0x1467 SWAP2 SWAP1 PUSH2 0x2BBA JUMP JUMPDEST DUP2 GT ISZERO PUSH2 0x14A9 JUMPI PUSH1 0x40 MLOAD PUSH32 0x8C379A000000000000000000000000000000000000000000000000000000000 DUP2 MSTORE PUSH1 0x4 ADD PUSH2 0x14A0 SWAP1 PUSH2 0x28D3 JUMP JUMPDEST PUSH1 0x40 MLOAD DUP1 SWAP2 SUB SWAP1 REVERT JUMPDEST SELFBALANCE DUP2 PUSH1 0xC SLOAD PUSH2 0x14B8 SWAP2 SWAP1 PUSH2 0x2BBA JUMP JUMPDEST GT ISZERO PUSH2 0x14F9 JUMPI PUSH1 0x40 MLOAD PUSH32 0x8C379A000000000000000000000000000000000000000000000000000000000 DUP2 MSTORE PUSH1 0x4 ADD PUSH2 0x14F0 SWAP1 PUSH2 0x2853 JUMP JUMPDEST PUSH1 0x40 MLOAD DUP1 SWAP2 SUB SWAP1 REVERT JUMPDEST DUP1 PUSH1 0xC PUSH1 0x0 DUP3 DUP3 SLOAD PUSH2 0x150B SWAP2 SWAP1 PUSH2 0x2BBA JUMP JUMPDEST SWAP3 POP POP DUP2 SWAP1 SSTORE POP PUSH1 0x0 PUSH2 0x151C PUSH2 0xF45 JUMP JUMPDEST SWAP1 POP PUSH1 0xE DUP1 SLOAD SWAP1 POP PUSH1 0xF PUSH1 0x0 DUP4 DUP2 MSTORE PUSH1 0x20 ADD SWAP1 DUP2 MSTORE PUSH1 0x20 ADD PUSH1 0x0 KECCAK256 DUP2 SWAP1 SSTORE POP CALLER PUSH20 0xFFFFFFFFFFFFFFFFFFFFFFFFFFFFFFFFFFFFFFFF AND PUSH1 0xE DUP1 SLOAD SWAP1 POP PUSH32 0x87B9DF6FA7123C2E6044C3A3A37B4B0662C188D7A58EF86EE55067C46E4613AD DUP6 PUSH1 0x40 MLOAD PUSH2 0x1587 SWAP2 SWAP1 PUSH2 0x2973 JUMP JUMPDEST PUSH1 0x40 MLOAD DUP1 SWAP2 SUB SWAP1 LOG3 PUSH1 0xE PUSH1 0x40 MLOAD DUP1 PUSH1 0xC0 ADD PUSH1 0x40 MSTORE DUP1 DUP6 DUP2 MSTORE PUSH1 0x20 ADD NUMBER DUP2 MSTORE PUSH1 0x20 ADD CALLER PUSH20 0xFFFFFFFFFFFFFFFFFFFFFFFFFFFFFFFFFFFFFFFF AND DUP2 MSTORE PUSH1 0x20 ADD PUSH1 0x0 ISZERO ISZERO DUP2 MSTORE PUSH1 0x20 ADD PUSH1 0x0 DUP2 MSTORE PUSH1 0x20 ADD PUSH1 0x0 DUP2 MSTORE POP SWAP1 DUP1 PUSH1 0x1 DUP2 SLOAD ADD DUP1 DUP3 SSTORE DUP1 SWAP2 POP POP PUSH1 0x1 SWAP1 SUB SWAP1 PUSH1 0x0 MSTORE PUSH1 0x20 PUSH1 0x0 KECCAK256 SWAP1 PUSH1 0x5 MUL ADD PUSH1 0x0 SWAP1 SWAP2 SWAP1 SWAP2 SWAP1 SWAP2 POP PUSH1 0x0 DUP3 ADD MLOAD DUP2 PUSH1 0x0 ADD SSTORE PUSH1 0x20 DUP3 ADD MLOAD DUP2 PUSH1 0x1 ADD SSTORE PUSH1 0x40 DUP3 ADD MLOAD DUP2 PUSH1 0x2 ADD PUSH1 0x0 PUSH2 0x100 EXP DUP2 SLOAD DUP2 PUSH20 0xFFFFFFFFFFFFFFFFFFFFFFFFFFFFFFFFFFFFFFFF MUL NOT AND SWAP1 DUP4 PUSH20 0xFFFFFFFFFFFFFFFFFFFFFFFFFFFFFFFFFFFFFFFF AND MUL OR SWAP1 SSTORE POP PUSH1 0x60 DUP3 ADD MLOAD DUP2 PUSH1 0x2 ADD PUSH1 0x14 PUSH2 0x100 EXP DUP2 SLOAD DUP2 PUSH1 0xFF MUL NOT AND SWAP1 DUP4 ISZERO ISZERO MUL OR SWAP1 SSTORE POP PUSH1 0x80 DUP3 ADD MLOAD DUP2 PUSH1 0x3 ADD SSTORE PUSH1 0xA0 DUP3 ADD MLOAD DUP2 PUSH1 0x4 ADD SSTORE POP POP POP POP POP PUSH2 0x169E PUSH2 0x1966 JUMP JUMPDEST JUMP JUMPDEST PUSH1 0x9 SLOAD DUP2 JUMP JUMPDEST PUSH1 0x0 DUP1 SLOAD SWAP1 PUSH2 0x100 EXP SWAP1 DIV PUSH20 0xFFFFFFFFFFFFFFFFFFFFFFFFFFFFFFFFFFFFFFFF AND PUSH20 0xFFFFFFFFFFFFFFFFFFFFFFFFFFFFFFFFFFFFFFFF AND CALLER PUSH20 0xFFFFFFFFFFFFFFFFFFFFFFFFFFFFFFFFFFFFFFFF AND EQ PUSH2 0x1734 JUMPI PUSH1 0x40 MLOAD PUSH32 0x8C379A000000000000000000000000000000000000000000000000000000000 DUP2 MSTORE PUSH1 0x4 ADD PUSH2 0x172B SWAP1 PUSH2 0x2813 JUMP JUMPDEST PUSH1 0x40 MLOAD DUP1 SWAP2 SUB SWAP1 REVERT JUMPDEST JUMP JUMPDEST PUSH1 0x3 PUSH1 0x0 DUP4 DUP2 MSTORE PUSH1 0x20 ADD SWAP1 DUP2 MSTORE PUSH1 0x20 ADD PUSH1 0x0 KECCAK256 PUSH1 0x0 ADD PUSH1 0x1 SWAP1 SLOAD SWAP1 PUSH2 0x100 EXP SWAP1 DIV PUSH1 0xFF AND PUSH2 0x1799 JUMPI PUSH1 0x40 MLOAD PUSH32 0x8C379A000000000000000000000000000000000000000000000000000000000 DUP2 MSTORE PUSH1 0x4 ADD PUSH2 0x1790 SWAP1 PUSH2 0x27B3 JUMP JUMPDEST PUSH1 0x40 MLOAD DUP1 SWAP2 SUB SWAP1 REVERT JUMPDEST DUP1 PUSH1 0x3 PUSH1 0x0 DUP5 DUP2 MSTORE PUSH1 0x20 ADD SWAP1 DUP2 MSTORE PUSH1 0x20 ADD PUSH1 0x0 KECCAK256 PUSH1 0x2 ADD SWAP1 DUP1 MLOAD SWAP1 PUSH1 0x20 ADD SWAP1 PUSH2 0x17C3 SWAP3 SWAP2 SWAP1 PUSH2 0x1FC7 JUMP JUMPDEST POP PUSH1 0x1 PUSH1 0x3 PUSH1 0x0 DUP5 DUP2 MSTORE PUSH1 0x20 ADD SWAP1 DUP2 MSTORE PUSH1 0x20 ADD PUSH1 0x0 KECCAK256 PUSH1 0x0 ADD PUSH1 0x0 PUSH2 0x100 EXP DUP2 SLOAD DUP2 PUSH1 0xFF MUL NOT AND SWAP1 DUP4 ISZERO ISZERO MUL OR SWAP1 SSTORE POP PUSH1 0x1 PUSH1 0x2 DUP3 PUSH1 0x0 DUP2 MLOAD DUP2 LT PUSH2 0x180B JUMPI PUSH2 0x180A PUSH2 0x2EF6 JUMP JUMPDEST JUMPDEST PUSH1 0x20 MUL PUSH1 0x20 ADD ADD MLOAD PUSH2 0x181D SWAP2 SWAP1 PUSH2 0x2E67 JUMP JUMPDEST PUSH2 0x1827 SWAP2 SWAP1 PUSH2 0x2BBA JUMP JUMPDEST PUSH1 0x3 PUSH1 0x0 DUP5 DUP2 MSTORE PUSH1 0x20 ADD SWAP1 DUP2 MSTORE PUSH1 0x20 ADD PUSH1 0x0 KECCAK256 PUSH1 0x1 ADD DUP2 SWAP1 SSTORE POP PUSH2 0x1866 DUP3 DUP3 PUSH1 0x0 DUP2 MLOAD DUP2 LT PUSH2 0x1859 JUMPI PUSH2 0x1858 PUSH2 0x2EF6 JUMP JUMPDEST JUMPDEST PUSH1 0x20 MUL PUSH1 0x20 ADD ADD MLOAD PUSH2 0x1A9D JUMP JUMPDEST POP POP JUMP JUMPDEST PUSH2 0x18EB DUP4 PUSH4 0xA9059CBB PUSH1 0xE0 SHL DUP5 DUP5 PUSH1 0x40 MLOAD PUSH1 0x24 ADD PUSH2 0x1889 SWAP3 SWAP2 SWAP1 PUSH2 0x2685 JUMP JUMPDEST PUSH1 0x40 MLOAD PUSH1 0x20 DUP2 DUP4 SUB SUB DUP2 MSTORE SWAP1 PUSH1 0x40 MSTORE SWAP1 PUSH28 0xFFFFFFFFFFFFFFFFFFFFFFFFFFFFFFFFFFFFFFFFFFFFFFFFFFFFFFFF NOT AND PUSH1 0x20 DUP3 ADD DUP1 MLOAD PUSH28 0xFFFFFFFFFFFFFFFFFFFFFFFFFFFFFFFFFFFFFFFFFFFFFFFFFFFFFFFF DUP4 DUP2 DUP4 AND OR DUP4 MSTORE POP POP POP POP PUSH2 0x1D32 JUMP JUMPDEST POP POP POP JUMP JUMPDEST PUSH1 0x2 DUP1 SLOAD EQ ISZERO PUSH2 0x1935 JUMPI PUSH1 0x40 MLOAD PUSH32 0x8C379A000000000000000000000000000000000000000000000000000000000 DUP2 MSTORE PUSH1 0x4 ADD PUSH2 0x192C SWAP1 PUSH2 0x2953 JUMP JUMPDEST PUSH1 0x40 MLOAD DUP1 SWAP2 SUB SWAP1 REVERT JUMPDEST PUSH1 0x2 DUP1 DUP2 SWAP1 SSTORE POP JUMP JUMPDEST PUSH1 0x0 DUP1 PUSH1 0x64 PUSH1 0x8 SLOAD DUP5 PUSH2 0x1951 SWAP2 SWAP1 PUSH2 0x2C41 JUMP JUMPDEST PUSH2 0x195B SWAP2 SWAP1 PUSH2 0x2C10 JUMP JUMPDEST SWAP1 POP DUP1 SWAP2 POP POP SWAP2 SWAP1 POP JUMP JUMPDEST PUSH1 0x1 PUSH1 0x2 DUP2 SWAP1 SSTORE POP JUMP JUMPDEST CALLER PUSH20 0xFFFFFFFFFFFFFFFFFFFFFFFFFFFFFFFFFFFFFFFF AND DUP2 PUSH20 0xFFFFFFFFFFFFFFFFFFFFFFFFFFFFFFFFFFFFFFFF AND EQ ISZERO PUSH2 0x19DF JUMPI PUSH1 0x40 MLOAD PUSH32 0x8C379A000000000000000000000000000000000000000000000000000000000 DUP2 MSTORE PUSH1 0x4 ADD PUSH2 0x19D6 SWAP1 PUSH2 0x2913 JUMP JUMPDEST PUSH1 0x40 MLOAD DUP1 SWAP2 SUB SWAP1 REVERT JUMPDEST DUP1 PUSH1 0x1 PUSH1 0x0 PUSH2 0x100 EXP DUP2 SLOAD DUP2 PUSH20 0xFFFFFFFFFFFFFFFFFFFFFFFFFFFFFFFFFFFFFFFF MUL NOT AND SWAP1 DUP4 PUSH20 0xFFFFFFFFFFFFFFFFFFFFFFFFFFFFFFFFFFFFFFFF AND MUL OR SWAP1 SSTORE POP DUP1 PUSH20 0xFFFFFFFFFFFFFFFFFFFFFFFFFFFFFFFFFFFFFFFF AND PUSH1 0x0 DUP1 SLOAD SWAP1 PUSH2 0x100 EXP SWAP1 DIV PUSH20 0xFFFFFFFFFFFFFFFFFFFFFFFFFFFFFFFFFFFFFFFF AND PUSH20 0xFFFFFFFFFFFFFFFFFFFFFFFFFFFFFFFFFFFFFFFF AND PUSH32 0xED8889F560326EB138920D842192F0EB3DD22B4F139C87A2C57538E05BAE1278 PUSH1 0x40 MLOAD PUSH1 0x40 MLOAD DUP1 SWAP2 SUB SWAP1 LOG3 POP JUMP JUMPDEST PUSH2 0x1AA5 PUSH2 0x18F0 JUMP JUMPDEST PUSH1 0x0 PUSH1 0xF PUSH1 0x0 DUP5 DUP2 MSTORE PUSH1 0x20 ADD SWAP1 DUP2 MSTORE PUSH1 0x20 ADD PUSH1 0x0 KECCAK256 SLOAD SWAP1 POP PUSH1 0x0 PUSH1 0xE DUP3 DUP2 SLOAD DUP2 LT PUSH2 0x1AD3 JUMPI PUSH2 0x1AD2 PUSH2 0x2EF6 JUMP JUMPDEST JUMPDEST SWAP1 PUSH1 0x0 MSTORE PUSH1 0x20 PUSH1 0x0 KECCAK256 SWAP1 PUSH1 0x5 MUL ADD SWAP1 POP PUSH1 0x0 DUP2 PUSH1 0x0 ADD SLOAD SWAP1 POP PUSH1 0x0 DUP2 GT PUSH2 0x1B2F JUMPI PUSH1 0x40 MLOAD PUSH32 0x8C379A000000000000000000000000000000000000000000000000000000000 DUP2 MSTORE PUSH1 0x4 ADD PUSH2 0x1B26 SWAP1 PUSH2 0x27F3 JUMP JUMPDEST PUSH1 0x40 MLOAD DUP1 SWAP2 SUB SWAP1 REVERT JUMPDEST PUSH1 0x0 ISZERO ISZERO DUP3 PUSH1 0x2 ADD PUSH1 0x14 SWAP1 SLOAD SWAP1 PUSH2 0x100 EXP SWAP1 DIV PUSH1 0xFF AND ISZERO ISZERO EQ PUSH2 0x1B87 JUMPI PUSH1 0x40 MLOAD PUSH32 0x8C379A000000000000000000000000000000000000000000000000000000000 DUP2 MSTORE PUSH1 0x4 ADD PUSH2 0x1B7E SWAP1 PUSH2 0x28B3 JUMP JUMPDEST PUSH1 0x40 MLOAD DUP1 SWAP2 SUB SWAP1 REVERT JUMPDEST PUSH1 0x0 DUP3 PUSH1 0x2 ADD PUSH1 0x0 SWAP1 SLOAD SWAP1 PUSH2 0x100 EXP SWAP1 DIV PUSH20 0xFFFFFFFFFFFFFFFFFFFFFFFFFFFFFFFFFFFFFFFF AND SWAP1 POP PUSH1 0x0 PUSH1 0x1 PUSH1 0x2 DUP8 PUSH2 0x1BC1 SWAP2 SWAP1 PUSH2 0x2E67 JUMP JUMPDEST PUSH2 0x1BCB SWAP2 SWAP1 PUSH2 0x2BBA JUMP JUMPDEST SWAP1 POP PUSH1 0x0 PUSH2 0x1BD8 DUP5 PUSH2 0x193E JUMP JUMPDEST SWAP1 POP PUSH1 0x0 PUSH1 0x1 DUP4 EQ ISZERO PUSH2 0x1BED JUMPI DUP2 SWAP1 POP PUSH2 0x1BEE JUMP JUMPDEST JUMPDEST DUP2 SWAP1 POP DUP2 PUSH1 0xC PUSH1 0x0 DUP3 DUP3 SLOAD PUSH2 0x1C03 SWAP2 SWAP1 PUSH2 0x2D2F JUMP JUMPDEST SWAP3 POP POP DUP2 SWAP1 SSTORE POP PUSH1 0x1 DUP7 PUSH1 0x2 ADD PUSH1 0x14 PUSH2 0x100 EXP DUP2 SLOAD DUP2 PUSH1 0xFF MUL NOT AND SWAP1 DUP4 ISZERO ISZERO MUL OR SWAP1 SSTORE POP DUP1 DUP7 PUSH1 0x4 ADD DUP2 SWAP1 SSTORE POP DUP3 DUP7 PUSH1 0x3 ADD DUP2 SWAP1 SSTORE POP PUSH1 0x0 DUP2 GT ISZERO PUSH2 0x1CB2 JUMPI DUP5 DUP2 PUSH2 0x1C4E SWAP2 SWAP1 PUSH2 0x2D2F JUMP JUMPDEST PUSH1 0x10 PUSH1 0x0 DUP3 DUP3 SLOAD PUSH2 0x1C5F SWAP2 SWAP1 PUSH2 0x2C9B JUMP JUMPDEST SWAP3 POP POP DUP2 SWAP1 SSTORE POP DUP4 PUSH20 0xFFFFFFFFFFFFFFFFFFFFFFFFFFFFFFFFFFFFFFFF AND PUSH2 0x8FC DUP3 SWAP1 DUP2 ISZERO MUL SWAP1 PUSH1 0x40 MLOAD PUSH1 0x0 PUSH1 0x40 MLOAD DUP1 DUP4 SUB DUP2 DUP6 DUP9 DUP9 CALL SWAP4 POP POP POP POP ISZERO DUP1 ISZERO PUSH2 0x1CAC JUMPI RETURNDATASIZE PUSH1 0x0 DUP1 RETURNDATACOPY RETURNDATASIZE PUSH1 0x0 REVERT JUMPDEST POP PUSH2 0x1CCC JUMP JUMPDEST DUP5 PUSH1 0x10 PUSH1 0x0 DUP3 DUP3 SLOAD PUSH2 0x1CC4 SWAP2 SWAP1 PUSH2 0x2B26 JUMP JUMPDEST SWAP3 POP POP DUP2 SWAP1 SSTORE POP JUMPDEST DUP4 PUSH20 0xFFFFFFFFFFFFFFFFFFFFFFFFFFFFFFFFFFFFFFFF AND DUP8 PUSH32 0xE6EBE32872AC4EFCC1A2941E37098F5291C49BEAD807C24CBA8ACBD32AF8E765 DUP8 DUP7 DUP6 PUSH1 0x40 MLOAD PUSH2 0x1D17 SWAP4 SWAP3 SWAP2 SWAP1 PUSH2 0x29EF JUMP JUMPDEST PUSH1 0x40 MLOAD DUP1 SWAP2 SUB SWAP1 LOG3 POP POP POP POP POP POP POP PUSH2 0x1D2E PUSH2 0x1966 JUMP JUMPDEST POP POP JUMP JUMPDEST PUSH1 0x0 PUSH2 0x1D94 DUP3 PUSH1 0x40 MLOAD DUP1 PUSH1 0x40 ADD PUSH1 0x40 MSTORE DUP1 PUSH1 0x20 DUP2 MSTORE PUSH1 0x20 ADD PUSH32 0x5361666545524332303A206C6F772D6C6576656C2063616C6C206661696C6564 DUP2 MSTORE POP DUP6 PUSH20 0xFFFFFFFFFFFFFFFFFFFFFFFFFFFFFFFFFFFFFFFF AND PUSH2 0x1DF9 SWAP1 SWAP3 SWAP2 SWAP1 PUSH4 0xFFFFFFFF AND JUMP JUMPDEST SWAP1 POP PUSH1 0x0 DUP2 MLOAD GT ISZERO PUSH2 0x1DF4 JUMPI DUP1 DUP1 PUSH1 0x20 ADD SWAP1 MLOAD DUP2 ADD SWAP1 PUSH2 0x1DB4 SWAP2 SWAP1 PUSH2 0x21BA JUMP JUMPDEST PUSH2 0x1DF3 JUMPI PUSH1 0x40 MLOAD PUSH32 0x8C379A000000000000000000000000000000000000000000000000000000000 DUP2 MSTORE PUSH1 0x4 ADD PUSH2 0x1DEA SWAP1 PUSH2 0x2933 JUMP JUMPDEST PUSH1 0x40 MLOAD DUP1 SWAP2 SUB SWAP1 REVERT JUMPDEST JUMPDEST POP POP POP JUMP JUMPDEST PUSH1 0x60 PUSH2 0x1E08 DUP5 DUP5 PUSH1 0x0 DUP6 PUSH2 0x1E11 JUMP JUMPDEST SWAP1 POP SWAP4 SWAP3 POP POP POP JUMP JUMPDEST PUSH1 0x60 DUP3 SELFBALANCE LT ISZERO PUSH2 0x1E56 JUMPI PUSH1 0x40 MLOAD PUSH32 0x8C379A000000000000000000000000000000000000000000000000000000000 DUP2 MSTORE PUSH1 0x4 ADD PUSH2 0x1E4D SWAP1 PUSH2 0x2833 JUMP JUMPDEST PUSH1 0x40 MLOAD DUP1 SWAP2 SUB SWAP1 REVERT JUMPDEST PUSH1 0x0 DUP1 DUP7 PUSH20 0xFFFFFFFFFFFFFFFFFFFFFFFFFFFFFFFFFFFFFFFF AND DUP6 DUP8 PUSH1 0x40 MLOAD PUSH2 0x1E7F SWAP2 SWAP1 PUSH2 0x262A JUMP JUMPDEST PUSH1 0x0 PUSH1 0x40 MLOAD DUP1 DUP4 SUB DUP2 DUP6 DUP8 GAS CALL SWAP3 POP POP POP RETURNDATASIZE DUP1 PUSH1 0x0 DUP2 EQ PUSH2 0x1EBC JUMPI PUSH1 0x40 MLOAD SWAP2 POP PUSH1 0x1F NOT PUSH1 0x3F RETURNDATASIZE ADD AND DUP3 ADD PUSH1 0x40 MSTORE RETURNDATASIZE DUP3 MSTORE RETURNDATASIZE PUSH1 0x0 PUSH1 0x20 DUP5 ADD RETURNDATACOPY PUSH2 0x1EC1 JUMP JUMPDEST PUSH1 0x60 SWAP2 POP JUMPDEST POP SWAP2 POP SWAP2 POP PUSH2 0x1ED2 DUP8 DUP4 DUP4 DUP8 PUSH2 0x1EDE JUMP JUMPDEST SWAP3 POP POP POP SWAP5 SWAP4 POP POP POP POP JUMP JUMPDEST PUSH1 0x60 DUP4 ISZERO PUSH2 0x1F41 JUMPI PUSH1 0x0 DUP4 MLOAD EQ ISZERO PUSH2 0x1F39 JUMPI PUSH2 0x1EF9 DUP6 PUSH2 0x1F54 JUMP JUMPDEST PUSH2 0x1F38 JUMPI PUSH1 0x40 MLOAD PUSH32 0x8C379A000000000000000000000000000000000000000000000000000000000 DUP2 MSTORE PUSH1 0x4 ADD PUSH2 0x1F2F SWAP1 PUSH2 0x28F3 JUMP JUMPDEST PUSH1 0x40 MLOAD DUP1 SWAP2 SUB SWAP1 REVERT JUMPDEST JUMPDEST DUP3 SWAP1 POP PUSH2 0x1F4C JUMP JUMPDEST PUSH2 0x1F4B DUP4 DUP4 PUSH2 0x1F77 JUMP JUMPDEST JUMPDEST SWAP5 SWAP4 POP POP POP POP JUMP JUMPDEST PUSH1 0x0 DUP1 DUP3 PUSH20 0xFFFFFFFFFFFFFFFFFFFFFFFFFFFFFFFFFFFFFFFF AND EXTCODESIZE GT SWAP1 POP SWAP2 SWAP1 POP JUMP JUMPDEST PUSH1 0x0 DUP3 MLOAD GT ISZERO PUSH2 0x1F8A JUMPI DUP2 MLOAD DUP1 DUP4 PUSH1 0x20 ADD REVERT JUMPDEST DUP1 PUSH1 0x40 MLOAD PUSH32 0x8C379A000000000000000000000000000000000000000000000000000000000 DUP2 MSTORE PUSH1 0x4 ADD PUSH2 0x1FBE SWAP2 SWAP1 PUSH2 0x2791 JUMP JUMPDEST PUSH1 0x40 MLOAD DUP1 SWAP2 SUB SWAP1 REVERT JUMPDEST DUP3 DUP1 SLOAD DUP3 DUP3 SSTORE SWAP1 PUSH1 0x0 MSTORE PUSH1 0x20 PUSH1 0x0 KECCAK256 SWAP1 DUP2 ADD SWAP3 DUP3 ISZERO PUSH2 0x2003 JUMPI SWAP2 PUSH1 0x20 MUL DUP3 ADD JUMPDEST DUP3 DUP2 GT ISZERO PUSH2 0x2002 JUMPI DUP3 MLOAD DUP3 SSTORE SWAP2 PUSH1 0x20 ADD SWAP2 SWAP1 PUSH1 0x1 ADD SWAP1 PUSH2 0x1FE7 JUMP JUMPDEST JUMPDEST POP SWAP1 POP PUSH2 0x2010 SWAP2 SWAP1 PUSH2 0x2014 JUMP JUMPDEST POP SWAP1 JUMP JUMPDEST JUMPDEST DUP1 DUP3 GT ISZERO PUSH2 0x202D JUMPI PUSH1 0x0 DUP2 PUSH1 0x0 SWAP1 SSTORE POP PUSH1 0x1 ADD PUSH2 0x2015 JUMP JUMPDEST POP SWAP1 JUMP JUMPDEST PUSH1 0x0 PUSH2 0x2044 PUSH2 0x203F DUP5 PUSH2 0x2A8F JUMP JUMPDEST PUSH2 0x2A6A JUMP JUMPDEST SWAP1 POP DUP1 DUP4 DUP3 MSTORE PUSH1 0x20 DUP3 ADD SWAP1 POP DUP3 DUP6 PUSH1 0x20 DUP7 MUL DUP3 ADD GT ISZERO PUSH2 0x2067 JUMPI PUSH2 0x2066 PUSH2 0x2F59 JUMP JUMPDEST JUMPDEST PUSH1 0x0 JUMPDEST DUP6 DUP2 LT ISZERO PUSH2 0x2097 JUMPI DUP2 PUSH2 0x207D DUP9 DUP3 PUSH2 0x210E JUMP JUMPDEST DUP5 MSTORE PUSH1 0x20 DUP5 ADD SWAP4 POP PUSH1 0x20 DUP4 ADD SWAP3 POP POP PUSH1 0x1 DUP2 ADD SWAP1 POP PUSH2 0x206A JUMP JUMPDEST POP POP POP SWAP4 SWAP3 POP POP POP JUMP JUMPDEST PUSH1 0x0 DUP2 CALLDATALOAD SWAP1 POP PUSH2 0x20B0 DUP2 PUSH2 0x3203 JUMP JUMPDEST SWAP3 SWAP2 POP POP JUMP JUMPDEST PUSH1 0x0 DUP2 CALLDATALOAD SWAP1 POP PUSH2 0x20C5 DUP2 PUSH2 0x321A JUMP JUMPDEST SWAP3 SWAP2 POP POP JUMP JUMPDEST PUSH1 0x0 DUP3 PUSH1 0x1F DUP4 ADD SLT PUSH2 0x20E0 JUMPI PUSH2 0x20DF PUSH2 0x2F54 JUMP JUMPDEST JUMPDEST DUP2 CALLDATALOAD PUSH2 0x20F0 DUP5 DUP3 PUSH1 0x20 DUP7 ADD PUSH2 0x2031 JUMP JUMPDEST SWAP2 POP POP SWAP3 SWAP2 POP POP JUMP JUMPDEST PUSH1 0x0 DUP2 MLOAD SWAP1 POP PUSH2 0x2108 DUP2 PUSH2 0x3231 JUMP JUMPDEST SWAP3 SWAP2 POP POP JUMP JUMPDEST PUSH1 0x0 DUP2 CALLDATALOAD SWAP1 POP PUSH2 0x211D DUP2 PUSH2 0x3248 JUMP JUMPDEST SWAP3 SWAP2 POP POP JUMP JUMPDEST PUSH1 0x0 DUP2 MLOAD SWAP1 POP PUSH2 0x2132 DUP2 PUSH2 0x3248 JUMP JUMPDEST SWAP3 SWAP2 POP POP JUMP JUMPDEST PUSH1 0x0 DUP2 CALLDATALOAD SWAP1 POP PUSH2 0x2147 DUP2 PUSH2 0x325F JUMP JUMPDEST SWAP3 SWAP2 POP POP JUMP JUMPDEST PUSH1 0x0 PUSH1 0x20 DUP3 DUP5 SUB SLT ISZERO PUSH2 0x2163 JUMPI PUSH2 0x2162 PUSH2 0x2F63 JUMP JUMPDEST JUMPDEST PUSH1 0x0 PUSH2 0x2171 DUP5 DUP3 DUP6 ADD PUSH2 0x20A1 JUMP JUMPDEST SWAP2 POP POP SWAP3 SWAP2 POP POP JUMP JUMPDEST PUSH1 0x0 DUP1 PUSH1 0x40 DUP4 DUP6 SUB SLT ISZERO PUSH2 0x2191 JUMPI PUSH2 0x2190 PUSH2 0x2F63 JUMP JUMPDEST JUMPDEST PUSH1 0x0 PUSH2 0x219F DUP6 DUP3 DUP7 ADD PUSH2 0x20B6 JUMP JUMPDEST SWAP3 POP POP PUSH1 0x20 PUSH2 0x21B0 DUP6 DUP3 DUP7 ADD PUSH2 0x210E JUMP JUMPDEST SWAP2 POP POP SWAP3 POP SWAP3 SWAP1 POP JUMP JUMPDEST PUSH1 0x0 PUSH1 0x20 DUP3 DUP5 SUB SLT ISZERO PUSH2 0x21D0 JUMPI PUSH2 0x21CF PUSH2 0x2F63 JUMP JUMPDEST JUMPDEST PUSH1 0x0 PUSH2 0x21DE DUP5 DUP3 DUP6 ADD PUSH2 0x20F9 JUMP JUMPDEST SWAP2 POP POP SWAP3 SWAP2 POP POP JUMP JUMPDEST PUSH1 0x0 PUSH1 0x20 DUP3 DUP5 SUB SLT ISZERO PUSH2 0x21FD JUMPI PUSH2 0x21FC PUSH2 0x2F63 JUMP JUMPDEST JUMPDEST PUSH1 0x0 PUSH2 0x220B DUP5 DUP3 DUP6 ADD PUSH2 0x210E JUMP JUMPDEST SWAP2 POP POP SWAP3 SWAP2 POP POP JUMP JUMPDEST PUSH1 0x0 PUSH1 0x20 DUP3 DUP5 SUB SLT ISZERO PUSH2 0x222A JUMPI PUSH2 0x2229 PUSH2 0x2F63 JUMP JUMPDEST JUMPDEST PUSH1 0x0 PUSH2 0x2238 DUP5 DUP3 DUP6 ADD PUSH2 0x2123 JUMP JUMPDEST SWAP2 POP POP SWAP3 SWAP2 POP POP JUMP JUMPDEST PUSH1 0x0 DUP1 PUSH1 0x40 DUP4 DUP6 SUB SLT ISZERO PUSH2 0x2258 JUMPI PUSH2 0x2257 PUSH2 0x2F63 JUMP JUMPDEST JUMPDEST PUSH1 0x0 PUSH2 0x2266 DUP6 DUP3 DUP7 ADD PUSH2 0x210E JUMP JUMPDEST SWAP3 POP POP PUSH1 0x20 DUP4 ADD CALLDATALOAD PUSH8 0xFFFFFFFFFFFFFFFF DUP2 GT ISZERO PUSH2 0x2287 JUMPI PUSH2 0x2286 PUSH2 0x2F5E JUMP JUMPDEST JUMPDEST PUSH2 0x2293 DUP6 DUP3 DUP7 ADD PUSH2 0x20CB JUMP JUMPDEST SWAP2 POP POP SWAP3 POP SWAP3 SWAP1 POP JUMP JUMPDEST PUSH1 0x0 PUSH1 0x20 DUP3 DUP5 SUB SLT ISZERO PUSH2 0x22B3 JUMPI PUSH2 0x22B2 PUSH2 0x2F63 JUMP JUMPDEST JUMPDEST PUSH1 0x0 PUSH2 0x22C1 DUP5 DUP3 DUP6 ADD PUSH2 0x2138 JUMP JUMPDEST SWAP2 POP POP SWAP3 SWAP2 POP POP JUMP JUMPDEST PUSH1 0x0 PUSH2 0x22D6 DUP4 DUP4 PUSH2 0x25EE JUMP JUMPDEST PUSH1 0x20 DUP4 ADD SWAP1 POP SWAP3 SWAP2 POP POP JUMP JUMPDEST PUSH2 0x22EB DUP2 PUSH2 0x2D75 JUMP JUMPDEST DUP3 MSTORE POP POP JUMP JUMPDEST PUSH2 0x22FA DUP2 PUSH2 0x2D63 JUMP JUMPDEST DUP3 MSTORE POP POP JUMP JUMPDEST PUSH1 0x0 PUSH2 0x230B DUP3 PUSH2 0x2ACB JUMP JUMPDEST PUSH2 0x2315 DUP2 DUP6 PUSH2 0x2AF9 JUMP JUMPDEST SWAP4 POP PUSH2 0x2320 DUP4 PUSH2 0x2ABB JUMP JUMPDEST DUP1 PUSH1 0x0 JUMPDEST DUP4 DUP2 LT ISZERO PUSH2 0x2351 JUMPI DUP2 MLOAD PUSH2 0x2338 DUP9 DUP3 PUSH2 0x22CA JUMP JUMPDEST SWAP8 POP PUSH2 0x2343 DUP4 PUSH2 0x2AEC JUMP JUMPDEST SWAP3 POP POP PUSH1 0x1 DUP2 ADD SWAP1 POP PUSH2 0x2324 JUMP JUMPDEST POP DUP6 SWAP4 POP POP POP POP SWAP3 SWAP2 POP POP JUMP JUMPDEST PUSH2 0x2367 DUP2 PUSH2 0x2D87 JUMP JUMPDEST DUP3 MSTORE POP POP JUMP JUMPDEST PUSH2 0x2376 DUP2 PUSH2 0x2D93 JUMP JUMPDEST DUP3 MSTORE POP POP JUMP JUMPDEST PUSH1 0x0 PUSH2 0x2387 DUP3 PUSH2 0x2AD6 JUMP JUMPDEST PUSH2 0x2391 DUP2 DUP6 PUSH2 0x2B0A JUMP JUMPDEST SWAP4 POP PUSH2 0x23A1 DUP2 DUP6 PUSH1 0x20 DUP7 ADD PUSH2 0x2E03 JUMP JUMPDEST DUP1 DUP5 ADD SWAP2 POP POP SWAP3 SWAP2 POP POP JUMP JUMPDEST PUSH2 0x23B6 DUP2 PUSH2 0x2D9D JUMP JUMPDEST DUP3 MSTORE POP POP JUMP JUMPDEST PUSH1 0x0 PUSH2 0x23C7 DUP3 PUSH2 0x2AE1 JUMP JUMPDEST PUSH2 0x23D1 DUP2 DUP6 PUSH2 0x2B15 JUMP JUMPDEST SWAP4 POP PUSH2 0x23E1 DUP2 DUP6 PUSH1 0x20 DUP7 ADD PUSH2 0x2E03 JUMP JUMPDEST PUSH2 0x23EA DUP2 PUSH2 0x2F68 JUMP JUMPDEST DUP5 ADD SWAP2 POP POP SWAP3 SWAP2 POP POP JUMP JUMPDEST PUSH1 0x0 PUSH2 0x2402 PUSH1 0x11 DUP4 PUSH2 0x2B15 JUMP JUMPDEST SWAP2 POP PUSH2 0x240D DUP3 PUSH2 0x2F79 JUMP JUMPDEST PUSH1 0x20 DUP3 ADD SWAP1 POP SWAP2 SWAP1 POP JUMP JUMPDEST PUSH1 0x0 PUSH2 0x2425 PUSH1 0x16 DUP4 PUSH2 0x2B15 JUMP JUMPDEST SWAP2 POP PUSH2 0x2430 DUP3 PUSH2 0x2FA2 JUMP JUMPDEST PUSH1 0x20 DUP3 ADD SWAP1 POP SWAP2 SWAP1 POP JUMP JUMPDEST PUSH1 0x0 PUSH2 0x2448 PUSH1 0x12 DUP4 PUSH2 0x2B15 JUMP JUMPDEST SWAP2 POP PUSH2 0x2453 DUP3 PUSH2 0x2FCB JUMP JUMPDEST PUSH1 0x20 DUP3 ADD SWAP1 POP SWAP2 SWAP1 POP JUMP JUMPDEST PUSH1 0x0 PUSH2 0x246B PUSH1 0x16 DUP4 PUSH2 0x2B15 JUMP JUMPDEST SWAP2 POP PUSH2 0x2476 DUP3 PUSH2 0x2FF4 JUMP JUMPDEST PUSH1 0x20 DUP3 ADD SWAP1 POP SWAP2 SWAP1 POP JUMP JUMPDEST PUSH1 0x0 PUSH2 0x248E PUSH1 0x26 DUP4 PUSH2 0x2B15 JUMP JUMPDEST SWAP2 POP PUSH2 0x2499 DUP3 PUSH2 0x301D JUMP JUMPDEST PUSH1 0x40 DUP3 ADD SWAP1 POP SWAP2 SWAP1 POP JUMP JUMPDEST PUSH1 0x0 PUSH2 0x24B1 PUSH1 0x12 DUP4 PUSH2 0x2B15 JUMP JUMPDEST SWAP2 POP PUSH2 0x24BC DUP3 PUSH2 0x306C JUMP JUMPDEST PUSH1 0x20 DUP3 ADD SWAP1 POP SWAP2 SWAP1 POP JUMP JUMPDEST PUSH1 0x0 PUSH2 0x24D4 PUSH1 0x18 DUP4 PUSH2 0x2B15 JUMP JUMPDEST SWAP2 POP PUSH2 0x24DF DUP3 PUSH2 0x3095 JUMP JUMPDEST PUSH1 0x20 DUP3 ADD SWAP1 POP SWAP2 SWAP1 POP JUMP JUMPDEST PUSH1 0x0 PUSH2 0x24F7 PUSH1 0x1D DUP4 PUSH2 0x2B15 JUMP JUMPDEST SWAP2 POP PUSH2 0x2502 DUP3 PUSH2 0x30BE JUMP JUMPDEST PUSH1 0x20 DUP3 ADD SWAP1 POP SWAP2 SWAP1 POP JUMP JUMPDEST PUSH1 0x0 PUSH2 0x251A PUSH1 0x16 DUP4 PUSH2 0x2B15 JUMP JUMPDEST SWAP2 POP PUSH2 0x2525 DUP3 PUSH2 0x30E7 JUMP JUMPDEST PUSH1 0x20 DUP3 ADD SWAP1 POP SWAP2 SWAP1 POP JUMP JUMPDEST PUSH1 0x0 PUSH2 0x253D PUSH1 0x13 DUP4 PUSH2 0x2B15 JUMP JUMPDEST SWAP2 POP PUSH2 0x2548 DUP3 PUSH2 0x3110 JUMP JUMPDEST PUSH1 0x20 DUP3 ADD SWAP1 POP SWAP2 SWAP1 POP JUMP JUMPDEST PUSH1 0x0 PUSH2 0x2560 PUSH1 0x1D DUP4 PUSH2 0x2B15 JUMP JUMPDEST SWAP2 POP PUSH2 0x256B DUP3 PUSH2 0x3139 JUMP JUMPDEST PUSH1 0x20 DUP3 ADD SWAP1 POP SWAP2 SWAP1 POP JUMP JUMPDEST PUSH1 0x0 PUSH2 0x2583 PUSH1 0x17 DUP4 PUSH2 0x2B15 JUMP JUMPDEST SWAP2 POP PUSH2 0x258E DUP3 PUSH2 0x3162 JUMP JUMPDEST PUSH1 0x20 DUP3 ADD SWAP1 POP SWAP2 SWAP1 POP JUMP JUMPDEST PUSH1 0x0 PUSH2 0x25A6 PUSH1 0x2A DUP4 PUSH2 0x2B15 JUMP JUMPDEST SWAP2 POP PUSH2 0x25B1 DUP3 PUSH2 0x318B JUMP JUMPDEST PUSH1 0x40 DUP3 ADD SWAP1 POP SWAP2 SWAP1 POP JUMP JUMPDEST PUSH1 0x0 PUSH2 0x25C9 PUSH1 0x1F DUP4 PUSH2 0x2B15 JUMP JUMPDEST SWAP2 POP PUSH2 0x25D4 DUP3 PUSH2 0x31DA JUMP JUMPDEST PUSH1 0x20 DUP3 ADD SWAP1 POP SWAP2 SWAP1 POP JUMP JUMPDEST PUSH2 0x25E8 DUP2 PUSH2 0x2DA7 JUMP JUMPDEST DUP3 MSTORE POP POP JUMP JUMPDEST PUSH2 0x25F7 DUP2 PUSH2 0x2DD5 JUMP JUMPDEST DUP3 MSTORE POP POP JUMP JUMPDEST PUSH2 0x2606 DUP2 PUSH2 0x2DD5 JUMP JUMPDEST DUP3 MSTORE POP POP JUMP JUMPDEST PUSH2 0x2615 DUP2 PUSH2 0x2DDF JUMP JUMPDEST DUP3 MSTORE POP POP JUMP JUMPDEST PUSH2 0x2624 DUP2 PUSH2 0x2DEF JUMP JUMPDEST DUP3 MSTORE POP POP JUMP JUMPDEST PUSH1 0x0 PUSH2 0x2636 DUP3 DUP5 PUSH2 0x237C JUMP JUMPDEST SWAP2 POP DUP2 SWAP1 POP SWAP3 SWAP2 POP POP JUMP JUMPDEST PUSH1 0x0 PUSH1 0x20 DUP3 ADD SWAP1 POP PUSH2 0x2656 PUSH1 0x0 DUP4 ADD DUP5 PUSH2 0x22F1 JUMP JUMPDEST SWAP3 SWAP2 POP POP JUMP JUMPDEST PUSH1 0x0 PUSH1 0x40 DUP3 ADD SWAP1 POP PUSH2 0x2671 PUSH1 0x0 DUP4 ADD DUP6 PUSH2 0x22F1 JUMP JUMPDEST PUSH2 0x267E PUSH1 0x20 DUP4 ADD DUP5 PUSH2 0x22F1 JUMP JUMPDEST SWAP4 SWAP3 POP POP POP JUMP JUMPDEST PUSH1 0x0 PUSH1 0x40 DUP3 ADD SWAP1 POP PUSH2 0x269A PUSH1 0x0 DUP4 ADD DUP6 PUSH2 0x22F1 JUMP JUMPDEST PUSH2 0x26A7 PUSH1 0x20 DUP4 ADD DUP5 PUSH2 0x25FD JUMP JUMPDEST SWAP4 SWAP3 POP POP POP JUMP JUMPDEST PUSH1 0x0 PUSH1 0x60 DUP3 ADD SWAP1 POP PUSH2 0x26C3 PUSH1 0x0 DUP4 ADD DUP7 PUSH2 0x235E JUMP JUMPDEST PUSH2 0x26D0 PUSH1 0x20 DUP4 ADD DUP6 PUSH2 0x235E JUMP JUMPDEST PUSH2 0x26DD PUSH1 0x40 DUP4 ADD DUP5 PUSH2 0x25FD JUMP JUMPDEST SWAP5 SWAP4 POP POP POP POP JUMP JUMPDEST PUSH1 0x0 PUSH1 0x60 DUP3 ADD SWAP1 POP PUSH2 0x26FA PUSH1 0x0 DUP4 ADD DUP7 PUSH2 0x235E JUMP JUMPDEST PUSH2 0x2707 PUSH1 0x20 DUP4 ADD DUP6 PUSH2 0x25FD JUMP JUMPDEST DUP2 DUP2 SUB PUSH1 0x40 DUP4 ADD MSTORE PUSH2 0x2719 DUP2 DUP5 PUSH2 0x2300 JUMP JUMPDEST SWAP1 POP SWAP5 SWAP4 POP POP POP POP JUMP JUMPDEST PUSH1 0x0 PUSH1 0xA0 DUP3 ADD SWAP1 POP PUSH2 0x2738 PUSH1 0x0 DUP4 ADD DUP9 PUSH2 0x236D JUMP JUMPDEST PUSH2 0x2745 PUSH1 0x20 DUP4 ADD DUP8 PUSH2 0x261B JUMP JUMPDEST PUSH2 0x2752 PUSH1 0x40 DUP4 ADD DUP7 PUSH2 0x25DF JUMP JUMPDEST PUSH2 0x275F PUSH1 0x60 DUP4 ADD DUP6 PUSH2 0x260C JUMP JUMPDEST PUSH2 0x276C PUSH1 0x80 DUP4 ADD DUP5 PUSH2 0x260C JUMP JUMPDEST SWAP7 SWAP6 POP POP POP POP POP POP JUMP JUMPDEST PUSH1 0x0 PUSH1 0x20 DUP3 ADD SWAP1 POP PUSH2 0x278B PUSH1 0x0 DUP4 ADD DUP5 PUSH2 0x23AD JUMP JUMPDEST SWAP3 SWAP2 POP POP JUMP JUMPDEST PUSH1 0x0 PUSH1 0x20 DUP3 ADD SWAP1 POP DUP2 DUP2 SUB PUSH1 0x0 DUP4 ADD MSTORE PUSH2 0x27AB DUP2 DUP5 PUSH2 0x23BC JUMP JUMPDEST SWAP1 POP SWAP3 SWAP2 POP POP JUMP JUMPDEST PUSH1 0x0 PUSH1 0x20 DUP3 ADD SWAP1 POP DUP2 DUP2 SUB PUSH1 0x0 DUP4 ADD MSTORE PUSH2 0x27CC DUP2 PUSH2 0x23F5 JUMP JUMPDEST SWAP1 POP SWAP2 SWAP1 POP JUMP JUMPDEST PUSH1 0x0 PUSH1 0x20 DUP3 ADD SWAP1 POP DUP2 DUP2 SUB PUSH1 0x0 DUP4 ADD MSTORE PUSH2 0x27EC DUP2 PUSH2 0x2418 JUMP JUMPDEST SWAP1 POP SWAP2 SWAP1 POP JUMP JUMPDEST PUSH1 0x0 PUSH1 0x20 DUP3 ADD SWAP1 POP DUP2 DUP2 SUB PUSH1 0x0 DUP4 ADD MSTORE PUSH2 0x280C DUP2 PUSH2 0x243B JUMP JUMPDEST SWAP1 POP SWAP2 SWAP1 POP JUMP JUMPDEST PUSH1 0x0 PUSH1 0x20 DUP3 ADD SWAP1 POP DUP2 DUP2 SUB PUSH1 0x0 DUP4 ADD MSTORE PUSH2 0x282C DUP2 PUSH2 0x245E JUMP JUMPDEST SWAP1 POP SWAP2 SWAP1 POP JUMP JUMPDEST PUSH1 0x0 PUSH1 0x20 DUP3 ADD SWAP1 POP DUP2 DUP2 SUB PUSH1 0x0 DUP4 ADD MSTORE PUSH2 0x284C DUP2 PUSH2 0x2481 JUMP JUMPDEST SWAP1 POP SWAP2 SWAP1 POP JUMP JUMPDEST PUSH1 0x0 PUSH1 0x20 DUP3 ADD SWAP1 POP DUP2 DUP2 SUB PUSH1 0x0 DUP4 ADD MSTORE PUSH2 0x286C DUP2 PUSH2 0x24A4 JUMP JUMPDEST SWAP1 POP SWAP2 SWAP1 POP JUMP JUMPDEST PUSH1 0x0 PUSH1 0x20 DUP3 ADD SWAP1 POP DUP2 DUP2 SUB PUSH1 0x0 DUP4 ADD MSTORE PUSH2 0x288C DUP2 PUSH2 0x24C7 JUMP JUMPDEST SWAP1 POP SWAP2 SWAP1 POP JUMP JUMPDEST PUSH1 0x0 PUSH1 0x20 DUP3 ADD SWAP1 POP DUP2 DUP2 SUB PUSH1 0x0 DUP4 ADD MSTORE PUSH2 0x28AC DUP2 PUSH2 0x24EA JUMP JUMPDEST SWAP1 POP SWAP2 SWAP1 POP JUMP JUMPDEST PUSH1 0x0 PUSH1 0x20 DUP3 ADD SWAP1 POP DUP2 DUP2 SUB PUSH1 0x0 DUP4 ADD MSTORE PUSH2 0x28CC DUP2 PUSH2 0x250D JUMP JUMPDEST SWAP1 POP SWAP2 SWAP1 POP JUMP JUMPDEST PUSH1 0x0 PUSH1 0x20 DUP3 ADD SWAP1 POP DUP2 DUP2 SUB PUSH1 0x0 DUP4 ADD MSTORE PUSH2 0x28EC DUP2 PUSH2 0x2530 JUMP JUMPDEST SWAP1 POP SWAP2 SWAP1 POP JUMP JUMPDEST PUSH1 0x0 PUSH1 0x20 DUP3 ADD SWAP1 POP DUP2 DUP2 SUB PUSH1 0x0 DUP4 ADD MSTORE PUSH2 0x290C DUP2 PUSH2 0x2553 JUMP JUMPDEST SWAP1 POP SWAP2 SWAP1 POP JUMP JUMPDEST PUSH1 0x0 PUSH1 0x20 DUP3 ADD SWAP1 POP DUP2 DUP2 SUB PUSH1 0x0 DUP4 ADD MSTORE PUSH2 0x292C DUP2 PUSH2 0x2576 JUMP JUMPDEST SWAP1 POP SWAP2 SWAP1 POP JUMP JUMPDEST PUSH1 0x0 PUSH1 0x20 DUP3 ADD SWAP1 POP DUP2 DUP2 SUB PUSH1 0x0 DUP4 ADD MSTORE PUSH2 0x294C DUP2 PUSH2 0x2599 JUMP JUMPDEST SWAP1 POP SWAP2 SWAP1 POP JUMP JUMPDEST PUSH1 0x0 PUSH1 0x20 DUP3 ADD SWAP1 POP DUP2 DUP2 SUB PUSH1 0x0 DUP4 ADD MSTORE PUSH2 0x296C DUP2 PUSH2 0x25BC JUMP JUMPDEST SWAP1 POP SWAP2 SWAP1 POP JUMP JUMPDEST PUSH1 0x0 PUSH1 0x20 DUP3 ADD SWAP1 POP PUSH2 0x2988 PUSH1 0x0 DUP4 ADD DUP5 PUSH2 0x25FD JUMP JUMPDEST SWAP3 SWAP2 POP POP JUMP JUMPDEST PUSH1 0x0 PUSH1 0xC0 DUP3 ADD SWAP1 POP PUSH2 0x29A3 PUSH1 0x0 DUP4 ADD DUP10 PUSH2 0x25FD JUMP JUMPDEST PUSH2 0x29B0 PUSH1 0x20 DUP4 ADD DUP9 PUSH2 0x25FD JUMP JUMPDEST PUSH2 0x29BD PUSH1 0x40 DUP4 ADD DUP8 PUSH2 0x22E2 JUMP JUMPDEST PUSH2 0x29CA PUSH1 0x60 DUP4 ADD DUP7 PUSH2 0x235E JUMP JUMPDEST PUSH2 0x29D7 PUSH1 0x80 DUP4 ADD DUP6 PUSH2 0x25FD JUMP JUMPDEST PUSH2 0x29E4 PUSH1 0xA0 DUP4 ADD DUP5 PUSH2 0x25FD JUMP JUMPDEST SWAP8 SWAP7 POP POP POP POP POP POP POP JUMP JUMPDEST PUSH1 0x0 PUSH1 0x60 DUP3 ADD SWAP1 POP PUSH2 0x2A04 PUSH1 0x0 DUP4 ADD DUP7 PUSH2 0x25FD JUMP JUMPDEST PUSH2 0x2A11 PUSH1 0x20 DUP4 ADD DUP6 PUSH2 0x25FD JUMP JUMPDEST PUSH2 0x2A1E PUSH1 0x40 DUP4 ADD DUP5 PUSH2 0x25FD JUMP JUMPDEST SWAP5 SWAP4 POP POP POP POP JUMP JUMPDEST PUSH1 0x0 PUSH1 0x40 DUP3 ADD SWAP1 POP PUSH2 0x2A3B PUSH1 0x0 DUP4 ADD DUP6 PUSH2 0x25FD JUMP JUMPDEST PUSH2 0x2A48 PUSH1 0x20 DUP4 ADD DUP5 PUSH2 0x260C JUMP JUMPDEST SWAP4 SWAP3 POP POP POP JUMP JUMPDEST PUSH1 0x0 PUSH1 0x20 DUP3 ADD SWAP1 POP PUSH2 0x2A64 PUSH1 0x0 DUP4 ADD DUP5 PUSH2 0x260C JUMP JUMPDEST SWAP3 SWAP2 POP POP JUMP JUMPDEST PUSH1 0x0 PUSH2 0x2A74 PUSH2 0x2A85 JUMP JUMPDEST SWAP1 POP PUSH2 0x2A80 DUP3 DUP3 PUSH2 0x2E36 JUMP JUMPDEST SWAP2 SWAP1 POP JUMP JUMPDEST PUSH1 0x0 PUSH1 0x40 MLOAD SWAP1 POP SWAP1 JUMP JUMPDEST PUSH1 0x0 PUSH8 0xFFFFFFFFFFFFFFFF DUP3 GT ISZERO PUSH2 0x2AAA JUMPI PUSH2 0x2AA9 PUSH2 0x2F25 JUMP JUMPDEST JUMPDEST PUSH1 0x20 DUP3 MUL SWAP1 POP PUSH1 0x20 DUP2 ADD SWAP1 POP SWAP2 SWAP1 POP JUMP JUMPDEST PUSH1 0x0 DUP2 SWAP1 POP PUSH1 0x20 DUP3 ADD SWAP1 POP SWAP2 SWAP1 POP JUMP JUMPDEST PUSH1 0x0 DUP2 MLOAD SWAP1 POP SWAP2 SWAP1 POP JUMP JUMPDEST PUSH1 0x0 DUP2 MLOAD SWAP1 POP SWAP2 SWAP1 POP JUMP JUMPDEST PUSH1 0x0 DUP2 MLOAD SWAP1 POP SWAP2 SWAP1 POP JUMP JUMPDEST PUSH1 0x0 PUSH1 0x20 DUP3 ADD SWAP1 POP SWAP2 SWAP1 POP JUMP JUMPDEST PUSH1 0x0 DUP3 DUP3 MSTORE PUSH1 0x20 DUP3 ADD SWAP1 POP SWAP3 SWAP2 POP POP JUMP JUMPDEST PUSH1 0x0 DUP2 SWAP1 POP SWAP3 SWAP2 POP POP JUMP JUMPDEST PUSH1 0x0 DUP3 DUP3 MSTORE PUSH1 0x20 DUP3 ADD SWAP1 POP SWAP3 SWAP2 POP POP JUMP JUMPDEST PUSH1 0x0 PUSH2 0x2B31 DUP3 PUSH2 0x2D9D JUMP JUMPDEST SWAP2 POP PUSH2 0x2B3C DUP4 PUSH2 0x2D9D JUMP JUMPDEST SWAP3 POP DUP2 PUSH32 0x7FFFFFFFFFFFFFFFFFFFFFFFFFFFFFFFFFFFFFFFFFFFFFFFFFFFFFFFFFFFFFFF SUB DUP4 SGT PUSH1 0x0 DUP4 SLT ISZERO AND ISZERO PUSH2 0x2B77 JUMPI PUSH2 0x2B76 PUSH2 0x2E98 JUMP JUMPDEST JUMPDEST DUP2 PUSH32 0x8000000000000000000000000000000000000000000000000000000000000000 SUB DUP4 SLT PUSH1 0x0 DUP4 SLT AND ISZERO PUSH2 0x2BAF JUMPI PUSH2 0x2BAE PUSH2 0x2E98 JUMP JUMPDEST JUMPDEST DUP3 DUP3 ADD SWAP1 POP SWAP3 SWAP2 POP POP JUMP JUMPDEST PUSH1 0x0 PUSH2 0x2BC5 DUP3 PUSH2 0x2DD5 JUMP JUMPDEST SWAP2 POP PUSH2 0x2BD0 DUP4 PUSH2 0x2DD5 JUMP JUMPDEST SWAP3 POP DUP3 PUSH32 0xFFFFFFFFFFFFFFFFFFFFFFFFFFFFFFFFFFFFFFFFFFFFFFFFFFFFFFFFFFFFFFFF SUB DUP3 GT ISZERO PUSH2 0x2C05 JUMPI PUSH2 0x2C04 PUSH2 0x2E98 JUMP JUMPDEST JUMPDEST DUP3 DUP3 ADD SWAP1 POP SWAP3 SWAP2 POP POP JUMP JUMPDEST PUSH1 0x0 PUSH2 0x2C1B DUP3 PUSH2 0x2DD5 JUMP JUMPDEST SWAP2 POP PUSH2 0x2C26 DUP4 PUSH2 0x2DD5 JUMP JUMPDEST SWAP3 POP DUP3 PUSH2 0x2C36 JUMPI PUSH2 0x2C35 PUSH2 0x2EC7 JUMP JUMPDEST JUMPDEST DUP3 DUP3 DIV SWAP1 POP SWAP3 SWAP2 POP POP JUMP JUMPDEST PUSH1 0x0 PUSH2 0x2C4C DUP3 PUSH2 0x2DD5 JUMP JUMPDEST SWAP2 POP PUSH2 0x2C57 DUP4 PUSH2 0x2DD5 JUMP JUMPDEST SWAP3 POP DUP2 PUSH32 0xFFFFFFFFFFFFFFFFFFFFFFFFFFFFFFFFFFFFFFFFFFFFFFFFFFFFFFFFFFFFFFFF DIV DUP4 GT DUP3 ISZERO ISZERO AND ISZERO PUSH2 0x2C90 JUMPI PUSH2 0x2C8F PUSH2 0x2E98 JUMP JUMPDEST JUMPDEST DUP3 DUP3 MUL SWAP1 POP SWAP3 SWAP2 POP POP JUMP JUMPDEST PUSH1 0x0 PUSH2 0x2CA6 DUP3 PUSH2 0x2D9D JUMP JUMPDEST SWAP2 POP PUSH2 0x2CB1 DUP4 PUSH2 0x2D9D JUMP JUMPDEST SWAP3 POP DUP3 PUSH32 0x8000000000000000000000000000000000000000000000000000000000000000 ADD DUP3 SLT PUSH1 0x0 DUP5 SLT ISZERO AND ISZERO PUSH2 0x2CEC JUMPI PUSH2 0x2CEB PUSH2 0x2E98 JUMP JUMPDEST JUMPDEST DUP3 PUSH32 0x7FFFFFFFFFFFFFFFFFFFFFFFFFFFFFFFFFFFFFFFFFFFFFFFFFFFFFFFFFFFFFFF ADD DUP3 SGT PUSH1 0x0 DUP5 SLT AND ISZERO PUSH2 0x2D24 JUMPI PUSH2 0x2D23 PUSH2 0x2E98 JUMP JUMPDEST JUMPDEST DUP3 DUP3 SUB SWAP1 POP SWAP3 SWAP2 POP POP JUMP JUMPDEST PUSH1 0x0 PUSH2 0x2D3A DUP3 PUSH2 0x2DD5 JUMP JUMPDEST SWAP2 POP PUSH2 0x2D45 DUP4 PUSH2 0x2DD5 JUMP JUMPDEST SWAP3 POP DUP3 DUP3 LT ISZERO PUSH2 0x2D58 JUMPI PUSH2 0x2D57 PUSH2 0x2E98 JUMP JUMPDEST JUMPDEST DUP3 DUP3 SUB SWAP1 POP SWAP3 SWAP2 POP POP JUMP JUMPDEST PUSH1 0x0 PUSH2 0x2D6E DUP3 PUSH2 0x2DB5 JUMP JUMPDEST SWAP1 POP SWAP2 SWAP1 POP JUMP JUMPDEST PUSH1 0x0 PUSH2 0x2D80 DUP3 PUSH2 0x2DB5 JUMP JUMPDEST SWAP1 POP SWAP2 SWAP1 POP JUMP JUMPDEST PUSH1 0x0 DUP2 ISZERO ISZERO SWAP1 POP SWAP2 SWAP1 POP JUMP JUMPDEST PUSH1 0x0 DUP2 SWAP1 POP SWAP2 SWAP1 POP JUMP JUMPDEST PUSH1 0x0 DUP2 SWAP1 POP SWAP2 SWAP1 POP JUMP JUMPDEST PUSH1 0x0 PUSH2 0xFFFF DUP3 AND SWAP1 POP SWAP2 SWAP1 POP JUMP JUMPDEST PUSH1 0x0 PUSH20 0xFFFFFFFFFFFFFFFFFFFFFFFFFFFFFFFFFFFFFFFF DUP3 AND SWAP1 POP SWAP2 SWAP1 POP JUMP JUMPDEST PUSH1 0x0 DUP2 SWAP1 POP SWAP2 SWAP1 POP JUMP JUMPDEST PUSH1 0x0 PUSH4 0xFFFFFFFF DUP3 AND SWAP1 POP SWAP2 SWAP1 POP JUMP JUMPDEST PUSH1 0x0 PUSH8 0xFFFFFFFFFFFFFFFF DUP3 AND SWAP1 POP SWAP2 SWAP1 POP JUMP JUMPDEST PUSH1 0x0 JUMPDEST DUP4 DUP2 LT ISZERO PUSH2 0x2E21 JUMPI DUP1 DUP3 ADD MLOAD DUP2 DUP5 ADD MSTORE PUSH1 0x20 DUP2 ADD SWAP1 POP PUSH2 0x2E06 JUMP JUMPDEST DUP4 DUP2 GT ISZERO PUSH2 0x2E30 JUMPI PUSH1 0x0 DUP5 DUP5 ADD MSTORE JUMPDEST POP POP POP POP JUMP JUMPDEST PUSH2 0x2E3F DUP3 PUSH2 0x2F68 JUMP JUMPDEST DUP2 ADD DUP2 DUP2 LT PUSH8 0xFFFFFFFFFFFFFFFF DUP3 GT OR ISZERO PUSH2 0x2E5E JUMPI PUSH2 0x2E5D PUSH2 0x2F25 JUMP JUMPDEST JUMPDEST DUP1 PUSH1 0x40 MSTORE POP POP POP JUMP JUMPDEST PUSH1 0x0 PUSH2 0x2E72 DUP3 PUSH2 0x2DD5 JUMP JUMPDEST SWAP2 POP PUSH2 0x2E7D DUP4 PUSH2 0x2DD5 JUMP JUMPDEST SWAP3 POP DUP3 PUSH2 0x2E8D JUMPI PUSH2 0x2E8C PUSH2 0x2EC7 JUMP JUMPDEST JUMPDEST DUP3 DUP3 MOD SWAP1 POP SWAP3 SWAP2 POP POP JUMP JUMPDEST PUSH32 0x4E487B7100000000000000000000000000000000000000000000000000000000 PUSH1 0x0 MSTORE PUSH1 0x11 PUSH1 0x4 MSTORE PUSH1 0x24 PUSH1 0x0 REVERT JUMPDEST PUSH32 0x4E487B7100000000000000000000000000000000000000000000000000000000 PUSH1 0x0 MSTORE PUSH1 0x12 PUSH1 0x4 MSTORE PUSH1 0x24 PUSH1 0x0 REVERT JUMPDEST PUSH32 0x4E487B7100000000000000000000000000000000000000000000000000000000 PUSH1 0x0 MSTORE PUSH1 0x32 PUSH1 0x4 MSTORE PUSH1 0x24 PUSH1 0x0 REVERT JUMPDEST PUSH32 0x4E487B7100000000000000000000000000000000000000000000000000000000 PUSH1 0x0 MSTORE PUSH1 0x41 PUSH1 0x4 MSTORE PUSH1 0x24 PUSH1 0x0 REVERT JUMPDEST PUSH1 0x0 DUP1 REVERT JUMPDEST PUSH1 0x0 DUP1 REVERT JUMPDEST PUSH1 0x0 DUP1 REVERT JUMPDEST PUSH1 0x0 DUP1 REVERT JUMPDEST PUSH1 0x0 PUSH1 0x1F NOT PUSH1 0x1F DUP4 ADD AND SWAP1 POP SWAP2 SWAP1 POP JUMP JUMPDEST PUSH32 0x72657175657374206E6F7420666F756E64000000000000000000000000000000 PUSH1 0x0 DUP3 ADD MSTORE POP JUMP JUMPDEST PUSH32 0x4D7573742062652070726F706F736564206F776E657200000000000000000000 PUSH1 0x0 DUP3 ADD MSTORE POP JUMP JUMPDEST PUSH32 0x42657420646F6573206E6F742065786973740000000000000000000000000000 PUSH1 0x0 DUP3 ADD MSTORE POP JUMP JUMPDEST PUSH32 0x4F6E6C792063616C6C61626C65206279206F776E657200000000000000000000 PUSH1 0x0 DUP3 ADD MSTORE POP JUMP JUMPDEST PUSH32 0x416464726573733A20696E73756666696369656E742062616C616E636520666F PUSH1 0x0 DUP3 ADD MSTORE PUSH32 0x722063616C6C0000000000000000000000000000000000000000000000000000 PUSH1 0x20 DUP3 ADD MSTORE POP JUMP JUMPDEST PUSH32 0x496E73756666696369656E742066756E64730000000000000000000000000000 PUSH1 0x0 DUP3 ADD MSTORE POP JUMP JUMPDEST PUSH32 0x5769746864726177616C2065786365656473206C696D69740000000000000000 PUSH1 0x0 DUP3 ADD MSTORE POP JUMP JUMPDEST PUSH32 0x57616974206265666F72652072657175657374696E6720726566756E64000000 PUSH1 0x0 DUP3 ADD MSTORE POP JUMP JUMPDEST PUSH32 0x42657420697320736574746C656420616C726561647900000000000000000000 PUSH1 0x0 DUP3 ADD MSTORE POP JUMP JUMPDEST PUSH32 0x6D617850726F6669742076696F6C6174696F6E00000000000000000000000000 PUSH1 0x0 DUP3 ADD MSTORE POP JUMP JUMPDEST PUSH32 0x416464726573733A2063616C6C20746F206E6F6E2D636F6E7472616374000000 PUSH1 0x0 DUP3 ADD MSTORE POP JUMP JUMPDEST PUSH32 0x43616E6E6F74207472616E7366657220746F2073656C66000000000000000000 PUSH1 0x0 DUP3 ADD MSTORE POP JUMP JUMPDEST PUSH32 0x5361666545524332303A204552433230206F7065726174696F6E20646964206E PUSH1 0x0 DUP3 ADD MSTORE PUSH32 0x6F74207375636365656400000000000000000000000000000000000000000000 PUSH1 0x20 DUP3 ADD MSTORE POP JUMP JUMPDEST PUSH32 0x5265656E7472616E637947756172643A207265656E7472616E742063616C6C00 PUSH1 0x0 DUP3 ADD MSTORE POP JUMP JUMPDEST PUSH2 0x320C DUP2 PUSH2 0x2D63 JUMP JUMPDEST DUP2 EQ PUSH2 0x3217 JUMPI PUSH1 0x0 DUP1 REVERT JUMPDEST POP JUMP JUMPDEST PUSH2 0x3223 DUP2 PUSH2 0x2D75 JUMP JUMPDEST DUP2 EQ PUSH2 0x322E JUMPI PUSH1 0x0 DUP1 REVERT JUMPDEST POP JUMP JUMPDEST PUSH2 0x323A DUP2 PUSH2 0x2D87 JUMP JUMPDEST DUP2 EQ PUSH2 0x3245 JUMPI PUSH1 0x0 DUP1 REVERT JUMPDEST POP JUMP JUMPDEST PUSH2 0x3251 DUP2 PUSH2 0x2DD5 JUMP JUMPDEST DUP2 EQ PUSH2 0x325C JUMPI PUSH1 0x0 DUP1 REVERT JUMPDEST POP JUMP JUMPDEST PUSH2 0x3268 DUP2 PUSH2 0x2DDF JUMP JUMPDEST DUP2 EQ PUSH2 0x3273 JUMPI PUSH1 0x0 DUP1 REVERT JUMPDEST POP JUMP INVALID LOG2 PUSH5 0x6970667358 0x22 SLT KECCAK256 0x2F CALLCODE SWAP14 0xC5 PUSH20 0x79CDC643E7747DC235A7A765F237952F5516ECA1 0xA9 POP 0xDF 0x2B LOG0 GT 0xD2 PUSH5 0x736F6C6343 STOP ADDMOD SMOD STOP CALLER "
		},
		"gasEstimates": {
			"creation": {
				"codeDepositCost": "2594400",
				"executionCost": "infinite",
				"totalCost": "infinite"
			},
			"external": {
				"": "220",
				"acceptOwnership()": "54608",
				"balance()": "406",
				"balanceMaxProfitRatio()": "2519",
				"balanceToken(address)": "infinite",
				"betMap(uint256)": "infinite",
				"bets(uint256)": "infinite",
				"betsLength()": "2534",
				"callbackGasLimit()": "2539",
				"getRequestStatus(uint256)": "infinite",
				"houseEdgeBP()": "2541",
				"houseProfit()": "2518",
				"lockedInBets()": "2518",
				"maxBetAmount()": "2474",
				"maxProfit()": "infinite",
				"minBetAmount()": "2561",
				"owner()": "2568",
				"placeBet()": "infinite",
				"rawFulfillRandomWords(uint256,uint256[])": "infinite",
				"refundBet(uint256)": "infinite",
				"requestIds(uint256)": "infinite",
				"requestRandomWords()": "infinite",
				"s_requests(uint256)": "infinite",
				"setBalanceMaxProfitRatio(uint256)": "24823",
				"setCallbackGasLimit(uint32)": "26960",
				"setHouseEdgeBP(uint256)": "24756",
				"setMaxBetAmount(uint256)": "24801",
				"setMinBetAmount(uint256)": "24757",
				"setwaitBlockRequest(uint256)": "24799",
				"transferOwnership(address)": "30723",
				"waitBlockRequest()": "2474",
				"withdrawFunds(address,uint256)": "infinite",
				"withdrawToken(address)": "infinite",
				"zSelfDestruct()": "30025"
			},
			"internal": {
				"fulfillRandomWords(uint256,uint256[] memory)": "infinite",
				"getWinAmount(uint256)": "infinite",
				"settleBet(uint256,uint256)": "infinite"
			}
		},
		"methodIdentifiers": {
			"acceptOwnership()": "79ba5097",
			"balance()": "b69ef8a8",
			"balanceMaxProfitRatio()": "27b54889",
			"balanceToken(address)": "04599012",
			"betMap(uint256)": "05b25980",
			"bets(uint256)": "22af00fa",
			"betsLength()": "bbd2e01e",
			"callbackGasLimit()": "24f74697",
			"getRequestStatus(uint256)": "d8a4676f",
			"houseEdgeBP()": "7d14bca5",
			"houseProfit()": "88fedd04",
			"lockedInBets()": "df88126f",
			"maxBetAmount()": "cab11d5d",
			"maxProfit()": "b539cd55",
			"minBetAmount()": "fa968eea",
			"owner()": "8da5cb5b",
			"placeBet()": "f90f4560",
			"rawFulfillRandomWords(uint256,uint256[])": "1fe543e3",
			"refundBet(uint256)": "e1fdb4b4",
			"requestIds(uint256)": "8796ba8c",
			"requestRandomWords()": "e0c86289",
			"s_requests(uint256)": "a168fa89",
			"setBalanceMaxProfitRatio(uint256)": "5d1837b8",
			"setCallbackGasLimit(uint32)": "a4eb718c",
			"setHouseEdgeBP(uint256)": "b68eee2a",
			"setMaxBetAmount(uint256)": "7cfbc7a5",
			"setMinBetAmount(uint256)": "6c188593",
			"setwaitBlockRequest(uint256)": "f5008324",
			"transferOwnership(address)": "f2fde38b",
			"waitBlockRequest()": "81d76905",
			"withdrawFunds(address,uint256)": "c1075329",
			"withdrawToken(address)": "89476069",
			"zSelfDestruct()": "162595ff"
		}
	},
	"abi": [
		{
			"inputs": [],
			"stateMutability": "payable",
			"type": "constructor"
		},
		{
			"inputs": [
				{
					"internalType": "address",
					"name": "have",
					"type": "address"
				},
				{
					"internalType": "address",
					"name": "want",
					"type": "address"
				}
			],
			"name": "OnlyCoordinatorCanFulfill",
			"type": "error"
		},
		{
			"anonymous": false,
			"inputs": [
				{
					"indexed": true,
					"internalType": "uint256",
					"name": "betId",
					"type": "uint256"
				},
				{
					"indexed": true,
					"internalType": "address",
					"name": "gambler",
					"type": "address"
				},
				{
					"indexed": false,
					"internalType": "uint256",
					"name": "amount",
					"type": "uint256"
				}
			],
			"name": "BetPlaced",
			"type": "event"
		},
		{
			"anonymous": false,
			"inputs": [
				{
					"indexed": true,
					"internalType": "uint256",
					"name": "betId",
					"type": "uint256"
				},
				{
					"indexed": true,
					"internalType": "address",
					"name": "gambler",
					"type": "address"
				},
				{
					"indexed": false,
					"internalType": "uint256",
					"name": "amount",
					"type": "uint256"
				}
			],
			"name": "BetRefunded",
			"type": "event"
		},
		{
			"anonymous": false,
			"inputs": [
				{
					"indexed": true,
					"internalType": "uint256",
					"name": "betId",
					"type": "uint256"
				},
				{
					"indexed": true,
					"internalType": "address",
					"name": "gambler",
					"type": "address"
				},
				{
					"indexed": false,
					"internalType": "uint256",
					"name": "amount",
					"type": "uint256"
				},
				{
					"indexed": false,
					"internalType": "uint256",
					"name": "outcome",
					"type": "uint256"
				},
				{
					"indexed": false,
					"internalType": "uint256",
					"name": "winAmount",
					"type": "uint256"
				}
			],
			"name": "BetSettled",
			"type": "event"
		},
		{
			"anonymous": false,
			"inputs": [
				{
					"indexed": true,
					"internalType": "address",
					"name": "from",
					"type": "address"
				},
				{
					"indexed": true,
					"internalType": "address",
					"name": "to",
					"type": "address"
				}
			],
			"name": "OwnershipTransferRequested",
			"type": "event"
		},
		{
			"anonymous": false,
			"inputs": [
				{
					"indexed": true,
					"internalType": "address",
					"name": "from",
					"type": "address"
				},
				{
					"indexed": true,
					"internalType": "address",
					"name": "to",
					"type": "address"
				}
			],
			"name": "OwnershipTransferred",
			"type": "event"
		},
		{
			"anonymous": false,
			"inputs": [
				{
					"indexed": false,
					"internalType": "uint256",
					"name": "requestId",
					"type": "uint256"
				},
				{
					"indexed": false,
					"internalType": "uint256[]",
					"name": "randomWords",
					"type": "uint256[]"
				}
			],
			"name": "RequestFulfilled",
			"type": "event"
		},
		{
			"anonymous": false,
			"inputs": [
				{
					"indexed": false,
					"internalType": "uint256",
					"name": "requestId",
					"type": "uint256"
				},
				{
					"indexed": false,
					"internalType": "uint32",
					"name": "numWords",
					"type": "uint32"
				}
			],
			"name": "RequestSent",
			"type": "event"
		},
		{
			"stateMutability": "payable",
			"type": "fallback"
		},
		{
			"inputs": [],
			"name": "acceptOwnership",
			"outputs": [],
			"stateMutability": "nonpayable",
			"type": "function"
		},
		{
			"inputs": [],
			"name": "balance",
			"outputs": [
				{
					"internalType": "uint256",
					"name": "",
					"type": "uint256"
				}
			],
			"stateMutability": "view",
			"type": "function"
		},
		{
			"inputs": [],
			"name": "balanceMaxProfitRatio",
			"outputs": [
				{
					"internalType": "uint256",
					"name": "",
					"type": "uint256"
				}
			],
			"stateMutability": "view",
			"type": "function"
		},
		{
			"inputs": [
				{
					"internalType": "address",
					"name": "_token",
					"type": "address"
				}
			],
			"name": "balanceToken",
			"outputs": [
				{
					"internalType": "uint256",
					"name": "",
					"type": "uint256"
				}
			],
			"stateMutability": "view",
			"type": "function"
		},
		{
			"inputs": [
				{
					"internalType": "uint256",
					"name": "",
					"type": "uint256"
				}
			],
			"name": "betMap",
			"outputs": [
				{
					"internalType": "uint256",
					"name": "",
					"type": "uint256"
				}
			],
			"stateMutability": "view",
			"type": "function"
		},
		{
			"inputs": [
				{
					"internalType": "uint256",
					"name": "",
					"type": "uint256"
				}
			],
			"name": "bets",
			"outputs": [
				{
					"internalType": "uint256",
					"name": "amount",
					"type": "uint256"
				},
				{
					"internalType": "uint256",
					"name": "placeBlockNumber",
					"type": "uint256"
				},
				{
					"internalType": "address payable",
					"name": "gambler",
					"type": "address"
				},
				{
					"internalType": "bool",
					"name": "isSettled",
					"type": "bool"
				},
				{
					"internalType": "uint256",
					"name": "outcome",
					"type": "uint256"
				},
				{
					"internalType": "uint256",
					"name": "winAmount",
					"type": "uint256"
				}
			],
			"stateMutability": "view",
			"type": "function"
		},
		{
			"inputs": [],
			"name": "betsLength",
			"outputs": [
				{
					"internalType": "uint256",
					"name": "",
					"type": "uint256"
				}
			],
			"stateMutability": "view",
			"type": "function"
		},
		{
			"inputs": [],
			"name": "callbackGasLimit",
			"outputs": [
				{
					"internalType": "uint32",
					"name": "",
					"type": "uint32"
				}
			],
			"stateMutability": "view",
			"type": "function"
		},
		{
			"inputs": [
				{
					"internalType": "uint256",
					"name": "_requestId",
					"type": "uint256"
				}
			],
			"name": "getRequestStatus",
			"outputs": [
				{
					"internalType": "bool",
					"name": "fulfilled",
					"type": "bool"
				},
				{
					"internalType": "uint256",
					"name": "randomness",
					"type": "uint256"
				},
				{
					"internalType": "uint256[]",
					"name": "randomWords",
					"type": "uint256[]"
				}
			],
			"stateMutability": "view",
			"type": "function"
		},
		{
			"inputs": [],
			"name": "houseEdgeBP",
			"outputs": [
				{
					"internalType": "uint256",
					"name": "",
					"type": "uint256"
				}
			],
			"stateMutability": "view",
			"type": "function"
		},
		{
			"inputs": [],
			"name": "houseProfit",
			"outputs": [
				{
					"internalType": "int256",
					"name": "",
					"type": "int256"
				}
			],
			"stateMutability": "view",
			"type": "function"
		},
		{
			"inputs": [],
			"name": "lockedInBets",
			"outputs": [
				{
					"internalType": "uint256",
					"name": "",
					"type": "uint256"
				}
			],
			"stateMutability": "view",
			"type": "function"
		},
		{
			"inputs": [],
			"name": "maxBetAmount",
			"outputs": [
				{
					"internalType": "uint256",
					"name": "",
					"type": "uint256"
				}
			],
			"stateMutability": "view",
			"type": "function"
		},
		{
			"inputs": [],
			"name": "maxProfit",
			"outputs": [
				{
					"internalType": "uint256",
					"name": "",
					"type": "uint256"
				}
			],
			"stateMutability": "view",
			"type": "function"
		},
		{
			"inputs": [],
			"name": "minBetAmount",
			"outputs": [
				{
					"internalType": "uint256",
					"name": "",
					"type": "uint256"
				}
			],
			"stateMutability": "view",
			"type": "function"
		},
		{
			"inputs": [],
			"name": "owner",
			"outputs": [
				{
					"internalType": "address",
					"name": "",
					"type": "address"
				}
			],
			"stateMutability": "view",
			"type": "function"
		},
		{
			"inputs": [],
			"name": "placeBet",
			"outputs": [],
			"stateMutability": "payable",
			"type": "function"
		},
		{
			"inputs": [
				{
					"internalType": "uint256",
					"name": "requestId",
					"type": "uint256"
				},
				{
					"internalType": "uint256[]",
					"name": "randomWords",
					"type": "uint256[]"
				}
			],
			"name": "rawFulfillRandomWords",
			"outputs": [],
			"stateMutability": "nonpayable",
			"type": "function"
		},
		{
			"inputs": [
				{
					"internalType": "uint256",
					"name": "betId",
					"type": "uint256"
				}
			],
			"name": "refundBet",
			"outputs": [],
			"stateMutability": "nonpayable",
			"type": "function"
		},
		{
			"inputs": [
				{
					"internalType": "uint256",
					"name": "",
					"type": "uint256"
				}
			],
			"name": "requestIds",
			"outputs": [
				{
					"internalType": "uint256",
					"name": "",
					"type": "uint256"
				}
			],
			"stateMutability": "view",
			"type": "function"
		},
		{
			"inputs": [],
			"name": "requestRandomWords",
			"outputs": [
				{
					"internalType": "uint256",
					"name": "requestId",
					"type": "uint256"
				}
			],
			"stateMutability": "nonpayable",
			"type": "function"
		},
		{
			"inputs": [
				{
					"internalType": "uint256",
					"name": "",
					"type": "uint256"
				}
			],
			"name": "s_requests",
			"outputs": [
				{
					"internalType": "bool",
					"name": "fulfilled",
					"type": "bool"
				},
				{
					"internalType": "bool",
					"name": "exists",
					"type": "bool"
				},
				{
					"internalType": "uint256",
					"name": "randomness",
					"type": "uint256"
				}
			],
			"stateMutability": "view",
			"type": "function"
		},
		{
			"inputs": [
				{
					"internalType": "uint256",
					"name": "_balanceMaxProfitRatio",
					"type": "uint256"
				}
			],
			"name": "setBalanceMaxProfitRatio",
			"outputs": [],
			"stateMutability": "nonpayable",
			"type": "function"
		},
		{
			"inputs": [
				{
					"internalType": "uint32",
					"name": "_callbackGasLimit",
					"type": "uint32"
				}
			],
			"name": "setCallbackGasLimit",
			"outputs": [],
			"stateMutability": "nonpayable",
			"type": "function"
		},
		{
			"inputs": [
				{
					"internalType": "uint256",
					"name": "_houseEdgeBP",
					"type": "uint256"
				}
			],
			"name": "setHouseEdgeBP",
			"outputs": [],
			"stateMutability": "nonpayable",
			"type": "function"
		},
		{
			"inputs": [
				{
					"internalType": "uint256",
					"name": "_maxBetAmount",
					"type": "uint256"
				}
			],
			"name": "setMaxBetAmount",
			"outputs": [],
			"stateMutability": "nonpayable",
			"type": "function"
		},
		{
			"inputs": [
				{
					"internalType": "uint256",
					"name": "_minBetAmount",
					"type": "uint256"
				}
			],
			"name": "setMinBetAmount",
			"outputs": [],
			"stateMutability": "nonpayable",
			"type": "function"
		},
		{
			"inputs": [
				{
					"internalType": "uint256",
					"name": "_waitBlockRequest",
					"type": "uint256"
				}
			],
			"name": "setwaitBlockRequest",
			"outputs": [],
			"stateMutability": "nonpayable",
			"type": "function"
		},
		{
			"inputs": [
				{
					"internalType": "address",
					"name": "to",
					"type": "address"
				}
			],
			"name": "transferOwnership",
			"outputs": [],
			"stateMutability": "nonpayable",
			"type": "function"
		},
		{
			"inputs": [],
			"name": "waitBlockRequest",
			"outputs": [
				{
					"internalType": "uint256",
					"name": "",
					"type": "uint256"
				}
			],
			"stateMutability": "view",
			"type": "function"
		},
		{
			"inputs": [
				{
					"internalType": "address payable",
					"name": "beneficiary",
					"type": "address"
				},
				{
					"internalType": "uint256",
					"name": "withdrawAmount",
					"type": "uint256"
				}
			],
			"name": "withdrawFunds",
			"outputs": [],
			"stateMutability": "nonpayable",
			"type": "function"
		},
		{
			"inputs": [
				{
					"internalType": "address",
					"name": "_token",
					"type": "address"
				}
			],
			"name": "withdrawToken",
			"outputs": [],
			"stateMutability": "nonpayable",
			"type": "function"
		},
		{
			"inputs": [],
			"name": "zSelfDestruct",
			"outputs": [],
			"stateMutability": "nonpayable",
			"type": "function"
		},
		{
			"stateMutability": "payable",
			"type": "receive"
		}
	]
}